{
  "contractName": "Document",
  "abi": [
    {
      "inputs": [
        {
          "internalType": "address",
          "name": "_profileAddress",
          "type": "address"
        }
      ],
      "stateMutability": "nonpayable",
      "type": "constructor"
    },
    {
      "anonymous": false,
      "inputs": [
        {
          "indexed": true,
          "internalType": "uint256",
          "name": "documentId",
          "type": "uint256"
        },
        {
          "indexed": false,
          "internalType": "string",
          "name": "documentName",
          "type": "string"
        },
        {
          "indexed": true,
          "internalType": "uint256",
          "name": "accountId",
          "type": "uint256"
        },
        {
          "indexed": false,
          "internalType": "address",
          "name": "accountAddress",
          "type": "address"
        },
        {
          "indexed": false,
          "internalType": "uint256",
          "name": "documentStatus",
          "type": "uint256"
        },
        {
          "indexed": false,
          "internalType": "string",
          "name": "hashContent",
          "type": "string"
        }
      ],
      "name": "AddDocument",
      "type": "event"
    },
    {
      "anonymous": false,
      "inputs": [
        {
          "indexed": true,
          "internalType": "uint256",
          "name": "accountId",
          "type": "uint256"
        },
        {
          "indexed": false,
          "internalType": "address",
          "name": "accountAddress",
          "type": "address"
        },
        {
          "indexed": true,
          "internalType": "uint256",
          "name": "documentId",
          "type": "uint256"
        },
        {
          "indexed": false,
          "internalType": "uint256",
          "name": "documentStatus",
          "type": "uint256"
        }
      ],
      "name": "VerifyDocument",
      "type": "event"
    },
    {
      "inputs": [
        {
          "internalType": "uint256",
          "name": "",
          "type": "uint256"
        },
        {
          "internalType": "uint256",
          "name": "",
          "type": "uint256"
        }
      ],
      "name": "documentsByAccId",
      "outputs": [
        {
          "internalType": "uint256",
          "name": "documentId",
          "type": "uint256"
        },
        {
          "internalType": "string",
          "name": "documentName",
          "type": "string"
        },
        {
          "internalType": "uint256",
          "name": "accountId",
          "type": "uint256"
        },
        {
          "internalType": "address",
          "name": "accountAddress",
          "type": "address"
        },
        {
          "internalType": "enum Document.DocumentStatus",
          "name": "documentStatus",
          "type": "uint8"
        },
        {
          "internalType": "string",
          "name": "hashContent",
          "type": "string"
        }
      ],
      "stateMutability": "view",
      "type": "function",
      "constant": true
    },
    {
      "inputs": [],
      "name": "lastDocIndex",
      "outputs": [
        {
          "internalType": "uint256",
          "name": "",
          "type": "uint256"
        }
      ],
      "stateMutability": "view",
      "type": "function",
      "constant": true
    },
    {
      "inputs": [],
      "name": "regulatorAddress",
      "outputs": [
        {
          "internalType": "address",
          "name": "",
          "type": "address"
        }
      ],
      "stateMutability": "view",
      "type": "function",
      "constant": true
    },
    {
      "inputs": [
        {
          "internalType": "uint256",
          "name": "_accountId",
          "type": "uint256"
        },
        {
          "internalType": "string",
          "name": "_documentName",
          "type": "string"
        },
        {
          "internalType": "string",
          "name": "_hashContent",
          "type": "string"
        }
      ],
      "name": "addDocument",
      "outputs": [],
      "stateMutability": "nonpayable",
      "type": "function"
    },
    {
      "inputs": [
        {
          "internalType": "uint256",
          "name": "_accountId",
          "type": "uint256"
        },
        {
          "internalType": "uint256",
          "name": "_documentId",
          "type": "uint256"
        },
        {
          "internalType": "uint256",
          "name": "_documentStatusValue",
          "type": "uint256"
        }
      ],
      "name": "verifydocument",
      "outputs": [],
      "stateMutability": "nonpayable",
      "type": "function"
    }
  ],
  "bytecode": "0x60806040523480156200001157600080fd5b50604051620014403803806200144083398181016040528101906200003791906200017f565b806000806101000a81548173ffffffffffffffffffffffffffffffffffffffff021916908373ffffffffffffffffffffffffffffffffffffffff160217905550600060028190555060008054906101000a900473ffffffffffffffffffffffffffffffffffffffff1673ffffffffffffffffffffffffffffffffffffffff16630fc77be96040518163ffffffff1660e01b815260040160206040518083038186803b158015620000e657600080fd5b505afa158015620000fb573d6000803e3d6000fd5b505050506040513d601f19601f820116820180604052508101906200012191906200017f565b600160006101000a81548173ffffffffffffffffffffffffffffffffffffffff021916908373ffffffffffffffffffffffffffffffffffffffff1602179055505062000204565b6000815190506200017981620001ea565b92915050565b600060208284031215620001985762000197620001e5565b5b6000620001a88482850162000168565b91505092915050565b6000620001be82620001c5565b9050919050565b600073ffffffffffffffffffffffffffffffffffffffff82169050919050565b600080fd5b620001f581620001b1565b81146200020157600080fd5b50565b61122c80620002146000396000f3fe608060405234801561001057600080fd5b50600436106100575760003560e01c80633826b1ea1461005c57806342a329881461007a57806344c82328146100af57806383c0c883146100cb578063c87a5588146100e7575b600080fd5b610064610105565b6040516100719190610c05565b60405180910390f35b610094600480360381019061008f9190610a80565b61012b565b6040516100a696959493929190610d37565b60405180910390f35b6100c960048036038101906100c49190610ac0565b6102c1565b005b6100e560048036038101906100e091906109f5565b610557565b005b6100ef610885565b6040516100fc9190610d1c565b60405180910390f35b600160009054906101000a900473ffffffffffffffffffffffffffffffffffffffff1681565b6003602052816000526040600020818154811061014757600080fd5b90600052602060002090600502016000915091505080600001549080600101805461017190610f51565b80601f016020809104026020016040519081016040528092919081815260200182805461019d90610f51565b80156101ea5780601f106101bf576101008083540402835291602001916101ea565b820191906000526020600020905b8154815290600101906020018083116101cd57829003601f168201915b5050505050908060020154908060030160009054906101000a900473ffffffffffffffffffffffffffffffffffffffff16908060030160149054906101000a900460ff169080600401805461023e90610f51565b80601f016020809104026020016040519081016040528092919081815260200182805461026a90610f51565b80156102b75780601f1061028c576101008083540402835291602001916102b7565b820191906000526020600020905b81548152906001019060200180831161029a57829003601f168201915b5050505050905086565b600160009054906101000a900473ffffffffffffffffffffffffffffffffffffffff1673ffffffffffffffffffffffffffffffffffffffff163373ffffffffffffffffffffffffffffffffffffffff1614610351576040517f08c379a000000000000000000000000000000000000000000000000000000000815260040161034890610cdc565b60405180910390fd5b600082118015610377575060036000848152602001908152602001600020805490508211155b6103b6576040517f08c379a00000000000000000000000000000000000000000000000000000000081526004016103ad90610c9c565b60405180910390fd5b8060028111156103c9576103c8610fe3565b5b600360008581526020019081526020016000206001846103e99190610e6e565b815481106103fa576103f9611041565b5b906000526020600020906005020160030160146101000a81548160ff0219169083600281111561042d5761042c610fe3565b5b0217905550600360008481526020019081526020016000206001836104529190610e6e565b8154811061046357610462611041565b5b906000526020600020906005020160000154600360008581526020019081526020016000206001846104959190610e6e565b815481106104a6576104a5611041565b5b9060005260206000209060050201600201547fbe955836a41ce8cbd148fb335e262af396959cefb45041b781ebdc70249ba28f33600360008881526020019081526020016000206001876104fa9190610e6e565b8154811061050b5761050a611041565b5b906000526020600020906005020160030160149054906101000a900460ff16600281111561053c5761053b610fe3565b5b60405161054a929190610c20565b60405180910390a3505050565b826001151560008054906101000a900473ffffffffffffffffffffffffffffffffffffffff1673ffffffffffffffffffffffffffffffffffffffff16630f7ddccf33846040518363ffffffff1660e01b81526004016105b7929190610c20565b60206040518083038186803b1580156105cf57600080fd5b505afa1580156105e3573d6000803e3d6000fd5b505050506040513d601f19601f8201168201806040525081019061060791906109c8565b151514610649576040517f08c379a000000000000000000000000000000000000000000000000000000000815260040161064090610cbc565b60405180910390fd5b60008351141561068e576040517f08c379a000000000000000000000000000000000000000000000000000000000815260040161068590610cfc565b60405180910390fd5b6000600160025461069f9190610e18565b905060006040518060c001604052808381526020018681526020018781526020013373ffffffffffffffffffffffffffffffffffffffff168152602001600060028111156106f0576106ef610fe3565b5b81526020018581525090506003600087815260200190815260200160002081908060018154018082558091505060019003906000526020600020906005020160009091909190915060008201518160000155602082015181600101908051906020019061075e92919061088b565b506040820151816002015560608201518160030160006101000a81548173ffffffffffffffffffffffffffffffffffffffff021916908373ffffffffffffffffffffffffffffffffffffffff16021790555060808201518160030160146101000a81548160ff021916908360028111156107db576107da610fe3565b5b021790555060a08201518160040190805190602001906107fc92919061088b565b505050600160025461080e9190610e18565b600281905550806040015181600001517fc7dadd6619594f68fd61ebcf98a6598a3bd86f8274f8a5a94d16216f49f6a6a883602001518460600151856080015160028111156108605761085f610fe3565b5b8660a001516040516108759493929190610c49565b60405180910390a3505050505050565b60025481565b82805461089790610f51565b90600052602060002090601f0160209004810192826108b95760008555610900565b82601f106108d257805160ff1916838001178555610900565b82800160010185558215610900579182015b828111156108ff5782518255916020019190600101906108e4565b5b50905061090d9190610911565b5090565b5b8082111561092a576000816000905550600101610912565b5090565b600061094161093c84610dcb565b610da6565b90508281526020810184848401111561095d5761095c6110a4565b5b610968848285610f0f565b509392505050565b60008151905061097f816111c8565b92915050565b600082601f83011261099a5761099961109f565b5b81356109aa84826020860161092e565b91505092915050565b6000813590506109c2816111df565b92915050565b6000602082840312156109de576109dd6110ae565b5b60006109ec84828501610970565b91505092915050565b600080600060608486031215610a0e57610a0d6110ae565b5b6000610a1c868287016109b3565b935050602084013567ffffffffffffffff811115610a3d57610a3c6110a9565b5b610a4986828701610985565b925050604084013567ffffffffffffffff811115610a6a57610a696110a9565b5b610a7686828701610985565b9150509250925092565b60008060408385031215610a9757610a966110ae565b5b6000610aa5858286016109b3565b9250506020610ab6858286016109b3565b9150509250929050565b600080600060608486031215610ad957610ad86110ae565b5b6000610ae7868287016109b3565b9350506020610af8868287016109b3565b9250506040610b09868287016109b3565b9150509250925092565b610b1c81610ea2565b82525050565b610b2b81610efd565b82525050565b6000610b3c82610dfc565b610b468185610e07565b9350610b56818560208601610f1e565b610b5f816110b3565b840191505092915050565b6000610b77601983610e07565b9150610b82826110c4565b602082019050919050565b6000610b9a603083610e07565b9150610ba5826110ed565b604082019050919050565b6000610bbd603483610e07565b9150610bc88261113c565b604082019050919050565b6000610be0601d83610e07565b9150610beb8261118b565b602082019050919050565b610bff81610ef3565b82525050565b6000602082019050610c1a6000830184610b13565b92915050565b6000604082019050610c356000830185610b13565b610c426020830184610bf6565b9392505050565b60006080820190508181036000830152610c638187610b31565b9050610c726020830186610b13565b610c7f6040830185610bf6565b8181036060830152610c918184610b31565b905095945050505050565b60006020820190508181036000830152610cb581610b6a565b9050919050565b60006020820190508181036000830152610cd581610b8d565b9050919050565b60006020820190508181036000830152610cf581610bb0565b9050919050565b60006020820190508181036000830152610d1581610bd3565b9050919050565b6000602082019050610d316000830184610bf6565b92915050565b600060c082019050610d4c6000830189610bf6565b8181036020830152610d5e8188610b31565b9050610d6d6040830187610bf6565b610d7a6060830186610b13565b610d876080830185610b22565b81810360a0830152610d998184610b31565b9050979650505050505050565b6000610db0610dc1565b9050610dbc8282610f83565b919050565b6000604051905090565b600067ffffffffffffffff821115610de657610de5611070565b5b610def826110b3565b9050602081019050919050565b600081519050919050565b600082825260208201905092915050565b6000610e2382610ef3565b9150610e2e83610ef3565b9250827fffffffffffffffffffffffffffffffffffffffffffffffffffffffffffffffff03821115610e6357610e62610fb4565b5b828201905092915050565b6000610e7982610ef3565b9150610e8483610ef3565b925082821015610e9757610e96610fb4565b5b828203905092915050565b6000610ead82610ed3565b9050919050565b60008115159050919050565b6000819050610ece826111b4565b919050565b600073ffffffffffffffffffffffffffffffffffffffff82169050919050565b6000819050919050565b6000610f0882610ec0565b9050919050565b82818337600083830152505050565b60005b83811015610f3c578082015181840152602081019050610f21565b83811115610f4b576000848401525b50505050565b60006002820490506001821680610f6957607f821691505b60208210811415610f7d57610f7c611012565b5b50919050565b610f8c826110b3565b810181811067ffffffffffffffff82111715610fab57610faa611070565b5b80604052505050565b7f4e487b7100000000000000000000000000000000000000000000000000000000600052601160045260246000fd5b7f4e487b7100000000000000000000000000000000000000000000000000000000600052602160045260246000fd5b7f4e487b7100000000000000000000000000000000000000000000000000000000600052602260045260246000fd5b7f4e487b7100000000000000000000000000000000000000000000000000000000600052603260045260246000fd5b7f4e487b7100000000000000000000000000000000000000000000000000000000600052604160045260246000fd5b600080fd5b600080fd5b600080fd5b600080fd5b6000601f19601f8301169050919050565b7f43616e6e6f742066696e642074686520646f63756d656e742e00000000000000600082015250565b7f546869732066756e6374696f6e2063616e206f6e6c792062652065786563757460008201527f656420627920746865206f776e65722e00000000000000000000000000000000602082015250565b7f546869732066756e6374696f6e2063616e206f6e6c792062652065786563757460008201527f65642062792074686520726567756c61746f722e000000000000000000000000602082015250565b7f446f63756d656e74206e616d652063616e6e6f7420626520656d707479000000600082015250565b600381106111c5576111c4610fe3565b5b50565b6111d181610eb4565b81146111dc57600080fd5b50565b6111e881610ef3565b81146111f357600080fd5b5056fea2646970667358221220a32341d825892e4ec827eb6c391b11bb67efba586fb0954cb5e1f2f57fff679464736f6c63430008060033",
  "immutableReferences": {},
  "source": "// SPDX-License-Identifier: GPL-3.0\n\npragma solidity ^0.8.0;\n\n// import profile contract\nimport \"./Profile.sol\";\n\n/**\n * @title Document Management\n * @dev Implements document mMnagement.\n * To strore additional documents for account registration in Profile contract\n */\ncontract Document {\n    //DocumentStatus: 0=Pending, 1=Approved, 2=Rejected\n    enum DocumentStatus {\n        Pending,\n        Approved,\n        Rejected\n    }\n\n    Profile profile;\n\n    address public regulatorAddress;\n    uint256 public lastDocIndex;\n\n    struct DocumentItem {\n        uint256 documentId;\n        string documentName;\n        uint256 accountId;\n        address accountAddress;\n        DocumentStatus documentStatus;\n        string hashContent; // TODO: recheck that it can store hash data\n    }\n    // Get account Info. by referenceId\n    mapping(uint256 => DocumentItem[]) public documentsByAccId;\n\n    // @notice To create document contract and have an association relationship with Profile contract\n    constructor(address _profileAddress) {\n        profile = Profile(_profileAddress);\n        lastDocIndex = 0;\n        regulatorAddress = profile.getRegulatorAddress();\n    }\n\n    // Create events for using in JavaScript API\n    // Event 1: AddDocument by Farmer,Manufacturer,Reatiler,Logistic\n    event AddDocument(\n        uint256 indexed documentId,\n        string documentName,\n        uint256 indexed accountId,\n        address accountAddress,\n        uint256 documentStatus,\n        string hashContent // To DO: check with Promie that could he send bytes32 ?\n    );\n    // Event 2: VerifyDocument by Regulator\n    event VerifyDocument(\n        uint256 indexed accountId,\n        address accountAddress,\n        uint256 indexed documentId,\n        uint256 documentStatus\n    );\n\n    /// @notice Function 1: Add document for registration\n    function addDocument(\n        uint256 _accountId,\n        string memory _documentName,\n        string memory _hashContent\n    ) public onlyDocumentOwner(_accountId) {\n        require(\n            bytes(_documentName).length != 0,\n            \"Document name cannot be empty\"\n        );\n        uint256 newId = lastDocIndex + 1;\n        // create a new doc item\n        DocumentItem memory documentItem = DocumentItem(\n            newId,\n            _documentName,\n            _accountId,\n            msg.sender,\n            DocumentStatus.Pending,\n            _hashContent\n        );\n\n        // Add doc item to mapping documentsByRefId\n        documentsByAccId[_accountId].push(documentItem);\n        // upd next index\n        lastDocIndex = lastDocIndex + 1;\n\n        emit AddDocument(\n            documentItem.documentId,\n            documentItem.documentName,\n            documentItem.accountId,\n            documentItem.accountAddress,\n            uint256(documentItem.documentStatus),\n            documentItem.hashContent\n        );\n    }\n\n    /// @notice Function 2: approveAccount. Only regulator account can use this function.\n    function verifydocument(\n        uint256 _accountId,\n        uint256 _documentId,\n        uint256 _documentStatusValue\n    ) public onlyRegulator {\n        require(\n            _documentId > 0 &&\n                _documentId <= documentsByAccId[_accountId].length,\n            \"Cannot find the document.\"\n        );\n        // Get document item by referenceId and doc. item index\n\n        documentsByAccId[_accountId][_documentId - 1]\n        .documentStatus = DocumentStatus(_documentStatusValue);\n\n        emit VerifyDocument(\n            documentsByAccId[_accountId][_documentId - 1].accountId,\n            msg.sender,\n            documentsByAccId[_accountId][_documentId - 1].documentId,\n            uint256(\n                documentsByAccId[_accountId][_documentId - 1].documentStatus\n            )\n        );\n    }\n\n    // modifier\n    modifier onlyDocumentOwner(uint256 _accountId) {\n        require(\n            profile.isAccountOwner(msg.sender, _accountId) == true,\n            \"This function can only be executed by the owner.\"\n        );\n        _;\n    }\n\n    // modifier\n    modifier onlyRegulator {\n        require(\n            msg.sender == regulatorAddress,\n            \"This function can only be executed by the regulator.\"\n        );\n        _;\n    }\n}\n",
  "sourcePath": "/Volumes/Data/Users/rittisak/Projects/unsw/comp6452/solidity/contracts/Document.sol",
  "compiler": {
    "name": "solc",
    "version": "0.8.6+commit.11564f7e.Emscripten.clang"
  },
  "schemaVersion": "3.4.1",
  "updatedAt": "2021-07-24T06:12:54.518Z",
  "networkType": "ethereum",
  "devdoc": {
    "details": "Implements document mMnagement. To strore additional documents for account registration in Profile contract",
    "kind": "dev",
    "methods": {},
    "title": "Document Management",
    "version": 1
  },
  "userdoc": {
    "kind": "user",
    "methods": {
      "addDocument(uint256,string,string)": {
        "notice": "Function 1: Add document for registration"
      },
      "verifydocument(uint256,uint256,uint256)": {
        "notice": "Function 2: approveAccount. Only regulator account can use this function."
      }
    },
    "version": 1
  }
}