{
  "contractName": "Document",
  "abi": [
    {
      "inputs": [
        {
          "internalType": "address",
          "name": "_profileAddress",
          "type": "address"
        }
      ],
      "stateMutability": "nonpayable",
      "type": "constructor"
    },
    {
      "anonymous": false,
      "inputs": [
        {
          "indexed": true,
          "internalType": "uint256",
          "name": "documentId",
          "type": "uint256"
        },
        {
          "indexed": false,
          "internalType": "string",
          "name": "documentName",
          "type": "string"
        },
        {
          "indexed": false,
          "internalType": "uint256",
          "name": "documentType",
          "type": "uint256"
        },
        {
          "indexed": true,
          "internalType": "uint256",
          "name": "referenceId",
          "type": "uint256"
        },
        {
          "indexed": false,
          "internalType": "uint256",
          "name": "documentStatus",
          "type": "uint256"
        },
        {
          "indexed": false,
          "internalType": "bytes32",
          "name": "hashContent",
          "type": "bytes32"
        }
      ],
      "name": "AddDocument",
      "type": "event"
    },
    {
      "anonymous": false,
      "inputs": [
        {
          "indexed": true,
          "internalType": "uint256",
          "name": "referenceId",
          "type": "uint256"
        },
        {
          "indexed": true,
          "internalType": "uint256",
          "name": "documentId",
          "type": "uint256"
        },
        {
          "indexed": false,
          "internalType": "uint256",
          "name": "documentStatus",
          "type": "uint256"
        }
      ],
      "name": "VerifyDocument",
      "type": "event"
    },
    {
      "inputs": [],
      "name": "documentOwner",
      "outputs": [
        {
          "internalType": "address",
          "name": "",
          "type": "address"
        }
      ],
      "stateMutability": "view",
      "type": "function",
      "constant": true
    },
    {
      "inputs": [
        {
          "internalType": "uint256",
          "name": "",
          "type": "uint256"
        },
        {
          "internalType": "uint256",
          "name": "",
          "type": "uint256"
        }
      ],
      "name": "documentsByRefId",
      "outputs": [
        {
          "internalType": "uint256",
          "name": "documentId",
          "type": "uint256"
        },
        {
          "internalType": "string",
          "name": "documentName",
          "type": "string"
        },
        {
          "internalType": "enum Document.DocumentType",
          "name": "documentType",
          "type": "uint8"
        },
        {
          "internalType": "uint256",
          "name": "referenceId",
          "type": "uint256"
        },
        {
          "internalType": "enum Document.DocumentStatus",
          "name": "documentStatus",
          "type": "uint8"
        },
        {
          "internalType": "bytes32",
          "name": "hashContent",
          "type": "bytes32"
        }
      ],
      "stateMutability": "view",
      "type": "function",
      "constant": true
    },
    {
      "inputs": [],
      "name": "lastDocIndex",
      "outputs": [
        {
          "internalType": "uint256",
          "name": "",
          "type": "uint256"
        }
      ],
      "stateMutability": "view",
      "type": "function",
      "constant": true
    },
    {
      "inputs": [],
      "name": "regulatorAddress",
      "outputs": [
        {
          "internalType": "address",
          "name": "",
          "type": "address"
        }
      ],
      "stateMutability": "view",
      "type": "function",
      "constant": true
    },
    {
      "inputs": [
        {
          "internalType": "string",
          "name": "_documentName",
          "type": "string"
        },
        {
          "internalType": "uint256",
          "name": "_docTypeValue",
          "type": "uint256"
        },
        {
          "internalType": "uint256",
          "name": "_referenceId",
          "type": "uint256"
        },
        {
          "internalType": "bytes32",
          "name": "_hashContent",
          "type": "bytes32"
        }
      ],
      "name": "addDocument",
      "outputs": [],
      "stateMutability": "nonpayable",
      "type": "function"
    },
    {
      "inputs": [
        {
          "internalType": "uint256",
          "name": "_referenceId",
          "type": "uint256"
        },
        {
          "internalType": "uint256",
          "name": "_documentId",
          "type": "uint256"
        },
        {
          "internalType": "uint256",
          "name": "_documentStatusValue",
          "type": "uint256"
        }
      ],
      "name": "verifydocument",
      "outputs": [],
      "stateMutability": "nonpayable",
      "type": "function"
    }
  ],
  "bytecode": "0x60806040523480156200001157600080fd5b506040516200138a3803806200138a8339818101604052810190620000379190620001c0565b806000806101000a81548173ffffffffffffffffffffffffffffffffffffffff021916908373ffffffffffffffffffffffffffffffffffffffff160217905550600060038190555060008054906101000a900473ffffffffffffffffffffffffffffffffffffffff1673ffffffffffffffffffffffffffffffffffffffff16630fc77be96040518163ffffffff1660e01b815260040160206040518083038186803b158015620000e657600080fd5b505afa158015620000fb573d6000803e3d6000fd5b505050506040513d601f19601f82011682018060405250810190620001219190620001c0565b600260006101000a81548173ffffffffffffffffffffffffffffffffffffffff021916908373ffffffffffffffffffffffffffffffffffffffff16021790555033600160006101000a81548173ffffffffffffffffffffffffffffffffffffffff021916908373ffffffffffffffffffffffffffffffffffffffff1602179055505062000245565b600081519050620001ba816200022b565b92915050565b600060208284031215620001d957620001d862000226565b5b6000620001e984828501620001a9565b91505092915050565b6000620001ff8262000206565b9050919050565b600073ffffffffffffffffffffffffffffffffffffffff82169050919050565b600080fd5b6200023681620001f2565b81146200024257600080fd5b50565b61113580620002556000396000f3fe608060405234801561001057600080fd5b50600436106100625760003560e01c8063051846ee146100675780633826b1ea1461008557806344c82328146100a35780634895ca75146100bf578063c17a09d6146100db578063c87a558814610110575b600080fd5b61006f61012e565b60405161007c9190610b34565b60405180910390f35b61008d610154565b60405161009a9190610b34565b60405180910390f35b6100bd60048036038101906100b891906109d1565b61017a565b005b6100d960048036038101906100d4919061090e565b61040e565b005b6100f560048036038101906100f09190610991565b6106d0565b60405161010796959493929190610c36565b60405180910390f35b6101186107cb565b6040516101259190610c1b565b60405180910390f35b600160009054906101000a900473ffffffffffffffffffffffffffffffffffffffff1681565b600260009054906101000a900473ffffffffffffffffffffffffffffffffffffffff1681565b600260009054906101000a900473ffffffffffffffffffffffffffffffffffffffff1673ffffffffffffffffffffffffffffffffffffffff163373ffffffffffffffffffffffffffffffffffffffff161461020a576040517f08c379a000000000000000000000000000000000000000000000000000000000815260040161020190610bdb565b60405180910390fd5b600082118015610230575060046000848152602001908152602001600020805490508211155b61026f576040517f08c379a000000000000000000000000000000000000000000000000000000000815260040161026690610bbb565b60405180910390fd5b80600281111561028257610281610efe565b5b600460008581526020019081526020016000206001846102a29190610d66565b815481106102b3576102b2610f5c565b5b906000526020600020906006020160040160006101000a81548160ff021916908360028111156102e6576102e5610efe565b5b02179055506004600084815260200190815260200160002060018361030b9190610d66565b8154811061031c5761031b610f5c565b5b9060005260206000209060060201600001546004600085815260200190815260200160002060018461034e9190610d66565b8154811061035f5761035e610f5c565b5b9060005260206000209060060201600301547f887c6f24a964bdce79d19c2ae6ed8acf36174d8715ccb3ec35af6eac7090900c600460008781526020019081526020016000206001866103b29190610d66565b815481106103c3576103c2610f5c565b5b906000526020600020906006020160040160009054906101000a900460ff1660028111156103f4576103f3610efe565b5b6040516104019190610c1b565b60405180910390a3505050565b600160009054906101000a900473ffffffffffffffffffffffffffffffffffffffff1673ffffffffffffffffffffffffffffffffffffffff163373ffffffffffffffffffffffffffffffffffffffff161461049e576040517f08c379a000000000000000000000000000000000000000000000000000000000815260040161049590610b9b565b60405180910390fd5b6000845114156104e3576040517f08c379a00000000000000000000000000000000000000000000000000000000081526004016104da90610bfb565b60405180910390fd5b600060016003546104f49190610d10565b905060006040518060c0016040528083815260200187815260200186600281111561052257610521610efe565b5b600281111561053457610533610efe565b5b81526020018581526020016000600281111561055357610552610efe565b5b8152602001848152509050600460008581526020019081526020016000208190806001815401808255809150506001900390600052602060002090600602016000909190919091506000820151816000015560208201518160010190805190602001906105c19291906107d1565b5060408201518160020160006101000a81548160ff021916908360028111156105ed576105ec610efe565b5b02179055506060820151816003015560808201518160040160006101000a81548160ff0219169083600281111561062757610626610efe565b5b021790555060a08201518160050155505060016003546106479190610d10565b600381905550806060015181600001517f74532124839fc244bff9a29a620bcfecb4d5f8cd777f1e8699784e1d6a15e5e583602001518460400151600281111561069457610693610efe565b5b856080015160028111156106ab576106aa610efe565b5b8660a001516040516106c09493929190610b4f565b60405180910390a3505050505050565b600460205281600052604060002081815481106106ec57600080fd5b90600052602060002090600602016000915091505080600001549080600101805461071690610e6c565b80601f016020809104026020016040519081016040528092919081815260200182805461074290610e6c565b801561078f5780601f106107645761010080835404028352916020019161078f565b820191906000526020600020905b81548152906001019060200180831161077257829003601f168201915b5050505050908060020160009054906101000a900460ff16908060030154908060040160009054906101000a900460ff16908060050154905086565b60035481565b8280546107dd90610e6c565b90600052602060002090601f0160209004810192826107ff5760008555610846565b82601f1061081857805160ff1916838001178555610846565b82800160010185558215610846579182015b8281111561084557825182559160200191906001019061082a565b5b5090506108539190610857565b5090565b5b80821115610870576000816000905550600101610858565b5090565b600061088761088284610cc3565b610c9e565b9050828152602081018484840111156108a3576108a2610fbf565b5b6108ae848285610e2a565b509392505050565b6000813590506108c5816110d1565b92915050565b600082601f8301126108e0576108df610fba565b5b81356108f0848260208601610874565b91505092915050565b600081359050610908816110e8565b92915050565b6000806000806080858703121561092857610927610fc9565b5b600085013567ffffffffffffffff81111561094657610945610fc4565b5b610952878288016108cb565b9450506020610963878288016108f9565b9350506040610974878288016108f9565b9250506060610985878288016108b6565b91505092959194509250565b600080604083850312156109a8576109a7610fc9565b5b60006109b6858286016108f9565b92505060206109c7858286016108f9565b9150509250929050565b6000806000606084860312156109ea576109e9610fc9565b5b60006109f8868287016108f9565b9350506020610a09868287016108f9565b9250506040610a1a868287016108f9565b9150509250925092565b610a2d81610d9a565b82525050565b610a3c81610dac565b82525050565b610a4b81610e06565b82525050565b610a5a81610e18565b82525050565b6000610a6b82610cf4565b610a758185610cff565b9350610a85818560208601610e39565b610a8e81610fce565b840191505092915050565b6000610aa6603083610cff565b9150610ab182610fdf565b604082019050919050565b6000610ac9600083610cff565b9150610ad48261102e565b600082019050919050565b6000610aec603483610cff565b9150610af782611031565b604082019050919050565b6000610b0f601d83610cff565b9150610b1a82611080565b602082019050919050565b610b2e81610dfc565b82525050565b6000602082019050610b496000830184610a24565b92915050565b60006080820190508181036000830152610b698187610a60565b9050610b786020830186610b25565b610b856040830185610b25565b610b926060830184610a33565b95945050505050565b60006020820190508181036000830152610bb481610a99565b9050919050565b60006020820190508181036000830152610bd481610abc565b9050919050565b60006020820190508181036000830152610bf481610adf565b9050919050565b60006020820190508181036000830152610c1481610b02565b9050919050565b6000602082019050610c306000830184610b25565b92915050565b600060c082019050610c4b6000830189610b25565b8181036020830152610c5d8188610a60565b9050610c6c6040830187610a51565b610c796060830186610b25565b610c866080830185610a42565b610c9360a0830184610a33565b979650505050505050565b6000610ca8610cb9565b9050610cb48282610e9e565b919050565b6000604051905090565b600067ffffffffffffffff821115610cde57610cdd610f8b565b5b610ce782610fce565b9050602081019050919050565b600081519050919050565b600082825260208201905092915050565b6000610d1b82610dfc565b9150610d2683610dfc565b9250827fffffffffffffffffffffffffffffffffffffffffffffffffffffffffffffffff03821115610d5b57610d5a610ecf565b5b828201905092915050565b6000610d7182610dfc565b9150610d7c83610dfc565b925082821015610d8f57610d8e610ecf565b5b828203905092915050565b6000610da582610ddc565b9050919050565b6000819050919050565b6000819050610dc4826110a9565b919050565b6000819050610dd7826110bd565b919050565b600073ffffffffffffffffffffffffffffffffffffffff82169050919050565b6000819050919050565b6000610e1182610db6565b9050919050565b6000610e2382610dc9565b9050919050565b82818337600083830152505050565b60005b83811015610e57578082015181840152602081019050610e3c565b83811115610e66576000848401525b50505050565b60006002820490506001821680610e8457607f821691505b60208210811415610e9857610e97610f2d565b5b50919050565b610ea782610fce565b810181811067ffffffffffffffff82111715610ec657610ec5610f8b565b5b80604052505050565b7f4e487b7100000000000000000000000000000000000000000000000000000000600052601160045260246000fd5b7f4e487b7100000000000000000000000000000000000000000000000000000000600052602160045260246000fd5b7f4e487b7100000000000000000000000000000000000000000000000000000000600052602260045260246000fd5b7f4e487b7100000000000000000000000000000000000000000000000000000000600052603260045260246000fd5b7f4e487b7100000000000000000000000000000000000000000000000000000000600052604160045260246000fd5b600080fd5b600080fd5b600080fd5b600080fd5b6000601f19601f8301169050919050565b7f546869732066756e6374696f6e2063616e206f6e6c792062652065786563757460008201527f656420627920746865206f776e65722e00000000000000000000000000000000602082015250565b50565b7f546869732066756e6374696f6e2063616e206f6e6c792062652065786563757460008201527f65642062792074686520726567756c61746f722e000000000000000000000000602082015250565b7f446f63756d656e74206e616d652063616e6e6f7420626520656d707479000000600082015250565b600381106110ba576110b9610efe565b5b50565b600381106110ce576110cd610efe565b5b50565b6110da81610dac565b81146110e557600080fd5b50565b6110f181610dfc565b81146110fc57600080fd5b5056fea2646970667358221220b314c8b9beca060d5dcb70e63434bb7db306f02d1dfe886edd37a772af33f58964736f6c63430008060033",
  "immutableReferences": {},
  "source": "// SPDX-License-Identifier: GPL-3.0\n\npragma solidity ^0.8.0;\n\n// import profile contract\nimport \"./Profile.sol\";\n\n/**\n * @title Document Management\n * @dev Implements document mMnagement.\n * Constraints:\n * 1. One account address in Profile contract per one document contract\n */\ncontract Document {\n    //DocumentStatus: 0=Pending, 1=Approved, 2=Rejected\n    enum DocumentStatus {\n        Pending,\n        Approved,\n        Rejected\n    }\n    //DocumentType: 1=Profile=,2=Product,3=Traceability\n    enum DocumentType {\n        Profile,\n        Product,\n        Traceability\n    }\n\n    Profile profile;\n\n    address public documentOwner;\n    address public regulatorAddress;\n    uint256 public lastDocIndex;\n\n    struct DocumentItem {\n        uint256 documentId;\n        string documentName;\n        DocumentType documentType;\n        uint256 referenceId; // can be accountId (reference to account in Profile Contract) or productId (reference to Product Contract or Trace Contract)\n        DocumentStatus documentStatus;\n        bytes32 hashContent; // To DO: check with Promie that could he send bytes32 ?\n        // 0x7465737400000000000000000000000000000000000000000000000000000000\n    }\n    // Get account Info. by referenceId\n    mapping(uint256 => DocumentItem[]) public documentsByRefId;\n\n    // @notice To create document contract and have an association relationship with Profile contract\n    constructor(address _profileAddress) {\n        profile = Profile(_profileAddress);\n        lastDocIndex = 0;\n        regulatorAddress = profile.getRegulatorAddress();\n        documentOwner = msg.sender;\n    }\n\n    // Create events for using in JavaScript API\n    // Event 1: AddDocument by Farmer,Manufacturer,Reatiler,Logistic\n    event AddDocument(\n        uint256 indexed documentId,\n        string documentName,\n        uint256 documentType,\n        uint256 indexed referenceId, // can be accountId (reference to account in Profile Contract) or productId (reference to Product Contract or Trace Contract)\n        uint256 documentStatus,\n        bytes32 hashContent // To DO: check with Promie that could he send bytes32 ?\n    );\n    // Event 2: VerifyDocument by Regulator\n    event VerifyDocument(\n        uint256 indexed referenceId,\n        uint256 indexed documentId,\n        uint256 documentStatus\n    );\n\n    /// @notice Function 1: Add document by Farmer,Manufacturer,Reatiler,Logistic\n    /// @param _documentName Input a doc. name.\n    /// @param _docTypeValue 1=Profile=,2=Product,3=Traceability\n    /// @param _referenceId can be accountId (reference to account in Profile Contract) or productId (reference to Product Contract or Trace Contract)\n    function addDocument(\n        string memory _documentName,\n        uint256 _docTypeValue,\n        uint256 _referenceId,\n        bytes32 _hashContent\n    ) public onlyDocumentOwner {\n        require(\n            bytes(_documentName).length != 0,\n            \"Document name cannot be empty\"\n        );\n        uint256 newId = lastDocIndex + 1;\n        // create a new doc item\n        DocumentItem memory documentItem = DocumentItem(\n            newId,\n            _documentName,\n            DocumentType(_docTypeValue),\n            _referenceId,\n            DocumentStatus.Pending,\n            _hashContent\n        );\n\n        // Add doc item to mapping documentsByRefId\n        documentsByRefId[_referenceId].push(documentItem);\n        // upd next index\n        lastDocIndex = lastDocIndex + 1;\n\n        emit AddDocument(\n            documentItem.documentId,\n            documentItem.documentName,\n            uint256(documentItem.documentType),\n            documentItem.referenceId,\n            uint256(documentItem.documentStatus),\n            documentItem.hashContent\n        );\n    }\n\n    /// @notice Function 2: approveAccount. Only regulator account can use this function.\n    /// @param _referenceId can be accountId (reference to account in Profile Contract) or productId (reference to Product Contract or Trace Contract)\n    /// @param _documentId Input a doc. id.\n    /// @param _documentStatusValue 0=Pending, 1=Approved, 2=Rejected\n    function verifydocument(\n        uint256 _referenceId,\n        uint256 _documentId,\n        uint256 _documentStatusValue\n    ) public onlyRegulator {\n        require(\n            _documentId > 0 &&\n                _documentId <= documentsByRefId[_referenceId].length,\n            \"\"\n        );\n        // Get document item by referenceId and doc. item index\n\n        documentsByRefId[_referenceId][_documentId - 1]\n        .documentStatus = DocumentStatus(_documentStatusValue);\n\n        emit VerifyDocument(\n            documentsByRefId[_referenceId][_documentId - 1].referenceId,\n            documentsByRefId[_referenceId][_documentId - 1].documentId,\n            uint256(\n                documentsByRefId[_referenceId][_documentId - 1].documentStatus\n            )\n        );\n    }\n\n    // modifier\n    modifier onlyDocumentOwner {\n        require(\n            msg.sender == documentOwner,\n            \"This function can only be executed by the owner.\"\n        );\n        _;\n    }\n\n    // modifier\n    modifier onlyRegulator {\n        require(\n            msg.sender == regulatorAddress,\n            \"This function can only be executed by the regulator.\"\n        );\n        _;\n    }\n}\n",
  "sourcePath": "/Volumes/Data/Users/rittisak/Projects/unsw/comp6452/solidity/contracts/Document.sol",
  "compiler": {
    "name": "solc",
    "version": "0.8.6+commit.11564f7e.Emscripten.clang"
  },
  "schemaVersion": "3.4.1",
  "updatedAt": "2021-07-23T14:36:29.100Z",
  "networkType": "ethereum",
  "devdoc": {
    "details": "Implements document mMnagement. Constraints: 1. One account address in Profile contract per one document contract",
    "kind": "dev",
    "methods": {
      "addDocument(string,uint256,uint256,bytes32)": {
        "params": {
          "_docTypeValue": "1=Profile=,2=Product,3=Traceability",
          "_documentName": "Input a doc. name.",
          "_referenceId": "can be accountId (reference to account in Profile Contract) or productId (reference to Product Contract or Trace Contract)"
        }
      },
      "verifydocument(uint256,uint256,uint256)": {
        "params": {
          "_documentId": "Input a doc. id.",
          "_documentStatusValue": "0=Pending, 1=Approved, 2=Rejected",
          "_referenceId": "can be accountId (reference to account in Profile Contract) or productId (reference to Product Contract or Trace Contract)"
        }
      }
    },
    "title": "Document Management",
    "version": 1
  },
  "userdoc": {
    "kind": "user",
    "methods": {
      "addDocument(string,uint256,uint256,bytes32)": {
        "notice": "Function 1: Add document by Farmer,Manufacturer,Reatiler,Logistic"
      },
      "verifydocument(uint256,uint256,uint256)": {
        "notice": "Function 2: approveAccount. Only regulator account can use this function."
      }
    },
    "version": 1
  }
}