{
  "contractName": "MetaCoin",
  "abi": [
    {
      "inputs": [],
      "stateMutability": "nonpayable",
      "type": "constructor"
    },
    {
      "anonymous": false,
      "inputs": [
        {
          "indexed": true,
          "internalType": "address",
          "name": "_from",
          "type": "address"
        },
        {
          "indexed": true,
          "internalType": "address",
          "name": "_to",
          "type": "address"
        },
        {
          "indexed": false,
          "internalType": "uint256",
          "name": "_value",
          "type": "uint256"
        }
      ],
      "name": "Transfer",
      "type": "event"
    },
    {
      "inputs": [
        {
          "internalType": "address",
          "name": "receiver",
          "type": "address"
        },
        {
          "internalType": "uint256",
          "name": "amount",
          "type": "uint256"
        }
      ],
      "name": "sendCoin",
      "outputs": [
        {
          "internalType": "bool",
          "name": "sufficient",
          "type": "bool"
        }
      ],
      "stateMutability": "nonpayable",
      "type": "function"
    },
    {
      "inputs": [
        {
          "internalType": "address",
          "name": "addr",
          "type": "address"
        }
      ],
      "name": "getBalanceInEth",
      "outputs": [
        {
          "internalType": "uint256",
          "name": "",
          "type": "uint256"
        }
      ],
      "stateMutability": "view",
      "type": "function"
    },
    {
      "inputs": [
        {
          "internalType": "address",
          "name": "addr",
          "type": "address"
        }
      ],
      "name": "getBalance",
      "outputs": [
        {
          "internalType": "uint256",
          "name": "",
          "type": "uint256"
        }
      ],
      "stateMutability": "view",
      "type": "function"
    }
  ],
  "bytecode": "0x608060405234801561001057600080fd5b506127106000803273ffffffffffffffffffffffffffffffffffffffff1673ffffffffffffffffffffffffffffffffffffffff16815260200190815260200160002081905550610614806100656000396000f3fe608060405234801561001057600080fd5b50600436106100415760003560e01c80637bd703e81461004657806390b98a1114610076578063f8b2cb4f146100a6575b600080fd5b610060600480360381019061005b9190610363565b6100d6565b60405161006d9190610454565b60405180910390f35b610090600480360381019061008b9190610390565b610171565b60405161009d9190610439565b60405180910390f35b6100c060048036038101906100bb9190610363565b6102dc565b6040516100cd9190610454565b60405180910390f35b600073__ConvertLib____________________________6396e4ee3d6100fb846102dc565b60026040518363ffffffff1660e01b815260040161011a92919061046f565b60206040518083038186803b15801561013257600080fd5b505af4158015610146573d6000803e3d6000fd5b505050506040513d601f19601f8201168201806040525081019061016a91906103d0565b9050919050565b6000816000803373ffffffffffffffffffffffffffffffffffffffff1673ffffffffffffffffffffffffffffffffffffffff1681526020019081526020016000205410156101c257600090506102d6565b816000803373ffffffffffffffffffffffffffffffffffffffff1673ffffffffffffffffffffffffffffffffffffffff168152602001908152602001600020600082825461021091906104ee565b92505081905550816000808573ffffffffffffffffffffffffffffffffffffffff1673ffffffffffffffffffffffffffffffffffffffff16815260200190815260200160002060008282546102659190610498565b925050819055508273ffffffffffffffffffffffffffffffffffffffff163373ffffffffffffffffffffffffffffffffffffffff167fddf252ad1be2c89b69c2b068fc378daa952ba7f163c4a11628f55a4df523b3ef846040516102c99190610454565b60405180910390a3600190505b92915050565b60008060008373ffffffffffffffffffffffffffffffffffffffff1673ffffffffffffffffffffffffffffffffffffffff168152602001908152602001600020549050919050565b600081359050610333816105b0565b92915050565b600081359050610348816105c7565b92915050565b60008151905061035d816105c7565b92915050565b600060208284031215610379576103786105ab565b5b600061038784828501610324565b91505092915050565b600080604083850312156103a7576103a66105ab565b5b60006103b585828601610324565b92505060206103c685828601610339565b9150509250929050565b6000602082840312156103e6576103e56105ab565b5b60006103f48482850161034e565b91505092915050565b61040681610534565b82525050565b6104158161056a565b82525050565b61042481610560565b82525050565b61043381610560565b82525050565b600060208201905061044e60008301846103fd565b92915050565b6000602082019050610469600083018461041b565b92915050565b6000604082019050610484600083018561042a565b610491602083018461040c565b9392505050565b60006104a382610560565b91506104ae83610560565b9250827fffffffffffffffffffffffffffffffffffffffffffffffffffffffffffffffff038211156104e3576104e261057c565b5b828201905092915050565b60006104f982610560565b915061050483610560565b9250828210156105175761051661057c565b5b828203905092915050565b600061052d82610540565b9050919050565b60008115159050919050565b600073ffffffffffffffffffffffffffffffffffffffff82169050919050565b6000819050919050565b600061057582610560565b9050919050565b7f4e487b7100000000000000000000000000000000000000000000000000000000600052601160045260246000fd5b600080fd5b6105b981610522565b81146105c457600080fd5b50565b6105d081610560565b81146105db57600080fd5b5056fea26469706673582212201921d39874dc2b2caf206bdf5e1e7640c947c63edf169b31b66287ab615a6cd764736f6c63430008060033",
  "immutableReferences": {},
  "source": "// SPDX-License-Identifier: MIT\r\npragma solidity >=0.8.0 <0.9.0;\r\n\r\nimport \"./ConvertLib.sol\";\r\n\r\n// This is just a simple example of a coin-like contract.\r\n// It is not standards compatible and cannot be expected to talk to other\r\n// coin/token contracts. If you want to create a standards-compliant\r\n// token, see: https://github.com/ConsenSys/Tokens. Cheers!\r\n\r\ncontract MetaCoin {\r\n\tmapping (address => uint) balances;\r\n\r\n\tevent Transfer(address indexed _from, address indexed _to, uint256 _value);\r\n\r\n\tconstructor() {\r\n\t\tbalances[tx.origin] = 10000;\r\n\t}\r\n\r\n\tfunction sendCoin(address receiver, uint amount) public returns(bool sufficient) {\r\n\t\tif (balances[msg.sender] < amount) return false;\r\n\t\tbalances[msg.sender] -= amount;\r\n\t\tbalances[receiver] += amount;\r\n\t\temit Transfer(msg.sender, receiver, amount);\r\n\t\treturn true;\r\n\t}\r\n\r\n\tfunction getBalanceInEth(address addr) public view returns(uint){\r\n\t\treturn ConvertLib.convert(getBalance(addr),2);\r\n\t}\r\n\r\n\tfunction getBalance(address addr) public view returns(uint) {\r\n\t\treturn balances[addr];\r\n\t}\r\n}\r\n",
  "sourcePath": "D:/UNSW-2021-Term2/comp6452/GIT_desk/COMP6452_Project/solidity/contracts/MetaCoin.sol",
  "compiler": {
    "name": "solc",
    "version": "0.8.6+commit.11564f7e.Emscripten.clang"
  },
  "schemaVersion": "3.4.1",
  "updatedAt": "2021-07-21T12:29:30.118Z",
  "devdoc": {
    "kind": "dev",
    "methods": {},
    "version": 1
  },
  "userdoc": {
    "kind": "user",
    "methods": {},
    "version": 1
  }
}