{
  "contractName": "ProductSC",
  "abi": [
    {
      "inputs": [
        {
          "internalType": "address",
          "name": "_traceAddress",
          "type": "address"
        }
      ],
      "stateMutability": "nonpayable",
      "type": "constructor"
    },
    {
      "anonymous": false,
      "inputs": [
        {
          "indexed": false,
          "internalType": "uint256",
          "name": "productId",
          "type": "uint256"
        }
      ],
      "name": "Distributed",
      "type": "event"
    },
    {
      "anonymous": false,
      "inputs": [
        {
          "indexed": false,
          "internalType": "uint256",
          "name": "productId",
          "type": "uint256"
        }
      ],
      "name": "Harvested",
      "type": "event"
    },
    {
      "anonymous": false,
      "inputs": [
        {
          "indexed": false,
          "internalType": "uint256",
          "name": "productId",
          "type": "uint256"
        }
      ],
      "name": "Manufactured",
      "type": "event"
    },
    {
      "anonymous": false,
      "inputs": [
        {
          "indexed": false,
          "internalType": "uint256",
          "name": "productId",
          "type": "uint256"
        }
      ],
      "name": "Purchased",
      "type": "event"
    },
    {
      "anonymous": false,
      "inputs": [
        {
          "indexed": false,
          "internalType": "uint256",
          "name": "productId",
          "type": "uint256"
        }
      ],
      "name": "Retailed",
      "type": "event"
    },
    {
      "anonymous": false,
      "inputs": [
        {
          "indexed": true,
          "internalType": "uint256",
          "name": "productId",
          "type": "uint256"
        },
        {
          "indexed": false,
          "internalType": "address",
          "name": "sender",
          "type": "address"
        },
        {
          "indexed": false,
          "internalType": "address",
          "name": "receiver",
          "type": "address"
        },
        {
          "indexed": false,
          "internalType": "uint256",
          "name": "status",
          "type": "uint256"
        }
      ],
      "name": "SendProduct",
      "type": "event"
    },
    {
      "inputs": [
        {
          "internalType": "uint256",
          "name": "",
          "type": "uint256"
        }
      ],
      "name": "farming_process",
      "outputs": [
        {
          "internalType": "uint256",
          "name": "productId",
          "type": "uint256"
        },
        {
          "internalType": "uint256",
          "name": "recordBlock",
          "type": "uint256"
        },
        {
          "internalType": "uint256",
          "name": "farmingTime",
          "type": "uint256"
        },
        {
          "internalType": "uint256",
          "name": "harvestTime",
          "type": "uint256"
        }
      ],
      "stateMutability": "view",
      "type": "function",
      "constant": true
    },
    {
      "inputs": [
        {
          "internalType": "uint256",
          "name": "",
          "type": "uint256"
        }
      ],
      "name": "logi_process",
      "outputs": [
        {
          "internalType": "uint256",
          "name": "productId",
          "type": "uint256"
        },
        {
          "internalType": "uint256",
          "name": "recordBlock",
          "type": "uint256"
        },
        {
          "internalType": "uint256",
          "name": "timeStamp",
          "type": "uint256"
        }
      ],
      "stateMutability": "view",
      "type": "function",
      "constant": true
    },
    {
      "inputs": [
        {
          "internalType": "uint256",
          "name": "",
          "type": "uint256"
        }
      ],
      "name": "manu_process",
      "outputs": [
        {
          "internalType": "uint256",
          "name": "productId",
          "type": "uint256"
        },
        {
          "internalType": "string",
          "name": "processType",
          "type": "string"
        },
        {
          "internalType": "uint256",
          "name": "recordBlock",
          "type": "uint256"
        },
        {
          "internalType": "uint256",
          "name": "timestamp",
          "type": "uint256"
        }
      ],
      "stateMutability": "view",
      "type": "function",
      "constant": true
    },
    {
      "inputs": [],
      "name": "numProducts",
      "outputs": [
        {
          "internalType": "uint256",
          "name": "",
          "type": "uint256"
        }
      ],
      "stateMutability": "view",
      "type": "function",
      "constant": true
    },
    {
      "inputs": [
        {
          "internalType": "uint256",
          "name": "",
          "type": "uint256"
        }
      ],
      "name": "products",
      "outputs": [
        {
          "internalType": "uint256",
          "name": "productId",
          "type": "uint256"
        },
        {
          "internalType": "string",
          "name": "productName",
          "type": "string"
        },
        {
          "internalType": "enum ProductSC.status",
          "name": "statusType",
          "type": "uint8"
        },
        {
          "internalType": "uint256",
          "name": "productPrice",
          "type": "uint256"
        },
        {
          "internalType": "address",
          "name": "FarmerId",
          "type": "address"
        },
        {
          "internalType": "address",
          "name": "manufacturerId",
          "type": "address"
        },
        {
          "internalType": "address",
          "name": "distributorId",
          "type": "address"
        },
        {
          "internalType": "address",
          "name": "retailerId",
          "type": "address"
        },
        {
          "internalType": "address",
          "name": "ConsumerId",
          "type": "address"
        }
      ],
      "stateMutability": "view",
      "type": "function",
      "constant": true
    },
    {
      "inputs": [
        {
          "internalType": "uint256",
          "name": "",
          "type": "uint256"
        }
      ],
      "name": "purchase_process",
      "outputs": [
        {
          "internalType": "uint256",
          "name": "productId",
          "type": "uint256"
        },
        {
          "internalType": "uint256",
          "name": "recordBlock",
          "type": "uint256"
        },
        {
          "internalType": "uint256",
          "name": "timeStamp",
          "type": "uint256"
        }
      ],
      "stateMutability": "view",
      "type": "function",
      "constant": true
    },
    {
      "inputs": [
        {
          "internalType": "address",
          "name": "",
          "type": "address"
        },
        {
          "internalType": "uint256",
          "name": "",
          "type": "uint256"
        }
      ],
      "name": "receiverProducts",
      "outputs": [
        {
          "internalType": "uint256",
          "name": "productId",
          "type": "uint256"
        },
        {
          "internalType": "string",
          "name": "productName",
          "type": "string"
        },
        {
          "internalType": "enum ProductSC.status",
          "name": "statusType",
          "type": "uint8"
        },
        {
          "internalType": "uint256",
          "name": "productPrice",
          "type": "uint256"
        },
        {
          "internalType": "address",
          "name": "FarmerId",
          "type": "address"
        },
        {
          "internalType": "address",
          "name": "manufacturerId",
          "type": "address"
        },
        {
          "internalType": "address",
          "name": "distributorId",
          "type": "address"
        },
        {
          "internalType": "address",
          "name": "retailerId",
          "type": "address"
        },
        {
          "internalType": "address",
          "name": "ConsumerId",
          "type": "address"
        }
      ],
      "stateMutability": "view",
      "type": "function",
      "constant": true
    },
    {
      "inputs": [
        {
          "internalType": "uint256",
          "name": "",
          "type": "uint256"
        }
      ],
      "name": "retail_process",
      "outputs": [
        {
          "internalType": "uint256",
          "name": "productId",
          "type": "uint256"
        },
        {
          "internalType": "uint256",
          "name": "recordBlock",
          "type": "uint256"
        },
        {
          "internalType": "uint256",
          "name": "timeStamp",
          "type": "uint256"
        }
      ],
      "stateMutability": "view",
      "type": "function",
      "constant": true
    },
    {
      "inputs": [
        {
          "internalType": "uint256",
          "name": "",
          "type": "uint256"
        }
      ],
      "name": "sendProducts",
      "outputs": [
        {
          "internalType": "uint256",
          "name": "productId",
          "type": "uint256"
        },
        {
          "internalType": "address",
          "name": "sender",
          "type": "address"
        },
        {
          "internalType": "address",
          "name": "receiver",
          "type": "address"
        },
        {
          "internalType": "enum ProductSC.SendProductStatus",
          "name": "status",
          "type": "uint8"
        },
        {
          "internalType": "bool",
          "name": "isValue",
          "type": "bool"
        }
      ],
      "stateMutability": "view",
      "type": "function",
      "constant": true
    },
    {
      "inputs": [],
      "name": "traceAddress",
      "outputs": [
        {
          "internalType": "address",
          "name": "",
          "type": "address"
        }
      ],
      "stateMutability": "view",
      "type": "function",
      "constant": true
    },
    {
      "inputs": [
        {
          "internalType": "string",
          "name": "name",
          "type": "string"
        }
      ],
      "name": "createProduct",
      "outputs": [
        {
          "internalType": "uint256",
          "name": "",
          "type": "uint256"
        }
      ],
      "stateMutability": "nonpayable",
      "type": "function"
    },
    {
      "inputs": [
        {
          "internalType": "uint256",
          "name": "_pid",
          "type": "uint256"
        },
        {
          "internalType": "uint256",
          "name": "_farmtime",
          "type": "uint256"
        },
        {
          "internalType": "uint256",
          "name": "_harvtime",
          "type": "uint256"
        }
      ],
      "name": "addProductFarmingInfo",
      "outputs": [],
      "stateMutability": "nonpayable",
      "type": "function"
    },
    {
      "inputs": [
        {
          "internalType": "uint256",
          "name": "_pid",
          "type": "uint256"
        },
        {
          "internalType": "string",
          "name": "_processtype",
          "type": "string"
        }
      ],
      "name": "manuProductInfo",
      "outputs": [],
      "stateMutability": "nonpayable",
      "type": "function"
    },
    {
      "inputs": [
        {
          "internalType": "address",
          "name": "sender",
          "type": "address"
        },
        {
          "internalType": "uint256",
          "name": "_pid",
          "type": "uint256"
        }
      ],
      "name": "logiProductInfo",
      "outputs": [],
      "stateMutability": "nonpayable",
      "type": "function"
    },
    {
      "inputs": [
        {
          "internalType": "address",
          "name": "sender",
          "type": "address"
        },
        {
          "internalType": "uint256",
          "name": "_pid",
          "type": "uint256"
        }
      ],
      "name": "retailProductInfo",
      "outputs": [],
      "stateMutability": "nonpayable",
      "type": "function"
    },
    {
      "inputs": [
        {
          "internalType": "address",
          "name": "sender",
          "type": "address"
        },
        {
          "internalType": "uint256",
          "name": "_pid",
          "type": "uint256"
        },
        {
          "internalType": "uint256",
          "name": "_price",
          "type": "uint256"
        }
      ],
      "name": "purchasingProductInfo",
      "outputs": [],
      "stateMutability": "nonpayable",
      "type": "function"
    },
    {
      "inputs": [
        {
          "internalType": "uint256",
          "name": "productId",
          "type": "uint256"
        },
        {
          "internalType": "address",
          "name": "receiver",
          "type": "address"
        },
        {
          "internalType": "address",
          "name": "logistic",
          "type": "address"
        },
        {
          "internalType": "string",
          "name": "trackingNumber",
          "type": "string"
        }
      ],
      "name": "sendProduct",
      "outputs": [],
      "stateMutability": "nonpayable",
      "type": "function"
    },
    {
      "inputs": [
        {
          "internalType": "uint256",
          "name": "productId",
          "type": "uint256"
        },
        {
          "internalType": "bool",
          "name": "receiveStatus",
          "type": "bool"
        }
      ],
      "name": "receiveProduct",
      "outputs": [],
      "stateMutability": "nonpayable",
      "type": "function"
    }
  ],
  "bytecode": "0x6080604052600080553480156200001557600080fd5b50604051620028943803806200289483398181016040528101906200003b91906200009a565b80600960006101000a81548173ffffffffffffffffffffffffffffffffffffffff021916908373ffffffffffffffffffffffffffffffffffffffff160217905550506200011f565b600081519050620000948162000105565b92915050565b600060208284031215620000b357620000b262000100565b5b6000620000c38482850162000083565b91505092915050565b6000620000d982620000e0565b9050919050565b600073ffffffffffffffffffffffffffffffffffffffff82169050919050565b600080fd5b6200011081620000cc565b81146200011c57600080fd5b50565b612765806200012f6000396000f3fe608060405234801561001057600080fd5b50600436106101165760003560e01c80636af5da2b116100a2578063a5ae130911610071578063a5ae130914610347578063ac964f2114610363578063c850818714610381578063cf257160146103b3578063eff855ea146103cf57610116565b80636af5da2b146102775780636fd80059146102a95780637acc0b20146102dc57806389b8a49f1461031457610116565b80634ad751ed116100e95780634ad751ed146101b75780634dca9cdf146101d357806350c42fec1461020b578063527d7ae31461023f578063680a15191461025b57610116565b806302ec06be1461011b5780630dfe32b01461014b5780631e9e5761146101695780632fab290014610185575b600080fd5b61013560048036038101906101309190611dba565b6103eb565b6040516101429190612130565b60405180910390f35b61015361063b565b604051610160919061209e565b60405180910390f35b610183600480360381019061017e9190611f54565b610661565b005b61019f600480360381019061019a9190611e03565b6107d7565b6040516101ae939291906122be565b60405180910390f35b6101d160048036038101906101cc9190611d67565b610801565b005b6101ed60048036038101906101e89190611d27565b610920565b604051610202999897969594939291906121de565b60405180910390f35b61022560048036038101906102209190611e03565b610ac0565b60405161023695949392919061214b565b60405180910390f35b61025960048036038101906102549190611eb8565b610b50565b005b61027560048036038101906102709190611d27565b610be5565b005b610291600480360381019061028c9190611e03565b610d04565b6040516102a0939291906122be565b60405180910390f35b6102c360048036038101906102be9190611e03565b610d2e565b6040516102d394939291906122f5565b60405180910390f35b6102f660048036038101906102f19190611e03565b610d5e565b60405161030b999897969594939291906121de565b60405180910390f35b61032e60048036038101906103299190611e03565b610ee1565b60405161033e9493929190612272565b60405180910390f35b610361600480360381019061035c9190611ef8565b610f99565b005b61036b6110de565b6040516103789190612130565b60405180910390f35b61039b60048036038101906103969190611e03565b6110e4565b6040516103aa939291906122be565b60405180910390f35b6103cd60048036038101906103c89190611d27565b61110e565b005b6103e960048036038101906103e49190611e30565b611223565b005b60006103f5611a00565b828160200181905250600160005461040d91906123ac565b60008190555060005481600001818152505060008160400190600681111561043857610437612568565b5b9081600681111561044c5761044b612568565b5b8152505080600160008360000151815260200190815260200160002060008201518160000155602082015181600101908051906020019061048e929190611acc565b5060408201518160020160006101000a81548160ff021916908360068111156104ba576104b9612568565b5b02179055506060820151816003015560808201518160040160006101000a81548173ffffffffffffffffffffffffffffffffffffffff021916908373ffffffffffffffffffffffffffffffffffffffff16021790555060a08201518160050160006101000a81548173ffffffffffffffffffffffffffffffffffffffff021916908373ffffffffffffffffffffffffffffffffffffffff16021790555060c08201518160060160006101000a81548173ffffffffffffffffffffffffffffffffffffffff021916908373ffffffffffffffffffffffffffffffffffffffff16021790555060e08201518160070160006101000a81548173ffffffffffffffffffffffffffffffffffffffff021916908373ffffffffffffffffffffffffffffffffffffffff1602179055506101008201518160080160006101000a81548173ffffffffffffffffffffffffffffffffffffffff021916908373ffffffffffffffffffffffffffffffffffffffff160217905550905050600054915050919050565b600960009054906101000a900473ffffffffffffffffffffffffffffffffffffffff1681565b8181116106a3576040517f08c379a000000000000000000000000000000000000000000000000000000000815260040161069a906120f0565b60405180910390fd5b6000600160008581526020019081526020016000209050338160040160006101000a81548173ffffffffffffffffffffffffffffffffffffffff021916908373ffffffffffffffffffffffffffffffffffffffff16021790555060018160020160006101000a81548160ff0219169083600681111561072557610724612568565b5b0217905550610732611b52565b848160000181815250508381604001818152505082816060018181525050438160200181815250508060026000878152602001908152602001600020600082015181600001556020820151816001015560408201518160020155606082015181600301559050507f8e55ccfc9778ff8eba1646d765cf1982537ce0f9257054a17b48aad745250183856040516107c89190612130565b60405180910390a15050505050565b60046020528060005260406000206000915090508060000154908060010154908060020154905083565b6000600160008481526020019081526020016000209050838160080160006101000a81548173ffffffffffffffffffffffffffffffffffffffff021916908373ffffffffffffffffffffffffffffffffffffffff16021790555060058160020160006101000a81548160ff0219169083600681111561088357610882612568565b5b0217905550818160030181905550610899611b7a565b438160000181815250504281604001818152505080600660008681526020019081526020016000206000820151816000015560208201518160010155604082015181600201559050507f653d56639fee6b566a5c804764e9689de38645f0b733df89a36a1b7b42173dd8846040516109119190612130565b60405180910390a15050505050565b6008602052816000526040600020818154811061093c57600080fd5b906000526020600020906009020160009150915050806000015490806001018054610966906124d6565b80601f0160208091040260200160405190810160405280929190818152602001828054610992906124d6565b80156109df5780601f106109b4576101008083540402835291602001916109df565b820191906000526020600020905b8154815290600101906020018083116109c257829003601f168201915b5050505050908060020160009054906101000a900460ff16908060030154908060040160009054906101000a900473ffffffffffffffffffffffffffffffffffffffff16908060050160009054906101000a900473ffffffffffffffffffffffffffffffffffffffff16908060060160009054906101000a900473ffffffffffffffffffffffffffffffffffffffff16908060070160009054906101000a900473ffffffffffffffffffffffffffffffffffffffff16908060080160009054906101000a900473ffffffffffffffffffffffffffffffffffffffff16905089565b60076020528060005260406000206000915090508060000154908060010160009054906101000a900473ffffffffffffffffffffffffffffffffffffffff16908060020160009054906101000a900473ffffffffffffffffffffffffffffffffffffffff16908060020160149054906101000a900460ff16908060020160159054906101000a900460ff16905085565b600115158115151415610ba15760016007600084815260200190815260200160002060020160146101000a81548160ff02191690836002811115610b9757610b96612568565b5b0217905550610be1565b60026007600084815260200190815260200160002060020160146101000a81548160ff02191690836002811115610bdb57610bda612568565b5b02179055505b5050565b6000600160008381526020019081526020016000209050828160060160006101000a81548173ffffffffffffffffffffffffffffffffffffffff021916908373ffffffffffffffffffffffffffffffffffffffff16021790555060038160020160006101000a81548160ff02191690836006811115610c6757610c66612568565b5b0217905550610c74611b9b565b82816000018181525050438160200181815250504281604001818152505080600460008581526020019081526020016000206000820151816000015560208201518160010155604082015181600201559050507fddc9c30275a04c48091f24199f9c405765de34d979d6847f5b9798a57232d2e583604051610cf69190612130565b60405180910390a150505050565b60066020528060005260406000206000915090508060000154908060010154908060020154905083565b60026020528060005260406000206000915090508060000154908060010154908060020154908060030154905084565b6001602052806000526040600020600091509050806000015490806001018054610d87906124d6565b80601f0160208091040260200160405190810160405280929190818152602001828054610db3906124d6565b8015610e005780601f10610dd557610100808354040283529160200191610e00565b820191906000526020600020905b815481529060010190602001808311610de357829003601f168201915b5050505050908060020160009054906101000a900460ff16908060030154908060040160009054906101000a900473ffffffffffffffffffffffffffffffffffffffff16908060050160009054906101000a900473ffffffffffffffffffffffffffffffffffffffff16908060060160009054906101000a900473ffffffffffffffffffffffffffffffffffffffff16908060070160009054906101000a900473ffffffffffffffffffffffffffffffffffffffff16908060080160009054906101000a900473ffffffffffffffffffffffffffffffffffffffff16905089565b6003602052806000526040600020600091509050806000015490806001018054610f0a906124d6565b80601f0160208091040260200160405190810160405280929190818152602001828054610f36906124d6565b8015610f835780601f10610f5857610100808354040283529160200191610f83565b820191906000526020600020905b815481529060010190602001808311610f6657829003601f168201915b5050505050908060020154908060030154905084565b6000600160008481526020019081526020016000209050338160050160006101000a81548173ffffffffffffffffffffffffffffffffffffffff021916908373ffffffffffffffffffffffffffffffffffffffff16021790555060028160020160006101000a81548160ff0219169083600681111561101b5761101a612568565b5b0217905550611028611bbc565b8381600001818152505082816020018190525043816040018181525050428160600181815250508060036000868152602001908152602001600020600082015181600001556020820151816001019080519060200190611089929190611acc565b5060408201518160020155606082015181600301559050507fd29d8a68ca7c8c74be5579719d445aabfe230ed6e6a83aff475a663500eb7609846040516110d09190612130565b60405180910390a150505050565b60005481565b60056020528060005260406000206000915090508060000154908060010154908060020154905083565b6000600160008381526020019081526020016000209050828160070160006101000a81548173ffffffffffffffffffffffffffffffffffffffff021916908373ffffffffffffffffffffffffffffffffffffffff16021790555060048160020160006101000a81548160ff021916908360068111156111905761118f612568565b5b021790555061119d611be4565b438160000181815250504281604001818152505080600560008581526020019081526020016000206000820151816000015560208201518160010155604082015181600201559050507f4775cda4e9d6bd2241e0ed5570f8e54035e97f8db4f863c6e1756fb4c957cbfc836040516112159190612130565b60405180910390a150505050565b8460001515611231826119c2565b151514611273576040517f08c379a000000000000000000000000000000000000000000000000000000000815260040161126a90612110565b60405180910390fd5b60006040518060a001604052808881526020013373ffffffffffffffffffffffffffffffffffffffff1681526020018773ffffffffffffffffffffffffffffffffffffffff168152602001600060028111156112d2576112d1612568565b5b815260200160011515815250905080600760008981526020019081526020016000206000820151816000015560208201518160010160006101000a81548173ffffffffffffffffffffffffffffffffffffffff021916908373ffffffffffffffffffffffffffffffffffffffff16021790555060408201518160020160006101000a81548173ffffffffffffffffffffffffffffffffffffffff021916908373ffffffffffffffffffffffffffffffffffffffff16021790555060608201518160020160146101000a81548160ff021916908360028111156113b7576113b6612568565b5b021790555060808201518160020160156101000a81548160ff021916908315150217905550905050600060016000898152602001908152602001600020604051806101200160405290816000820154815260200160018201805461141a906124d6565b80601f0160208091040260200160405190810160405280929190818152602001828054611446906124d6565b80156114935780601f1061146857610100808354040283529160200191611493565b820191906000526020600020905b81548152906001019060200180831161147657829003601f168201915b505050505081526020016002820160009054906101000a900460ff1660068111156114c1576114c0612568565b5b60068111156114d3576114d2612568565b5b8152602001600382015481526020016004820160009054906101000a900473ffffffffffffffffffffffffffffffffffffffff1673ffffffffffffffffffffffffffffffffffffffff1673ffffffffffffffffffffffffffffffffffffffff1681526020016005820160009054906101000a900473ffffffffffffffffffffffffffffffffffffffff1673ffffffffffffffffffffffffffffffffffffffff1673ffffffffffffffffffffffffffffffffffffffff1681526020016006820160009054906101000a900473ffffffffffffffffffffffffffffffffffffffff1673ffffffffffffffffffffffffffffffffffffffff1673ffffffffffffffffffffffffffffffffffffffff1681526020016007820160009054906101000a900473ffffffffffffffffffffffffffffffffffffffff1673ffffffffffffffffffffffffffffffffffffffff1673ffffffffffffffffffffffffffffffffffffffff1681526020016008820160009054906101000a900473ffffffffffffffffffffffffffffffffffffffff1673ffffffffffffffffffffffffffffffffffffffff1673ffffffffffffffffffffffffffffffffffffffff16815250509050600860008873ffffffffffffffffffffffffffffffffffffffff1673ffffffffffffffffffffffffffffffffffffffff168152602001908152602001600020819080600181540180825580915050600190039060005260206000209060090201600090919091909150600082015181600001556020820151816001019080519060200190611720929190611acc565b5060408201518160020160006101000a81548160ff0219169083600681111561174c5761174b612568565b5b02179055506060820151816003015560808201518160040160006101000a81548173ffffffffffffffffffffffffffffffffffffffff021916908373ffffffffffffffffffffffffffffffffffffffff16021790555060a08201518160050160006101000a81548173ffffffffffffffffffffffffffffffffffffffff021916908373ffffffffffffffffffffffffffffffffffffffff16021790555060c08201518160060160006101000a81548173ffffffffffffffffffffffffffffffffffffffff021916908373ffffffffffffffffffffffffffffffffffffffff16021790555060e08201518160070160006101000a81548173ffffffffffffffffffffffffffffffffffffffff021916908373ffffffffffffffffffffffffffffffffffffffff1602179055506101008201518160080160006101000a81548173ffffffffffffffffffffffffffffffffffffffff021916908373ffffffffffffffffffffffffffffffffffffffff160217905550505081600001517ff62f5261a71249391de5c7e32e9ceddaf5c1a59a49ccf2e014d41e42577a33ee836020015184604001518560600151600281111561190857611907612568565b5b604051611917939291906120b9565b60405180910390a26000600960009054906101000a900473ffffffffffffffffffffffffffffffffffffffff1690508073ffffffffffffffffffffffffffffffffffffffff1663514f64778a8989896040518563ffffffff1660e01b8152600401611985949392919061219e565b600060405180830381600087803b15801561199f57600080fd5b505af11580156119b3573d6000803e3d6000fd5b50505050505050505050505050565b60006007600083815260200190815260200160002060020160159054906101000a900460ff16156119f657600190506119fb565b600090505b919050565b604051806101200160405280600081526020016060815260200160006006811115611a2e57611a2d612568565b5b815260200160008152602001600073ffffffffffffffffffffffffffffffffffffffff168152602001600073ffffffffffffffffffffffffffffffffffffffff168152602001600073ffffffffffffffffffffffffffffffffffffffff168152602001600073ffffffffffffffffffffffffffffffffffffffff168152602001600073ffffffffffffffffffffffffffffffffffffffff1681525090565b828054611ad8906124d6565b90600052602060002090601f016020900481019282611afa5760008555611b41565b82601f10611b1357805160ff1916838001178555611b41565b82800160010185558215611b41579182015b82811115611b40578251825591602001919060010190611b25565b5b509050611b4e9190611c05565b5090565b6040518060800160405280600081526020016000815260200160008152602001600081525090565b60405180606001604052806000815260200160008152602001600081525090565b60405180606001604052806000815260200160008152602001600081525090565b6040518060800160405280600081526020016060815260200160008152602001600081525090565b60405180606001604052806000815260200160008152602001600081525090565b5b80821115611c1e576000816000905550600101611c06565b5090565b6000611c35611c308461235f565b61233a565b905082815260208101848484011115611c5157611c50612604565b5b611c5c848285612494565b509392505050565b600081359050611c73816126ea565b92915050565b600081359050611c8881612701565b92915050565b60008083601f840112611ca457611ca36125fa565b5b8235905067ffffffffffffffff811115611cc157611cc06125f5565b5b602083019150836001820283011115611cdd57611cdc6125ff565b5b9250929050565b600082601f830112611cf957611cf86125fa565b5b8135611d09848260208601611c22565b91505092915050565b600081359050611d2181612718565b92915050565b60008060408385031215611d3e57611d3d61260e565b5b6000611d4c85828601611c64565b9250506020611d5d85828601611d12565b9150509250929050565b600080600060608486031215611d8057611d7f61260e565b5b6000611d8e86828701611c64565b9350506020611d9f86828701611d12565b9250506040611db086828701611d12565b9150509250925092565b600060208284031215611dd057611dcf61260e565b5b600082013567ffffffffffffffff811115611dee57611ded612609565b5b611dfa84828501611ce4565b91505092915050565b600060208284031215611e1957611e1861260e565b5b6000611e2784828501611d12565b91505092915050565b600080600080600060808688031215611e4c57611e4b61260e565b5b6000611e5a88828901611d12565b9550506020611e6b88828901611c64565b9450506040611e7c88828901611c64565b935050606086013567ffffffffffffffff811115611e9d57611e9c612609565b5b611ea988828901611c8e565b92509250509295509295909350565b60008060408385031215611ecf57611ece61260e565b5b6000611edd85828601611d12565b9250506020611eee85828601611c79565b9150509250929050565b60008060408385031215611f0f57611f0e61260e565b5b6000611f1d85828601611d12565b925050602083013567ffffffffffffffff811115611f3e57611f3d612609565b5b611f4a85828601611ce4565b9150509250929050565b600080600060608486031215611f6d57611f6c61260e565b5b6000611f7b86828701611d12565b9350506020611f8c86828701611d12565b9250506040611f9d86828701611d12565b9150509250925092565b611fb081612402565b82525050565b611fbf81612414565b82525050565b611fce81612470565b82525050565b611fdd81612482565b82525050565b6000611fef838561239b565b9350611ffc838584612494565b61200583612613565b840190509392505050565b600061201b82612390565b612025818561239b565b93506120358185602086016124a3565b61203e81612613565b840191505092915050565b6000612056602c8361239b565b915061206182612624565b604082019050919050565b600061207960258361239b565b915061208482612673565b604082019050919050565b61209881612466565b82525050565b60006020820190506120b36000830184611fa7565b92915050565b60006060820190506120ce6000830186611fa7565b6120db6020830185611fa7565b6120e8604083018461208f565b949350505050565b6000602082019050818103600083015261210981612049565b9050919050565b600060208201905081810360008301526121298161206c565b9050919050565b6000602082019050612145600083018461208f565b92915050565b600060a082019050612160600083018861208f565b61216d6020830187611fa7565b61217a6040830186611fa7565b6121876060830185611fc5565b6121946080830184611fb6565b9695505050505050565b60006060820190506121b3600083018761208f565b6121c06020830186611fa7565b81810360408301526121d3818486611fe3565b905095945050505050565b6000610120820190506121f4600083018c61208f565b8181036020830152612206818b612010565b9050612215604083018a611fd4565b612222606083018961208f565b61222f6080830188611fa7565b61223c60a0830187611fa7565b61224960c0830186611fa7565b61225660e0830185611fa7565b612264610100830184611fa7565b9a9950505050505050505050565b6000608082019050612287600083018761208f565b81810360208301526122998186612010565b90506122a8604083018561208f565b6122b5606083018461208f565b95945050505050565b60006060820190506122d3600083018661208f565b6122e0602083018561208f565b6122ed604083018461208f565b949350505050565b600060808201905061230a600083018761208f565b612317602083018661208f565b612324604083018561208f565b612331606083018461208f565b95945050505050565b6000612344612355565b90506123508282612508565b919050565b6000604051905090565b600067ffffffffffffffff82111561237a576123796125c6565b5b61238382612613565b9050602081019050919050565b600081519050919050565b600082825260208201905092915050565b60006123b782612466565b91506123c283612466565b9250827fffffffffffffffffffffffffffffffffffffffffffffffffffffffffffffffff038211156123f7576123f6612539565b5b828201905092915050565b600061240d82612446565b9050919050565b60008115159050919050565b600081905061242e826126c2565b919050565b6000819050612441826126d6565b919050565b600073ffffffffffffffffffffffffffffffffffffffff82169050919050565b6000819050919050565b600061247b82612420565b9050919050565b600061248d82612433565b9050919050565b82818337600083830152505050565b60005b838110156124c15780820151818401526020810190506124a6565b838111156124d0576000848401525b50505050565b600060028204905060018216806124ee57607f821691505b6020821081141561250257612501612597565b5b50919050565b61251182612613565b810181811067ffffffffffffffff821117156125305761252f6125c6565b5b80604052505050565b7f4e487b7100000000000000000000000000000000000000000000000000000000600052601160045260246000fd5b7f4e487b7100000000000000000000000000000000000000000000000000000000600052602160045260246000fd5b7f4e487b7100000000000000000000000000000000000000000000000000000000600052602260045260246000fd5b7f4e487b7100000000000000000000000000000000000000000000000000000000600052604160045260246000fd5b600080fd5b600080fd5b600080fd5b600080fd5b600080fd5b600080fd5b6000601f19601f8301169050919050565b7f486172766573742074696d652073686f756c64206265206c617465722074686160008201527f6e206661726d2074696d652e0000000000000000000000000000000000000000602082015250565b7f43616e6e6f742073656e6420746865206475706c69636174652070726f64756360008201527f742069642e000000000000000000000000000000000000000000000000000000602082015250565b600381106126d3576126d2612568565b5b50565b600781106126e7576126e6612568565b5b50565b6126f381612402565b81146126fe57600080fd5b50565b61270a81612414565b811461271557600080fd5b50565b61272181612466565b811461272c57600080fd5b5056fea2646970667358221220ab706f43544101934b8bd139aaa5cd6f379fa649a2f6ce3756d645139d03d30d64736f6c63430008060033",
  "immutableReferences": {},
  "source": "// SPDX-License-Identifier: UNLICENSED\n\n// test\npragma solidity ^0.8.0;\n\nimport \"./Profile.sol\";\nimport \"./Trace.sol\";\n\ncontract ProductSC {\n    enum status {\n        FARMING,\n        HARVESTING,\n        MANUFACTURING,\n        SHIPPING,\n        RETAILING,\n        PURCHASING,\n        RECALLING\n    }\n\n    //For sendProduct function\n    // based on Original design\n    enum SendProductStatus {\n        pending,\n        approved,\n        rejected\n    }\n    \n    struct Product {\n        uint256 productId;\n        string productName;\n        status statusType;\n        uint256 productPrice;\n        address FarmerId;\n        address manufacturerId;\n        address distributorId;\n        address retailerId;\n        address ConsumerId;\n    }\n    \n    struct Farming {\n        uint256 productId;\n        uint256 recordBlock;\n        uint256 farmingTime;\n        uint256 harvestTime;\n    }\n\n    struct Manufacturing {\n        uint256 productId;\n        string processType;\n        uint256 recordBlock;\n        uint256 timestamp;\n    }\n    \n    // relevant to track.sol, \n    // may add new attribute after interact with tracker\n    struct Logistics {\n        uint256 productId;\n        uint256 recordBlock;\n        uint256 timeStamp;\n    }\n    \n    struct Retailing {\n        uint256 productId;\n        uint256 recordBlock;\n        uint256 timeStamp;\n    }\n    \n    struct Purchasing {\n        uint256 productId;\n        uint256 recordBlock;\n        uint256 timeStamp;\n    }\n\n    struct SendProductItem {\n        uint256 productId;\n        address sender;\n        address receiver;\n        SendProductStatus status;\n        bool isValue; // To check duplicate SendProductItem\n    }\n\n    uint256 public numProducts = 0;\n    mapping(uint256 => Product) public products;\n    \n    // status updating info\n    mapping(uint256 => Farming) public farming_process;\n    mapping(uint256 => Manufacturing) public manu_process;\n    mapping(uint256 => Logistics) public logi_process;\n    mapping(uint256 => Retailing) public retail_process;\n    mapping(uint256 => Purchasing) public purchase_process;\n    \n    //For sendProduct function\n    // based on Original design\n    mapping(uint256 => SendProductItem) public sendProducts;\n    mapping(address => Product[]) public receiverProducts;\n\n\n    event Harvested(uint256 productId);\n    event Manufactured(uint256 productId);\n    event Distributed(uint256 productId);\n    event Retailed(uint256 productId);\n    event Purchased(uint256 productId);\n  \n    address public traceAddress;\n\n    constructor(address _traceAddress) {\n        traceAddress = _traceAddress;\n    }\n\n    function createProduct(string memory name) public returns (uint256) {\n        Product memory p;\n        p.productName = name;\n        numProducts = numProducts + 1;\n        p.productId = numProducts;\n        p.statusType = status.FARMING;\n        products[p.productId] = p;\n        return numProducts;\n    }\n\n    function addProductFarmingInfo(\n        uint256 _pid,\n        uint256 _farmtime,\n        uint256 _harvtime\n    ) public {\n        require(\n            _harvtime > _farmtime,\n            \"Harvest time should be later than farm time.\"\n        );\n\n        Product storage existProduct = products[_pid];\n        existProduct.FarmerId = msg.sender;\n        existProduct.statusType = status.HARVESTING;\n\n        Farming memory f;\n        f.productId = _pid;\n        f.farmingTime = _farmtime;\n        f.harvestTime = _harvtime;\n        f.recordBlock = block.number;\n        farming_process[_pid] = f;\n        \n        emit Harvested(_pid);\n    }\n\n    function manuProductInfo(\n        uint256 _pid, \n        string memory _processtype\n    ) public {\n        Product storage existProduct = products[_pid];\n        existProduct.manufacturerId = msg.sender;\n        existProduct.statusType = status.MANUFACTURING;\n\n        Manufacturing memory m;\n        m.productId = _pid;\n        m.processType = _processtype;\n        m.recordBlock = block.number;\n        m.timestamp = block.timestamp;\n        manu_process[_pid] = m;\n        \n        \n        \n        emit Manufactured(_pid);\n    }\n    \n    function logiProductInfo(\n        address sender, uint256 _pid\n    ) public {\n        Product storage existProduct = products[_pid];\n        existProduct.distributorId = sender;\n        existProduct.statusType = status.SHIPPING;\n        \n        Logistics memory l;\n        l.productId = _pid;\n        l.recordBlock = block.number;\n        l.timeStamp = block.timestamp;\n        logi_process[_pid] = l;\n        \n        emit Distributed(_pid);\n        \n    }\n    \n    function retailProductInfo(\n        address sender, uint256 _pid\n    ) public {\n        Product storage existProduct = products[_pid];\n        existProduct.retailerId = sender;\n        existProduct.statusType = status.RETAILING;\n        \n        Retailing memory r;\n        r.productId = block.number;\n        r.timeStamp = block.timestamp;\n        retail_process[_pid] = r;\n        \n        emit Retailed(_pid);\n    }\n    \n    function purchasingProductInfo(\n        address sender,\n        uint256 _pid,\n        uint256 _price\n    ) public {\n        Product storage existProduct = products[_pid];\n        existProduct.ConsumerId = sender;\n        existProduct.statusType = status.PURCHASING;\n        existProduct.productPrice = _price;\n        \n        Purchasing memory p;\n        p.productId = block.number;\n        p.timeStamp = block.timestamp;\n        purchase_process[_pid] = p;\n        \n        emit Purchased(_pid);\n        \n        \n    }\n        \n\n    //For sendProduct function\n    // based on Original design\n    event SendProduct(\n        uint256 indexed productId,\n        address sender,\n        address receiver,\n        uint256 status\n    );\n\n    // enum SendProductStatus {0=pending,1=approved,2=rejected}\n    // to validate the account type must do it off-chain to call profile contract\n    function sendProduct(uint256 productId, address receiver, address logistic, string calldata trackingNumber )\n        public\n        checkDuplicateSendProductItem(productId)\n    {\n        SendProductItem memory newSendProductItem = SendProductItem(\n            productId,\n            msg.sender,\n            receiver,\n            SendProductStatus.pending,\n            true\n        );\n\n        sendProducts[productId] = newSendProductItem;\n        //get product item for products\n        Product memory productItem = products[productId];\n        receiverProducts[receiver].push(productItem);\n        emit SendProduct(\n            newSendProductItem.productId,\n            newSendProductItem.sender,\n            newSendProductItem.receiver,\n            uint256(newSendProductItem.status)\n        );\n\n        Trace trace = Trace(traceAddress);\n        trace.addProduct(productId, logistic, trackingNumber);\n    }\n\n    function receiveProduct(uint256 productId, bool receiveStatus) public {\n        if (receiveStatus == true) {\n            sendProducts[productId].status = SendProductStatus.approved;\n        } else {\n            sendProducts[productId].status = SendProductStatus.rejected;\n        }\n    }\n\n    // private functions\n    // Does account address exist?\n    function isExistSendProductItem(uint256 productId)\n        private\n        view\n        returns (bool)\n    {\n        if (sendProducts[productId].isValue) {\n            return true;\n        }\n        return false;\n    }\n\n    modifier checkDuplicateSendProductItem(uint256 _productId) {\n        require(\n            isExistSendProductItem(_productId) == false,\n            \"Cannot send the duplicate product id.\"\n        );\n        _;\n    }\n\n    // modifier isFarmer() {\n    //     require(operator[msg.sender].accountType == Profile.AccountType.Farmer, \"This function can only be executed by the farmer.\");\n    //     _;\n    // }\n    // modifier isApprove() {\n    //     require(operator[msg.sender].accountStatus == Profile.AccountStatus.Approved, \"This action need to be approved.\");\n    //     _;\n    // }\n}\n",
  "sourcePath": "/Volumes/Data/Users/rittisak/Projects/unsw/comp6452/solidity/contracts/Product.sol",
  "compiler": {
    "name": "solc",
    "version": "0.8.6+commit.11564f7e.Emscripten.clang"
  },
  "schemaVersion": "3.4.1",
  "updatedAt": "2021-07-12T06:12:21.403Z",
  "networkType": "ethereum",
  "devdoc": {
    "kind": "dev",
    "methods": {},
    "version": 1
  },
  "userdoc": {
    "kind": "user",
    "methods": {},
    "version": 1
  }
}