{
  "contractName": "ProductSC",
  "abi": [
    {
      "anonymous": false,
      "inputs": [
        {
          "indexed": false,
          "internalType": "uint256",
          "name": "productId",
          "type": "uint256"
        }
      ],
      "name": "Distributed",
      "type": "event"
    },
    {
      "anonymous": false,
      "inputs": [
        {
          "indexed": false,
          "internalType": "uint256",
          "name": "productId",
          "type": "uint256"
        }
      ],
      "name": "Harvested",
      "type": "event"
    },
    {
      "anonymous": false,
      "inputs": [
        {
          "indexed": false,
          "internalType": "uint256",
          "name": "productId",
          "type": "uint256"
        }
      ],
      "name": "Manufactured",
      "type": "event"
    },
    {
      "anonymous": false,
      "inputs": [
        {
          "indexed": false,
          "internalType": "uint256",
          "name": "productId",
          "type": "uint256"
        }
      ],
      "name": "Purchased",
      "type": "event"
    },
    {
      "anonymous": false,
      "inputs": [
        {
          "indexed": false,
          "internalType": "uint256",
          "name": "productId",
          "type": "uint256"
        }
      ],
      "name": "Retailed",
      "type": "event"
    },
    {
      "anonymous": false,
      "inputs": [
        {
          "indexed": true,
          "internalType": "uint256",
          "name": "productId",
          "type": "uint256"
        },
        {
          "indexed": false,
          "internalType": "address",
          "name": "sender",
          "type": "address"
        },
        {
          "indexed": false,
          "internalType": "address",
          "name": "receiver",
          "type": "address"
        },
        {
          "indexed": false,
          "internalType": "uint256",
          "name": "status",
          "type": "uint256"
        }
      ],
      "name": "SendProduct",
      "type": "event"
    },
    {
      "inputs": [
        {
          "internalType": "uint256",
          "name": "",
          "type": "uint256"
        }
      ],
      "name": "farming_process",
      "outputs": [
        {
          "internalType": "uint256",
          "name": "productId",
          "type": "uint256"
        },
        {
          "internalType": "uint256",
          "name": "recordBlock",
          "type": "uint256"
        },
        {
          "internalType": "uint256",
          "name": "farmingTime",
          "type": "uint256"
        },
        {
          "internalType": "uint256",
          "name": "harvestTime",
          "type": "uint256"
        }
      ],
      "stateMutability": "view",
      "type": "function"
    },
    {
      "inputs": [
        {
          "internalType": "uint256",
          "name": "",
          "type": "uint256"
        }
      ],
      "name": "logi_process",
      "outputs": [
        {
          "internalType": "uint256",
          "name": "productId",
          "type": "uint256"
        },
        {
          "internalType": "uint256",
          "name": "recordBlock",
          "type": "uint256"
        },
        {
          "internalType": "uint256",
          "name": "timeStamp",
          "type": "uint256"
        }
      ],
      "stateMutability": "view",
      "type": "function"
    },
    {
      "inputs": [
        {
          "internalType": "uint256",
          "name": "",
          "type": "uint256"
        }
      ],
      "name": "manu_process",
      "outputs": [
        {
          "internalType": "uint256",
          "name": "productId",
          "type": "uint256"
        },
        {
          "internalType": "string",
          "name": "processType",
          "type": "string"
        },
        {
          "internalType": "uint256",
          "name": "recordBlock",
          "type": "uint256"
        },
        {
          "internalType": "uint256",
          "name": "timestamp",
          "type": "uint256"
        }
      ],
      "stateMutability": "view",
      "type": "function"
    },
    {
      "inputs": [],
      "name": "numProducts",
      "outputs": [
        {
          "internalType": "uint256",
          "name": "",
          "type": "uint256"
        }
      ],
      "stateMutability": "view",
      "type": "function"
    },
    {
      "inputs": [
        {
          "internalType": "uint256",
          "name": "",
          "type": "uint256"
        }
      ],
      "name": "products",
      "outputs": [
        {
          "internalType": "uint256",
          "name": "productId",
          "type": "uint256"
        },
        {
          "internalType": "string",
          "name": "productName",
          "type": "string"
        },
        {
          "internalType": "enum ProductSC.status",
          "name": "statusType",
          "type": "uint8"
        },
        {
          "internalType": "uint256",
          "name": "productPrice",
          "type": "uint256"
        },
        {
          "internalType": "address",
          "name": "FarmerId",
          "type": "address"
        },
        {
          "internalType": "address",
          "name": "manufacturerId",
          "type": "address"
        },
        {
          "internalType": "address",
          "name": "distributorId",
          "type": "address"
        },
        {
          "internalType": "address",
          "name": "retailerId",
          "type": "address"
        },
        {
          "internalType": "address",
          "name": "ConsumerId",
          "type": "address"
        }
      ],
      "stateMutability": "view",
      "type": "function"
    },
    {
      "inputs": [
        {
          "internalType": "uint256",
          "name": "",
          "type": "uint256"
        }
      ],
      "name": "purchase_process",
      "outputs": [
        {
          "internalType": "uint256",
          "name": "productId",
          "type": "uint256"
        },
        {
          "internalType": "uint256",
          "name": "recordBlock",
          "type": "uint256"
        },
        {
          "internalType": "uint256",
          "name": "timeStamp",
          "type": "uint256"
        }
      ],
      "stateMutability": "view",
      "type": "function"
    },
    {
      "inputs": [
        {
          "internalType": "address",
          "name": "",
          "type": "address"
        },
        {
          "internalType": "uint256",
          "name": "",
          "type": "uint256"
        }
      ],
      "name": "receiverProducts",
      "outputs": [
        {
          "internalType": "uint256",
          "name": "productId",
          "type": "uint256"
        },
        {
          "internalType": "string",
          "name": "productName",
          "type": "string"
        },
        {
          "internalType": "enum ProductSC.status",
          "name": "statusType",
          "type": "uint8"
        },
        {
          "internalType": "uint256",
          "name": "productPrice",
          "type": "uint256"
        },
        {
          "internalType": "address",
          "name": "FarmerId",
          "type": "address"
        },
        {
          "internalType": "address",
          "name": "manufacturerId",
          "type": "address"
        },
        {
          "internalType": "address",
          "name": "distributorId",
          "type": "address"
        },
        {
          "internalType": "address",
          "name": "retailerId",
          "type": "address"
        },
        {
          "internalType": "address",
          "name": "ConsumerId",
          "type": "address"
        }
      ],
      "stateMutability": "view",
      "type": "function"
    },
    {
      "inputs": [
        {
          "internalType": "uint256",
          "name": "",
          "type": "uint256"
        }
      ],
      "name": "retail_process",
      "outputs": [
        {
          "internalType": "uint256",
          "name": "productId",
          "type": "uint256"
        },
        {
          "internalType": "uint256",
          "name": "recordBlock",
          "type": "uint256"
        },
        {
          "internalType": "uint256",
          "name": "timeStamp",
          "type": "uint256"
        }
      ],
      "stateMutability": "view",
      "type": "function"
    },
    {
      "inputs": [
        {
          "internalType": "uint256",
          "name": "",
          "type": "uint256"
        }
      ],
      "name": "sendProducts",
      "outputs": [
        {
          "internalType": "uint256",
          "name": "productId",
          "type": "uint256"
        },
        {
          "internalType": "address",
          "name": "sender",
          "type": "address"
        },
        {
          "internalType": "address",
          "name": "receiver",
          "type": "address"
        },
        {
          "internalType": "enum ProductSC.SendProductStatus",
          "name": "status",
          "type": "uint8"
        },
        {
          "internalType": "bool",
          "name": "isValue",
          "type": "bool"
        }
      ],
      "stateMutability": "view",
      "type": "function"
    },
    {
      "inputs": [
        {
          "internalType": "string",
          "name": "name",
          "type": "string"
        }
      ],
      "name": "createProduct",
      "outputs": [
        {
          "internalType": "uint256",
          "name": "",
          "type": "uint256"
        }
      ],
      "stateMutability": "nonpayable",
      "type": "function"
    },
    {
      "inputs": [
        {
          "internalType": "uint256",
          "name": "_pid",
          "type": "uint256"
        },
        {
          "internalType": "uint256",
          "name": "_farmtime",
          "type": "uint256"
        },
        {
          "internalType": "uint256",
          "name": "_harvtime",
          "type": "uint256"
        }
      ],
      "name": "addProductFarmingInfo",
      "outputs": [],
      "stateMutability": "nonpayable",
      "type": "function"
    },
    {
      "inputs": [
        {
          "internalType": "uint256",
          "name": "_pid",
          "type": "uint256"
        },
        {
          "internalType": "string",
          "name": "_processtype",
          "type": "string"
        }
      ],
      "name": "manuProductInfo",
      "outputs": [],
      "stateMutability": "nonpayable",
      "type": "function"
    },
    {
      "inputs": [
        {
          "internalType": "address",
          "name": "sender",
          "type": "address"
        },
        {
          "internalType": "uint256",
          "name": "_pid",
          "type": "uint256"
        }
      ],
      "name": "logiProductInfo",
      "outputs": [],
      "stateMutability": "nonpayable",
      "type": "function"
    },
    {
      "inputs": [
        {
          "internalType": "address",
          "name": "sender",
          "type": "address"
        },
        {
          "internalType": "uint256",
          "name": "_pid",
          "type": "uint256"
        }
      ],
      "name": "retailProductInfo",
      "outputs": [],
      "stateMutability": "nonpayable",
      "type": "function"
    },
    {
      "inputs": [
        {
          "internalType": "address",
          "name": "sender",
          "type": "address"
        },
        {
          "internalType": "uint256",
          "name": "_pid",
          "type": "uint256"
        },
        {
          "internalType": "uint256",
          "name": "_price",
          "type": "uint256"
        }
      ],
      "name": "purchasingProductInfo",
      "outputs": [],
      "stateMutability": "nonpayable",
      "type": "function"
    },
    {
      "inputs": [
        {
          "internalType": "uint256",
          "name": "productId",
          "type": "uint256"
        },
        {
          "internalType": "address",
          "name": "receiver",
          "type": "address"
        }
      ],
      "name": "sendProduct",
      "outputs": [],
      "stateMutability": "nonpayable",
      "type": "function"
    },
    {
      "inputs": [
        {
          "internalType": "uint256",
          "name": "productId",
          "type": "uint256"
        },
        {
          "internalType": "bool",
          "name": "receiveStatus",
          "type": "bool"
        }
      ],
      "name": "receiveProduct",
      "outputs": [],
      "stateMutability": "nonpayable",
      "type": "function"
    }
  ],
  "bytecode": "0x60806040526000805534801561001457600080fd5b5061278c806100246000396000f3fe608060405234801561001057600080fd5b506004361061010b5760003560e01c8063680a1519116100a257806389b8a49f1161007157806389b8a49f14610307578063a5ae13091461033a578063ac964f2114610356578063c850818714610374578063cf257160146103a65761010b565b8063680a15191461024e5780636af5da2b1461026a5780636fd800591461029c5780637acc0b20146102cf5761010b565b80634ad751ed116100de5780634ad751ed146101aa5780634dca9cdf146101c657806350c42fec146101fe578063527d7ae3146102325761010b565b806302ec06be14610110578063074fd815146101405780631e9e57611461015c5780632fab290014610178575b600080fd5b61012a60048036038101906101259190611eef565b6103c2565b60405161013791906121b5565b60405180910390f35b61015a60048036038101906101559190611f59565b610684565b005b61017660048036038101906101719190612025565b610e6b565b005b610192600480360381019061018d9190611f30565b611007565b6040516101a193929190612303565b60405180910390f35b6101c460048036038101906101bf9190611ea0565b611031565b005b6101e060048036038101906101db9190611e64565b611176565b6040516101f599989796959493929190612223565b60405180910390f35b61021860048036038101906102139190611f30565b611316565b6040516102299594939291906121d0565b60405180910390f35b61024c60048036038101906102479190611f95565b6113a6565b005b61026860048036038101906102639190611e64565b611487565b005b610284600480360381019061027f9190611f30565b6115cc565b60405161029393929190612303565b60405180910390f35b6102b660048036038101906102b19190611f30565b6115f6565b6040516102c6949392919061233a565b60405180910390f35b6102e960048036038101906102e49190611f30565b611626565b6040516102fe99989796959493929190612223565b60405180910390f35b610321600480360381019061031c9190611f30565b6117a9565b60405161033194939291906122b7565b60405180910390f35b610354600480360381019061034f9190611fd1565b611861565b005b61035e6119cc565b60405161036b91906121b5565b60405180910390f35b61038e60048036038101906103899190611f30565b6119d2565b60405161039d93929190612303565b60405180910390f35b6103c060048036038101906103bb9190611e64565b6119fc565b005b60006103cc611b75565b82816020018190525060016000546103e491906123f1565b600081905550600054816000018181525050600081604001906006811115610435577f4e487b7100000000000000000000000000000000000000000000000000000000600052602160045260246000fd5b9081600681111561046f577f4e487b7100000000000000000000000000000000000000000000000000000000600052602160045260246000fd5b815250508060016000836000015181526020019081526020016000206000820151816000015560208201518160010190805190602001906104b1929190611c67565b5060408201518160020160006101000a81548160ff02191690836006811115610503577f4e487b7100000000000000000000000000000000000000000000000000000000600052602160045260246000fd5b02179055506060820151816003015560808201518160040160006101000a81548173ffffffffffffffffffffffffffffffffffffffff021916908373ffffffffffffffffffffffffffffffffffffffff16021790555060a08201518160050160006101000a81548173ffffffffffffffffffffffffffffffffffffffff021916908373ffffffffffffffffffffffffffffffffffffffff16021790555060c08201518160060160006101000a81548173ffffffffffffffffffffffffffffffffffffffff021916908373ffffffffffffffffffffffffffffffffffffffff16021790555060e08201518160070160006101000a81548173ffffffffffffffffffffffffffffffffffffffff021916908373ffffffffffffffffffffffffffffffffffffffff1602179055506101008201518160080160006101000a81548173ffffffffffffffffffffffffffffffffffffffff021916908373ffffffffffffffffffffffffffffffffffffffff160217905550905050600054915050919050565b816000151561069282611b37565b1515146106d4576040517f08c379a00000000000000000000000000000000000000000000000000000000081526004016106cb90612195565b60405180910390fd5b60006040518060a001604052808581526020013373ffffffffffffffffffffffffffffffffffffffff1681526020018473ffffffffffffffffffffffffffffffffffffffff16815260200160006002811115610759577f4e487b7100000000000000000000000000000000000000000000000000000000600052602160045260246000fd5b815260200160011515815250905080600760008681526020019081526020016000206000820151816000015560208201518160010160006101000a81548173ffffffffffffffffffffffffffffffffffffffff021916908373ffffffffffffffffffffffffffffffffffffffff16021790555060408201518160020160006101000a81548173ffffffffffffffffffffffffffffffffffffffff021916908373ffffffffffffffffffffffffffffffffffffffff16021790555060608201518160020160146101000a81548160ff02191690836002811115610864577f4e487b7100000000000000000000000000000000000000000000000000000000600052602160045260246000fd5b021790555060808201518160020160156101000a81548160ff02191690831515021790555090505060006001600086815260200190815260200160002060405180610120016040529081600082015481526020016001820180546108c79061251b565b80601f01602080910402602001604051908101604052809291908181526020018280546108f39061251b565b80156109405780601f1061091557610100808354040283529160200191610940565b820191906000526020600020905b81548152906001019060200180831161092357829003601f168201915b505050505081526020016002820160009054906101000a900460ff166006811115610994577f4e487b7100000000000000000000000000000000000000000000000000000000600052602160045260246000fd5b60068111156109cc577f4e487b7100000000000000000000000000000000000000000000000000000000600052602160045260246000fd5b8152602001600382015481526020016004820160009054906101000a900473ffffffffffffffffffffffffffffffffffffffff1673ffffffffffffffffffffffffffffffffffffffff1673ffffffffffffffffffffffffffffffffffffffff1681526020016005820160009054906101000a900473ffffffffffffffffffffffffffffffffffffffff1673ffffffffffffffffffffffffffffffffffffffff1673ffffffffffffffffffffffffffffffffffffffff1681526020016006820160009054906101000a900473ffffffffffffffffffffffffffffffffffffffff1673ffffffffffffffffffffffffffffffffffffffff1673ffffffffffffffffffffffffffffffffffffffff1681526020016007820160009054906101000a900473ffffffffffffffffffffffffffffffffffffffff1673ffffffffffffffffffffffffffffffffffffffff1673ffffffffffffffffffffffffffffffffffffffff1681526020016008820160009054906101000a900473ffffffffffffffffffffffffffffffffffffffff1673ffffffffffffffffffffffffffffffffffffffff1673ffffffffffffffffffffffffffffffffffffffff16815250509050600860008573ffffffffffffffffffffffffffffffffffffffff1673ffffffffffffffffffffffffffffffffffffffff168152602001908152602001600020819080600181540180825580915050600190039060005260206000209060090201600090919091909150600082015181600001556020820151816001019080519060200190610c19929190611c67565b5060408201518160020160006101000a81548160ff02191690836006811115610c6b577f4e487b7100000000000000000000000000000000000000000000000000000000600052602160045260246000fd5b02179055506060820151816003015560808201518160040160006101000a81548173ffffffffffffffffffffffffffffffffffffffff021916908373ffffffffffffffffffffffffffffffffffffffff16021790555060a08201518160050160006101000a81548173ffffffffffffffffffffffffffffffffffffffff021916908373ffffffffffffffffffffffffffffffffffffffff16021790555060c08201518160060160006101000a81548173ffffffffffffffffffffffffffffffffffffffff021916908373ffffffffffffffffffffffffffffffffffffffff16021790555060e08201518160070160006101000a81548173ffffffffffffffffffffffffffffffffffffffff021916908373ffffffffffffffffffffffffffffffffffffffff1602179055506101008201518160080160006101000a81548173ffffffffffffffffffffffffffffffffffffffff021916908373ffffffffffffffffffffffffffffffffffffffff160217905550505081600001517ff62f5261a71249391de5c7e32e9ceddaf5c1a59a49ccf2e014d41e42577a33ee8360200151846040015185606001516002811115610e4d577f4e487b7100000000000000000000000000000000000000000000000000000000600052602160045260246000fd5b604051610e5c9392919061213e565b60405180910390a25050505050565b818111610ead576040517f08c379a0000000000000000000000000000000000000000000000000000000008152600401610ea490612175565b60405180910390fd5b6000600160008581526020019081526020016000209050338160040160006101000a81548173ffffffffffffffffffffffffffffffffffffffff021916908373ffffffffffffffffffffffffffffffffffffffff16021790555060018160020160006101000a81548160ff02191690836006811115610f55577f4e487b7100000000000000000000000000000000000000000000000000000000600052602160045260246000fd5b0217905550610f62611ced565b848160000181815250508381604001818152505082816060018181525050438160200181815250508060026000878152602001908152602001600020600082015181600001556020820151816001015560408201518160020155606082015181600301559050507f8e55ccfc9778ff8eba1646d765cf1982537ce0f9257054a17b48aad74525018385604051610ff891906121b5565b60405180910390a15050505050565b60046020528060005260406000206000915090508060000154908060010154908060020154905083565b6000600160008481526020019081526020016000209050838160080160006101000a81548173ffffffffffffffffffffffffffffffffffffffff021916908373ffffffffffffffffffffffffffffffffffffffff16021790555060058160020160006101000a81548160ff021916908360068111156110d9577f4e487b7100000000000000000000000000000000000000000000000000000000600052602160045260246000fd5b02179055508181600301819055506110ef611d15565b438160000181815250504281604001818152505080600660008681526020019081526020016000206000820151816000015560208201518160010155604082015181600201559050507f653d56639fee6b566a5c804764e9689de38645f0b733df89a36a1b7b42173dd88460405161116791906121b5565b60405180910390a15050505050565b6008602052816000526040600020818154811061119257600080fd5b9060005260206000209060090201600091509150508060000154908060010180546111bc9061251b565b80601f01602080910402602001604051908101604052809291908181526020018280546111e89061251b565b80156112355780601f1061120a57610100808354040283529160200191611235565b820191906000526020600020905b81548152906001019060200180831161121857829003601f168201915b5050505050908060020160009054906101000a900460ff16908060030154908060040160009054906101000a900473ffffffffffffffffffffffffffffffffffffffff16908060050160009054906101000a900473ffffffffffffffffffffffffffffffffffffffff16908060060160009054906101000a900473ffffffffffffffffffffffffffffffffffffffff16908060070160009054906101000a900473ffffffffffffffffffffffffffffffffffffffff16908060080160009054906101000a900473ffffffffffffffffffffffffffffffffffffffff16905089565b60076020528060005260406000206000915090508060000154908060010160009054906101000a900473ffffffffffffffffffffffffffffffffffffffff16908060020160009054906101000a900473ffffffffffffffffffffffffffffffffffffffff16908060020160149054906101000a900460ff16908060020160159054906101000a900460ff16905085565b60011515811515141561141d5760016007600084815260200190815260200160002060020160146101000a81548160ff02191690836002811115611413577f4e487b7100000000000000000000000000000000000000000000000000000000600052602160045260246000fd5b0217905550611483565b60026007600084815260200190815260200160002060020160146101000a81548160ff0219169083600281111561147d577f4e487b7100000000000000000000000000000000000000000000000000000000600052602160045260246000fd5b02179055505b5050565b6000600160008381526020019081526020016000209050828160060160006101000a81548173ffffffffffffffffffffffffffffffffffffffff021916908373ffffffffffffffffffffffffffffffffffffffff16021790555060038160020160006101000a81548160ff0219169083600681111561152f577f4e487b7100000000000000000000000000000000000000000000000000000000600052602160045260246000fd5b021790555061153c611d36565b82816000018181525050438160200181815250504281604001818152505080600460008581526020019081526020016000206000820151816000015560208201518160010155604082015181600201559050507fddc9c30275a04c48091f24199f9c405765de34d979d6847f5b9798a57232d2e5836040516115be91906121b5565b60405180910390a150505050565b60066020528060005260406000206000915090508060000154908060010154908060020154905083565b60026020528060005260406000206000915090508060000154908060010154908060020154908060030154905084565b600160205280600052604060002060009150905080600001549080600101805461164f9061251b565b80601f016020809104026020016040519081016040528092919081815260200182805461167b9061251b565b80156116c85780601f1061169d576101008083540402835291602001916116c8565b820191906000526020600020905b8154815290600101906020018083116116ab57829003601f168201915b5050505050908060020160009054906101000a900460ff16908060030154908060040160009054906101000a900473ffffffffffffffffffffffffffffffffffffffff16908060050160009054906101000a900473ffffffffffffffffffffffffffffffffffffffff16908060060160009054906101000a900473ffffffffffffffffffffffffffffffffffffffff16908060070160009054906101000a900473ffffffffffffffffffffffffffffffffffffffff16908060080160009054906101000a900473ffffffffffffffffffffffffffffffffffffffff16905089565b60036020528060005260406000206000915090508060000154908060010180546117d29061251b565b80601f01602080910402602001604051908101604052809291908181526020018280546117fe9061251b565b801561184b5780601f106118205761010080835404028352916020019161184b565b820191906000526020600020905b81548152906001019060200180831161182e57829003601f168201915b5050505050908060020154908060030154905084565b6000600160008481526020019081526020016000209050338160050160006101000a81548173ffffffffffffffffffffffffffffffffffffffff021916908373ffffffffffffffffffffffffffffffffffffffff16021790555060028160020160006101000a81548160ff02191690836006811115611909577f4e487b7100000000000000000000000000000000000000000000000000000000600052602160045260246000fd5b0217905550611916611d57565b8381600001818152505082816020018190525043816040018181525050428160600181815250508060036000868152602001908152602001600020600082015181600001556020820151816001019080519060200190611977929190611c67565b5060408201518160020155606082015181600301559050507fd29d8a68ca7c8c74be5579719d445aabfe230ed6e6a83aff475a663500eb7609846040516119be91906121b5565b60405180910390a150505050565b60005481565b60056020528060005260406000206000915090508060000154908060010154908060020154905083565b6000600160008381526020019081526020016000209050828160070160006101000a81548173ffffffffffffffffffffffffffffffffffffffff021916908373ffffffffffffffffffffffffffffffffffffffff16021790555060048160020160006101000a81548160ff02191690836006811115611aa4577f4e487b7100000000000000000000000000000000000000000000000000000000600052602160045260246000fd5b0217905550611ab1611d7f565b438160000181815250504281604001818152505080600560008581526020019081526020016000206000820151816000015560208201518160010155604082015181600201559050507f4775cda4e9d6bd2241e0ed5570f8e54035e97f8db4f863c6e1756fb4c957cbfc83604051611b2991906121b5565b60405180910390a150505050565b60006007600083815260200190815260200160002060020160159054906101000a900460ff1615611b6b5760019050611b70565b600090505b919050565b604051806101200160405280600081526020016060815260200160006006811115611bc9577f4e487b7100000000000000000000000000000000000000000000000000000000600052602160045260246000fd5b815260200160008152602001600073ffffffffffffffffffffffffffffffffffffffff168152602001600073ffffffffffffffffffffffffffffffffffffffff168152602001600073ffffffffffffffffffffffffffffffffffffffff168152602001600073ffffffffffffffffffffffffffffffffffffffff168152602001600073ffffffffffffffffffffffffffffffffffffffff1681525090565b828054611c739061251b565b90600052602060002090601f016020900481019282611c955760008555611cdc565b82601f10611cae57805160ff1916838001178555611cdc565b82800160010185558215611cdc579182015b82811115611cdb578251825591602001919060010190611cc0565b5b509050611ce99190611da0565b5090565b6040518060800160405280600081526020016000815260200160008152602001600081525090565b60405180606001604052806000815260200160008152602001600081525090565b60405180606001604052806000815260200160008152602001600081525090565b6040518060800160405280600081526020016060815260200160008152602001600081525090565b60405180606001604052806000815260200160008152602001600081525090565b5b80821115611db9576000816000905550600101611da1565b5090565b6000611dd0611dcb846123a4565b61237f565b905082815260208101848484011115611de857600080fd5b611df38482856124d9565b509392505050565b600081359050611e0a81612711565b92915050565b600081359050611e1f81612728565b92915050565b600082601f830112611e3657600080fd5b8135611e46848260208601611dbd565b91505092915050565b600081359050611e5e8161273f565b92915050565b60008060408385031215611e7757600080fd5b6000611e8585828601611dfb565b9250506020611e9685828601611e4f565b9150509250929050565b600080600060608486031215611eb557600080fd5b6000611ec386828701611dfb565b9350506020611ed486828701611e4f565b9250506040611ee586828701611e4f565b9150509250925092565b600060208284031215611f0157600080fd5b600082013567ffffffffffffffff811115611f1b57600080fd5b611f2784828501611e25565b91505092915050565b600060208284031215611f4257600080fd5b6000611f5084828501611e4f565b91505092915050565b60008060408385031215611f6c57600080fd5b6000611f7a85828601611e4f565b9250506020611f8b85828601611dfb565b9150509250929050565b60008060408385031215611fa857600080fd5b6000611fb685828601611e4f565b9250506020611fc785828601611e10565b9150509250929050565b60008060408385031215611fe457600080fd5b6000611ff285828601611e4f565b925050602083013567ffffffffffffffff81111561200f57600080fd5b61201b85828601611e25565b9150509250929050565b60008060006060848603121561203a57600080fd5b600061204886828701611e4f565b935050602061205986828701611e4f565b925050604061206a86828701611e4f565b9150509250925092565b61207d81612447565b82525050565b61208c81612459565b82525050565b61209b816124b5565b82525050565b6120aa816124c7565b82525050565b60006120bb826123d5565b6120c581856123e0565b93506120d58185602086016124e8565b6120de8161263a565b840191505092915050565b60006120f6602c836123e0565b91506121018261264b565b604082019050919050565b60006121196025836123e0565b91506121248261269a565b604082019050919050565b612138816124ab565b82525050565b60006060820190506121536000830186612074565b6121606020830185612074565b61216d604083018461212f565b949350505050565b6000602082019050818103600083015261218e816120e9565b9050919050565b600060208201905081810360008301526121ae8161210c565b9050919050565b60006020820190506121ca600083018461212f565b92915050565b600060a0820190506121e5600083018861212f565b6121f26020830187612074565b6121ff6040830186612074565b61220c6060830185612092565b6122196080830184612083565b9695505050505050565b600061012082019050612239600083018c61212f565b818103602083015261224b818b6120b0565b905061225a604083018a6120a1565b612267606083018961212f565b6122746080830188612074565b61228160a0830187612074565b61228e60c0830186612074565b61229b60e0830185612074565b6122a9610100830184612074565b9a9950505050505050505050565b60006080820190506122cc600083018761212f565b81810360208301526122de81866120b0565b90506122ed604083018561212f565b6122fa606083018461212f565b95945050505050565b6000606082019050612318600083018661212f565b612325602083018561212f565b612332604083018461212f565b949350505050565b600060808201905061234f600083018761212f565b61235c602083018661212f565b612369604083018561212f565b612376606083018461212f565b95945050505050565b600061238961239a565b9050612395828261254d565b919050565b6000604051905090565b600067ffffffffffffffff8211156123bf576123be61260b565b5b6123c88261263a565b9050602081019050919050565b600081519050919050565b600082825260208201905092915050565b60006123fc826124ab565b9150612407836124ab565b9250827fffffffffffffffffffffffffffffffffffffffffffffffffffffffffffffffff0382111561243c5761243b61257e565b5b828201905092915050565b60006124528261248b565b9050919050565b60008115159050919050565b6000819050612473826126e9565b919050565b6000819050612486826126fd565b919050565b600073ffffffffffffffffffffffffffffffffffffffff82169050919050565b6000819050919050565b60006124c082612465565b9050919050565b60006124d282612478565b9050919050565b82818337600083830152505050565b60005b838110156125065780820151818401526020810190506124eb565b83811115612515576000848401525b50505050565b6000600282049050600182168061253357607f821691505b60208210811415612547576125466125dc565b5b50919050565b6125568261263a565b810181811067ffffffffffffffff821117156125755761257461260b565b5b80604052505050565b7f4e487b7100000000000000000000000000000000000000000000000000000000600052601160045260246000fd5b7f4e487b7100000000000000000000000000000000000000000000000000000000600052602160045260246000fd5b7f4e487b7100000000000000000000000000000000000000000000000000000000600052602260045260246000fd5b7f4e487b7100000000000000000000000000000000000000000000000000000000600052604160045260246000fd5b6000601f19601f8301169050919050565b7f486172766573742074696d652073686f756c64206265206c617465722074686160008201527f6e206661726d2074696d652e0000000000000000000000000000000000000000602082015250565b7f43616e6e6f742073656e6420746865206475706c69636174652070726f64756360008201527f742069642e000000000000000000000000000000000000000000000000000000602082015250565b600381106126fa576126f96125ad565b5b50565b6007811061270e5761270d6125ad565b5b50565b61271a81612447565b811461272557600080fd5b50565b61273181612459565b811461273c57600080fd5b50565b612748816124ab565b811461275357600080fd5b5056fea26469706673582212207e44093b1ab27225005a6ff71e47249d5812156a31c192e26c309a3403ace85a64736f6c63430008040033",
  "immutableReferences": {},
  "source": "// SPDX-License-Identifier: UNLICENSED\r\n\r\n// test\r\npragma solidity ^0.8.0;\r\n\r\nimport \"./Profile.sol\";\r\n\r\ncontract ProductSC {\r\n    enum status {\r\n        FARMING,\r\n        HARVESTING,\r\n        MANUFACTURING,\r\n        SHIPPING,\r\n        RETAILING,\r\n        PURCHASING,\r\n        RECALLING\r\n    }\r\n\r\n    //For sendProduct function\r\n    // based on Original design\r\n    enum SendProductStatus {\r\n        pending,\r\n        approved,\r\n        rejected\r\n    }\r\n    \r\n    struct Product {\r\n        uint256 productId;\r\n        string productName;\r\n        status statusType;\r\n        uint256 productPrice;\r\n        address FarmerId;\r\n        address manufacturerId;\r\n        address distributorId;\r\n        address retailerId;\r\n        address ConsumerId;\r\n    }\r\n    \r\n    struct Farming {\r\n        uint256 productId;\r\n        uint256 recordBlock;\r\n        uint256 farmingTime;\r\n        uint256 harvestTime;\r\n    }\r\n\r\n    struct Manufacturing {\r\n        uint256 productId;\r\n        string processType;\r\n        uint256 recordBlock;\r\n        uint256 timestamp;\r\n    }\r\n    \r\n    // relevant to track.sol, \r\n    // may add new attribute after interact with tracker\r\n    struct Logistics {\r\n        uint256 productId;\r\n        uint256 recordBlock;\r\n        uint256 timeStamp;\r\n    }\r\n    \r\n    struct Retailing {\r\n        uint256 productId;\r\n        uint256 recordBlock;\r\n        uint256 timeStamp;\r\n    }\r\n    \r\n    struct Purchasing {\r\n        uint256 productId;\r\n        uint256 recordBlock;\r\n        uint256 timeStamp;\r\n    }\r\n\r\n    struct SendProductItem {\r\n        uint256 productId;\r\n        address sender;\r\n        address receiver;\r\n        SendProductStatus status;\r\n        bool isValue; // To check duplicate SendProductItem\r\n    }\r\n\r\n    uint256 public numProducts = 0;\r\n    mapping(uint256 => Product) public products;\r\n    \r\n    // status updating info\r\n    mapping(uint256 => Farming) public farming_process;\r\n    mapping(uint256 => Manufacturing) public manu_process;\r\n    mapping(uint256 => Logistics) public logi_process;\r\n    mapping(uint256 => Retailing) public retail_process;\r\n    mapping(uint256 => Purchasing) public purchase_process;\r\n    \r\n    //For sendProduct function\r\n    // based on Original design\r\n    mapping(uint256 => SendProductItem) public sendProducts;\r\n    mapping(address => Product[]) public receiverProducts;\r\n\r\n\r\n    event Harvested(uint256 productId);\r\n    event Manufactured(uint256 productId);\r\n    event Distributed(uint256 productId);\r\n    event Retailed(uint256 productId);\r\n    event Purchased(uint256 productId);\r\n  \r\n    function createProduct(string memory name) public returns (uint256) {\r\n        Product memory p;\r\n        p.productName = name;\r\n        numProducts = numProducts + 1;\r\n        p.productId = numProducts;\r\n        p.statusType = status.FARMING;\r\n        products[p.productId] = p;\r\n        return numProducts;\r\n    }\r\n\r\n    function addProductFarmingInfo(\r\n        uint256 _pid,\r\n        uint256 _farmtime,\r\n        uint256 _harvtime\r\n    ) public {\r\n        require(\r\n            _harvtime > _farmtime,\r\n            \"Harvest time should be later than farm time.\"\r\n        );\r\n\r\n        Product storage existProduct = products[_pid];\r\n        existProduct.FarmerId = msg.sender;\r\n        existProduct.statusType = status.HARVESTING;\r\n\r\n        Farming memory f;\r\n        f.productId = _pid;\r\n        f.farmingTime = _farmtime;\r\n        f.harvestTime = _harvtime;\r\n        f.recordBlock = block.number;\r\n        farming_process[_pid] = f;\r\n        \r\n        emit Harvested(_pid);\r\n    }\r\n\r\n    function manuProductInfo(\r\n        uint256 _pid, \r\n        string memory _processtype\r\n    ) public {\r\n        Product storage existProduct = products[_pid];\r\n        existProduct.manufacturerId = msg.sender;\r\n        existProduct.statusType = status.MANUFACTURING;\r\n\r\n        Manufacturing memory m;\r\n        m.productId = _pid;\r\n        m.processType = _processtype;\r\n        m.recordBlock = block.number;\r\n        m.timestamp = block.timestamp;\r\n        manu_process[_pid] = m;\r\n        \r\n        \r\n        \r\n        emit Manufactured(_pid);\r\n    }\r\n    \r\n    function logiProductInfo(\r\n        address sender, uint256 _pid\r\n    ) public {\r\n        Product storage existProduct = products[_pid];\r\n        existProduct.distributorId = sender;\r\n        existProduct.statusType = status.SHIPPING;\r\n        \r\n        Logistics memory l;\r\n        l.productId = _pid;\r\n        l.recordBlock = block.number;\r\n        l.timeStamp = block.timestamp;\r\n        logi_process[_pid] = l;\r\n        \r\n        emit Distributed(_pid);\r\n        \r\n    }\r\n    \r\n    function retailProductInfo(\r\n        address sender, uint256 _pid\r\n    ) public {\r\n        Product storage existProduct = products[_pid];\r\n        existProduct.retailerId = sender;\r\n        existProduct.statusType = status.RETAILING;\r\n        \r\n        Retailing memory r;\r\n        r.productId = block.number;\r\n        r.timeStamp = block.timestamp;\r\n        retail_process[_pid] = r;\r\n        \r\n        emit Retailed(_pid);\r\n    }\r\n    \r\n    function purchasingProductInfo(\r\n        address sender,\r\n        uint256 _pid,\r\n        uint256 _price\r\n    ) public {\r\n        Product storage existProduct = products[_pid];\r\n        existProduct.ConsumerId = sender;\r\n        existProduct.statusType = status.PURCHASING;\r\n        existProduct.productPrice = _price;\r\n        \r\n        Purchasing memory p;\r\n        p.productId = block.number;\r\n        p.timeStamp = block.timestamp;\r\n        purchase_process[_pid] = p;\r\n        \r\n        emit Purchased(_pid);\r\n        \r\n        \r\n    }\r\n        \r\n\r\n    //For sendProduct function\r\n    // based on Original design\r\n    event SendProduct(\r\n        uint256 indexed productId,\r\n        address sender,\r\n        address receiver,\r\n        uint256 status\r\n    );\r\n\r\n    // enum SendProductStatus {0=pending,1=approved,2=rejected}\r\n    // to validate the account type must do it off-chain to call profile contract\r\n    function sendProduct(uint256 productId, address receiver)\r\n        public\r\n        checkDuplicateSendProductItem(productId)\r\n    {\r\n        SendProductItem memory newSendProductItem = SendProductItem(\r\n            productId,\r\n            msg.sender,\r\n            receiver,\r\n            SendProductStatus.pending,\r\n            true\r\n        );\r\n\r\n        sendProducts[productId] = newSendProductItem;\r\n        //get product item for products\r\n        Product memory productItem = products[productId];\r\n        receiverProducts[receiver].push(productItem);\r\n        emit SendProduct(\r\n            newSendProductItem.productId,\r\n            newSendProductItem.sender,\r\n            newSendProductItem.receiver,\r\n            uint256(newSendProductItem.status)\r\n        );\r\n    }\r\n\r\n    function receiveProduct(uint256 productId, bool receiveStatus) public {\r\n        if (receiveStatus == true) {\r\n            sendProducts[productId].status = SendProductStatus.approved;\r\n        } else {\r\n            sendProducts[productId].status = SendProductStatus.rejected;\r\n        }\r\n    }\r\n\r\n    // private functions\r\n    // Does account address exist?\r\n    function isExistSendProductItem(uint256 productId)\r\n        private\r\n        view\r\n        returns (bool)\r\n    {\r\n        if (sendProducts[productId].isValue) {\r\n            return true;\r\n        }\r\n        return false;\r\n    }\r\n\r\n    modifier checkDuplicateSendProductItem(uint256 _productId) {\r\n        require(\r\n            isExistSendProductItem(_productId) == false,\r\n            \"Cannot send the duplicate product id.\"\r\n        );\r\n        _;\r\n    }\r\n\r\n    // modifier isFarmer() {\r\n    //     require(operator[msg.sender].accountType == Profile.AccountType.Farmer, \"This function can only be executed by the farmer.\");\r\n    //     _;\r\n    // }\r\n    // modifier isApprove() {\r\n    //     require(operator[msg.sender].accountStatus == Profile.AccountStatus.Approved, \"This action need to be approved.\");\r\n    //     _;\r\n    // }\r\n}\r\n",
  "sourcePath": "D:/UNSW-2021-Term2/comp6452/Project 2/Git-Foodie2/COMP6452_Project/solidity/contracts/Product.sol",
  "compiler": {
    "name": "solc",
    "version": "0.8.4+commit.c7e474f2.Emscripten.clang"
  },
  "schemaVersion": "3.4.1",
  "updatedAt": "2021-07-16T03:45:26.811Z",
  "devdoc": {
    "kind": "dev",
    "methods": {},
    "version": 1
  },
  "userdoc": {
    "kind": "user",
    "methods": {},
    "version": 1
  }
}