{
  "contractName": "ProductSC",
  "abi": [
    {
      "inputs": [
        {
          "internalType": "address",
          "name": "_traceAddress",
          "type": "address"
        }
      ],
      "stateMutability": "nonpayable",
      "type": "constructor"
    },
    {
      "anonymous": false,
      "inputs": [
        {
          "indexed": false,
          "internalType": "uint256",
          "name": "productId",
          "type": "uint256"
        }
      ],
      "name": "Distributed",
      "type": "event"
    },
    {
      "anonymous": false,
      "inputs": [
        {
          "indexed": false,
          "internalType": "uint256",
          "name": "productId",
          "type": "uint256"
        }
      ],
      "name": "Harvested",
      "type": "event"
    },
    {
      "anonymous": false,
      "inputs": [
        {
          "indexed": false,
          "internalType": "uint256",
          "name": "productId",
          "type": "uint256"
        }
      ],
      "name": "Manufactured",
      "type": "event"
    },
    {
      "anonymous": false,
      "inputs": [
        {
          "indexed": false,
          "internalType": "uint256",
          "name": "productId",
          "type": "uint256"
        }
      ],
      "name": "Purchased",
      "type": "event"
    },
    {
      "anonymous": false,
      "inputs": [
        {
          "indexed": false,
          "internalType": "uint256",
          "name": "productId",
          "type": "uint256"
        }
      ],
      "name": "Retailed",
      "type": "event"
    },
    {
      "anonymous": false,
      "inputs": [
        {
          "indexed": true,
          "internalType": "uint256",
          "name": "productId",
          "type": "uint256"
        },
        {
          "indexed": false,
          "internalType": "address",
          "name": "sender",
          "type": "address"
        },
        {
          "indexed": false,
          "internalType": "address",
          "name": "receiver",
          "type": "address"
        },
        {
          "indexed": false,
          "internalType": "uint256",
          "name": "status",
          "type": "uint256"
        }
      ],
      "name": "SendProduct",
      "type": "event"
    },
    {
      "inputs": [
        {
          "internalType": "uint256",
          "name": "",
          "type": "uint256"
        }
      ],
      "name": "farming_process",
      "outputs": [
        {
          "internalType": "uint256",
          "name": "productId",
          "type": "uint256"
        },
        {
          "internalType": "uint256",
          "name": "recordBlock",
          "type": "uint256"
        },
        {
          "internalType": "uint256",
          "name": "farmingTime",
          "type": "uint256"
        },
        {
          "internalType": "uint256",
          "name": "harvestTime",
          "type": "uint256"
        }
      ],
      "stateMutability": "view",
      "type": "function",
      "constant": true
    },
    {
      "inputs": [
        {
          "internalType": "uint256",
          "name": "",
          "type": "uint256"
        }
      ],
      "name": "logi_process",
      "outputs": [
        {
          "internalType": "uint256",
          "name": "productId",
          "type": "uint256"
        },
        {
          "internalType": "uint256",
          "name": "recordBlock",
          "type": "uint256"
        },
        {
          "internalType": "uint256",
          "name": "timeStamp",
          "type": "uint256"
        }
      ],
      "stateMutability": "view",
      "type": "function",
      "constant": true
    },
    {
      "inputs": [
        {
          "internalType": "uint256",
          "name": "",
          "type": "uint256"
        }
      ],
      "name": "manu_process",
      "outputs": [
        {
          "internalType": "uint256",
          "name": "productId",
          "type": "uint256"
        },
        {
          "internalType": "string",
          "name": "processType",
          "type": "string"
        },
        {
          "internalType": "uint256",
          "name": "recordBlock",
          "type": "uint256"
        },
        {
          "internalType": "uint256",
          "name": "timestamp",
          "type": "uint256"
        }
      ],
      "stateMutability": "view",
      "type": "function",
      "constant": true
    },
    {
      "inputs": [],
      "name": "numProducts",
      "outputs": [
        {
          "internalType": "uint256",
          "name": "",
          "type": "uint256"
        }
      ],
      "stateMutability": "view",
      "type": "function",
      "constant": true
    },
    {
      "inputs": [
        {
          "internalType": "uint256",
          "name": "",
          "type": "uint256"
        }
      ],
      "name": "products",
      "outputs": [
        {
          "internalType": "uint256",
          "name": "productId",
          "type": "uint256"
        },
        {
          "internalType": "string",
          "name": "productName",
          "type": "string"
        },
        {
          "internalType": "enum ProductSC.status",
          "name": "statusType",
          "type": "uint8"
        },
        {
          "internalType": "uint256",
          "name": "productPrice",
          "type": "uint256"
        },
        {
          "internalType": "address",
          "name": "FarmerId",
          "type": "address"
        },
        {
          "internalType": "address",
          "name": "manufacturerId",
          "type": "address"
        },
        {
          "internalType": "address",
          "name": "distributorId",
          "type": "address"
        },
        {
          "internalType": "address",
          "name": "retailerId",
          "type": "address"
        },
        {
          "internalType": "address",
          "name": "ConsumerId",
          "type": "address"
        }
      ],
      "stateMutability": "view",
      "type": "function",
      "constant": true
    },
    {
      "inputs": [
        {
          "internalType": "uint256",
          "name": "",
          "type": "uint256"
        }
      ],
      "name": "purchase_process",
      "outputs": [
        {
          "internalType": "uint256",
          "name": "productId",
          "type": "uint256"
        },
        {
          "internalType": "uint256",
          "name": "recordBlock",
          "type": "uint256"
        },
        {
          "internalType": "uint256",
          "name": "timeStamp",
          "type": "uint256"
        }
      ],
      "stateMutability": "view",
      "type": "function",
      "constant": true
    },
    {
      "inputs": [
        {
          "internalType": "address",
          "name": "",
          "type": "address"
        },
        {
          "internalType": "uint256",
          "name": "",
          "type": "uint256"
        }
      ],
      "name": "receiverProducts",
      "outputs": [
        {
          "internalType": "uint256",
          "name": "productId",
          "type": "uint256"
        },
        {
          "internalType": "string",
          "name": "productName",
          "type": "string"
        },
        {
          "internalType": "enum ProductSC.status",
          "name": "statusType",
          "type": "uint8"
        },
        {
          "internalType": "uint256",
          "name": "productPrice",
          "type": "uint256"
        },
        {
          "internalType": "address",
          "name": "FarmerId",
          "type": "address"
        },
        {
          "internalType": "address",
          "name": "manufacturerId",
          "type": "address"
        },
        {
          "internalType": "address",
          "name": "distributorId",
          "type": "address"
        },
        {
          "internalType": "address",
          "name": "retailerId",
          "type": "address"
        },
        {
          "internalType": "address",
          "name": "ConsumerId",
          "type": "address"
        }
      ],
      "stateMutability": "view",
      "type": "function",
      "constant": true
    },
    {
      "inputs": [
        {
          "internalType": "uint256",
          "name": "",
          "type": "uint256"
        }
      ],
      "name": "retail_process",
      "outputs": [
        {
          "internalType": "uint256",
          "name": "productId",
          "type": "uint256"
        },
        {
          "internalType": "uint256",
          "name": "recordBlock",
          "type": "uint256"
        },
        {
          "internalType": "uint256",
          "name": "timeStamp",
          "type": "uint256"
        }
      ],
      "stateMutability": "view",
      "type": "function",
      "constant": true
    },
    {
      "inputs": [
        {
          "internalType": "uint256",
          "name": "",
          "type": "uint256"
        }
      ],
      "name": "sendProducts",
      "outputs": [
        {
          "internalType": "uint256",
          "name": "productId",
          "type": "uint256"
        },
        {
          "internalType": "address",
          "name": "sender",
          "type": "address"
        },
        {
          "internalType": "address",
          "name": "receiver",
          "type": "address"
        },
        {
          "internalType": "enum ProductSC.SendProductStatus",
          "name": "status",
          "type": "uint8"
        },
        {
          "internalType": "bool",
          "name": "isValue",
          "type": "bool"
        }
      ],
      "stateMutability": "view",
      "type": "function",
      "constant": true
    },
    {
      "inputs": [],
      "name": "traceAddress",
      "outputs": [
        {
          "internalType": "address",
          "name": "",
          "type": "address"
        }
      ],
      "stateMutability": "view",
      "type": "function",
      "constant": true
    },
    {
      "inputs": [
        {
          "internalType": "string",
          "name": "name",
          "type": "string"
        }
      ],
      "name": "createProduct",
      "outputs": [
        {
          "internalType": "uint256",
          "name": "",
          "type": "uint256"
        }
      ],
      "stateMutability": "nonpayable",
      "type": "function"
    },
    {
      "inputs": [
        {
          "internalType": "uint256",
          "name": "_pid",
          "type": "uint256"
        },
        {
          "internalType": "uint256",
          "name": "_farmtime",
          "type": "uint256"
        },
        {
          "internalType": "uint256",
          "name": "_harvtime",
          "type": "uint256"
        }
      ],
      "name": "addProductFarmingInfo",
      "outputs": [],
      "stateMutability": "nonpayable",
      "type": "function"
    },
    {
      "inputs": [
        {
          "internalType": "uint256",
          "name": "_pid",
          "type": "uint256"
        },
        {
          "internalType": "string",
          "name": "_processtype",
          "type": "string"
        }
      ],
      "name": "manuProductInfo",
      "outputs": [],
      "stateMutability": "nonpayable",
      "type": "function"
    },
    {
      "inputs": [
        {
          "internalType": "address",
          "name": "sender",
          "type": "address"
        },
        {
          "internalType": "uint256",
          "name": "_pid",
          "type": "uint256"
        }
      ],
      "name": "logiProductInfo",
      "outputs": [],
      "stateMutability": "nonpayable",
      "type": "function"
    },
    {
      "inputs": [
        {
          "internalType": "address",
          "name": "sender",
          "type": "address"
        },
        {
          "internalType": "uint256",
          "name": "_pid",
          "type": "uint256"
        }
      ],
      "name": "retailProductInfo",
      "outputs": [],
      "stateMutability": "nonpayable",
      "type": "function"
    },
    {
      "inputs": [
        {
          "internalType": "address",
          "name": "sender",
          "type": "address"
        },
        {
          "internalType": "uint256",
          "name": "_pid",
          "type": "uint256"
        },
        {
          "internalType": "uint256",
          "name": "_price",
          "type": "uint256"
        }
      ],
      "name": "purchasingProductInfo",
      "outputs": [],
      "stateMutability": "nonpayable",
      "type": "function"
    },
    {
      "inputs": [
        {
          "internalType": "uint256",
          "name": "productId",
          "type": "uint256"
        },
        {
          "internalType": "address",
          "name": "receiver",
          "type": "address"
        },
        {
          "internalType": "address",
          "name": "logistic",
          "type": "address"
        },
        {
          "internalType": "string",
          "name": "trackingNumber",
          "type": "string"
        }
      ],
      "name": "sendProduct",
      "outputs": [],
      "stateMutability": "nonpayable",
      "type": "function"
    },
    {
      "inputs": [
        {
          "internalType": "uint256",
          "name": "productId",
          "type": "uint256"
        },
        {
          "internalType": "bool",
          "name": "receiveStatus",
          "type": "bool"
        }
      ],
      "name": "receiveProduct",
      "outputs": [],
      "stateMutability": "nonpayable",
      "type": "function"
    }
  ],
  "bytecode": "0x6080604052600080553480156200001557600080fd5b50604051620027fd380380620027fd83398181016040528101906200003b91906200009a565b80600960006101000a81548173ffffffffffffffffffffffffffffffffffffffff021916908373ffffffffffffffffffffffffffffffffffffffff160217905550506200011f565b600081519050620000948162000105565b92915050565b600060208284031215620000b357620000b262000100565b5b6000620000c38482850162000083565b91505092915050565b6000620000d982620000e0565b9050919050565b600073ffffffffffffffffffffffffffffffffffffffff82169050919050565b600080fd5b6200011081620000cc565b81146200011c57600080fd5b50565b6126ce806200012f6000396000f3fe608060405234801561001057600080fd5b50600436106101165760003560e01c80636af5da2b116100a2578063a5ae130911610071578063a5ae130914610347578063ac964f2114610363578063c850818714610381578063cf257160146103b3578063eff855ea146103cf57610116565b80636af5da2b146102775780636fd80059146102a95780637acc0b20146102dc57806389b8a49f1461031457610116565b80634ad751ed116100e95780634ad751ed146101b75780634dca9cdf146101d357806350c42fec1461020b578063527d7ae31461023f578063680a15191461025b57610116565b806302ec06be1461011b5780630dfe32b01461014b5780631e9e5761146101695780632fab290014610185575b600080fd5b61013560048036038101906101309190611d61565b6103eb565b60405161014291906120a5565b60405180910390f35b61015361063b565b6040516101609190612013565b60405180910390f35b610183600480360381019061017e9190611ef6565b610661565b005b61019f600480360381019061019a9190611daa565b6107d7565b6040516101ae93929190612231565b60405180910390f35b6101d160048036038101906101cc9190611d0e565b610801565b005b6101ed60048036038101906101e89190611cce565b610920565b60405161020299989796959493929190612151565b60405180910390f35b61022560048036038101906102209190611daa565b610ac0565b6040516102369594939291906120c0565b60405180910390f35b61025960048036038101906102549190611e5a565b610b50565b005b61027560048036038101906102709190611cce565b610be5565b005b610291600480360381019061028c9190611daa565b610d04565b6040516102a093929190612231565b60405180910390f35b6102c360048036038101906102be9190611daa565b610d2e565b6040516102d39493929190612268565b60405180910390f35b6102f660048036038101906102f19190611daa565b610d5e565b60405161030b99989796959493929190612151565b60405180910390f35b61032e60048036038101906103299190611daa565b610ee1565b60405161033e94939291906121e5565b60405180910390f35b610361600480360381019061035c9190611e9a565b610f99565b005b61036b6110de565b60405161037891906120a5565b60405180910390f35b61039b60048036038101906103969190611daa565b6110e4565b6040516103aa93929190612231565b60405180910390f35b6103cd60048036038101906103c89190611cce565b61110e565b005b6103e960048036038101906103e49190611dd7565b611223565b005b60006103f56119fd565b828160200181905250600160005461040d919061231f565b600081905550600054816000018181525050600081604001906006811115610438576104376124db565b5b9081600681111561044c5761044b6124db565b5b8152505080600160008360000151815260200190815260200160002060008201518160000155602082015181600101908051906020019061048e929190611ac9565b5060408201518160020160006101000a81548160ff021916908360068111156104ba576104b96124db565b5b02179055506060820151816003015560808201518160040160006101000a81548173ffffffffffffffffffffffffffffffffffffffff021916908373ffffffffffffffffffffffffffffffffffffffff16021790555060a08201518160050160006101000a81548173ffffffffffffffffffffffffffffffffffffffff021916908373ffffffffffffffffffffffffffffffffffffffff16021790555060c08201518160060160006101000a81548173ffffffffffffffffffffffffffffffffffffffff021916908373ffffffffffffffffffffffffffffffffffffffff16021790555060e08201518160070160006101000a81548173ffffffffffffffffffffffffffffffffffffffff021916908373ffffffffffffffffffffffffffffffffffffffff1602179055506101008201518160080160006101000a81548173ffffffffffffffffffffffffffffffffffffffff021916908373ffffffffffffffffffffffffffffffffffffffff160217905550905050600054915050919050565b600960009054906101000a900473ffffffffffffffffffffffffffffffffffffffff1681565b8181116106a3576040517f08c379a000000000000000000000000000000000000000000000000000000000815260040161069a90612065565b60405180910390fd5b6000600160008581526020019081526020016000209050338160040160006101000a81548173ffffffffffffffffffffffffffffffffffffffff021916908373ffffffffffffffffffffffffffffffffffffffff16021790555060018160020160006101000a81548160ff02191690836006811115610725576107246124db565b5b0217905550610732611b4f565b848160000181815250508381604001818152505082816060018181525050438160200181815250508060026000878152602001908152602001600020600082015181600001556020820151816001015560408201518160020155606082015181600301559050507f8e55ccfc9778ff8eba1646d765cf1982537ce0f9257054a17b48aad745250183856040516107c891906120a5565b60405180910390a15050505050565b60046020528060005260406000206000915090508060000154908060010154908060020154905083565b6000600160008481526020019081526020016000209050838160080160006101000a81548173ffffffffffffffffffffffffffffffffffffffff021916908373ffffffffffffffffffffffffffffffffffffffff16021790555060058160020160006101000a81548160ff02191690836006811115610883576108826124db565b5b0217905550818160030181905550610899611b77565b438160000181815250504281604001818152505080600660008681526020019081526020016000206000820151816000015560208201518160010155604082015181600201559050507f653d56639fee6b566a5c804764e9689de38645f0b733df89a36a1b7b42173dd88460405161091191906120a5565b60405180910390a15050505050565b6008602052816000526040600020818154811061093c57600080fd5b90600052602060002090600902016000915091505080600001549080600101805461096690612449565b80601f016020809104026020016040519081016040528092919081815260200182805461099290612449565b80156109df5780601f106109b4576101008083540402835291602001916109df565b820191906000526020600020905b8154815290600101906020018083116109c257829003601f168201915b5050505050908060020160009054906101000a900460ff16908060030154908060040160009054906101000a900473ffffffffffffffffffffffffffffffffffffffff16908060050160009054906101000a900473ffffffffffffffffffffffffffffffffffffffff16908060060160009054906101000a900473ffffffffffffffffffffffffffffffffffffffff16908060070160009054906101000a900473ffffffffffffffffffffffffffffffffffffffff16908060080160009054906101000a900473ffffffffffffffffffffffffffffffffffffffff16905089565b60076020528060005260406000206000915090508060000154908060010160009054906101000a900473ffffffffffffffffffffffffffffffffffffffff16908060020160009054906101000a900473ffffffffffffffffffffffffffffffffffffffff16908060020160149054906101000a900460ff16908060020160159054906101000a900460ff16905085565b600115158115151415610ba15760016007600084815260200190815260200160002060020160146101000a81548160ff02191690836002811115610b9757610b966124db565b5b0217905550610be1565b60026007600084815260200190815260200160002060020160146101000a81548160ff02191690836002811115610bdb57610bda6124db565b5b02179055505b5050565b6000600160008381526020019081526020016000209050828160060160006101000a81548173ffffffffffffffffffffffffffffffffffffffff021916908373ffffffffffffffffffffffffffffffffffffffff16021790555060038160020160006101000a81548160ff02191690836006811115610c6757610c666124db565b5b0217905550610c74611b98565b82816000018181525050438160200181815250504281604001818152505080600460008581526020019081526020016000206000820151816000015560208201518160010155604082015181600201559050507fddc9c30275a04c48091f24199f9c405765de34d979d6847f5b9798a57232d2e583604051610cf691906120a5565b60405180910390a150505050565b60066020528060005260406000206000915090508060000154908060010154908060020154905083565b60026020528060005260406000206000915090508060000154908060010154908060020154908060030154905084565b6001602052806000526040600020600091509050806000015490806001018054610d8790612449565b80601f0160208091040260200160405190810160405280929190818152602001828054610db390612449565b8015610e005780601f10610dd557610100808354040283529160200191610e00565b820191906000526020600020905b815481529060010190602001808311610de357829003601f168201915b5050505050908060020160009054906101000a900460ff16908060030154908060040160009054906101000a900473ffffffffffffffffffffffffffffffffffffffff16908060050160009054906101000a900473ffffffffffffffffffffffffffffffffffffffff16908060060160009054906101000a900473ffffffffffffffffffffffffffffffffffffffff16908060070160009054906101000a900473ffffffffffffffffffffffffffffffffffffffff16908060080160009054906101000a900473ffffffffffffffffffffffffffffffffffffffff16905089565b6003602052806000526040600020600091509050806000015490806001018054610f0a90612449565b80601f0160208091040260200160405190810160405280929190818152602001828054610f3690612449565b8015610f835780601f10610f5857610100808354040283529160200191610f83565b820191906000526020600020905b815481529060010190602001808311610f6657829003601f168201915b5050505050908060020154908060030154905084565b6000600160008481526020019081526020016000209050338160050160006101000a81548173ffffffffffffffffffffffffffffffffffffffff021916908373ffffffffffffffffffffffffffffffffffffffff16021790555060028160020160006101000a81548160ff0219169083600681111561101b5761101a6124db565b5b0217905550611028611bb9565b8381600001818152505082816020018190525043816040018181525050428160600181815250508060036000868152602001908152602001600020600082015181600001556020820151816001019080519060200190611089929190611ac9565b5060408201518160020155606082015181600301559050507fd29d8a68ca7c8c74be5579719d445aabfe230ed6e6a83aff475a663500eb7609846040516110d091906120a5565b60405180910390a150505050565b60005481565b60056020528060005260406000206000915090508060000154908060010154908060020154905083565b6000600160008381526020019081526020016000209050828160070160006101000a81548173ffffffffffffffffffffffffffffffffffffffff021916908373ffffffffffffffffffffffffffffffffffffffff16021790555060048160020160006101000a81548160ff021916908360068111156111905761118f6124db565b5b021790555061119d611be1565b438160000181815250504281604001818152505080600560008581526020019081526020016000206000820151816000015560208201518160010155604082015181600201559050507f4775cda4e9d6bd2241e0ed5570f8e54035e97f8db4f863c6e1756fb4c957cbfc8360405161121591906120a5565b60405180910390a150505050565b8360001515611231826119bf565b151514611273576040517f08c379a000000000000000000000000000000000000000000000000000000000815260040161126a90612085565b60405180910390fd5b60006040518060a001604052808781526020013373ffffffffffffffffffffffffffffffffffffffff1681526020018673ffffffffffffffffffffffffffffffffffffffff168152602001600060028111156112d2576112d16124db565b5b815260200160011515815250905080600760008881526020019081526020016000206000820151816000015560208201518160010160006101000a81548173ffffffffffffffffffffffffffffffffffffffff021916908373ffffffffffffffffffffffffffffffffffffffff16021790555060408201518160020160006101000a81548173ffffffffffffffffffffffffffffffffffffffff021916908373ffffffffffffffffffffffffffffffffffffffff16021790555060608201518160020160146101000a81548160ff021916908360028111156113b7576113b66124db565b5b021790555060808201518160020160156101000a81548160ff021916908315150217905550905050600060016000888152602001908152602001600020604051806101200160405290816000820154815260200160018201805461141a90612449565b80601f016020809104026020016040519081016040528092919081815260200182805461144690612449565b80156114935780601f1061146857610100808354040283529160200191611493565b820191906000526020600020905b81548152906001019060200180831161147657829003601f168201915b505050505081526020016002820160009054906101000a900460ff1660068111156114c1576114c06124db565b5b60068111156114d3576114d26124db565b5b8152602001600382015481526020016004820160009054906101000a900473ffffffffffffffffffffffffffffffffffffffff1673ffffffffffffffffffffffffffffffffffffffff1673ffffffffffffffffffffffffffffffffffffffff1681526020016005820160009054906101000a900473ffffffffffffffffffffffffffffffffffffffff1673ffffffffffffffffffffffffffffffffffffffff1673ffffffffffffffffffffffffffffffffffffffff1681526020016006820160009054906101000a900473ffffffffffffffffffffffffffffffffffffffff1673ffffffffffffffffffffffffffffffffffffffff1673ffffffffffffffffffffffffffffffffffffffff1681526020016007820160009054906101000a900473ffffffffffffffffffffffffffffffffffffffff1673ffffffffffffffffffffffffffffffffffffffff1673ffffffffffffffffffffffffffffffffffffffff1681526020016008820160009054906101000a900473ffffffffffffffffffffffffffffffffffffffff1673ffffffffffffffffffffffffffffffffffffffff1673ffffffffffffffffffffffffffffffffffffffff16815250509050600860008773ffffffffffffffffffffffffffffffffffffffff1673ffffffffffffffffffffffffffffffffffffffff168152602001908152602001600020819080600181540180825580915050600190039060005260206000209060090201600090919091909150600082015181600001556020820151816001019080519060200190611720929190611ac9565b5060408201518160020160006101000a81548160ff0219169083600681111561174c5761174b6124db565b5b02179055506060820151816003015560808201518160040160006101000a81548173ffffffffffffffffffffffffffffffffffffffff021916908373ffffffffffffffffffffffffffffffffffffffff16021790555060a08201518160050160006101000a81548173ffffffffffffffffffffffffffffffffffffffff021916908373ffffffffffffffffffffffffffffffffffffffff16021790555060c08201518160060160006101000a81548173ffffffffffffffffffffffffffffffffffffffff021916908373ffffffffffffffffffffffffffffffffffffffff16021790555060e08201518160070160006101000a81548173ffffffffffffffffffffffffffffffffffffffff021916908373ffffffffffffffffffffffffffffffffffffffff1602179055506101008201518160080160006101000a81548173ffffffffffffffffffffffffffffffffffffffff021916908373ffffffffffffffffffffffffffffffffffffffff160217905550505081600001517ff62f5261a71249391de5c7e32e9ceddaf5c1a59a49ccf2e014d41e42577a33ee8360200151846040015185606001516002811115611908576119076124db565b5b6040516119179392919061202e565b60405180910390a26000600960009054906101000a900473ffffffffffffffffffffffffffffffffffffffff1690508073ffffffffffffffffffffffffffffffffffffffff1663514f64778988886040518463ffffffff1660e01b815260040161198393929190612113565b600060405180830381600087803b15801561199d57600080fd5b505af11580156119b1573d6000803e3d6000fd5b505050505050505050505050565b60006007600083815260200190815260200160002060020160159054906101000a900460ff16156119f357600190506119f8565b600090505b919050565b604051806101200160405280600081526020016060815260200160006006811115611a2b57611a2a6124db565b5b815260200160008152602001600073ffffffffffffffffffffffffffffffffffffffff168152602001600073ffffffffffffffffffffffffffffffffffffffff168152602001600073ffffffffffffffffffffffffffffffffffffffff168152602001600073ffffffffffffffffffffffffffffffffffffffff168152602001600073ffffffffffffffffffffffffffffffffffffffff1681525090565b828054611ad590612449565b90600052602060002090601f016020900481019282611af75760008555611b3e565b82601f10611b1057805160ff1916838001178555611b3e565b82800160010185558215611b3e579182015b82811115611b3d578251825591602001919060010190611b22565b5b509050611b4b9190611c02565b5090565b6040518060800160405280600081526020016000815260200160008152602001600081525090565b60405180606001604052806000815260200160008152602001600081525090565b60405180606001604052806000815260200160008152602001600081525090565b6040518060800160405280600081526020016060815260200160008152602001600081525090565b60405180606001604052806000815260200160008152602001600081525090565b5b80821115611c1b576000816000905550600101611c03565b5090565b6000611c32611c2d846122d2565b6122ad565b905082815260208101848484011115611c4e57611c4d61256d565b5b611c59848285612407565b509392505050565b600081359050611c7081612653565b92915050565b600081359050611c858161266a565b92915050565b600082601f830112611ca057611c9f612568565b5b8135611cb0848260208601611c1f565b91505092915050565b600081359050611cc881612681565b92915050565b60008060408385031215611ce557611ce4612577565b5b6000611cf385828601611c61565b9250506020611d0485828601611cb9565b9150509250929050565b600080600060608486031215611d2757611d26612577565b5b6000611d3586828701611c61565b9350506020611d4686828701611cb9565b9250506040611d5786828701611cb9565b9150509250925092565b600060208284031215611d7757611d76612577565b5b600082013567ffffffffffffffff811115611d9557611d94612572565b5b611da184828501611c8b565b91505092915050565b600060208284031215611dc057611dbf612577565b5b6000611dce84828501611cb9565b91505092915050565b60008060008060808587031215611df157611df0612577565b5b6000611dff87828801611cb9565b9450506020611e1087828801611c61565b9350506040611e2187828801611c61565b925050606085013567ffffffffffffffff811115611e4257611e41612572565b5b611e4e87828801611c8b565b91505092959194509250565b60008060408385031215611e7157611e70612577565b5b6000611e7f85828601611cb9565b9250506020611e9085828601611c76565b9150509250929050565b60008060408385031215611eb157611eb0612577565b5b6000611ebf85828601611cb9565b925050602083013567ffffffffffffffff811115611ee057611edf612572565b5b611eec85828601611c8b565b9150509250929050565b600080600060608486031215611f0f57611f0e612577565b5b6000611f1d86828701611cb9565b9350506020611f2e86828701611cb9565b9250506040611f3f86828701611cb9565b9150509250925092565b611f5281612375565b82525050565b611f6181612387565b82525050565b611f70816123e3565b82525050565b611f7f816123f5565b82525050565b6000611f9082612303565b611f9a818561230e565b9350611faa818560208601612416565b611fb38161257c565b840191505092915050565b6000611fcb602c8361230e565b9150611fd68261258d565b604082019050919050565b6000611fee60258361230e565b9150611ff9826125dc565b604082019050919050565b61200d816123d9565b82525050565b60006020820190506120286000830184611f49565b92915050565b60006060820190506120436000830186611f49565b6120506020830185611f49565b61205d6040830184612004565b949350505050565b6000602082019050818103600083015261207e81611fbe565b9050919050565b6000602082019050818103600083015261209e81611fe1565b9050919050565b60006020820190506120ba6000830184612004565b92915050565b600060a0820190506120d56000830188612004565b6120e26020830187611f49565b6120ef6040830186611f49565b6120fc6060830185611f67565b6121096080830184611f58565b9695505050505050565b60006060820190506121286000830186612004565b6121356020830185611f49565b81810360408301526121478184611f85565b9050949350505050565b600061012082019050612167600083018c612004565b8181036020830152612179818b611f85565b9050612188604083018a611f76565b6121956060830189612004565b6121a26080830188611f49565b6121af60a0830187611f49565b6121bc60c0830186611f49565b6121c960e0830185611f49565b6121d7610100830184611f49565b9a9950505050505050505050565b60006080820190506121fa6000830187612004565b818103602083015261220c8186611f85565b905061221b6040830185612004565b6122286060830184612004565b95945050505050565b60006060820190506122466000830186612004565b6122536020830185612004565b6122606040830184612004565b949350505050565b600060808201905061227d6000830187612004565b61228a6020830186612004565b6122976040830185612004565b6122a46060830184612004565b95945050505050565b60006122b76122c8565b90506122c3828261247b565b919050565b6000604051905090565b600067ffffffffffffffff8211156122ed576122ec612539565b5b6122f68261257c565b9050602081019050919050565b600081519050919050565b600082825260208201905092915050565b600061232a826123d9565b9150612335836123d9565b9250827fffffffffffffffffffffffffffffffffffffffffffffffffffffffffffffffff0382111561236a576123696124ac565b5b828201905092915050565b6000612380826123b9565b9050919050565b60008115159050919050565b60008190506123a18261262b565b919050565b60008190506123b48261263f565b919050565b600073ffffffffffffffffffffffffffffffffffffffff82169050919050565b6000819050919050565b60006123ee82612393565b9050919050565b6000612400826123a6565b9050919050565b82818337600083830152505050565b60005b83811015612434578082015181840152602081019050612419565b83811115612443576000848401525b50505050565b6000600282049050600182168061246157607f821691505b602082108114156124755761247461250a565b5b50919050565b6124848261257c565b810181811067ffffffffffffffff821117156124a3576124a2612539565b5b80604052505050565b7f4e487b7100000000000000000000000000000000000000000000000000000000600052601160045260246000fd5b7f4e487b7100000000000000000000000000000000000000000000000000000000600052602160045260246000fd5b7f4e487b7100000000000000000000000000000000000000000000000000000000600052602260045260246000fd5b7f4e487b7100000000000000000000000000000000000000000000000000000000600052604160045260246000fd5b600080fd5b600080fd5b600080fd5b600080fd5b6000601f19601f8301169050919050565b7f486172766573742074696d652073686f756c64206265206c617465722074686160008201527f6e206661726d2074696d652e0000000000000000000000000000000000000000602082015250565b7f43616e6e6f742073656e6420746865206475706c69636174652070726f64756360008201527f742069642e000000000000000000000000000000000000000000000000000000602082015250565b6003811061263c5761263b6124db565b5b50565b600781106126505761264f6124db565b5b50565b61265c81612375565b811461266757600080fd5b50565b61267381612387565b811461267e57600080fd5b50565b61268a816123d9565b811461269557600080fd5b5056fea26469706673582212202285f336dd1fbf85784febd7d504d1a7a66e88b152a35eae04e3e56708ec905764736f6c63430008060033",
  "immutableReferences": {},
  "source": "// SPDX-License-Identifier: UNLICENSED\r\n\r\n// test\r\npragma solidity ^0.8.0;\r\n\r\nimport \"./ProfileContract.sol\";\r\nimport \"./Trace.sol\";\r\n\r\ncontract ProductSC {\r\n    enum status {\r\n        FARMING,\r\n        HARVESTING,\r\n        MANUFACTURING,\r\n        SHIPPING,\r\n        RETAILING,\r\n        PURCHASING,\r\n        RECALLING\r\n    }\r\n\r\n    //For sendProduct function\r\n    // based on Original design\r\n    enum SendProductStatus {\r\n        pending,\r\n        approved,\r\n        rejected\r\n    }\r\n\r\n    struct Product {\r\n        uint256 productId;\r\n        string productName;\r\n        status statusType;\r\n        uint256 productPrice;\r\n        address FarmerId;\r\n        address manufacturerId;\r\n        address distributorId;\r\n        address retailerId;\r\n        address ConsumerId;\r\n    }\r\n\r\n    struct Farming {\r\n        uint256 productId;\r\n        uint256 recordBlock;\r\n        uint256 farmingTime;\r\n        uint256 harvestTime;\r\n    }\r\n\r\n    struct Manufacturing {\r\n        uint256 productId;\r\n        string processType;\r\n        uint256 recordBlock;\r\n        uint256 timestamp;\r\n    }\r\n\r\n    // relevant to track.sol,\r\n    // may add new attribute after interact with tracker\r\n    struct Logistics {\r\n        uint256 productId;\r\n        uint256 recordBlock;\r\n        uint256 timeStamp;\r\n    }\r\n\r\n    struct Retailing {\r\n        uint256 productId;\r\n        uint256 recordBlock;\r\n        uint256 timeStamp;\r\n    }\r\n\r\n    struct Purchasing {\r\n        uint256 productId;\r\n        uint256 recordBlock;\r\n        uint256 timeStamp;\r\n    }\r\n\r\n    struct SendProductItem {\r\n        uint256 productId;\r\n        address sender;\r\n        address receiver;\r\n        SendProductStatus status;\r\n        bool isValue; // To check duplicate SendProductItem\r\n    }\r\n\r\n    uint256 public numProducts = 0;\r\n    mapping(uint256 => Product) public products;\r\n\r\n    // status updating info\r\n    mapping(uint256 => Farming) public farming_process;\r\n    mapping(uint256 => Manufacturing) public manu_process;\r\n    mapping(uint256 => Logistics) public logi_process;\r\n    mapping(uint256 => Retailing) public retail_process;\r\n    mapping(uint256 => Purchasing) public purchase_process;\r\n\r\n    //For sendProduct function\r\n    // based on Original design\r\n    mapping(uint256 => SendProductItem) public sendProducts;\r\n    mapping(address => Product[]) public receiverProducts;\r\n\r\n    event Harvested(uint256 productId);\r\n    event Manufactured(uint256 productId);\r\n    event Distributed(uint256 productId);\r\n    event Retailed(uint256 productId);\r\n    event Purchased(uint256 productId);\r\n\r\n    address public traceAddress;\r\n\r\n    constructor(address _traceAddress) {\r\n        traceAddress = _traceAddress;\r\n    }\r\n\r\n    function createProduct(string memory name) public returns (uint256) {\r\n        Product memory p;\r\n        p.productName = name;\r\n        numProducts = numProducts + 1;\r\n        p.productId = numProducts;\r\n        p.statusType = status.FARMING;\r\n        products[p.productId] = p;\r\n        return numProducts;\r\n    }\r\n\r\n    function addProductFarmingInfo(\r\n        uint256 _pid,\r\n        uint256 _farmtime,\r\n        uint256 _harvtime\r\n    ) public {\r\n        require(\r\n            _harvtime > _farmtime,\r\n            \"Harvest time should be later than farm time.\"\r\n        );\r\n\r\n        Product storage existProduct = products[_pid];\r\n        existProduct.FarmerId = msg.sender;\r\n        existProduct.statusType = status.HARVESTING;\r\n\r\n        Farming memory f;\r\n        f.productId = _pid;\r\n        f.farmingTime = _farmtime;\r\n        f.harvestTime = _harvtime;\r\n        f.recordBlock = block.number;\r\n        farming_process[_pid] = f;\r\n\r\n        emit Harvested(_pid);\r\n    }\r\n\r\n    function manuProductInfo(uint256 _pid, string memory _processtype) public {\r\n        Product storage existProduct = products[_pid];\r\n        existProduct.manufacturerId = msg.sender;\r\n        existProduct.statusType = status.MANUFACTURING;\r\n\r\n        Manufacturing memory m;\r\n        m.productId = _pid;\r\n        m.processType = _processtype;\r\n        m.recordBlock = block.number;\r\n        m.timestamp = block.timestamp;\r\n        manu_process[_pid] = m;\r\n\r\n        emit Manufactured(_pid);\r\n    }\r\n\r\n    function logiProductInfo(address sender, uint256 _pid) public {\r\n        Product storage existProduct = products[_pid];\r\n        existProduct.distributorId = sender;\r\n        existProduct.statusType = status.SHIPPING;\r\n\r\n        Logistics memory l;\r\n        l.productId = _pid;\r\n        l.recordBlock = block.number;\r\n        l.timeStamp = block.timestamp;\r\n        logi_process[_pid] = l;\r\n\r\n        emit Distributed(_pid);\r\n    }\r\n\r\n    function retailProductInfo(address sender, uint256 _pid) public {\r\n        Product storage existProduct = products[_pid];\r\n        existProduct.retailerId = sender;\r\n        existProduct.statusType = status.RETAILING;\r\n\r\n        Retailing memory r;\r\n        r.productId = block.number;\r\n        r.timeStamp = block.timestamp;\r\n        retail_process[_pid] = r;\r\n\r\n        emit Retailed(_pid);\r\n    }\r\n\r\n    function purchasingProductInfo(\r\n        address sender,\r\n        uint256 _pid,\r\n        uint256 _price\r\n    ) public {\r\n        Product storage existProduct = products[_pid];\r\n        existProduct.ConsumerId = sender;\r\n        existProduct.statusType = status.PURCHASING;\r\n        existProduct.productPrice = _price;\r\n\r\n        Purchasing memory p;\r\n        p.productId = block.number;\r\n        p.timeStamp = block.timestamp;\r\n        purchase_process[_pid] = p;\r\n\r\n        emit Purchased(_pid);\r\n    }\r\n\r\n    //For sendProduct function\r\n    // based on Original design\r\n    event SendProduct(\r\n        uint256 indexed productId,\r\n        address sender,\r\n        address receiver,\r\n        uint256 status\r\n    );\r\n\r\n    // enum SendProductStatus {0=pending,1=approved,2=rejected}\r\n    // to validate the account type must do it off-chain to call profile contract\r\n    function sendProduct(\r\n        uint256 productId,\r\n        address receiver,\r\n        address logistic,\r\n        string memory trackingNumber\r\n    ) public checkDuplicateSendProductItem(productId) {\r\n        SendProductItem memory newSendProductItem = SendProductItem(\r\n            productId,\r\n            msg.sender,\r\n            receiver,\r\n            SendProductStatus.pending,\r\n            true\r\n        );\r\n\r\n        sendProducts[productId] = newSendProductItem;\r\n        //get product item for products\r\n        Product memory productItem = products[productId];\r\n        receiverProducts[receiver].push(productItem);\r\n        emit SendProduct(\r\n            newSendProductItem.productId,\r\n            newSendProductItem.sender,\r\n            newSendProductItem.receiver,\r\n            uint256(newSendProductItem.status)\r\n        );\r\n\r\n        Trace trace = Trace(traceAddress);\r\n        trace.addProduct(productId, logistic, trackingNumber);\r\n    }\r\n\r\n    function receiveProduct(uint256 productId, bool receiveStatus) public {\r\n        if (receiveStatus == true) {\r\n            sendProducts[productId].status = SendProductStatus.approved;\r\n        } else {\r\n            sendProducts[productId].status = SendProductStatus.rejected;\r\n        }\r\n    }\r\n\r\n    // private functions\r\n    // Does account address exist?\r\n    function isExistSendProductItem(uint256 productId)\r\n        private\r\n        view\r\n        returns (bool)\r\n    {\r\n        if (sendProducts[productId].isValue) {\r\n            return true;\r\n        }\r\n        return false;\r\n    }\r\n\r\n    modifier checkDuplicateSendProductItem(uint256 _productId) {\r\n        require(\r\n            isExistSendProductItem(_productId) == false,\r\n            \"Cannot send the duplicate product id.\"\r\n        );\r\n        _;\r\n    }\r\n\r\n    // modifier isFarmer() {\r\n    //     require(operator[msg.sender].accountType == Profile.AccountType.Farmer, \"This function can only be executed by the farmer.\");\r\n    //     _;\r\n    // }\r\n    // modifier isApprove() {\r\n    //     require(operator[msg.sender].accountStatus == Profile.AccountStatus.Approved, \"This action need to be approved.\");\r\n    //     _;\r\n    // }\r\n}\r\n",
  "sourcePath": "D:/UNSW-2021-Term2/comp6452/GIT_desk/COMP6452_Project/solidity/contracts/ProductContract.sol",
  "compiler": {
    "name": "solc",
    "version": "0.8.6+commit.11564f7e.Emscripten.clang"
  },
  "schemaVersion": "3.4.1",
  "updatedAt": "2021-07-23T10:57:26.641Z",
  "networkType": "ethereum",
  "devdoc": {
    "kind": "dev",
    "methods": {},
    "version": 1
  },
  "userdoc": {
    "kind": "user",
    "methods": {},
    "version": 1
  }
}