{
  "contractName": "Product",
  "abi": [
    {
      "anonymous": false,
      "inputs": [
        {
          "indexed": true,
          "internalType": "address",
          "name": "_from",
          "type": "address"
        },
        {
          "indexed": false,
          "internalType": "uint8",
          "name": "number",
          "type": "uint8"
        }
      ],
      "name": "RecallEvent",
      "type": "event"
    },
    {
      "inputs": [],
      "name": "status",
      "outputs": [
        {
          "internalType": "uint8",
          "name": "",
          "type": "uint8"
        }
      ],
      "stateMutability": "view",
      "type": "function"
    },
    {
      "inputs": [],
      "name": "recallProduct",
      "outputs": [
        {
          "internalType": "bool",
          "name": "success",
          "type": "bool"
        }
      ],
      "stateMutability": "nonpayable",
      "type": "function"
    },
    {
      "inputs": [],
      "name": "emitEvent",
      "outputs": [
        {
          "internalType": "uint8",
          "name": "result",
          "type": "uint8"
        }
      ],
      "stateMutability": "nonpayable",
      "type": "function"
    }
  ],
  "bytecode": "0x608060405260008060006101000a81548160ff021916908360ff16021790555034801561002b57600080fd5b506102d48061003b6000396000f3fe608060405234801561001057600080fd5b50600436106100415760003560e01c8063200d2ed2146100465780637b0cb83914610064578063997fb68b14610082575b600080fd5b61004e6100a0565b60405161005b9190610246565b60405180910390f35b61006c6100b1565b6040516100799190610246565b60405180910390f35b61008a610124565b60405161009791906101f5565b60405180910390f35b60008054906101000a900460ff1681565b600060026000806101000a81548160ff021916908360ff1602179055503373ffffffffffffffffffffffffffffffffffffffff167f06d194eef89f7d1c82a13e7c139a8e83d00533b5930f38ed39fc1798bde60ec06002604051610115919061022b565b60405180910390a26008905090565b60008060008054906101000a900460ff1660ff1614156101b15760016000806101000a81548160ff021916908360ff1602179055503373ffffffffffffffffffffffffffffffffffffffff167f06d194eef89f7d1c82a13e7c139a8e83d00533b5930f38ed39fc1798bde60ec060016040516101a09190610210565b60405180910390a2600190506101b6565b600090505b90565b6101c281610261565b82525050565b6101d18161027a565b82525050565b6101e08161028c565b82525050565b6101ef8161026d565b82525050565b600060208201905061020a60008301846101b9565b92915050565b600060208201905061022560008301846101c8565b92915050565b600060208201905061024060008301846101d7565b92915050565b600060208201905061025b60008301846101e6565b92915050565b60008115159050919050565b600060ff82169050919050565b60006102858261026d565b9050919050565b60006102978261026d565b905091905056fea2646970667358221220703c041b8f67dd6932177f1dcc3778b62eadc1e4ab7e9667f1a59f7d6375f29b64736f6c63430008040033",
  "immutableReferences": {},
  "source": "// SPDX-License-Identifier: UNLICENSED\r\npragma solidity >=0.8.0 <0.9.0;\r\n\r\ncontract Product {\r\n    uint8 public status = 0;\r\n\r\n    event RecallEvent( address indexed _from, uint8 number );\r\n\r\n    function recallProduct() public returns (bool success) {\r\n        if( status == 0 ) {\r\n            status = 1;\r\n            emit RecallEvent( msg.sender, 1 );\r\n            return true;\r\n        } else {\r\n            return false;\r\n        }\r\n    }\r\n\r\n    function emitEvent() public returns (uint8 result) {\r\n        status = 2;\r\n        emit RecallEvent( msg.sender, 2 );\r\n        return 8;\r\n    }\r\n\r\n    \r\n}",
  "sourcePath": "D:/UNSW-2021-Term2/comp6452/Project 2/Git-Foodie/COMP6452_Project/solidity/contracts/Product.sol",
  "compiler": {
    "name": "solc",
    "version": "0.8.4+commit.c7e474f2.Emscripten.clang"
  },
  "schemaVersion": "3.4.1",
  "updatedAt": "2021-07-11T09:56:48.838Z",
  "networkType": "ethereum",
  "devdoc": {
    "kind": "dev",
    "methods": {},
    "version": 1
  },
  "userdoc": {
    "kind": "user",
    "methods": {},
    "version": 1
  }
}