{
  "contractName": "ProductSC",
  "abi": [
    {
      "inputs": [
        {
          "internalType": "uint256",
          "name": "",
          "type": "uint256"
        }
      ],
      "name": "farming_process",
      "outputs": [
        {
          "internalType": "uint256",
          "name": "productId",
          "type": "uint256"
        },
        {
          "internalType": "uint256",
          "name": "recordBlock",
          "type": "uint256"
        },
        {
          "internalType": "uint256",
          "name": "farmingTime",
          "type": "uint256"
        },
        {
          "internalType": "uint256",
          "name": "harvestTime",
          "type": "uint256"
        }
      ],
      "stateMutability": "view",
      "type": "function"
    },
    {
      "inputs": [
        {
          "internalType": "uint256",
          "name": "",
          "type": "uint256"
        }
      ],
      "name": "manu_process",
      "outputs": [
        {
          "internalType": "uint256",
          "name": "productId",
          "type": "uint256"
        },
        {
          "internalType": "string",
          "name": "processType",
          "type": "string"
        },
        {
          "internalType": "uint256",
          "name": "recordBlock",
          "type": "uint256"
        }
      ],
      "stateMutability": "view",
      "type": "function"
    },
    {
      "inputs": [],
      "name": "numProducts",
      "outputs": [
        {
          "internalType": "uint256",
          "name": "",
          "type": "uint256"
        }
      ],
      "stateMutability": "view",
      "type": "function"
    },
    {
      "inputs": [
        {
          "internalType": "uint256",
          "name": "",
          "type": "uint256"
        }
      ],
      "name": "products",
      "outputs": [
        {
          "internalType": "uint256",
          "name": "productId",
          "type": "uint256"
        },
        {
          "internalType": "string",
          "name": "productName",
          "type": "string"
        },
        {
          "internalType": "enum ProductSC.status",
          "name": "statusType",
          "type": "uint8"
        },
        {
          "internalType": "uint256",
          "name": "productPrice",
          "type": "uint256"
        },
        {
          "internalType": "address",
          "name": "FarmerId",
          "type": "address"
        },
        {
          "internalType": "address",
          "name": "manufacturerId",
          "type": "address"
        },
        {
          "internalType": "address",
          "name": "distributorId",
          "type": "address"
        },
        {
          "internalType": "address",
          "name": "retailerId",
          "type": "address"
        },
        {
          "internalType": "address",
          "name": "ConsumerId",
          "type": "address"
        }
      ],
      "stateMutability": "view",
      "type": "function"
    },
    {
      "inputs": [
        {
          "internalType": "string",
          "name": "name",
          "type": "string"
        }
      ],
      "name": "createProduct",
      "outputs": [
        {
          "internalType": "uint256",
          "name": "",
          "type": "uint256"
        }
      ],
      "stateMutability": "nonpayable",
      "type": "function"
    },
    {
      "inputs": [
        {
          "internalType": "uint256",
          "name": "pid",
          "type": "uint256"
        },
        {
          "internalType": "uint256",
          "name": "farmtime",
          "type": "uint256"
        },
        {
          "internalType": "uint256",
          "name": "harvtime",
          "type": "uint256"
        }
      ],
      "name": "addProductFarmingInfo",
      "outputs": [],
      "stateMutability": "nonpayable",
      "type": "function"
    },
    {
      "inputs": [
        {
          "internalType": "uint256",
          "name": "pid",
          "type": "uint256"
        },
        {
          "internalType": "string",
          "name": "processtype",
          "type": "string"
        }
      ],
      "name": "manuProductInfo",
      "outputs": [],
      "stateMutability": "nonpayable",
      "type": "function"
    }
  ],
  "bytecode": "0x60806040526000805534801561001457600080fd5b506111e5806100246000396000f3fe608060405234801561001057600080fd5b506004361061007d5760003560e01c80637acc0b201161005b5780637acc0b201461010157806389b8a49f14610139578063a5ae13091461016b578063ac964f21146101875761007d565b806302ec06be146100825780631e9e5761146100b25780636fd80059146100ce575b600080fd5b61009c60048036038101906100979190610bb2565b6101a5565b6040516100a99190610d68565b60405180910390f35b6100cc60048036038101906100c79190610c70565b610467565b005b6100e860048036038101906100e39190610bf3565b6105cc565b6040516100f89493929190610e55565b60405180910390f35b61011b60048036038101906101169190610bf3565b6105fc565b60405161013099989796959493929190610d83565b60405180910390f35b610153600480360381019061014e9190610bf3565b61077f565b60405161016293929190610e17565b60405180910390f35b61018560048036038101906101809190610c1c565b610831565b005b61018f610951565b60405161019c9190610d68565b60405180910390f35b60006101af610957565b82816020018190525060016000546101c79190610f0c565b600081905550600054816000018181525050600081604001906006811115610218577f4e487b7100000000000000000000000000000000000000000000000000000000600052602160045260246000fd5b90816006811115610252577f4e487b7100000000000000000000000000000000000000000000000000000000600052602160045260246000fd5b81525050806001600083600001518152602001908152602001600020600082015181600001556020820151816001019080519060200190610294929190610a49565b5060408201518160020160006101000a81548160ff021916908360068111156102e6577f4e487b7100000000000000000000000000000000000000000000000000000000600052602160045260246000fd5b02179055506060820151816003015560808201518160040160006101000a81548173ffffffffffffffffffffffffffffffffffffffff021916908373ffffffffffffffffffffffffffffffffffffffff16021790555060a08201518160050160006101000a81548173ffffffffffffffffffffffffffffffffffffffff021916908373ffffffffffffffffffffffffffffffffffffffff16021790555060c08201518160060160006101000a81548173ffffffffffffffffffffffffffffffffffffffff021916908373ffffffffffffffffffffffffffffffffffffffff16021790555060e08201518160070160006101000a81548173ffffffffffffffffffffffffffffffffffffffff021916908373ffffffffffffffffffffffffffffffffffffffff1602179055506101008201518160080160006101000a81548173ffffffffffffffffffffffffffffffffffffffff021916908373ffffffffffffffffffffffffffffffffffffffff160217905550905050600054915050919050565b8181116104a9576040517f08c379a00000000000000000000000000000000000000000000000000000000081526004016104a090610d48565b60405180910390fd5b6000600160008581526020019081526020016000209050338160040160006101000a81548173ffffffffffffffffffffffffffffffffffffffff021916908373ffffffffffffffffffffffffffffffffffffffff16021790555060018160020160006101000a81548160ff02191690836006811115610551577f4e487b7100000000000000000000000000000000000000000000000000000000600052602160045260246000fd5b021790555061055e610acf565b848160000181815250508381604001818152505082816060018181525050438160200181815250508060026000878152602001908152602001600020600082015181600001556020820151816001015560408201518160020155606082015181600301559050505050505050565b60026020528060005260406000206000915090508060000154908060010154908060020154908060030154905084565b600160205280600052604060002060009150905080600001549080600101805461062590611005565b80601f016020809104026020016040519081016040528092919081815260200182805461065190611005565b801561069e5780601f106106735761010080835404028352916020019161069e565b820191906000526020600020905b81548152906001019060200180831161068157829003601f168201915b5050505050908060020160009054906101000a900460ff16908060030154908060040160009054906101000a900473ffffffffffffffffffffffffffffffffffffffff16908060050160009054906101000a900473ffffffffffffffffffffffffffffffffffffffff16908060060160009054906101000a900473ffffffffffffffffffffffffffffffffffffffff16908060070160009054906101000a900473ffffffffffffffffffffffffffffffffffffffff16908060080160009054906101000a900473ffffffffffffffffffffffffffffffffffffffff16905089565b60036020528060005260406000206000915090508060000154908060010180546107a890611005565b80601f01602080910402602001604051908101604052809291908181526020018280546107d490611005565b80156108215780601f106107f657610100808354040283529160200191610821565b820191906000526020600020905b81548152906001019060200180831161080457829003601f168201915b5050505050908060020154905083565b6000600160008481526020019081526020016000209050338160050160006101000a81548173ffffffffffffffffffffffffffffffffffffffff021916908373ffffffffffffffffffffffffffffffffffffffff16021790555060028160020160006101000a81548160ff021916908360068111156108d9577f4e487b7100000000000000000000000000000000000000000000000000000000600052602160045260246000fd5b02179055506108e6610af7565b8381600001818152505082816020018190525043816040018181525050806003600086815260200190815260200160002060008201518160000155602082015181600101908051906020019061093d929190610a49565b506040820151816002015590505050505050565b60005481565b6040518061012001604052806000815260200160608152602001600060068111156109ab577f4e487b7100000000000000000000000000000000000000000000000000000000600052602160045260246000fd5b815260200160008152602001600073ffffffffffffffffffffffffffffffffffffffff168152602001600073ffffffffffffffffffffffffffffffffffffffff168152602001600073ffffffffffffffffffffffffffffffffffffffff168152602001600073ffffffffffffffffffffffffffffffffffffffff168152602001600073ffffffffffffffffffffffffffffffffffffffff1681525090565b828054610a5590611005565b90600052602060002090601f016020900481019282610a775760008555610abe565b82601f10610a9057805160ff1916838001178555610abe565b82800160010185558215610abe579182015b82811115610abd578251825591602001919060010190610aa2565b5b509050610acb9190610b18565b5090565b6040518060800160405280600081526020016000815260200160008152602001600081525090565b60405180606001604052806000815260200160608152602001600081525090565b5b80821115610b31576000816000905550600101610b19565b5090565b6000610b48610b4384610ebf565b610e9a565b905082815260208101848484011115610b6057600080fd5b610b6b848285610fc3565b509392505050565b600082601f830112610b8457600080fd5b8135610b94848260208601610b35565b91505092915050565b600081359050610bac81611198565b92915050565b600060208284031215610bc457600080fd5b600082013567ffffffffffffffff811115610bde57600080fd5b610bea84828501610b73565b91505092915050565b600060208284031215610c0557600080fd5b6000610c1384828501610b9d565b91505092915050565b60008060408385031215610c2f57600080fd5b6000610c3d85828601610b9d565b925050602083013567ffffffffffffffff811115610c5a57600080fd5b610c6685828601610b73565b9150509250929050565b600080600060608486031215610c8557600080fd5b6000610c9386828701610b9d565b9350506020610ca486828701610b9d565b9250506040610cb586828701610b9d565b9150509250925092565b610cc881610f62565b82525050565b610cd781610fb1565b82525050565b6000610ce882610ef0565b610cf28185610efb565b9350610d02818560208601610fd2565b610d0b81611124565b840191505092915050565b6000610d23602c83610efb565b9150610d2e82611135565b604082019050919050565b610d4281610fa7565b82525050565b60006020820190508181036000830152610d6181610d16565b9050919050565b6000602082019050610d7d6000830184610d39565b92915050565b600061012082019050610d99600083018c610d39565b8181036020830152610dab818b610cdd565b9050610dba604083018a610cce565b610dc76060830189610d39565b610dd46080830188610cbf565b610de160a0830187610cbf565b610dee60c0830186610cbf565b610dfb60e0830185610cbf565b610e09610100830184610cbf565b9a9950505050505050505050565b6000606082019050610e2c6000830186610d39565b8181036020830152610e3e8185610cdd565b9050610e4d6040830184610d39565b949350505050565b6000608082019050610e6a6000830187610d39565b610e776020830186610d39565b610e846040830185610d39565b610e916060830184610d39565b95945050505050565b6000610ea4610eb5565b9050610eb08282611037565b919050565b6000604051905090565b600067ffffffffffffffff821115610eda57610ed96110f5565b5b610ee382611124565b9050602081019050919050565b600081519050919050565b600082825260208201905092915050565b6000610f1782610fa7565b9150610f2283610fa7565b9250827fffffffffffffffffffffffffffffffffffffffffffffffffffffffffffffffff03821115610f5757610f56611068565b5b828201905092915050565b6000610f6d82610f87565b9050919050565b6000819050610f8282611184565b919050565b600073ffffffffffffffffffffffffffffffffffffffff82169050919050565b6000819050919050565b6000610fbc82610f74565b9050919050565b82818337600083830152505050565b60005b83811015610ff0578082015181840152602081019050610fd5565b83811115610fff576000848401525b50505050565b6000600282049050600182168061101d57607f821691505b60208210811415611031576110306110c6565b5b50919050565b61104082611124565b810181811067ffffffffffffffff8211171561105f5761105e6110f5565b5b80604052505050565b7f4e487b7100000000000000000000000000000000000000000000000000000000600052601160045260246000fd5b7f4e487b7100000000000000000000000000000000000000000000000000000000600052602160045260246000fd5b7f4e487b7100000000000000000000000000000000000000000000000000000000600052602260045260246000fd5b7f4e487b7100000000000000000000000000000000000000000000000000000000600052604160045260246000fd5b6000601f19601f8301169050919050565b7f486172766573742074696d652073686f756c64206265206c617465722074686160008201527f6e206661726d2074696d652e0000000000000000000000000000000000000000602082015250565b6007811061119557611194611097565b5b50565b6111a181610fa7565b81146111ac57600080fd5b5056fea26469706673582212202f1b7df183b9b4c1c344ca0ef625f5d251e442d7bcc13a0054d8c72a5fc0780164736f6c63430008040033",
  "immutableReferences": {},
  "source": "// SPDX-License-Identifier: UNLICENSED\n\n// test\npragma solidity ^0.8.0;\n\nimport \"./Profile.sol\";\n\n\ncontract ProductSC{\n    \n    enum status {\n        FARMING, \n        HARVESTING,\n        MANUFACTURING, \n        SHIPPING, \n        RETAILING, \n        PURCHASING, \n        RECALLING\n    }\n    \n    struct Farming {\n        uint productId;\n        uint recordBlock;\n        uint farmingTime;\n        uint harvestTime;\n        \n    }\n    \n    struct Manufacturing {\n        uint productId;\n        string processType;\n        uint recordBlock;\n        \n    }\n    \n    struct Product {\n        uint productId;\n        string productName;\n        status statusType;\n        uint productPrice;\n        address FarmerId;\n        address manufacturerId;\n        address distributorId;\n        address retailerId;\n        address ConsumerId;\n    }\n    \n    \n    uint public numProducts = 0; \n    mapping (uint => Product) public products;\n    mapping (uint => Farming) public farming_process;\n    mapping (uint => Manufacturing) public manu_process;\n    \n    function createProduct(string memory name) public returns (uint){\n        Product memory p;\n        p.productName = name;\n        numProducts = numProducts + 1;\n        p.productId = numProducts;\n        p.statusType = status.FARMING;\n        products[p.productId] = p;\n        return numProducts;\n    }\n    \n    function addProductFarmingInfo(uint pid, uint farmtime, uint harvtime) public {\n        require(harvtime > farmtime, \"Harvest time should be later than farm time.\");\n        \n        Product storage existProduct = products[pid];\n        existProduct.FarmerId = msg.sender;\n        existProduct.statusType = status.HARVESTING;\n        \n        Farming memory f;\n        f.productId = pid;\n        f.farmingTime = farmtime;\n        f.harvestTime = harvtime;\n        f.recordBlock = block.number;\n        farming_process[pid] = f;\n    \n    }\n    \n    function manuProductInfo(uint pid, string memory processtype) public {\n        Product storage existProduct = products[pid];\n        existProduct.manufacturerId = msg.sender;\n        existProduct.statusType = status.MANUFACTURING;\n        \n        Manufacturing memory m;\n        m.productId = pid;\n        m.processType = processtype;\n        m.recordBlock = block.number;\n        manu_process[pid] = m;\n    }\n    \n    // modifier isFarmer() {\n    //     require(operator[msg.sender].accountType == Profile.AccountType.Farmer, \"This function can only be executed by the farmer.\"); \n    //     _;\n    // } \n    // modifier isApprove() {\n    //     require(operator[msg.sender].accountStatus == Profile.AccountStatus.Approved, \"This action need to be approved.\");\n    //     _;\n    // }\n\n}",
  "sourcePath": "/Users/promieyutasane/Documents/COMP6452_Project/solidity/contracts/Product.sol",
  "compiler": {
    "name": "solc",
    "version": "0.8.4+commit.c7e474f2.Emscripten.clang"
  },
  "schemaVersion": "3.4.1",
  "updatedAt": "2021-07-11T09:56:47.634Z",
  "devdoc": {
    "kind": "dev",
    "methods": {},
    "version": 1
  },
  "userdoc": {
    "kind": "user",
    "methods": {},
    "version": 1
  }
}