{
  "contractName": "Profile",
  "abi": [
    {
      "inputs": [
        {
          "internalType": "address",
          "name": "_regulatorAddress",
          "type": "address"
        },
        {
          "internalType": "string",
          "name": "_regulatorName",
          "type": "string"
        }
      ],
      "stateMutability": "nonpayable",
      "type": "constructor"
    },
    {
      "anonymous": false,
      "inputs": [
        {
          "indexed": false,
          "internalType": "address",
          "name": "accountAddress",
          "type": "address"
        },
        {
          "indexed": false,
          "internalType": "uint256",
          "name": "accountStatus",
          "type": "uint256"
        }
      ],
      "name": "ApproveAccount",
      "type": "event"
    },
    {
      "anonymous": false,
      "inputs": [
        {
          "indexed": true,
          "internalType": "address",
          "name": "accountAddress",
          "type": "address"
        },
        {
          "indexed": false,
          "internalType": "string",
          "name": "accountName",
          "type": "string"
        },
        {
          "indexed": true,
          "internalType": "uint256",
          "name": "accountId",
          "type": "uint256"
        },
        {
          "indexed": false,
          "internalType": "uint256",
          "name": "accountType",
          "type": "uint256"
        },
        {
          "indexed": false,
          "internalType": "uint256",
          "name": "accountStatus",
          "type": "uint256"
        }
      ],
      "name": "RegisterAccount",
      "type": "event"
    },
    {
      "inputs": [
        {
          "internalType": "address",
          "name": "",
          "type": "address"
        }
      ],
      "name": "accountInfoByAddress",
      "outputs": [
        {
          "internalType": "address",
          "name": "accountAddress",
          "type": "address"
        },
        {
          "internalType": "string",
          "name": "accountName",
          "type": "string"
        },
        {
          "internalType": "uint256",
          "name": "accountId",
          "type": "uint256"
        },
        {
          "internalType": "enum Profile.AccountType",
          "name": "accountType",
          "type": "uint8"
        },
        {
          "internalType": "enum Profile.AccountStatus",
          "name": "accountStatus",
          "type": "uint8"
        },
        {
          "internalType": "bool",
          "name": "isValue",
          "type": "bool"
        }
      ],
      "stateMutability": "view",
      "type": "function",
      "constant": true
    },
    {
      "inputs": [],
      "name": "lastAccountId",
      "outputs": [
        {
          "internalType": "uint256",
          "name": "",
          "type": "uint256"
        }
      ],
      "stateMutability": "view",
      "type": "function",
      "constant": true
    },
    {
      "inputs": [
        {
          "internalType": "address",
          "name": "_accountAddress",
          "type": "address"
        },
        {
          "internalType": "string",
          "name": "_accountName",
          "type": "string"
        },
        {
          "internalType": "uint256",
          "name": "_accountTypeValue",
          "type": "uint256"
        }
      ],
      "name": "registerAccount",
      "outputs": [],
      "stateMutability": "nonpayable",
      "type": "function"
    },
    {
      "inputs": [
        {
          "internalType": "address",
          "name": "_accountAddress",
          "type": "address"
        },
        {
          "internalType": "uint256",
          "name": "_accountStatus",
          "type": "uint256"
        }
      ],
      "name": "approveAccount",
      "outputs": [],
      "stateMutability": "nonpayable",
      "type": "function"
    },
    {
      "inputs": [
        {
          "internalType": "address",
          "name": "_accountAddress",
          "type": "address"
        }
      ],
      "name": "getAccountInfoByAddress",
      "outputs": [
        {
          "internalType": "string",
          "name": "accountName",
          "type": "string"
        },
        {
          "internalType": "uint256",
          "name": "accountId",
          "type": "uint256"
        },
        {
          "internalType": "uint256",
          "name": "accountTypeValue",
          "type": "uint256"
        },
        {
          "internalType": "uint256",
          "name": "accountStatusValue",
          "type": "uint256"
        }
      ],
      "stateMutability": "view",
      "type": "function",
      "constant": true
    },
    {
      "inputs": [
        {
          "internalType": "address",
          "name": "_accountAddress",
          "type": "address"
        },
        {
          "internalType": "uint256",
          "name": "_accountId",
          "type": "uint256"
        }
      ],
      "name": "isAccountOwner",
      "outputs": [
        {
          "internalType": "bool",
          "name": "",
          "type": "bool"
        }
      ],
      "stateMutability": "view",
      "type": "function",
      "constant": true
    },
    {
      "inputs": [
        {
          "internalType": "address",
          "name": "_accountAddress",
          "type": "address"
        }
      ],
      "name": "isLogisticOrOracle",
      "outputs": [
        {
          "internalType": "bool",
          "name": "",
          "type": "bool"
        }
      ],
      "stateMutability": "view",
      "type": "function",
      "constant": true
    },
    {
      "inputs": [],
      "name": "getRegulatorAddress",
      "outputs": [
        {
          "internalType": "address",
          "name": "",
          "type": "address"
        }
      ],
      "stateMutability": "view",
      "type": "function",
      "constant": true
    }
  ],
  "bytecode": "0x60806040523480156200001157600080fd5b5060405162001d9e38038062001d9e83398181016040528101906200003791906200037e565b816000806101000a81548173ffffffffffffffffffffffffffffffffffffffff021916908373ffffffffffffffffffffffffffffffffffffffff160217905550600060018190555060006040518060c001604052808473ffffffffffffffffffffffffffffffffffffffff168152602001838152602001600154815260200160006006811115620000cd57620000cc62000519565b5b815260200160016002811115620000e957620000e862000519565b5b815260200160011515815250905080600260008573ffffffffffffffffffffffffffffffffffffffff1673ffffffffffffffffffffffffffffffffffffffff16815260200190815260200160002060008201518160000160006101000a81548173ffffffffffffffffffffffffffffffffffffffff021916908373ffffffffffffffffffffffffffffffffffffffff16021790555060208201518160010190805190602001906200019c92919062000239565b506040820151816002015560608201518160030160006101000a81548160ff02191690836006811115620001d557620001d462000519565b5b021790555060808201518160030160016101000a81548160ff0219169083600281111562000208576200020762000519565b5b021790555060a08201518160030160026101000a81548160ff021916908315150217905550905050505050620005e5565b8280546200024790620004ad565b90600052602060002090601f0160209004810192826200026b5760008555620002b7565b82601f106200028657805160ff1916838001178555620002b7565b82800160010185558215620002b7579182015b82811115620002b657825182559160200191906001019062000299565b5b509050620002c69190620002ca565b5090565b5b80821115620002e5576000816000905550600101620002cb565b5090565b600062000300620002fa846200040d565b620003e4565b9050828152602081018484840111156200031f576200031e620005ab565b5b6200032c84828562000477565b509392505050565b6000815190506200034581620005cb565b92915050565b600082601f830112620003635762000362620005a6565b5b815162000375848260208601620002e9565b91505092915050565b60008060408385031215620003985762000397620005b5565b5b6000620003a88582860162000334565b925050602083015167ffffffffffffffff811115620003cc57620003cb620005b0565b5b620003da858286016200034b565b9150509250929050565b6000620003f062000403565b9050620003fe8282620004e3565b919050565b6000604051905090565b600067ffffffffffffffff8211156200042b576200042a62000577565b5b6200043682620005ba565b9050602081019050919050565b6000620004508262000457565b9050919050565b600073ffffffffffffffffffffffffffffffffffffffff82169050919050565b60005b83811015620004975780820151818401526020810190506200047a565b83811115620004a7576000848401525b50505050565b60006002820490506001821680620004c657607f821691505b60208210811415620004dd57620004dc62000548565b5b50919050565b620004ee82620005ba565b810181811067ffffffffffffffff8211171562000510576200050f62000577565b5b80604052505050565b7f4e487b7100000000000000000000000000000000000000000000000000000000600052602160045260246000fd5b7f4e487b7100000000000000000000000000000000000000000000000000000000600052602260045260246000fd5b7f4e487b7100000000000000000000000000000000000000000000000000000000600052604160045260246000fd5b600080fd5b600080fd5b600080fd5b600080fd5b6000601f19601f8301169050919050565b620005d68162000443565b8114620005e257600080fd5b50565b6117a980620005f56000396000f3fe608060405234801561001057600080fd5b50600436106100885760003560e01c8063708c35931161005b578063708c35931461012c5780637485994d1461014a578063c5aee7af1461017a578063e4fa4a6d1461019657610088565b80630f7ddccf1461008d5780630fc77be9146100bd57806329361544146100db578063542e88e214610110575b600080fd5b6100a760048036038101906100a29190611057565b6101c9565b6040516100b49190611230565b60405180910390f35b6100c56103d4565b6040516100d29190611184565b60405180910390f35b6100f560048036038101906100f09190610fbb565b6103fd565b6040516101079695949392919061119f565b60405180910390f35b61012a60048036038101906101259190611057565b610508565b005b610134610712565b6040516101419190611335565b60405180910390f35b610164600480360381019061015f9190610fbb565b610718565b6040516101719190611230565b60405180910390f35b610194600480360381019061018f9190610fe8565b610903565b005b6101b060048036038101906101ab9190610fbb565b610bf5565b6040516101c09493929190611289565b60405180910390f35b600080600260008573ffffffffffffffffffffffffffffffffffffffff1673ffffffffffffffffffffffffffffffffffffffff1681526020019081526020016000206040518060c00160405290816000820160009054906101000a900473ffffffffffffffffffffffffffffffffffffffff1673ffffffffffffffffffffffffffffffffffffffff1673ffffffffffffffffffffffffffffffffffffffff16815260200160018201805461027c906114ec565b80601f01602080910402602001604051908101604052809291908181526020018280546102a8906114ec565b80156102f55780601f106102ca576101008083540402835291602001916102f5565b820191906000526020600020905b8154815290600101906020018083116102d857829003601f168201915b50505050508152602001600282015481526020016003820160009054906101000a900460ff16600681111561032d5761032c61157e565b5b600681111561033f5761033e61157e565b5b81526020016003820160019054906101000a900460ff1660028111156103685761036761157e565b5b600281111561037a5761037961157e565b5b81526020016003820160029054906101000a900460ff16151515158152505090506000816020015151146103c85782816040015114156103be5760019150506103ce565b60009150506103ce565b60009150505b92915050565b60008060009054906101000a900473ffffffffffffffffffffffffffffffffffffffff16905090565b60026020528060005260406000206000915090508060000160009054906101000a900473ffffffffffffffffffffffffffffffffffffffff1690806001018054610446906114ec565b80601f0160208091040260200160405190810160405280929190818152602001828054610472906114ec565b80156104bf5780601f10610494576101008083540402835291602001916104bf565b820191906000526020600020905b8154815290600101906020018083116104a257829003601f168201915b5050505050908060020154908060030160009054906101000a900460ff16908060030160019054906101000a900460ff16908060030160029054906101000a900460ff16905086565b60008054906101000a900473ffffffffffffffffffffffffffffffffffffffff1673ffffffffffffffffffffffffffffffffffffffff163373ffffffffffffffffffffffffffffffffffffffff1614610596576040517f08c379a000000000000000000000000000000000000000000000000000000000815260040161058d90611315565b60405180910390fd5b8060028111156105a9576105a861157e565b5b600260008473ffffffffffffffffffffffffffffffffffffffff1673ffffffffffffffffffffffffffffffffffffffff16815260200190815260200160002060030160016101000a81548160ff0219169083600281111561060d5761060c61157e565b5b02179055507f55c9a487c62d96ff68cc3c37227dd8bea51dad6c5a9e92756a478d6d116a8f10600260008473ffffffffffffffffffffffffffffffffffffffff1673ffffffffffffffffffffffffffffffffffffffff16815260200190815260200160002060000160009054906101000a900473ffffffffffffffffffffffffffffffffffffffff16600260008573ffffffffffffffffffffffffffffffffffffffff1673ffffffffffffffffffffffffffffffffffffffff16815260200190815260200160002060030160019054906101000a900460ff1660028111156106f8576106f761157e565b5b604051610706929190611207565b60405180910390a15050565b60015481565b600080600260008473ffffffffffffffffffffffffffffffffffffffff1673ffffffffffffffffffffffffffffffffffffffff1681526020019081526020016000206001018054610768906114ec565b9050146108f957600160028111156107835761078261157e565b5b600260008473ffffffffffffffffffffffffffffffffffffffff1673ffffffffffffffffffffffffffffffffffffffff16815260200190815260200160002060030160019054906101000a900460ff1660028111156107e5576107e461157e565b5b1480156108e25750600680811115610800576107ff61157e565b5b600260008473ffffffffffffffffffffffffffffffffffffffff1673ffffffffffffffffffffffffffffffffffffffff16815260200190815260200160002060030160009054906101000a900460ff1660068111156108625761086161157e565b5b14806108e157506005600681111561087d5761087c61157e565b5b600260008473ffffffffffffffffffffffffffffffffffffffff1673ffffffffffffffffffffffffffffffffffffffff16815260200190815260200160002060030160009054906101000a900460ff1660068111156108df576108de61157e565b5b145b5b156108f057600190506108fe565b600090506108fe565b600090505b919050565b826000151561091182610e14565b151514610953576040517f08c379a000000000000000000000000000000000000000000000000000000000815260040161094a906112d5565b60405180910390fd5b6000821415610997576040517f08c379a000000000000000000000000000000000000000000000000000000000815260040161098e906112f5565b60405180910390fd5b6000600180546109a791906113c2565b905060006040518060c001604052808773ffffffffffffffffffffffffffffffffffffffff1681526020018681526020018381526020018560068111156109f1576109f061157e565b5b6006811115610a0357610a0261157e565b5b815260200160006002811115610a1c57610a1b61157e565b5b815260200160011515815250905080600260008873ffffffffffffffffffffffffffffffffffffffff1673ffffffffffffffffffffffffffffffffffffffff16815260200190815260200160002060008201518160000160006101000a81548173ffffffffffffffffffffffffffffffffffffffff021916908373ffffffffffffffffffffffffffffffffffffffff1602179055506020820151816001019080519060200190610acd929190610e7e565b506040820151816002015560608201518160030160006101000a81548160ff02191690836006811115610b0357610b0261157e565b5b021790555060808201518160030160016101000a81548160ff02191690836002811115610b3357610b3261157e565b5b021790555060a08201518160030160026101000a81548160ff0219169083151502179055509050508060400151816000015173ffffffffffffffffffffffffffffffffffffffff167f69ba979223208999ec4168b3afb5c75c7f1a83509d27c83b97a5cdc28462a931836020015184606001516006811115610bb857610bb761157e565b5b85608001516002811115610bcf57610bce61157e565b5b604051610bde9392919061124b565b60405180910390a381600181905550505050505050565b6060600080600080600260008773ffffffffffffffffffffffffffffffffffffffff1673ffffffffffffffffffffffffffffffffffffffff1681526020019081526020016000206040518060c00160405290816000820160009054906101000a900473ffffffffffffffffffffffffffffffffffffffff1673ffffffffffffffffffffffffffffffffffffffff1673ffffffffffffffffffffffffffffffffffffffff168152602001600182018054610cad906114ec565b80601f0160208091040260200160405190810160405280929190818152602001828054610cd9906114ec565b8015610d265780601f10610cfb57610100808354040283529160200191610d26565b820191906000526020600020905b815481529060010190602001808311610d0957829003601f168201915b50505050508152602001600282015481526020016003820160009054906101000a900460ff166006811115610d5e57610d5d61157e565b5b6006811115610d7057610d6f61157e565b5b81526020016003820160019054906101000a900460ff166002811115610d9957610d9861157e565b5b6002811115610dab57610daa61157e565b5b81526020016003820160029054906101000a900460ff1615151515815250509050806020015194508060400151935080606001516006811115610df157610df061157e565b5b925080608001516002811115610e0a57610e0961157e565b5b9150509193509193565b6000600260008373ffffffffffffffffffffffffffffffffffffffff1673ffffffffffffffffffffffffffffffffffffffff16815260200190815260200160002060030160029054906101000a900460ff1615610e745760019050610e79565b600090505b919050565b828054610e8a906114ec565b90600052602060002090601f016020900481019282610eac5760008555610ef3565b82601f10610ec557805160ff1916838001178555610ef3565b82800160010185558215610ef3579182015b82811115610ef2578251825591602001919060010190610ed7565b5b509050610f009190610f04565b5090565b5b80821115610f1d576000816000905550600101610f05565b5090565b6000610f34610f2f84611375565b611350565b905082815260208101848484011115610f5057610f4f611610565b5b610f5b8482856114aa565b509392505050565b600081359050610f7281611745565b92915050565b600082601f830112610f8d57610f8c61160b565b5b8135610f9d848260208601610f21565b91505092915050565b600081359050610fb58161175c565b92915050565b600060208284031215610fd157610fd061161a565b5b6000610fdf84828501610f63565b91505092915050565b6000806000606084860312156110015761100061161a565b5b600061100f86828701610f63565b935050602084013567ffffffffffffffff8111156110305761102f611615565b5b61103c86828701610f78565b925050604061104d86828701610fa6565b9150509250925092565b6000806040838503121561106e5761106d61161a565b5b600061107c85828601610f63565b925050602061108d85828601610fa6565b9150509250929050565b6110a081611418565b82525050565b6110af8161142a565b82525050565b6110be81611486565b82525050565b6110cd81611498565b82525050565b60006110de826113a6565b6110e881856113b1565b93506110f88185602086016114b9565b6111018161161f565b840191505092915050565b60006111196026836113b1565b915061112482611630565b604082019050919050565b600061113c6021836113b1565b91506111478261167f565b604082019050919050565b600061115f6034836113b1565b915061116a826116ce565b604082019050919050565b61117e8161147c565b82525050565b60006020820190506111996000830184611097565b92915050565b600060c0820190506111b46000830189611097565b81810360208301526111c681886110d3565b90506111d56040830187611175565b6111e260608301866110c4565b6111ef60808301856110b5565b6111fc60a08301846110a6565b979650505050505050565b600060408201905061121c6000830185611097565b6112296020830184611175565b9392505050565b600060208201905061124560008301846110a6565b92915050565b6000606082019050818103600083015261126581866110d3565b90506112746020830185611175565b6112816040830184611175565b949350505050565b600060808201905081810360008301526112a381876110d3565b90506112b26020830186611175565b6112bf6040830185611175565b6112cc6060830184611175565b95945050505050565b600060208201905081810360008301526112ee8161110c565b9050919050565b6000602082019050818103600083015261130e8161112f565b9050919050565b6000602082019050818103600083015261132e81611152565b9050919050565b600060208201905061134a6000830184611175565b92915050565b600061135a61136b565b9050611366828261151e565b919050565b6000604051905090565b600067ffffffffffffffff8211156113905761138f6115dc565b5b6113998261161f565b9050602081019050919050565b600081519050919050565b600082825260208201905092915050565b60006113cd8261147c565b91506113d88361147c565b9250827fffffffffffffffffffffffffffffffffffffffffffffffffffffffffffffffff0382111561140d5761140c61154f565b5b828201905092915050565b60006114238261145c565b9050919050565b60008115159050919050565b60008190506114448261171d565b919050565b600081905061145782611731565b919050565b600073ffffffffffffffffffffffffffffffffffffffff82169050919050565b6000819050919050565b600061149182611436565b9050919050565b60006114a382611449565b9050919050565b82818337600083830152505050565b60005b838110156114d75780820151818401526020810190506114bc565b838111156114e6576000848401525b50505050565b6000600282049050600182168061150457607f821691505b60208210811415611518576115176115ad565b5b50919050565b6115278261161f565b810181811067ffffffffffffffff82111715611546576115456115dc565b5b80604052505050565b7f4e487b7100000000000000000000000000000000000000000000000000000000600052601160045260246000fd5b7f4e487b7100000000000000000000000000000000000000000000000000000000600052602160045260246000fd5b7f4e487b7100000000000000000000000000000000000000000000000000000000600052602260045260246000fd5b7f4e487b7100000000000000000000000000000000000000000000000000000000600052604160045260246000fd5b600080fd5b600080fd5b600080fd5b600080fd5b6000601f19601f8301169050919050565b7f43616e6e6f7420726567697374657220746865206475706c696361746520616360008201527f636f756e742e0000000000000000000000000000000000000000000000000000602082015250565b7f43616e6e6f742072656769737465722061732074686520726567756c61746f7260008201527f2e00000000000000000000000000000000000000000000000000000000000000602082015250565b7f546869732066756e6374696f6e2063616e206f6e6c792062652065786563757460008201527f65642062792074686520726567756c61746f722e000000000000000000000000602082015250565b6003811061172e5761172d61157e565b5b50565b600781106117425761174161157e565b5b50565b61174e81611418565b811461175957600080fd5b50565b6117658161147c565b811461177057600080fd5b5056fea2646970667358221220314cbf84ef6c15416724fc43203fdf4335bf6a3dded30da46e797e74a724a10564736f6c63430008060033",
  "immutableReferences": {},
  "source": "// SPDX-License-Identifier: GPL-3.0\n\npragma solidity ^0.8.0;\n\n/**\n * @title Profile Management\n * @dev Implements profile mMnagement.\n * Constraints:\n * 1. Each participant per 1 account address\n * 2. only one regulator address per 1 profile contract\n * Program flow\n * 1. create \"Profile contract\" by adding regulator's address in its constructor.\n * 2. The participants(1=Farmer,2=Manufacturer,3=Retailer,4=Logistic) use the backend(off-chain) to call function registerAccount(on-chain)\n * 3. Event RegisterAccount is raised and the backend (off-chain) can get error and result from function registerAccount(on-chain). The backend can store the data in database off-chain.\n * 4. The initial of account status is  0=Pending.\n * 5. The regulator uses the off-chain app to pass the parameter of each participant account address and account status to function approveAccount(on-chain).\n * 6. To get accountInfo (struct Account), can directly call mapping accountInfoByAddress[accountAddress]\n */\ncontract Profile {\n    //AccountStatus: 0=Pending, 1=Approved, 2=Rejected\n    enum AccountStatus {\n        Pending,\n        Approved,\n        Rejected\n    }\n    //AccountType: 0=Regulator,1=Farmer,2=Manufacturer,3=Retailer,4=Consumer,5=Logistic,6=Oracle\n    enum AccountType {\n        Regulator,\n        Farmer,\n        Manufacturer,\n        Retailer,\n        Consumer,\n        Logistic,\n        Oracle\n    }\n\n    address private regulatorAddress;\n    uint256 public lastAccountId;\n\n    struct Account {\n        address accountAddress;\n        string accountName;\n        uint256 accountId;\n        AccountType accountType;\n        AccountStatus accountStatus;\n        bool isValue; // To check duplicate account\n    }\n    // Get account Info. by account address.\n    mapping(address => Account) public accountInfoByAddress;\n\n    // @notice To create profile contract, have to specify regulator's address first.\n    constructor(address _regulatorAddress, string memory _regulatorName) {\n        regulatorAddress = _regulatorAddress;\n        lastAccountId = 0;\n        // Create regulator account. Account index 0 is regulator\n        Account memory regulatorAcc = Account(\n            _regulatorAddress,\n            _regulatorName,\n            lastAccountId,\n            AccountType.Regulator,\n            AccountStatus.Approved,\n            true\n        );\n\n        //add regulator acc. address to mapping.\n        accountInfoByAddress[_regulatorAddress] = regulatorAcc;\n    }\n\n    // Create events for using in JavaScript API\n    // Event 1: RegisterAccount by Farmer,Manufacturer,Reatiler,Logistic\n    event RegisterAccount(\n        address indexed accountAddress,\n        string accountName,\n        uint256 indexed accountId,\n        uint256 accountType,\n        uint256 accountStatus\n    );\n    // Event 2: ApproveAccount by Regulator\n    event ApproveAccount(address accountAddress, uint256 accountStatus);\n\n    /// @notice Function 1: createProfile for Regulator,Farmer,Manufacturer,Reatiler,Logistic\n    /// @param _accountAddress Each participant can have only one accountAddress for this phase.\n    /// @param _accountName The account name for account address.\n    /// @param _accountTypeValue Specific the interger as following  0=Regulator,1=Farmer,2=Manufacturer,3=Reatiler,4=Logistic\n    function registerAccount(\n        address _accountAddress,\n        string memory _accountName,\n        uint256 _accountTypeValue\n    ) public checkDuplicateAddress(_accountAddress) {\n        require(_accountTypeValue != 0, \"Cannot register as the regulator.\");\n        uint256 tmpNewId = lastAccountId + 1;\n        Account memory newAcc = Account(\n            _accountAddress,\n            _accountName,\n            tmpNewId,\n            AccountType(_accountTypeValue),\n            AccountStatus.Pending,\n            true\n        );\n\n        //add a new acc. address to mapping.\n        accountInfoByAddress[_accountAddress] = newAcc;\n        emit RegisterAccount(\n            newAcc.accountAddress,\n            newAcc.accountName,\n            newAcc.accountId,\n            uint256(newAcc.accountType),\n            uint256(newAcc.accountStatus)\n        );\n        lastAccountId = tmpNewId;\n    }\n\n    /// @notice Function 2: approveAccount. Only regulator account can use this function.\n    /// @param _accountAddress Each participant can have only one accountAddress for this phase.\n    /// @param _accountStatus 0=Pending, 1=Approved, 2=Rejected\n    function approveAccount(address _accountAddress, uint256 _accountStatus)\n        public\n        onlyRegulator\n    {\n        // Get account by accountAddress\n        accountInfoByAddress[_accountAddress].accountStatus = AccountStatus(\n            _accountStatus\n        );\n        emit ApproveAccount(\n            accountInfoByAddress[_accountAddress].accountAddress,\n            uint256(accountInfoByAddress[_accountAddress].accountStatus)\n        );\n    }\n\n    /// @notice Function 3: getAccountInfoByAddress.(For the frontend off-chain)\n    /// @param _accountAddress Each participant can have only one accountAddress for this phase.\n    function getAccountInfoByAddress(address _accountAddress)\n        public\n        view\n        returns (\n            string memory accountName,\n            uint256 accountId,\n            uint256 accountTypeValue,\n            uint256 accountStatusValue\n        )\n    {\n        Account memory acc = accountInfoByAddress[_accountAddress];\n        accountName = acc.accountName;\n        accountId = acc.accountId;\n        accountTypeValue = uint256(acc.accountType);\n        accountStatusValue = uint256(acc.accountStatus);\n    }\n\n    function isAccountOwner(address _accountAddress, uint256 _accountId)\n        public\n        view\n        returns (bool)\n    {\n        Account memory acc = accountInfoByAddress[_accountAddress];\n        if (bytes(acc.accountName).length != 0) {\n            if (acc.accountId == _accountId) {\n                return true;\n            } else {\n                return false;\n            }\n        } else {\n            return false;\n        }\n    }\n\n    function isLogisticOrOracle(address _accountAddress)\n        public\n        view\n        returns (bool)\n    {\n        if (\n            bytes(accountInfoByAddress[_accountAddress].accountName).length != 0\n        ) {\n            if (\n                (accountInfoByAddress[_accountAddress].accountStatus ==\n                    AccountStatus.Approved) &&\n                (accountInfoByAddress[_accountAddress].accountType ==\n                    AccountType.Oracle ||\n                    accountInfoByAddress[_accountAddress].accountType ==\n                    AccountType.Logistic)\n            ) {\n                return true;\n            } else {\n                return false;\n            }\n        } else {\n            return false;\n        }\n    }\n\n    function getRegulatorAddress() public view returns (address) {\n        return regulatorAddress;\n    }\n\n    // private functions\n    // Does account address exist?\n    function isExisAccount(address _accountAddress)\n        private\n        view\n        returns (bool)\n    {\n        if (accountInfoByAddress[_accountAddress].isValue) {\n            return true;\n        }\n        return false;\n    }\n\n    // modifier\n    modifier onlyRegulator {\n        require(\n            msg.sender == regulatorAddress,\n            \"This function can only be executed by the regulator.\"\n        );\n        _;\n    }\n    modifier checkDuplicateAddress(address _accountAddress) {\n        require(\n            isExisAccount(_accountAddress) == false,\n            \"Cannot register the duplicate account.\"\n        );\n        _;\n    }\n}\n",
  "sourcePath": "/Volumes/Data/Users/rittisak/Projects/unsw/comp6452/solidity/contracts/Profile.sol",
  "compiler": {
    "name": "solc",
    "version": "0.8.6+commit.11564f7e.Emscripten.clang"
  },
  "schemaVersion": "3.4.1",
  "updatedAt": "2021-07-24T06:13:13.097Z",
  "networkType": "ethereum",
  "devdoc": {
    "details": "Implements profile mMnagement. Constraints: 1. Each participant per 1 account address 2. only one regulator address per 1 profile contract Program flow 1. create \"Profile contract\" by adding regulator's address in its constructor. 2. The participants(1=Farmer,2=Manufacturer,3=Retailer,4=Logistic) use the backend(off-chain) to call function registerAccount(on-chain) 3. Event RegisterAccount is raised and the backend (off-chain) can get error and result from function registerAccount(on-chain). The backend can store the data in database off-chain. 4. The initial of account status is  0=Pending. 5. The regulator uses the off-chain app to pass the parameter of each participant account address and account status to function approveAccount(on-chain). 6. To get accountInfo (struct Account), can directly call mapping accountInfoByAddress[accountAddress]",
    "kind": "dev",
    "methods": {
      "approveAccount(address,uint256)": {
        "params": {
          "_accountAddress": "Each participant can have only one accountAddress for this phase.",
          "_accountStatus": "0=Pending, 1=Approved, 2=Rejected"
        }
      },
      "getAccountInfoByAddress(address)": {
        "params": {
          "_accountAddress": "Each participant can have only one accountAddress for this phase."
        }
      },
      "registerAccount(address,string,uint256)": {
        "params": {
          "_accountAddress": "Each participant can have only one accountAddress for this phase.",
          "_accountName": "The account name for account address.",
          "_accountTypeValue": "Specific the interger as following  0=Regulator,1=Farmer,2=Manufacturer,3=Reatiler,4=Logistic"
        }
      }
    },
    "title": "Profile Management",
    "version": 1
  },
  "userdoc": {
    "kind": "user",
    "methods": {
      "approveAccount(address,uint256)": {
        "notice": "Function 2: approveAccount. Only regulator account can use this function."
      },
      "getAccountInfoByAddress(address)": {
        "notice": "Function 3: getAccountInfoByAddress.(For the frontend off-chain)"
      },
      "registerAccount(address,string,uint256)": {
        "notice": "Function 1: createProfile for Regulator,Farmer,Manufacturer,Reatiler,Logistic"
      }
    },
    "version": 1
  }
}