{
  "contractName": "Profile",
  "abi": [
    {
      "inputs": [
        {
          "internalType": "address",
          "name": "_regulatorAddress",
          "type": "address"
        },
        {
          "internalType": "string",
          "name": "_regulatorName",
          "type": "string"
        }
      ],
      "stateMutability": "nonpayable",
      "type": "constructor"
    },
    {
      "anonymous": false,
      "inputs": [
        {
          "indexed": false,
          "internalType": "address",
          "name": "accountAddress",
          "type": "address"
        },
        {
          "indexed": false,
          "internalType": "uint256",
          "name": "accountStatus",
          "type": "uint256"
        }
      ],
      "name": "ApproveAccount",
      "type": "event"
    },
    {
      "anonymous": false,
      "inputs": [
        {
          "indexed": true,
          "internalType": "address",
          "name": "accountAddress",
          "type": "address"
        },
        {
          "indexed": false,
          "internalType": "string",
          "name": "accountName",
          "type": "string"
        },
        {
          "indexed": true,
          "internalType": "uint256",
          "name": "accountId",
          "type": "uint256"
        },
        {
          "indexed": false,
          "internalType": "uint256",
          "name": "accountType",
          "type": "uint256"
        },
        {
          "indexed": false,
          "internalType": "uint256",
          "name": "accountStatus",
          "type": "uint256"
        }
      ],
      "name": "RegisterAccount",
      "type": "event"
    },
    {
      "inputs": [
        {
          "internalType": "address",
          "name": "",
          "type": "address"
        }
      ],
      "name": "accountInfoByAddress",
      "outputs": [
        {
          "internalType": "address",
          "name": "accountAddress",
          "type": "address"
        },
        {
          "internalType": "string",
          "name": "accountName",
          "type": "string"
        },
        {
          "internalType": "uint256",
          "name": "accountId",
          "type": "uint256"
        },
        {
          "internalType": "enum Profile.AccountType",
          "name": "accountType",
          "type": "uint8"
        },
        {
          "internalType": "enum Profile.AccountStatus",
          "name": "accountStatus",
          "type": "uint8"
        },
        {
          "internalType": "bool",
          "name": "isValue",
          "type": "bool"
        }
      ],
      "stateMutability": "view",
      "type": "function",
      "constant": true
    },
    {
      "inputs": [],
      "name": "lastAccountId",
      "outputs": [
        {
          "internalType": "uint256",
          "name": "",
          "type": "uint256"
        }
      ],
      "stateMutability": "view",
      "type": "function",
      "constant": true
    },
    {
      "inputs": [],
      "name": "regulatorAddress",
      "outputs": [
        {
          "internalType": "address",
          "name": "",
          "type": "address"
        }
      ],
      "stateMutability": "view",
      "type": "function",
      "constant": true
    },
    {
      "inputs": [
        {
          "internalType": "address",
          "name": "_accountAddress",
          "type": "address"
        },
        {
          "internalType": "string",
          "name": "_accountName",
          "type": "string"
        },
        {
          "internalType": "uint256",
          "name": "_accountTypeValue",
          "type": "uint256"
        }
      ],
      "name": "registerAccount",
      "outputs": [],
      "stateMutability": "nonpayable",
      "type": "function"
    },
    {
      "inputs": [
        {
          "internalType": "address",
          "name": "_accountAddress",
          "type": "address"
        },
        {
          "internalType": "uint256",
          "name": "_accountStatus",
          "type": "uint256"
        }
      ],
      "name": "approveAccount",
      "outputs": [],
      "stateMutability": "nonpayable",
      "type": "function"
    },
    {
      "inputs": [
        {
          "internalType": "address",
          "name": "_accountAddress",
          "type": "address"
        }
      ],
      "name": "getAccountInfoByAddress",
      "outputs": [
        {
          "internalType": "string",
          "name": "accountName",
          "type": "string"
        },
        {
          "internalType": "uint256",
          "name": "accountId",
          "type": "uint256"
        },
        {
          "internalType": "uint256",
          "name": "accountTypeValue",
          "type": "uint256"
        },
        {
          "internalType": "uint256",
          "name": "accountStatusValue",
          "type": "uint256"
        }
      ],
      "stateMutability": "view",
      "type": "function",
      "constant": true
    }
  ],
  "bytecode": "0x60806040523480156200001157600080fd5b5060405162001b6b38038062001b6b833981810160405281019062000037919062000402565b816000806101000a81548173ffffffffffffffffffffffffffffffffffffffff021916908373ffffffffffffffffffffffffffffffffffffffff160217905550600060018190555060006040518060c001604052808473ffffffffffffffffffffffffffffffffffffffff168152602001838152602001600154815260200160006004811115620000f1577f4e487b7100000000000000000000000000000000000000000000000000000000600052602160045260246000fd5b81526020016001600281111562000131577f4e487b7100000000000000000000000000000000000000000000000000000000600052602160045260246000fd5b815260200160011515815250905080600260008573ffffffffffffffffffffffffffffffffffffffff1673ffffffffffffffffffffffffffffffffffffffff16815260200190815260200160002060008201518160000160006101000a81548173ffffffffffffffffffffffffffffffffffffffff021916908373ffffffffffffffffffffffffffffffffffffffff1602179055506020820151816001019080519060200190620001e4929190620002c9565b506040820151816002015560608201518160030160006101000a81548160ff0219169083600481111562000241577f4e487b7100000000000000000000000000000000000000000000000000000000600052602160045260246000fd5b021790555060808201518160030160016101000a81548160ff0219169083600281111562000298577f4e487b7100000000000000000000000000000000000000000000000000000000600052602160045260246000fd5b021790555060a08201518160030160026101000a81548160ff0219169083151502179055509050505050506200061a565b828054620002d79062000525565b90600052602060002090601f016020900481019282620002fb576000855562000347565b82601f106200031657805160ff191683800117855562000347565b8280016001018555821562000347579182015b828111156200034657825182559160200191906001019062000329565b5b5090506200035691906200035a565b5090565b5b80821115620003755760008160009055506001016200035b565b5090565b6000620003906200038a8462000485565b6200045c565b905082815260208101848484011115620003a957600080fd5b620003b6848285620004ef565b509392505050565b600081519050620003cf8162000600565b92915050565b600082601f830112620003e757600080fd5b8151620003f984826020860162000379565b91505092915050565b600080604083850312156200041657600080fd5b60006200042685828601620003be565b925050602083015167ffffffffffffffff8111156200044457600080fd5b6200045285828601620003d5565b9150509250929050565b6000620004686200047b565b90506200047682826200055b565b919050565b6000604051905090565b600067ffffffffffffffff821115620004a357620004a2620005c0565b5b620004ae82620005ef565b9050602081019050919050565b6000620004c882620004cf565b9050919050565b600073ffffffffffffffffffffffffffffffffffffffff82169050919050565b60005b838110156200050f578082015181840152602081019050620004f2565b838111156200051f576000848401525b50505050565b600060028204905060018216806200053e57607f821691505b6020821081141562000555576200055462000591565b5b50919050565b6200056682620005ef565b810181811067ffffffffffffffff82111715620005885762000587620005c0565b5b80604052505050565b7f4e487b7100000000000000000000000000000000000000000000000000000000600052602260045260246000fd5b7f4e487b7100000000000000000000000000000000000000000000000000000000600052604160045260246000fd5b6000601f19601f8301169050919050565b6200060b81620004bb565b81146200061757600080fd5b50565b611541806200062a6000396000f3fe608060405234801561001057600080fd5b50600436106100625760003560e01c806329361544146100675780633826b1ea1461009c578063542e88e2146100ba578063708c3593146100d6578063c5aee7af146100f4578063e4fa4a6d14610110575b600080fd5b610081600480360381019061007c9190610d92565b610143565b60405161009396959493929190610f66565b60405180910390f35b6100a461024e565b6040516100b19190610f4b565b60405180910390f35b6100d460048036038101906100cf9190610e22565b610272565b005b6100de6104ee565b6040516100eb91906110e1565b60405180910390f35b61010e60048036038101906101099190610dbb565b6104f4565b005b61012a60048036038101906101259190610d92565b6108f0565b60405161013a9493929190611035565b60405180910390f35b60026020528060005260406000206000915090508060000160009054906101000a900473ffffffffffffffffffffffffffffffffffffffff169080600101805461018c90611298565b80601f01602080910402602001604051908101604052809291908181526020018280546101b890611298565b80156102055780601f106101da57610100808354040283529160200191610205565b820191906000526020600020905b8154815290600101906020018083116101e857829003601f168201915b5050505050908060020154908060030160009054906101000a900460ff16908060030160019054906101000a900460ff16908060030160029054906101000a900460ff16905086565b60008054906101000a900473ffffffffffffffffffffffffffffffffffffffff1681565b60008054906101000a900473ffffffffffffffffffffffffffffffffffffffff1673ffffffffffffffffffffffffffffffffffffffff163373ffffffffffffffffffffffffffffffffffffffff1614610300576040517f08c379a00000000000000000000000000000000000000000000000000000000081526004016102f7906110c1565b60405180910390fd5b806002811115610339577f4e487b7100000000000000000000000000000000000000000000000000000000600052602160045260246000fd5b600260008473ffffffffffffffffffffffffffffffffffffffff1673ffffffffffffffffffffffffffffffffffffffff16815260200190815260200160002060030160016101000a81548160ff021916908360028111156103c3577f4e487b7100000000000000000000000000000000000000000000000000000000600052602160045260246000fd5b02179055507f55c9a487c62d96ff68cc3c37227dd8bea51dad6c5a9e92756a478d6d116a8f10600260008473ffffffffffffffffffffffffffffffffffffffff1673ffffffffffffffffffffffffffffffffffffffff16815260200190815260200160002060000160009054906101000a900473ffffffffffffffffffffffffffffffffffffffff16600260008573ffffffffffffffffffffffffffffffffffffffff1673ffffffffffffffffffffffffffffffffffffffff16815260200190815260200160002060030160019054906101000a900460ff1660028111156104d4577f4e487b7100000000000000000000000000000000000000000000000000000000600052602160045260246000fd5b6040516104e2929190610fce565b60405180910390a15050565b60015481565b826000151561050282610bf3565b151514610544576040517f08c379a000000000000000000000000000000000000000000000000000000000815260040161053b90611081565b60405180910390fd5b6000821415610588576040517f08c379a000000000000000000000000000000000000000000000000000000000815260040161057f906110a1565b60405180910390fd5b600060018054610598919061116e565b905060006040518060c001604052808773ffffffffffffffffffffffffffffffffffffffff168152602001868152602001838152602001856004811115610608577f4e487b7100000000000000000000000000000000000000000000000000000000600052602160045260246000fd5b6004811115610640577f4e487b7100000000000000000000000000000000000000000000000000000000600052602160045260246000fd5b81526020016000600281111561067f577f4e487b7100000000000000000000000000000000000000000000000000000000600052602160045260246000fd5b815260200160011515815250905080600260008873ffffffffffffffffffffffffffffffffffffffff1673ffffffffffffffffffffffffffffffffffffffff16815260200190815260200160002060008201518160000160006101000a81548173ffffffffffffffffffffffffffffffffffffffff021916908373ffffffffffffffffffffffffffffffffffffffff1602179055506020820151816001019080519060200190610730929190610c5d565b506040820151816002015560608201518160030160006101000a81548160ff0219169083600481111561078c577f4e487b7100000000000000000000000000000000000000000000000000000000600052602160045260246000fd5b021790555060808201518160030160016101000a81548160ff021916908360028111156107e2577f4e487b7100000000000000000000000000000000000000000000000000000000600052602160045260246000fd5b021790555060a08201518160030160026101000a81548160ff0219169083151502179055509050508060400151816000015173ffffffffffffffffffffffffffffffffffffffff167f69ba979223208999ec4168b3afb5c75c7f1a83509d27c83b97a5cdc28462a93183602001518460600151600481111561088d577f4e487b7100000000000000000000000000000000000000000000000000000000600052602160045260246000fd5b856080015160028111156108ca577f4e487b7100000000000000000000000000000000000000000000000000000000600052602160045260246000fd5b6040516108d993929190610ff7565b60405180910390a381600181905550505050505050565b6060600080600080600260008773ffffffffffffffffffffffffffffffffffffffff1673ffffffffffffffffffffffffffffffffffffffff1681526020019081526020016000206040518060c00160405290816000820160009054906101000a900473ffffffffffffffffffffffffffffffffffffffff1673ffffffffffffffffffffffffffffffffffffffff1673ffffffffffffffffffffffffffffffffffffffff1681526020016001820180546109a890611298565b80601f01602080910402602001604051908101604052809291908181526020018280546109d490611298565b8015610a215780601f106109f657610100808354040283529160200191610a21565b820191906000526020600020905b815481529060010190602001808311610a0457829003601f168201915b50505050508152602001600282015481526020016003820160009054906101000a900460ff166004811115610a7f577f4e487b7100000000000000000000000000000000000000000000000000000000600052602160045260246000fd5b6004811115610ab7577f4e487b7100000000000000000000000000000000000000000000000000000000600052602160045260246000fd5b81526020016003820160019054906101000a900460ff166002811115610b06577f4e487b7100000000000000000000000000000000000000000000000000000000600052602160045260246000fd5b6002811115610b3e577f4e487b7100000000000000000000000000000000000000000000000000000000600052602160045260246000fd5b81526020016003820160029054906101000a900460ff1615151515815250509050806020015194508060400151935080606001516004811115610baa577f4e487b7100000000000000000000000000000000000000000000000000000000600052602160045260246000fd5b925080608001516002811115610be9577f4e487b7100000000000000000000000000000000000000000000000000000000600052602160045260246000fd5b9150509193509193565b6000600260008373ffffffffffffffffffffffffffffffffffffffff1673ffffffffffffffffffffffffffffffffffffffff16815260200190815260200160002060030160029054906101000a900460ff1615610c535760019050610c58565b600090505b919050565b828054610c6990611298565b90600052602060002090601f016020900481019282610c8b5760008555610cd2565b82601f10610ca457805160ff1916838001178555610cd2565b82800160010185558215610cd2579182015b82811115610cd1578251825591602001919060010190610cb6565b5b509050610cdf9190610ce3565b5090565b5b80821115610cfc576000816000905550600101610ce4565b5090565b6000610d13610d0e84611121565b6110fc565b905082815260208101848484011115610d2b57600080fd5b610d36848285611256565b509392505050565b600081359050610d4d816114dd565b92915050565b600082601f830112610d6457600080fd5b8135610d74848260208601610d00565b91505092915050565b600081359050610d8c816114f4565b92915050565b600060208284031215610da457600080fd5b6000610db284828501610d3e565b91505092915050565b600080600060608486031215610dd057600080fd5b6000610dde86828701610d3e565b935050602084013567ffffffffffffffff811115610dfb57600080fd5b610e0786828701610d53565b9250506040610e1886828701610d7d565b9150509250925092565b60008060408385031215610e3557600080fd5b6000610e4385828601610d3e565b9250506020610e5485828601610d7d565b9150509250929050565b610e67816111c4565b82525050565b610e76816111d6565b82525050565b610e8581611232565b82525050565b610e9481611244565b82525050565b6000610ea582611152565b610eaf818561115d565b9350610ebf818560208601611265565b610ec8816113b7565b840191505092915050565b6000610ee060268361115d565b9150610eeb826113c8565b604082019050919050565b6000610f0360218361115d565b9150610f0e82611417565b604082019050919050565b6000610f2660348361115d565b9150610f3182611466565b604082019050919050565b610f4581611228565b82525050565b6000602082019050610f606000830184610e5e565b92915050565b600060c082019050610f7b6000830189610e5e565b8181036020830152610f8d8188610e9a565b9050610f9c6040830187610f3c565b610fa96060830186610e8b565b610fb66080830185610e7c565b610fc360a0830184610e6d565b979650505050505050565b6000604082019050610fe36000830185610e5e565b610ff06020830184610f3c565b9392505050565b600060608201905081810360008301526110118186610e9a565b90506110206020830185610f3c565b61102d6040830184610f3c565b949350505050565b6000608082019050818103600083015261104f8187610e9a565b905061105e6020830186610f3c565b61106b6040830185610f3c565b6110786060830184610f3c565b95945050505050565b6000602082019050818103600083015261109a81610ed3565b9050919050565b600060208201905081810360008301526110ba81610ef6565b9050919050565b600060208201905081810360008301526110da81610f19565b9050919050565b60006020820190506110f66000830184610f3c565b92915050565b6000611106611117565b905061111282826112ca565b919050565b6000604051905090565b600067ffffffffffffffff82111561113c5761113b611388565b5b611145826113b7565b9050602081019050919050565b600081519050919050565b600082825260208201905092915050565b600061117982611228565b915061118483611228565b9250827fffffffffffffffffffffffffffffffffffffffffffffffffffffffffffffffff038211156111b9576111b86112fb565b5b828201905092915050565b60006111cf82611208565b9050919050565b60008115159050919050565b60008190506111f0826114b5565b919050565b6000819050611203826114c9565b919050565b600073ffffffffffffffffffffffffffffffffffffffff82169050919050565b6000819050919050565b600061123d826111e2565b9050919050565b600061124f826111f5565b9050919050565b82818337600083830152505050565b60005b83811015611283578082015181840152602081019050611268565b83811115611292576000848401525b50505050565b600060028204905060018216806112b057607f821691505b602082108114156112c4576112c3611359565b5b50919050565b6112d3826113b7565b810181811067ffffffffffffffff821117156112f2576112f1611388565b5b80604052505050565b7f4e487b7100000000000000000000000000000000000000000000000000000000600052601160045260246000fd5b7f4e487b7100000000000000000000000000000000000000000000000000000000600052602160045260246000fd5b7f4e487b7100000000000000000000000000000000000000000000000000000000600052602260045260246000fd5b7f4e487b7100000000000000000000000000000000000000000000000000000000600052604160045260246000fd5b6000601f19601f8301169050919050565b7f43616e6e6f7420726567697374657220746865206475706c696361746520616360008201527f636f756e742e0000000000000000000000000000000000000000000000000000602082015250565b7f43616e6e6f742072656769737465722061732074686520726567756c61746f7260008201527f2e00000000000000000000000000000000000000000000000000000000000000602082015250565b7f546869732066756e6374696f6e2063616e206f6e6c792062652065786563757460008201527f65642062792074686520726567756c61746f722e000000000000000000000000602082015250565b600381106114c6576114c561132a565b5b50565b600581106114da576114d961132a565b5b50565b6114e6816111c4565b81146114f157600080fd5b50565b6114fd81611228565b811461150857600080fd5b5056fea2646970667358221220970ce34cd71d05af509c94e6507179995ff0db66d28c9a8e26bdb4c9657bba0064736f6c63430008040033",
  "immutableReferences": {},
  "source": "// SPDX-License-Identifier: GPL-3.0\r\n\r\npragma solidity ^0.8.0;\r\n\r\n/** \r\n * @title Profile Management\r\n * @dev Implements profile mMnagement. \r\n * Constraints: \r\n * 1. Each participant per 1 account address\r\n * 2. only one regulator address per 1 profile contract\r\n * Program flow\r\n * 1. create \"Profile contract\" by adding regulator's address in its constructor.\r\n * 2. The participants(1=Farmer,2=Manufacturer,3=Reatiler,4=Logistic) use the backend(off-chain) to call function registerAccount(on-chain)\r\n * 3. Event RegisterAccount is raised and the backend (off-chain) can get error and result from function registerAccount(on-chain). The backend can store the data in database off-chain.\r\n * 4. The initial of account status is  0=Pending.\r\n * 5. The regulator uses the off-chain app to pass the parameter of each participant account address and account status to function approveAccount(on-chain).\r\n * 6. To get accountInfo (struct Account), can directly call mapping accountInfoByAddress[accountAddress]\r\n */\r\ncontract Profile {\r\n    \r\n    //AccountStatus: 0=Pending, 1=Approved, 2=Rejected\r\n    enum AccountStatus {Pending,Approved,Rejected}\r\n    //AccountType: 0=Regulator,1=Farmer,2=Manufacturer,3=Reatiler,4=Logistic\r\n    enum AccountType {Regulator,Farmer,Manufacturer,Reatiler,Logistic}\r\n    \r\n    address public regulatorAddress;\r\n    uint256 public lastAccountId;\r\n    \r\n    struct Account{\r\n        address  accountAddress;\r\n        string accountName;\r\n        uint256  accountId;\r\n        AccountType accountType;\r\n        AccountStatus  accountStatus;\r\n        bool isValue; // To check duplicate account\r\n    }\r\n    \r\n    // Get account Info. by account address.\r\n    mapping (address => Account) public accountInfoByAddress;\r\n    \r\n    // @notice To create profile contract, have to specify regulator's address first.\r\n    constructor (address _regulatorAddress, string memory _regulatorName) {\r\n        regulatorAddress = _regulatorAddress;\r\n        lastAccountId = 0;\r\n        // Create regulator account. Account index 0 is regulator\r\n        Account memory regulatorAcc = Account(_regulatorAddress,_regulatorName,lastAccountId,AccountType.Regulator,AccountStatus.Approved,true);\r\n        \r\n        //add regulator acc. address to mapping.\r\n        accountInfoByAddress[_regulatorAddress] = regulatorAcc;\r\n    }\r\n    \r\n    // Create events for using in JavaScript API\r\n    // Event 1: RegisterAccount by Farmer,Manufacturer,Reatiler,Logistic\r\n    event RegisterAccount(\r\n        address indexed accountAddress,\r\n        string accountName,\r\n        uint256 indexed accountId,\r\n        uint256 accountType,\r\n        uint256 accountStatus\r\n    );\r\n    // Event 2: ApproveAccount by Regulator\r\n    event ApproveAccount(\r\n        address accountAddress,\r\n        uint256 accountStatus\r\n    );\r\n    \r\n   /// @notice Function 1: createProfile for Regulator,Farmer,Manufacturer,Reatiler,Logistic\r\n   /// @param _accountAddress Each participant can have only one accountAddress for this phase.\r\n   /// @param _accountName The account name for account address.\r\n   /// @param _accountTypeValue Specific the interger as following  0=Regulator,1=Farmer,2=Manufacturer,3=Reatiler,4=Logistic\r\n    function registerAccount(address _accountAddress, string memory _accountName, uint256 _accountTypeValue) public checkDuplicateAddress(_accountAddress){\r\n        require(_accountTypeValue != 0, 'Cannot register as the regulator.');\r\n        uint256 tmpNewId = lastAccountId+1;\r\n        Account memory newAcc = Account(_accountAddress,_accountName,tmpNewId,AccountType(_accountTypeValue),AccountStatus.Pending,true);\r\n        \r\n        //add a new acc. address to mapping.\r\n        accountInfoByAddress[_accountAddress] = newAcc;\r\n        emit RegisterAccount(newAcc.accountAddress, newAcc.accountName, newAcc.accountId,uint256(newAcc.accountType),uint256(newAcc.accountStatus));\r\n        lastAccountId = tmpNewId;\r\n    }\r\n   \r\n   /// @notice Function 2: approveAccount. Only regulator account can use this function.\r\n   /// @param _accountAddress Each participant can have only one accountAddress for this phase. \r\n   /// @param _accountStatus 0=Pending, 1=Approved, 2=Rejected\r\n    function approveAccount(address _accountAddress,uint256 _accountStatus) public onlyRegulator {\r\n       // Get account by accountAddress\r\n        accountInfoByAddress[_accountAddress].accountStatus = AccountStatus(_accountStatus);\r\n       emit ApproveAccount(accountInfoByAddress[_accountAddress].accountAddress,uint256(accountInfoByAddress[_accountAddress].accountStatus));\r\n    }\r\n    \r\n    \r\n    /// @notice Function 3: getAccountInfoByAddress.(For the frontend off-chain)\r\n   /// @param _accountAddress Each participant can have only one accountAddress for this phase. \r\n    function getAccountInfoByAddress(address _accountAddress) public view returns(string memory accountName,uint256  accountId,uint256 accountTypeValue,uint256 accountStatusValue){\r\n        Account memory acc = accountInfoByAddress[_accountAddress];\r\n        accountName = acc.accountName;\r\n        accountId = acc.accountId;\r\n        accountTypeValue = uint256(acc.accountType);\r\n        accountStatusValue =   uint256(acc.accountStatus);\r\n    }\r\n    \r\n    // private functions\r\n    // Does account address exist?\r\n    function isExisAccount(address _accountAddress) private view returns(bool){\r\n        if(accountInfoByAddress[_accountAddress].isValue){\r\n            return true;\r\n        }\r\n        return false;\r\n    }    \r\n\r\n   // modifier\r\n   modifier onlyRegulator{\r\n       require(msg.sender == regulatorAddress, 'This function can only be executed by the regulator.');\r\n       _;\r\n   }\r\n   modifier checkDuplicateAddress(address _accountAddress){\r\n        require(isExisAccount(_accountAddress) == false,\"Cannot register the duplicate account.\");\r\n        _;\r\n    }\r\n}\r\n",
  "sourcePath": "D:/UNSW-2021-Term2/comp6452/Project 2/Git-Foodie/COMP6452_Project/solidity/contracts/Profile.sol",
  "compiler": {
    "name": "solc",
    "version": "0.8.4+commit.c7e474f2.Emscripten.clang"
  },
  "schemaVersion": "3.4.1",
  "updatedAt": "2021-07-08T05:10:51.558Z",
  "networkType": "ethereum",
  "devdoc": {
    "details": "Implements profile mMnagement.  Constraints:  1. Each participant per 1 account address 2. only one regulator address per 1 profile contract Program flow 1. create \"Profile contract\" by adding regulator's address in its constructor. 2. The participants(1=Farmer,2=Manufacturer,3=Reatiler,4=Logistic) use the backend(off-chain) to call function registerAccount(on-chain) 3. Event RegisterAccount is raised and the backend (off-chain) can get error and result from function registerAccount(on-chain). The backend can store the data in database off-chain. 4. The initial of account status is  0=Pending. 5. The regulator uses the off-chain app to pass the parameter of each participant account address and account status to function approveAccount(on-chain). 6. To get accountInfo (struct Account), can directly call mapping accountInfoByAddress[accountAddress]",
    "kind": "dev",
    "methods": {
      "approveAccount(address,uint256)": {
        "params": {
          "_accountAddress": "Each participant can have only one accountAddress for this phase. ",
          "_accountStatus": "0=Pending, 1=Approved, 2=Rejected"
        }
      },
      "getAccountInfoByAddress(address)": {
        "params": {
          "_accountAddress": "Each participant can have only one accountAddress for this phase. "
        }
      },
      "registerAccount(address,string,uint256)": {
        "params": {
          "_accountAddress": "Each participant can have only one accountAddress for this phase.",
          "_accountName": "The account name for account address.",
          "_accountTypeValue": "Specific the interger as following  0=Regulator,1=Farmer,2=Manufacturer,3=Reatiler,4=Logistic"
        }
      }
    },
    "title": "Profile Management",
    "version": 1
  },
  "userdoc": {
    "kind": "user",
    "methods": {
      "approveAccount(address,uint256)": {
        "notice": "Function 2: approveAccount. Only regulator account can use this function."
      },
      "getAccountInfoByAddress(address)": {
        "notice": "Function 3: getAccountInfoByAddress.(For the frontend off-chain)"
      },
      "registerAccount(address,string,uint256)": {
        "notice": "Function 1: createProfile for Regulator,Farmer,Manufacturer,Reatiler,Logistic"
      }
    },
    "version": 1
  }
}