{
  "contractName": "ProfileContract",
  "abi": [
    {
      "inputs": [
        {
          "internalType": "address",
          "name": "_regulatorAddress",
          "type": "address"
        },
        {
          "internalType": "string",
          "name": "_regulatorName",
          "type": "string"
        }
      ],
      "stateMutability": "nonpayable",
      "type": "constructor"
    },
    {
      "anonymous": false,
      "inputs": [
        {
          "indexed": false,
          "internalType": "address",
          "name": "accountAddress",
          "type": "address"
        },
        {
          "indexed": false,
          "internalType": "uint256",
          "name": "accountStatus",
          "type": "uint256"
        }
      ],
      "name": "ApproveAccount",
      "type": "event"
    },
    {
      "anonymous": false,
      "inputs": [
        {
          "indexed": true,
          "internalType": "address",
          "name": "accountAddress",
          "type": "address"
        },
        {
          "indexed": false,
          "internalType": "string",
          "name": "accountName",
          "type": "string"
        },
        {
          "indexed": true,
          "internalType": "uint256",
          "name": "accountId",
          "type": "uint256"
        },
        {
          "indexed": false,
          "internalType": "uint256",
          "name": "accountType",
          "type": "uint256"
        },
        {
          "indexed": false,
          "internalType": "uint256",
          "name": "accountStatus",
          "type": "uint256"
        }
      ],
      "name": "RegisterAccount",
      "type": "event"
    },
    {
      "inputs": [
        {
          "internalType": "address",
          "name": "",
          "type": "address"
        }
      ],
      "name": "accountInfoByAddress",
      "outputs": [
        {
          "internalType": "address",
          "name": "accountAddress",
          "type": "address"
        },
        {
          "internalType": "string",
          "name": "accountName",
          "type": "string"
        },
        {
          "internalType": "uint256",
          "name": "accountId",
          "type": "uint256"
        },
        {
          "internalType": "enum ProfileContract.AccountType",
          "name": "accountType",
          "type": "uint8"
        },
        {
          "internalType": "enum ProfileContract.AccountStatus",
          "name": "accountStatus",
          "type": "uint8"
        },
        {
          "internalType": "bool",
          "name": "isValue",
          "type": "bool"
        }
      ],
      "stateMutability": "view",
      "type": "function",
      "constant": true
    },
    {
      "inputs": [],
      "name": "lastAccountId",
      "outputs": [
        {
          "internalType": "uint256",
          "name": "",
          "type": "uint256"
        }
      ],
      "stateMutability": "view",
      "type": "function",
      "constant": true
    },
    {
      "inputs": [
        {
          "internalType": "address",
          "name": "_accountAddress",
          "type": "address"
        },
        {
          "internalType": "string",
          "name": "_accountName",
          "type": "string"
        },
        {
          "internalType": "uint256",
          "name": "_accountTypeValue",
          "type": "uint256"
        }
      ],
      "name": "registerAccount",
      "outputs": [],
      "stateMutability": "nonpayable",
      "type": "function"
    },
    {
      "inputs": [
        {
          "internalType": "address",
          "name": "_accountAddress",
          "type": "address"
        },
        {
          "internalType": "uint256",
          "name": "_accountStatus",
          "type": "uint256"
        }
      ],
      "name": "approveAccount",
      "outputs": [],
      "stateMutability": "nonpayable",
      "type": "function"
    },
    {
      "inputs": [
        {
          "internalType": "address",
          "name": "_accountAddress",
          "type": "address"
        }
      ],
      "name": "getAccountInfoByAddress",
      "outputs": [
        {
          "internalType": "string",
          "name": "accountName",
          "type": "string"
        },
        {
          "internalType": "uint256",
          "name": "accountId",
          "type": "uint256"
        },
        {
          "internalType": "uint256",
          "name": "accountTypeValue",
          "type": "uint256"
        },
        {
          "internalType": "uint256",
          "name": "accountStatusValue",
          "type": "uint256"
        }
      ],
      "stateMutability": "view",
      "type": "function",
      "constant": true
    },
    {
      "inputs": [
        {
          "internalType": "address",
          "name": "_accountAddress",
          "type": "address"
        }
      ],
      "name": "isLogisticOrOracle",
      "outputs": [
        {
          "internalType": "bool",
          "name": "",
          "type": "bool"
        }
      ],
      "stateMutability": "view",
      "type": "function",
      "constant": true
    },
    {
      "inputs": [],
      "name": "getRegulatorAddress",
      "outputs": [
        {
          "internalType": "address",
          "name": "",
          "type": "address"
        }
      ],
      "stateMutability": "view",
      "type": "function",
      "constant": true
    }
  ],
  "bytecode": "0x60806040523480156200001157600080fd5b5060405162001b5838038062001b5883398181016040528101906200003791906200037e565b816000806101000a81548173ffffffffffffffffffffffffffffffffffffffff021916908373ffffffffffffffffffffffffffffffffffffffff160217905550600060018190555060006040518060c001604052808473ffffffffffffffffffffffffffffffffffffffff168152602001838152602001600154815260200160006006811115620000cd57620000cc62000519565b5b815260200160016002811115620000e957620000e862000519565b5b815260200160011515815250905080600260008573ffffffffffffffffffffffffffffffffffffffff1673ffffffffffffffffffffffffffffffffffffffff16815260200190815260200160002060008201518160000160006101000a81548173ffffffffffffffffffffffffffffffffffffffff021916908373ffffffffffffffffffffffffffffffffffffffff16021790555060208201518160010190805190602001906200019c92919062000239565b506040820151816002015560608201518160030160006101000a81548160ff02191690836006811115620001d557620001d462000519565b5b021790555060808201518160030160016101000a81548160ff0219169083600281111562000208576200020762000519565b5b021790555060a08201518160030160026101000a81548160ff021916908315150217905550905050505050620005e5565b8280546200024790620004ad565b90600052602060002090601f0160209004810192826200026b5760008555620002b7565b82601f106200028657805160ff1916838001178555620002b7565b82800160010185558215620002b7579182015b82811115620002b657825182559160200191906001019062000299565b5b509050620002c69190620002ca565b5090565b5b80821115620002e5576000816000905550600101620002cb565b5090565b600062000300620002fa846200040d565b620003e4565b9050828152602081018484840111156200031f576200031e620005ab565b5b6200032c84828562000477565b509392505050565b6000815190506200034581620005cb565b92915050565b600082601f830112620003635762000362620005a6565b5b815162000375848260208601620002e9565b91505092915050565b60008060408385031215620003985762000397620005b5565b5b6000620003a88582860162000334565b925050602083015167ffffffffffffffff811115620003cc57620003cb620005b0565b5b620003da858286016200034b565b9150509250929050565b6000620003f062000403565b9050620003fe8282620004e3565b919050565b6000604051905090565b600067ffffffffffffffff8211156200042b576200042a62000577565b5b6200043682620005ba565b9050602081019050919050565b6000620004508262000457565b9050919050565b600073ffffffffffffffffffffffffffffffffffffffff82169050919050565b60005b83811015620004975780820151818401526020810190506200047a565b83811115620004a7576000848401525b50505050565b60006002820490506001821680620004c657607f821691505b60208210811415620004dd57620004dc62000548565b5b50919050565b620004ee82620005ba565b810181811067ffffffffffffffff8211171562000510576200050f62000577565b5b80604052505050565b7f4e487b7100000000000000000000000000000000000000000000000000000000600052602160045260246000fd5b7f4e487b7100000000000000000000000000000000000000000000000000000000600052602260045260246000fd5b7f4e487b7100000000000000000000000000000000000000000000000000000000600052604160045260246000fd5b600080fd5b600080fd5b600080fd5b600080fd5b6000601f19601f8301169050919050565b620005d68162000443565b8114620005e257600080fd5b50565b61156380620005f56000396000f3fe608060405234801561001057600080fd5b506004361061007d5760003560e01c8063708c35931161005b578063708c3593146100f15780637485994d1461010f578063c5aee7af1461013f578063e4fa4a6d1461015b5761007d565b80630fc77be91461008257806329361544146100a0578063542e88e2146100d5575b600080fd5b61008a61018e565b6040516100979190610f3e565b60405180910390f35b6100ba60048036038101906100b59190610d75565b6101b7565b6040516100cc96959493929190610f59565b60405180910390f35b6100ef60048036038101906100ea9190610e11565b6102c2565b005b6100f96104cc565b60405161010691906110ef565b60405180910390f35b61012960048036038101906101249190610d75565b6104d2565b6040516101369190610fea565b60405180910390f35b61015960048036038101906101549190610da2565b6106bd565b005b61017560048036038101906101709190610d75565b6109af565b6040516101859493929190611043565b60405180910390f35b60008060009054906101000a900473ffffffffffffffffffffffffffffffffffffffff16905090565b60026020528060005260406000206000915090508060000160009054906101000a900473ffffffffffffffffffffffffffffffffffffffff1690806001018054610200906112a6565b80601f016020809104026020016040519081016040528092919081815260200182805461022c906112a6565b80156102795780601f1061024e57610100808354040283529160200191610279565b820191906000526020600020905b81548152906001019060200180831161025c57829003601f168201915b5050505050908060020154908060030160009054906101000a900460ff16908060030160019054906101000a900460ff16908060030160029054906101000a900460ff16905086565b60008054906101000a900473ffffffffffffffffffffffffffffffffffffffff1673ffffffffffffffffffffffffffffffffffffffff163373ffffffffffffffffffffffffffffffffffffffff1614610350576040517f08c379a0000000000000000000000000000000000000000000000000000000008152600401610347906110cf565b60405180910390fd5b80600281111561036357610362611338565b5b600260008473ffffffffffffffffffffffffffffffffffffffff1673ffffffffffffffffffffffffffffffffffffffff16815260200190815260200160002060030160016101000a81548160ff021916908360028111156103c7576103c6611338565b5b02179055507f55c9a487c62d96ff68cc3c37227dd8bea51dad6c5a9e92756a478d6d116a8f10600260008473ffffffffffffffffffffffffffffffffffffffff1673ffffffffffffffffffffffffffffffffffffffff16815260200190815260200160002060000160009054906101000a900473ffffffffffffffffffffffffffffffffffffffff16600260008573ffffffffffffffffffffffffffffffffffffffff1673ffffffffffffffffffffffffffffffffffffffff16815260200190815260200160002060030160019054906101000a900460ff1660028111156104b2576104b1611338565b5b6040516104c0929190610fc1565b60405180910390a15050565b60015481565b600080600260008473ffffffffffffffffffffffffffffffffffffffff1673ffffffffffffffffffffffffffffffffffffffff1681526020019081526020016000206001018054610522906112a6565b9050146106b3576001600281111561053d5761053c611338565b5b600260008473ffffffffffffffffffffffffffffffffffffffff1673ffffffffffffffffffffffffffffffffffffffff16815260200190815260200160002060030160019054906101000a900460ff16600281111561059f5761059e611338565b5b14801561069c57506006808111156105ba576105b9611338565b5b600260008473ffffffffffffffffffffffffffffffffffffffff1673ffffffffffffffffffffffffffffffffffffffff16815260200190815260200160002060030160009054906101000a900460ff16600681111561061c5761061b611338565b5b148061069b57506005600681111561063757610636611338565b5b600260008473ffffffffffffffffffffffffffffffffffffffff1673ffffffffffffffffffffffffffffffffffffffff16815260200190815260200160002060030160009054906101000a900460ff16600681111561069957610698611338565b5b145b5b156106aa57600190506106b8565b600090506106b8565b600090505b919050565b82600015156106cb82610bce565b15151461070d576040517f08c379a00000000000000000000000000000000000000000000000000000000081526004016107049061108f565b60405180910390fd5b6000821415610751576040517f08c379a0000000000000000000000000000000000000000000000000000000008152600401610748906110af565b60405180910390fd5b600060018054610761919061117c565b905060006040518060c001604052808773ffffffffffffffffffffffffffffffffffffffff1681526020018681526020018381526020018560068111156107ab576107aa611338565b5b60068111156107bd576107bc611338565b5b8152602001600060028111156107d6576107d5611338565b5b815260200160011515815250905080600260008873ffffffffffffffffffffffffffffffffffffffff1673ffffffffffffffffffffffffffffffffffffffff16815260200190815260200160002060008201518160000160006101000a81548173ffffffffffffffffffffffffffffffffffffffff021916908373ffffffffffffffffffffffffffffffffffffffff1602179055506020820151816001019080519060200190610887929190610c38565b506040820151816002015560608201518160030160006101000a81548160ff021916908360068111156108bd576108bc611338565b5b021790555060808201518160030160016101000a81548160ff021916908360028111156108ed576108ec611338565b5b021790555060a08201518160030160026101000a81548160ff0219169083151502179055509050508060400151816000015173ffffffffffffffffffffffffffffffffffffffff167f69ba979223208999ec4168b3afb5c75c7f1a83509d27c83b97a5cdc28462a93183602001518460600151600681111561097257610971611338565b5b8560800151600281111561098957610988611338565b5b60405161099893929190611005565b60405180910390a381600181905550505050505050565b6060600080600080600260008773ffffffffffffffffffffffffffffffffffffffff1673ffffffffffffffffffffffffffffffffffffffff1681526020019081526020016000206040518060c00160405290816000820160009054906101000a900473ffffffffffffffffffffffffffffffffffffffff1673ffffffffffffffffffffffffffffffffffffffff1673ffffffffffffffffffffffffffffffffffffffff168152602001600182018054610a67906112a6565b80601f0160208091040260200160405190810160405280929190818152602001828054610a93906112a6565b8015610ae05780601f10610ab557610100808354040283529160200191610ae0565b820191906000526020600020905b815481529060010190602001808311610ac357829003601f168201915b50505050508152602001600282015481526020016003820160009054906101000a900460ff166006811115610b1857610b17611338565b5b6006811115610b2a57610b29611338565b5b81526020016003820160019054906101000a900460ff166002811115610b5357610b52611338565b5b6002811115610b6557610b64611338565b5b81526020016003820160029054906101000a900460ff1615151515815250509050806020015194508060400151935080606001516006811115610bab57610baa611338565b5b925080608001516002811115610bc457610bc3611338565b5b9150509193509193565b6000600260008373ffffffffffffffffffffffffffffffffffffffff1673ffffffffffffffffffffffffffffffffffffffff16815260200190815260200160002060030160029054906101000a900460ff1615610c2e5760019050610c33565b600090505b919050565b828054610c44906112a6565b90600052602060002090601f016020900481019282610c665760008555610cad565b82601f10610c7f57805160ff1916838001178555610cad565b82800160010185558215610cad579182015b82811115610cac578251825591602001919060010190610c91565b5b509050610cba9190610cbe565b5090565b5b80821115610cd7576000816000905550600101610cbf565b5090565b6000610cee610ce98461112f565b61110a565b905082815260208101848484011115610d0a57610d096113ca565b5b610d15848285611264565b509392505050565b600081359050610d2c816114ff565b92915050565b600082601f830112610d4757610d466113c5565b5b8135610d57848260208601610cdb565b91505092915050565b600081359050610d6f81611516565b92915050565b600060208284031215610d8b57610d8a6113d4565b5b6000610d9984828501610d1d565b91505092915050565b600080600060608486031215610dbb57610dba6113d4565b5b6000610dc986828701610d1d565b935050602084013567ffffffffffffffff811115610dea57610de96113cf565b5b610df686828701610d32565b9250506040610e0786828701610d60565b9150509250925092565b60008060408385031215610e2857610e276113d4565b5b6000610e3685828601610d1d565b9250506020610e4785828601610d60565b9150509250929050565b610e5a816111d2565b82525050565b610e69816111e4565b82525050565b610e7881611240565b82525050565b610e8781611252565b82525050565b6000610e9882611160565b610ea2818561116b565b9350610eb2818560208601611273565b610ebb816113d9565b840191505092915050565b6000610ed360268361116b565b9150610ede826113ea565b604082019050919050565b6000610ef660218361116b565b9150610f0182611439565b604082019050919050565b6000610f1960348361116b565b9150610f2482611488565b604082019050919050565b610f3881611236565b82525050565b6000602082019050610f536000830184610e51565b92915050565b600060c082019050610f6e6000830189610e51565b8181036020830152610f808188610e8d565b9050610f8f6040830187610f2f565b610f9c6060830186610e7e565b610fa96080830185610e6f565b610fb660a0830184610e60565b979650505050505050565b6000604082019050610fd66000830185610e51565b610fe36020830184610f2f565b9392505050565b6000602082019050610fff6000830184610e60565b92915050565b6000606082019050818103600083015261101f8186610e8d565b905061102e6020830185610f2f565b61103b6040830184610f2f565b949350505050565b6000608082019050818103600083015261105d8187610e8d565b905061106c6020830186610f2f565b6110796040830185610f2f565b6110866060830184610f2f565b95945050505050565b600060208201905081810360008301526110a881610ec6565b9050919050565b600060208201905081810360008301526110c881610ee9565b9050919050565b600060208201905081810360008301526110e881610f0c565b9050919050565b60006020820190506111046000830184610f2f565b92915050565b6000611114611125565b905061112082826112d8565b919050565b6000604051905090565b600067ffffffffffffffff82111561114a57611149611396565b5b611153826113d9565b9050602081019050919050565b600081519050919050565b600082825260208201905092915050565b600061118782611236565b915061119283611236565b9250827fffffffffffffffffffffffffffffffffffffffffffffffffffffffffffffffff038211156111c7576111c6611309565b5b828201905092915050565b60006111dd82611216565b9050919050565b60008115159050919050565b60008190506111fe826114d7565b919050565b6000819050611211826114eb565b919050565b600073ffffffffffffffffffffffffffffffffffffffff82169050919050565b6000819050919050565b600061124b826111f0565b9050919050565b600061125d82611203565b9050919050565b82818337600083830152505050565b60005b83811015611291578082015181840152602081019050611276565b838111156112a0576000848401525b50505050565b600060028204905060018216806112be57607f821691505b602082108114156112d2576112d1611367565b5b50919050565b6112e1826113d9565b810181811067ffffffffffffffff82111715611300576112ff611396565b5b80604052505050565b7f4e487b7100000000000000000000000000000000000000000000000000000000600052601160045260246000fd5b7f4e487b7100000000000000000000000000000000000000000000000000000000600052602160045260246000fd5b7f4e487b7100000000000000000000000000000000000000000000000000000000600052602260045260246000fd5b7f4e487b7100000000000000000000000000000000000000000000000000000000600052604160045260246000fd5b600080fd5b600080fd5b600080fd5b600080fd5b6000601f19601f8301169050919050565b7f43616e6e6f7420726567697374657220746865206475706c696361746520616360008201527f636f756e742e0000000000000000000000000000000000000000000000000000602082015250565b7f43616e6e6f742072656769737465722061732074686520726567756c61746f7260008201527f2e00000000000000000000000000000000000000000000000000000000000000602082015250565b7f546869732066756e6374696f6e2063616e206f6e6c792062652065786563757460008201527f65642062792074686520726567756c61746f722e000000000000000000000000602082015250565b600381106114e8576114e7611338565b5b50565b600781106114fc576114fb611338565b5b50565b611508816111d2565b811461151357600080fd5b50565b61151f81611236565b811461152a57600080fd5b5056fea2646970667358221220680662b74a20e69af370eb7c8bd3f2a81149a47132ade674a9f3b6a6fae77f8d64736f6c63430008060033",
  "immutableReferences": {},
  "source": "// SPDX-License-Identifier: GPL-3.0\r\n\r\npragma solidity ^0.8.0;\r\n\r\n/**\r\n * @title Profile Management\r\n * @dev Implements profile mMnagement.\r\n * Constraints:\r\n * 1. Each participant per 1 account address\r\n * 2. only one regulator address per 1 profile contract\r\n * Program flow\r\n * 1. create \"Profile contract\" by adding regulator's address in its constructor.\r\n * 2. The participants(1=Farmer,2=Manufacturer,3=Retailer,4=Logistic) use the backend(off-chain) to call function registerAccount(on-chain)\r\n * 3. Event RegisterAccount is raised and the backend (off-chain) can get error and result from function registerAccount(on-chain). The backend can store the data in database off-chain.\r\n * 4. The initial of account status is  0=Pending.\r\n * 5. The regulator uses the off-chain app to pass the parameter of each participant account address and account status to function approveAccount(on-chain).\r\n * 6. To get accountInfo (struct Account), can directly call mapping accountInfoByAddress[accountAddress]\r\n */\r\ncontract ProfileContract {\r\n    //AccountStatus: 0=Pending, 1=Approved, 2=Rejected\r\n    enum AccountStatus {\r\n        Pending,\r\n        Approved,\r\n        Rejected\r\n    }\r\n    //AccountType: 0=Regulator,1=Farmer,2=Manufacturer,3=Retailer,4=Consumer,5=Logistic,6=Oracle\r\n    enum AccountType {\r\n        Regulator,\r\n        Farmer,\r\n        Manufacturer,\r\n        Retailer,\r\n        Consumer,\r\n        Logistic,\r\n        Oracle\r\n    }\r\n\r\n    address private regulatorAddress;\r\n    uint256 public lastAccountId;\r\n\r\n    struct Account {\r\n        address accountAddress;\r\n        string accountName;\r\n        uint256 accountId;\r\n        AccountType accountType;\r\n        AccountStatus accountStatus;\r\n        bool isValue; // To check duplicate account\r\n    }\r\n    // Get account Info. by account address.\r\n    mapping(address => Account) public accountInfoByAddress;\r\n\r\n    // @notice To create profile contract, have to specify regulator's address first.\r\n    constructor(address _regulatorAddress, string memory _regulatorName) {\r\n        regulatorAddress = _regulatorAddress;\r\n        lastAccountId = 0;\r\n        // Create regulator account. Account index 0 is regulator\r\n        Account memory regulatorAcc = Account(\r\n            _regulatorAddress,\r\n            _regulatorName,\r\n            lastAccountId,\r\n            AccountType.Regulator,\r\n            AccountStatus.Approved,\r\n            true\r\n        );\r\n\r\n        //add regulator acc. address to mapping.\r\n        accountInfoByAddress[_regulatorAddress] = regulatorAcc;\r\n    }\r\n\r\n    // Create events for using in JavaScript API\r\n    // Event 1: RegisterAccount by Farmer,Manufacturer,Reatiler,Logistic\r\n    event RegisterAccount(\r\n        address indexed accountAddress,\r\n        string accountName,\r\n        uint256 indexed accountId,\r\n        uint256 accountType,\r\n        uint256 accountStatus\r\n    );\r\n    // Event 2: ApproveAccount by Regulator\r\n    event ApproveAccount(address accountAddress, uint256 accountStatus);\r\n\r\n    /// @notice Function 1: createProfile for Regulator,Farmer,Manufacturer,Reatiler,Logistic\r\n    /// @param _accountAddress Each participant can have only one accountAddress for this phase.\r\n    /// @param _accountName The account name for account address.\r\n    /// @param _accountTypeValue Specific the interger as following  0=Regulator,1=Farmer,2=Manufacturer,3=Reatiler,4=Logistic\r\n    function registerAccount(\r\n        address _accountAddress,\r\n        string memory _accountName,\r\n        uint256 _accountTypeValue\r\n    ) public checkDuplicateAddress(_accountAddress) {\r\n        require(_accountTypeValue != 0, \"Cannot register as the regulator.\");\r\n        uint256 tmpNewId = lastAccountId + 1;\r\n        Account memory newAcc = Account(\r\n            _accountAddress,\r\n            _accountName,\r\n            tmpNewId,\r\n            AccountType(_accountTypeValue),\r\n            AccountStatus.Pending,\r\n            true\r\n        );\r\n\r\n        //add a new acc. address to mapping.\r\n        accountInfoByAddress[_accountAddress] = newAcc;\r\n        emit RegisterAccount(\r\n            newAcc.accountAddress,\r\n            newAcc.accountName,\r\n            newAcc.accountId,\r\n            uint256(newAcc.accountType),\r\n            uint256(newAcc.accountStatus)\r\n        );\r\n        lastAccountId = tmpNewId;\r\n    }\r\n\r\n    /// @notice Function 2: approveAccount. Only regulator account can use this function.\r\n    /// @param _accountAddress Each participant can have only one accountAddress for this phase.\r\n    /// @param _accountStatus 0=Pending, 1=Approved, 2=Rejected\r\n    function approveAccount(address _accountAddress, uint256 _accountStatus)\r\n        public\r\n        onlyRegulator\r\n    {\r\n        // Get account by accountAddress\r\n        accountInfoByAddress[_accountAddress].accountStatus = AccountStatus(\r\n            _accountStatus\r\n        );\r\n        emit ApproveAccount(\r\n            accountInfoByAddress[_accountAddress].accountAddress,\r\n            uint256(accountInfoByAddress[_accountAddress].accountStatus)\r\n        );\r\n    }\r\n\r\n    /// @notice Function 3: getAccountInfoByAddress.(For the frontend off-chain)\r\n    /// @param _accountAddress Each participant can have only one accountAddress for this phase.\r\n    function getAccountInfoByAddress(address _accountAddress)\r\n        public\r\n        view\r\n        returns (\r\n            string memory accountName,\r\n            uint256 accountId,\r\n            uint256 accountTypeValue,\r\n            uint256 accountStatusValue\r\n        )\r\n    {\r\n        Account memory acc = accountInfoByAddress[_accountAddress];\r\n        accountName = acc.accountName;\r\n        accountId = acc.accountId;\r\n        accountTypeValue = uint256(acc.accountType);\r\n        accountStatusValue = uint256(acc.accountStatus);\r\n    }\r\n\r\n    function isLogisticOrOracle(address _accountAddress)\r\n        public\r\n        view\r\n        returns (bool)\r\n    {\r\n        if (\r\n            bytes(accountInfoByAddress[_accountAddress].accountName).length != 0\r\n        ) {\r\n            if (\r\n                (accountInfoByAddress[_accountAddress].accountStatus ==\r\n                    AccountStatus.Approved) &&\r\n                (accountInfoByAddress[_accountAddress].accountType ==\r\n                    AccountType.Oracle ||\r\n                    accountInfoByAddress[_accountAddress].accountType ==\r\n                    AccountType.Logistic)\r\n            ) {\r\n                return true;\r\n            } else {\r\n                return false;\r\n            }\r\n        } else {\r\n            return false;\r\n        }\r\n    }\r\n\r\n    function getRegulatorAddress() public view returns (address) {\r\n        return regulatorAddress;\r\n    }\r\n\r\n    // private functions\r\n    // Does account address exist?\r\n    function isExisAccount(address _accountAddress)\r\n        private\r\n        view\r\n        returns (bool)\r\n    {\r\n        if (accountInfoByAddress[_accountAddress].isValue) {\r\n            return true;\r\n        }\r\n        return false;\r\n    }\r\n\r\n    // modifier\r\n    modifier onlyRegulator {\r\n        require(\r\n            msg.sender == regulatorAddress,\r\n            \"This function can only be executed by the regulator.\"\r\n        );\r\n        _;\r\n    }\r\n    modifier checkDuplicateAddress(address _accountAddress) {\r\n        require(\r\n            isExisAccount(_accountAddress) == false,\r\n            \"Cannot register the duplicate account.\"\r\n        );\r\n        _;\r\n    }\r\n}\r\n",
  "sourcePath": "D:\\UNSW-2021-Term2\\comp6452\\GIT_desk\\COMP6452_Project\\solidity\\contracts\\ProfileContract.sol",
  "compiler": {
    "name": "solc",
    "version": "0.8.6+commit.11564f7e.Emscripten.clang"
  },
  "schemaVersion": "3.4.1",
  "updatedAt": "2021-07-23T10:57:10.772Z",
  "networkType": "ethereum",
  "devdoc": {
    "details": "Implements profile mMnagement. Constraints: 1. Each participant per 1 account address 2. only one regulator address per 1 profile contract Program flow 1. create \"Profile contract\" by adding regulator's address in its constructor. 2. The participants(1=Farmer,2=Manufacturer,3=Retailer,4=Logistic) use the backend(off-chain) to call function registerAccount(on-chain) 3. Event RegisterAccount is raised and the backend (off-chain) can get error and result from function registerAccount(on-chain). The backend can store the data in database off-chain. 4. The initial of account status is  0=Pending. 5. The regulator uses the off-chain app to pass the parameter of each participant account address and account status to function approveAccount(on-chain). 6. To get accountInfo (struct Account), can directly call mapping accountInfoByAddress[accountAddress]",
    "kind": "dev",
    "methods": {
      "approveAccount(address,uint256)": {
        "params": {
          "_accountAddress": "Each participant can have only one accountAddress for this phase.",
          "_accountStatus": "0=Pending, 1=Approved, 2=Rejected"
        }
      },
      "getAccountInfoByAddress(address)": {
        "params": {
          "_accountAddress": "Each participant can have only one accountAddress for this phase."
        }
      },
      "registerAccount(address,string,uint256)": {
        "params": {
          "_accountAddress": "Each participant can have only one accountAddress for this phase.",
          "_accountName": "The account name for account address.",
          "_accountTypeValue": "Specific the interger as following  0=Regulator,1=Farmer,2=Manufacturer,3=Reatiler,4=Logistic"
        }
      }
    },
    "title": "Profile Management",
    "version": 1
  },
  "userdoc": {
    "kind": "user",
    "methods": {
      "approveAccount(address,uint256)": {
        "notice": "Function 2: approveAccount. Only regulator account can use this function."
      },
      "getAccountInfoByAddress(address)": {
        "notice": "Function 3: getAccountInfoByAddress.(For the frontend off-chain)"
      },
      "registerAccount(address,string,uint256)": {
        "notice": "Function 1: createProfile for Regulator,Farmer,Manufacturer,Reatiler,Logistic"
      }
    },
    "version": 1
  }
}