{
  "contractName": "Profile",
  "abi": [
    {
      "inputs": [
        {
          "internalType": "address",
          "name": "_regulatorAddress",
          "type": "address"
        },
        {
          "internalType": "string",
          "name": "_regulatorName",
          "type": "string"
        }
      ],
      "stateMutability": "nonpayable",
      "type": "constructor"
    },
    {
      "anonymous": false,
      "inputs": [
        {
          "indexed": false,
          "internalType": "address",
          "name": "accountAddress",
          "type": "address"
        },
        {
          "indexed": false,
          "internalType": "uint256",
          "name": "accountStatus",
          "type": "uint256"
        }
      ],
      "name": "ApproveAccount",
      "type": "event"
    },
    {
      "anonymous": false,
      "inputs": [
        {
          "indexed": true,
          "internalType": "address",
          "name": "accountAddress",
          "type": "address"
        },
        {
          "indexed": false,
          "internalType": "string",
          "name": "accountName",
          "type": "string"
        },
        {
          "indexed": true,
          "internalType": "uint256",
          "name": "accountId",
          "type": "uint256"
        },
        {
          "indexed": false,
          "internalType": "uint256",
          "name": "accountType",
          "type": "uint256"
        },
        {
          "indexed": false,
          "internalType": "uint256",
          "name": "accountStatus",
          "type": "uint256"
        }
      ],
      "name": "RegisterAccount",
      "type": "event"
    },
    {
      "inputs": [
        {
          "internalType": "address",
          "name": "",
          "type": "address"
        }
      ],
      "name": "accountInfoByAddress",
      "outputs": [
        {
          "internalType": "address",
          "name": "accountAddress",
          "type": "address"
        },
        {
          "internalType": "string",
          "name": "accountName",
          "type": "string"
        },
        {
          "internalType": "uint256",
          "name": "accountId",
          "type": "uint256"
        },
        {
          "internalType": "enum Profile.AccountType",
          "name": "accountType",
          "type": "uint8"
        },
        {
          "internalType": "enum Profile.AccountStatus",
          "name": "accountStatus",
          "type": "uint8"
        },
        {
          "internalType": "bool",
          "name": "isValue",
          "type": "bool"
        }
      ],
      "stateMutability": "view",
      "type": "function",
      "constant": true
    },
    {
      "inputs": [],
      "name": "lastAccountId",
      "outputs": [
        {
          "internalType": "uint256",
          "name": "",
          "type": "uint256"
        }
      ],
      "stateMutability": "view",
      "type": "function",
      "constant": true
    },
    {
      "inputs": [],
      "name": "regulatorAddress",
      "outputs": [
        {
          "internalType": "address",
          "name": "",
          "type": "address"
        }
      ],
      "stateMutability": "view",
      "type": "function",
      "constant": true
    },
    {
      "inputs": [
        {
          "internalType": "address",
          "name": "_accountAddress",
          "type": "address"
        },
        {
          "internalType": "string",
          "name": "_accountName",
          "type": "string"
        },
        {
          "internalType": "uint256",
          "name": "_accountTypeValue",
          "type": "uint256"
        }
      ],
      "name": "registerAccount",
      "outputs": [],
      "stateMutability": "nonpayable",
      "type": "function"
    },
    {
      "inputs": [
        {
          "internalType": "address",
          "name": "_accountAddress",
          "type": "address"
        },
        {
          "internalType": "uint256",
          "name": "_accountStatus",
          "type": "uint256"
        }
      ],
      "name": "approveAccount",
      "outputs": [],
      "stateMutability": "nonpayable",
      "type": "function"
    }
  ],
  "bytecode": "0x60806040523480156200001157600080fd5b50604051620017de380380620017de833981810160405281019062000037919062000402565b816000806101000a81548173ffffffffffffffffffffffffffffffffffffffff021916908373ffffffffffffffffffffffffffffffffffffffff160217905550600060018190555060006040518060c001604052808473ffffffffffffffffffffffffffffffffffffffff168152602001838152602001600154815260200160006004811115620000f1577f4e487b7100000000000000000000000000000000000000000000000000000000600052602160045260246000fd5b81526020016001600281111562000131577f4e487b7100000000000000000000000000000000000000000000000000000000600052602160045260246000fd5b815260200160011515815250905080600260008573ffffffffffffffffffffffffffffffffffffffff1673ffffffffffffffffffffffffffffffffffffffff16815260200190815260200160002060008201518160000160006101000a81548173ffffffffffffffffffffffffffffffffffffffff021916908373ffffffffffffffffffffffffffffffffffffffff1602179055506020820151816001019080519060200190620001e4929190620002c9565b506040820151816002015560608201518160030160006101000a81548160ff0219169083600481111562000241577f4e487b7100000000000000000000000000000000000000000000000000000000600052602160045260246000fd5b021790555060808201518160030160016101000a81548160ff0219169083600281111562000298577f4e487b7100000000000000000000000000000000000000000000000000000000600052602160045260246000fd5b021790555060a08201518160030160026101000a81548160ff0219169083151502179055509050505050506200061a565b828054620002d79062000525565b90600052602060002090601f016020900481019282620002fb576000855562000347565b82601f106200031657805160ff191683800117855562000347565b8280016001018555821562000347579182015b828111156200034657825182559160200191906001019062000329565b5b5090506200035691906200035a565b5090565b5b80821115620003755760008160009055506001016200035b565b5090565b6000620003906200038a8462000485565b6200045c565b905082815260208101848484011115620003a957600080fd5b620003b6848285620004ef565b509392505050565b600081519050620003cf8162000600565b92915050565b600082601f830112620003e757600080fd5b8151620003f984826020860162000379565b91505092915050565b600080604083850312156200041657600080fd5b60006200042685828601620003be565b925050602083015167ffffffffffffffff8111156200044457600080fd5b6200045285828601620003d5565b9150509250929050565b6000620004686200047b565b90506200047682826200055b565b919050565b6000604051905090565b600067ffffffffffffffff821115620004a357620004a2620005c0565b5b620004ae82620005ef565b9050602081019050919050565b6000620004c882620004cf565b9050919050565b600073ffffffffffffffffffffffffffffffffffffffff82169050919050565b60005b838110156200050f578082015181840152602081019050620004f2565b838111156200051f576000848401525b50505050565b600060028204905060018216806200053e57607f821691505b6020821081141562000555576200055462000591565b5b50919050565b6200056682620005ef565b810181811067ffffffffffffffff82111715620005885762000587620005c0565b5b80604052505050565b7f4e487b7100000000000000000000000000000000000000000000000000000000600052602260045260246000fd5b7f4e487b7100000000000000000000000000000000000000000000000000000000600052604160045260246000fd5b6000601f19601f8301169050919050565b6200060b81620004bb565b81146200061757600080fd5b50565b6111b4806200062a6000396000f3fe608060405234801561001057600080fd5b50600436106100575760003560e01c8063293615441461005c5780633826b1ea14610091578063542e88e2146100af578063708c3593146100cb578063c5aee7af146100e9575b600080fd5b61007660048036038101906100719190610a51565b610105565b60405161008896959493929190610c25565b60405180910390f35b610099610210565b6040516100a69190610c0a565b60405180910390f35b6100c960048036038101906100c49190610ae1565b610234565b005b6100d36104b0565b6040516100e09190610d54565b60405180910390f35b61010360048036038101906100fe9190610a7a565b6104b6565b005b60026020528060005260406000206000915090508060000160009054906101000a900473ffffffffffffffffffffffffffffffffffffffff169080600101805461014e90610f0b565b80601f016020809104026020016040519081016040528092919081815260200182805461017a90610f0b565b80156101c75780601f1061019c576101008083540402835291602001916101c7565b820191906000526020600020905b8154815290600101906020018083116101aa57829003601f168201915b5050505050908060020154908060030160009054906101000a900460ff16908060030160019054906101000a900460ff16908060030160029054906101000a900460ff16905086565b60008054906101000a900473ffffffffffffffffffffffffffffffffffffffff1681565b60008054906101000a900473ffffffffffffffffffffffffffffffffffffffff1673ffffffffffffffffffffffffffffffffffffffff163373ffffffffffffffffffffffffffffffffffffffff16146102c2576040517f08c379a00000000000000000000000000000000000000000000000000000000081526004016102b990610d34565b60405180910390fd5b8060028111156102fb577f4e487b7100000000000000000000000000000000000000000000000000000000600052602160045260246000fd5b600260008473ffffffffffffffffffffffffffffffffffffffff1673ffffffffffffffffffffffffffffffffffffffff16815260200190815260200160002060030160016101000a81548160ff02191690836002811115610385577f4e487b7100000000000000000000000000000000000000000000000000000000600052602160045260246000fd5b02179055507f55c9a487c62d96ff68cc3c37227dd8bea51dad6c5a9e92756a478d6d116a8f10600260008473ffffffffffffffffffffffffffffffffffffffff1673ffffffffffffffffffffffffffffffffffffffff16815260200190815260200160002060000160009054906101000a900473ffffffffffffffffffffffffffffffffffffffff16600260008573ffffffffffffffffffffffffffffffffffffffff1673ffffffffffffffffffffffffffffffffffffffff16815260200190815260200160002060030160019054906101000a900460ff166002811115610496577f4e487b7100000000000000000000000000000000000000000000000000000000600052602160045260246000fd5b6040516104a4929190610c8d565b60405180910390a15050565b60015481565b82600015156104c4826108b2565b151514610506576040517f08c379a00000000000000000000000000000000000000000000000000000000081526004016104fd90610cf4565b60405180910390fd5b600082141561054a576040517f08c379a000000000000000000000000000000000000000000000000000000000815260040161054190610d14565b60405180910390fd5b60006001805461055a9190610de1565b905060006040518060c001604052808773ffffffffffffffffffffffffffffffffffffffff1681526020018681526020018381526020018560048111156105ca577f4e487b7100000000000000000000000000000000000000000000000000000000600052602160045260246000fd5b6004811115610602577f4e487b7100000000000000000000000000000000000000000000000000000000600052602160045260246000fd5b815260200160006002811115610641577f4e487b7100000000000000000000000000000000000000000000000000000000600052602160045260246000fd5b815260200160011515815250905080600260008873ffffffffffffffffffffffffffffffffffffffff1673ffffffffffffffffffffffffffffffffffffffff16815260200190815260200160002060008201518160000160006101000a81548173ffffffffffffffffffffffffffffffffffffffff021916908373ffffffffffffffffffffffffffffffffffffffff16021790555060208201518160010190805190602001906106f292919061091c565b506040820151816002015560608201518160030160006101000a81548160ff0219169083600481111561074e577f4e487b7100000000000000000000000000000000000000000000000000000000600052602160045260246000fd5b021790555060808201518160030160016101000a81548160ff021916908360028111156107a4577f4e487b7100000000000000000000000000000000000000000000000000000000600052602160045260246000fd5b021790555060a08201518160030160026101000a81548160ff0219169083151502179055509050508060400151816000015173ffffffffffffffffffffffffffffffffffffffff167f69ba979223208999ec4168b3afb5c75c7f1a83509d27c83b97a5cdc28462a93183602001518460600151600481111561084f577f4e487b7100000000000000000000000000000000000000000000000000000000600052602160045260246000fd5b8560800151600281111561088c577f4e487b7100000000000000000000000000000000000000000000000000000000600052602160045260246000fd5b60405161089b93929190610cb6565b60405180910390a381600181905550505050505050565b6000600260008373ffffffffffffffffffffffffffffffffffffffff1673ffffffffffffffffffffffffffffffffffffffff16815260200190815260200160002060030160029054906101000a900460ff16156109125760019050610917565b600090505b919050565b82805461092890610f0b565b90600052602060002090601f01602090048101928261094a5760008555610991565b82601f1061096357805160ff1916838001178555610991565b82800160010185558215610991579182015b82811115610990578251825591602001919060010190610975565b5b50905061099e91906109a2565b5090565b5b808211156109bb5760008160009055506001016109a3565b5090565b60006109d26109cd84610d94565b610d6f565b9050828152602081018484840111156109ea57600080fd5b6109f5848285610ec9565b509392505050565b600081359050610a0c81611150565b92915050565b600082601f830112610a2357600080fd5b8135610a338482602086016109bf565b91505092915050565b600081359050610a4b81611167565b92915050565b600060208284031215610a6357600080fd5b6000610a71848285016109fd565b91505092915050565b600080600060608486031215610a8f57600080fd5b6000610a9d868287016109fd565b935050602084013567ffffffffffffffff811115610aba57600080fd5b610ac686828701610a12565b9250506040610ad786828701610a3c565b9150509250925092565b60008060408385031215610af457600080fd5b6000610b02858286016109fd565b9250506020610b1385828601610a3c565b9150509250929050565b610b2681610e37565b82525050565b610b3581610e49565b82525050565b610b4481610ea5565b82525050565b610b5381610eb7565b82525050565b6000610b6482610dc5565b610b6e8185610dd0565b9350610b7e818560208601610ed8565b610b878161102a565b840191505092915050565b6000610b9f602683610dd0565b9150610baa8261103b565b604082019050919050565b6000610bc2602183610dd0565b9150610bcd8261108a565b604082019050919050565b6000610be5603483610dd0565b9150610bf0826110d9565b604082019050919050565b610c0481610e9b565b82525050565b6000602082019050610c1f6000830184610b1d565b92915050565b600060c082019050610c3a6000830189610b1d565b8181036020830152610c4c8188610b59565b9050610c5b6040830187610bfb565b610c686060830186610b4a565b610c756080830185610b3b565b610c8260a0830184610b2c565b979650505050505050565b6000604082019050610ca26000830185610b1d565b610caf6020830184610bfb565b9392505050565b60006060820190508181036000830152610cd08186610b59565b9050610cdf6020830185610bfb565b610cec6040830184610bfb565b949350505050565b60006020820190508181036000830152610d0d81610b92565b9050919050565b60006020820190508181036000830152610d2d81610bb5565b9050919050565b60006020820190508181036000830152610d4d81610bd8565b9050919050565b6000602082019050610d696000830184610bfb565b92915050565b6000610d79610d8a565b9050610d858282610f3d565b919050565b6000604051905090565b600067ffffffffffffffff821115610daf57610dae610ffb565b5b610db88261102a565b9050602081019050919050565b600081519050919050565b600082825260208201905092915050565b6000610dec82610e9b565b9150610df783610e9b565b9250827fffffffffffffffffffffffffffffffffffffffffffffffffffffffffffffffff03821115610e2c57610e2b610f6e565b5b828201905092915050565b6000610e4282610e7b565b9050919050565b60008115159050919050565b6000819050610e6382611128565b919050565b6000819050610e768261113c565b919050565b600073ffffffffffffffffffffffffffffffffffffffff82169050919050565b6000819050919050565b6000610eb082610e55565b9050919050565b6000610ec282610e68565b9050919050565b82818337600083830152505050565b60005b83811015610ef6578082015181840152602081019050610edb565b83811115610f05576000848401525b50505050565b60006002820490506001821680610f2357607f821691505b60208210811415610f3757610f36610fcc565b5b50919050565b610f468261102a565b810181811067ffffffffffffffff82111715610f6557610f64610ffb565b5b80604052505050565b7f4e487b7100000000000000000000000000000000000000000000000000000000600052601160045260246000fd5b7f4e487b7100000000000000000000000000000000000000000000000000000000600052602160045260246000fd5b7f4e487b7100000000000000000000000000000000000000000000000000000000600052602260045260246000fd5b7f4e487b7100000000000000000000000000000000000000000000000000000000600052604160045260246000fd5b6000601f19601f8301169050919050565b7f43616e6e6f7420726567697374657220746865206475706c696361746520616360008201527f636f756e742e0000000000000000000000000000000000000000000000000000602082015250565b7f43616e6e6f742072656769737465722061732074686520726567756c61746f7260008201527f2e00000000000000000000000000000000000000000000000000000000000000602082015250565b7f546869732066756e6374696f6e2063616e206f6e6c792062652065786563757460008201527f65642062792074686520726567756c61746f722e000000000000000000000000602082015250565b6003811061113957611138610f9d565b5b50565b6005811061114d5761114c610f9d565b5b50565b61115981610e37565b811461116457600080fd5b50565b61117081610e9b565b811461117b57600080fd5b5056fea2646970667358221220a0cef774fa3eae3791216ba6862d210faffcd8763c2d77aaa98b9db16c2b611e64736f6c63430008040033",
  "immutableReferences": {},
  "source": "// SPDX-License-Identifier: GPL-3.0\n\npragma solidity ^0.8.0;\n\n/** \n * @title Profile Management\n * @dev Implements profile mMnagement. \n * Constraints: \n * 1. Each participant per 1 account address\n * 2. only one regulator address per 1 profile contract\n * Program flow\n * 1. create \"Profile contract\" by adding regulator's address in its constructor.\n * 2. The participants(1=Farmer,2=Manufacturer,3=Reatiler,4=Logistic) use the backend(off-chain) to call function registerAccount(on-chain)\n * 3. Event RegisterAccount is raised and the backend (off-chain) can get error and result from function registerAccount(on-chain). The backend can store the data in database off-chain.\n * 4. The initial of account status is  0=Pending.\n * 5. The regulator uses the off-chain app to pass the parameter of each participant account address and account status to function approveAccount(on-chain).\n * 6. To get accountInfo (struct Account), can directly call mapping accountInfoByAddress[accountAddress]\n */\ncontract Profile {\n    \n    //AccountStatus: 0=Pending, 1=Approved, 2=Rejected\n    enum AccountStatus {Pending,Approved,Rejected}\n    //AccountType: 0=Regulator,1=Farmer,2=Manufacturer,3=Reatiler,4=Logistic\n    enum AccountType {Regulator,Farmer,Manufacturer,Reatiler,Logistic}\n    \n    address public regulatorAddress;\n    uint256 public lastAccountId;\n    \n    struct Account{\n        address  accountAddress;\n        string accountName;\n        uint256  accountId;\n        AccountType accountType;\n        AccountStatus  accountStatus;\n        bool isValue; // To check duplicate account\n    }\n    \n    // Get account Info. by account address.\n    mapping (address => Account) public accountInfoByAddress;\n    \n    // @notice To create profile contract, have to specify regulator's address first.\n    constructor (address _regulatorAddress, string memory _regulatorName) {\n        regulatorAddress = _regulatorAddress;\n        lastAccountId = 0;\n        // Create regulator account. Account index 0 is regulator\n        Account memory regulatorAcc = Account(_regulatorAddress,_regulatorName,lastAccountId,AccountType.Regulator,AccountStatus.Approved,true);\n        \n        //add regulator acc. address to mapping.\n        accountInfoByAddress[_regulatorAddress] = regulatorAcc;\n    }\n    \n    // Create events for using in JavaScript API\n    // Event 1: RegisterAccount by Farmer,Manufacturer,Reatiler,Logistic\n    event RegisterAccount(\n        address indexed accountAddress,\n        string accountName,\n        uint256 indexed accountId,\n        uint256 accountType,\n        uint256 accountStatus\n    );\n    // Event 2: ApproveAccount by Regulator\n    event ApproveAccount(\n        address accountAddress,\n        uint256 accountStatus\n    );\n    \n   /// @notice Function 1: createProfile for Regulator,Farmer,Manufacturer,Reatiler,Logistic\n   /// @param _accountAddress Each participant can have only one accountAddress for this phase.\n   /// @param _accountName The account name for account address.\n   /// @param _accountTypeValue Specific the interger as following  0=Regulator,1=Farmer,2=Manufacturer,3=Reatiler,4=Logistic\n    function registerAccount(address _accountAddress, string memory _accountName, uint256 _accountTypeValue) public checkDuplicateAddress(_accountAddress){\n        require(_accountTypeValue != 0, 'Cannot register as the regulator.');\n        uint256 tmpNewId = lastAccountId+1;\n        Account memory newAcc = Account(_accountAddress,_accountName,tmpNewId,AccountType(_accountTypeValue),AccountStatus.Pending,true);\n        \n        //add a new acc. address to mapping.\n        accountInfoByAddress[_accountAddress] = newAcc;\n        emit RegisterAccount(newAcc.accountAddress, newAcc.accountName, newAcc.accountId,uint256(newAcc.accountType),uint256(newAcc.accountStatus));\n        lastAccountId = tmpNewId;\n    }\n   \n   /// @notice Function 2: approveAccount. Only regulator account can use this function.\n   /// @param _accountAddress Each participant can have only one accountAddress for this phase. \n   /// @param _accountStatus 0=Pending, 1=Approved, 2=Rejected\n    function approveAccount(address _accountAddress,uint256 _accountStatus) public onlyRegulator {\n       // Get account by accountAddress\n        accountInfoByAddress[_accountAddress].accountStatus = AccountStatus(_accountStatus);\n       emit ApproveAccount(accountInfoByAddress[_accountAddress].accountAddress,uint256(accountInfoByAddress[_accountAddress].accountStatus));\n    }\n    \n    // private functions\n    // Does account address exist?\n    function isExisAccount(address _accountAddress) private view returns(bool){\n        if(accountInfoByAddress[_accountAddress].isValue){\n            return true;\n        }\n        return false;\n    }    \n\n\n   // modifier\n   modifier onlyRegulator{\n       require(msg.sender == regulatorAddress, 'This function can only be executed by the regulator.');\n       _;\n   }\n   modifier checkDuplicateAddress(address _accountAddress){\n        require(isExisAccount(_accountAddress) == false,\"Cannot register the duplicate account.\");\n        _;\n    }\n}\n",
  "sourcePath": "/Users/promieyutasane/Documents/COMP6452_Project/solidity/contracts/Profile.sol",
  "compiler": {
    "name": "solc",
    "version": "0.8.4+commit.c7e474f2.Emscripten.clang"
  },
  "schemaVersion": "3.4.1",
  "updatedAt": "2021-07-07T11:26:28.561Z",
  "networkType": "ethereum",
  "devdoc": {
    "details": "Implements profile mMnagement.  Constraints:  1. Each participant per 1 account address 2. only one regulator address per 1 profile contract Program flow 1. create \"Profile contract\" by adding regulator's address in its constructor. 2. The participants(1=Farmer,2=Manufacturer,3=Reatiler,4=Logistic) use the backend(off-chain) to call function registerAccount(on-chain) 3. Event RegisterAccount is raised and the backend (off-chain) can get error and result from function registerAccount(on-chain). The backend can store the data in database off-chain. 4. The initial of account status is  0=Pending. 5. The regulator uses the off-chain app to pass the parameter of each participant account address and account status to function approveAccount(on-chain). 6. To get accountInfo (struct Account), can directly call mapping accountInfoByAddress[accountAddress]",
    "kind": "dev",
    "methods": {
      "approveAccount(address,uint256)": {
        "params": {
          "_accountAddress": "Each participant can have only one accountAddress for this phase. ",
          "_accountStatus": "0=Pending, 1=Approved, 2=Rejected"
        }
      },
      "registerAccount(address,string,uint256)": {
        "params": {
          "_accountAddress": "Each participant can have only one accountAddress for this phase.",
          "_accountName": "The account name for account address.",
          "_accountTypeValue": "Specific the interger as following  0=Regulator,1=Farmer,2=Manufacturer,3=Reatiler,4=Logistic"
        }
      }
    },
    "title": "Profile Management",
    "version": 1
  },
  "userdoc": {
    "kind": "user",
    "methods": {
      "approveAccount(address,uint256)": {
        "notice": "Function 2: approveAccount. Only regulator account can use this function."
      },
      "registerAccount(address,string,uint256)": {
        "notice": "Function 1: createProfile for Regulator,Farmer,Manufacturer,Reatiler,Logistic"
      }
    },
    "version": 1
  }
}