{
  "contractName": "Profile",
  "abi": [
    {
      "inputs": [
        {
          "internalType": "address",
          "name": "_regulatorAddress",
          "type": "address"
        },
        {
          "internalType": "string",
          "name": "_regulatorName",
          "type": "string"
        }
      ],
      "stateMutability": "nonpayable",
      "type": "constructor"
    },
    {
      "anonymous": false,
      "inputs": [
        {
          "indexed": false,
          "internalType": "address",
          "name": "accountAddress",
          "type": "address"
        },
        {
          "indexed": false,
          "internalType": "uint256",
          "name": "accountStatus",
          "type": "uint256"
        }
      ],
      "name": "ApproveAccount",
      "type": "event"
    },
    {
      "anonymous": false,
      "inputs": [
        {
          "indexed": true,
          "internalType": "address",
          "name": "accountAddress",
          "type": "address"
        },
        {
          "indexed": false,
          "internalType": "string",
          "name": "accountName",
          "type": "string"
        },
        {
          "indexed": true,
          "internalType": "uint256",
          "name": "accountId",
          "type": "uint256"
        },
        {
          "indexed": false,
          "internalType": "uint256",
          "name": "accountType",
          "type": "uint256"
        },
        {
          "indexed": false,
          "internalType": "uint256",
          "name": "accountStatus",
          "type": "uint256"
        }
      ],
      "name": "RegisterAccount",
      "type": "event"
    },
    {
      "inputs": [
        {
          "internalType": "address",
          "name": "",
          "type": "address"
        }
      ],
      "name": "accountInfoByAddress",
      "outputs": [
        {
          "internalType": "address",
          "name": "accountAddress",
          "type": "address"
        },
        {
          "internalType": "string",
          "name": "accountName",
          "type": "string"
        },
        {
          "internalType": "uint256",
          "name": "accountId",
          "type": "uint256"
        },
        {
          "internalType": "enum Profile.AccountType",
          "name": "accountType",
          "type": "uint8"
        },
        {
          "internalType": "enum Profile.AccountStatus",
          "name": "accountStatus",
          "type": "uint8"
        },
        {
          "internalType": "bool",
          "name": "isValue",
          "type": "bool"
        }
      ],
      "stateMutability": "view",
      "type": "function",
      "constant": true
    },
    {
      "inputs": [],
      "name": "lastAccountId",
      "outputs": [
        {
          "internalType": "uint256",
          "name": "",
          "type": "uint256"
        }
      ],
      "stateMutability": "view",
      "type": "function",
      "constant": true
    },
    {
      "inputs": [
        {
          "internalType": "address",
          "name": "_accountAddress",
          "type": "address"
        },
        {
          "internalType": "string",
          "name": "_accountName",
          "type": "string"
        },
        {
          "internalType": "uint256",
          "name": "_accountTypeValue",
          "type": "uint256"
        }
      ],
      "name": "registerAccount",
      "outputs": [],
      "stateMutability": "nonpayable",
      "type": "function"
    },
    {
      "inputs": [
        {
          "internalType": "address",
          "name": "_accountAddress",
          "type": "address"
        },
        {
          "internalType": "uint256",
          "name": "_accountStatus",
          "type": "uint256"
        }
      ],
      "name": "approveAccount",
      "outputs": [],
      "stateMutability": "nonpayable",
      "type": "function"
    },
    {
      "inputs": [
        {
          "internalType": "address",
          "name": "_accountAddress",
          "type": "address"
        }
      ],
      "name": "getAccountInfoByAddress",
      "outputs": [
        {
          "internalType": "string",
          "name": "accountName",
          "type": "string"
        },
        {
          "internalType": "uint256",
          "name": "accountId",
          "type": "uint256"
        },
        {
          "internalType": "uint256",
          "name": "accountTypeValue",
          "type": "uint256"
        },
        {
          "internalType": "uint256",
          "name": "accountStatusValue",
          "type": "uint256"
        }
      ],
      "stateMutability": "view",
      "type": "function",
      "constant": true
    },
    {
      "inputs": [
        {
          "internalType": "address",
          "name": "_accountAddress",
          "type": "address"
        }
      ],
      "name": "isLogisticOrOracle",
      "outputs": [
        {
          "internalType": "bool",
          "name": "",
          "type": "bool"
        }
      ],
      "stateMutability": "view",
      "type": "function",
      "constant": true
    }
  ],
  "bytecode": "0x60806040523480156200001157600080fd5b5060405162001adb38038062001adb83398181016040528101906200003791906200037e565b816000806101000a81548173ffffffffffffffffffffffffffffffffffffffff021916908373ffffffffffffffffffffffffffffffffffffffff160217905550600060018190555060006040518060c001604052808473ffffffffffffffffffffffffffffffffffffffff168152602001838152602001600154815260200160006006811115620000cd57620000cc62000519565b5b815260200160016002811115620000e957620000e862000519565b5b815260200160011515815250905080600260008573ffffffffffffffffffffffffffffffffffffffff1673ffffffffffffffffffffffffffffffffffffffff16815260200190815260200160002060008201518160000160006101000a81548173ffffffffffffffffffffffffffffffffffffffff021916908373ffffffffffffffffffffffffffffffffffffffff16021790555060208201518160010190805190602001906200019c92919062000239565b506040820151816002015560608201518160030160006101000a81548160ff02191690836006811115620001d557620001d462000519565b5b021790555060808201518160030160016101000a81548160ff0219169083600281111562000208576200020762000519565b5b021790555060a08201518160030160026101000a81548160ff021916908315150217905550905050505050620005e5565b8280546200024790620004ad565b90600052602060002090601f0160209004810192826200026b5760008555620002b7565b82601f106200028657805160ff1916838001178555620002b7565b82800160010185558215620002b7579182015b82811115620002b657825182559160200191906001019062000299565b5b509050620002c69190620002ca565b5090565b5b80821115620002e5576000816000905550600101620002cb565b5090565b600062000300620002fa846200040d565b620003e4565b9050828152602081018484840111156200031f576200031e620005ab565b5b6200032c84828562000477565b509392505050565b6000815190506200034581620005cb565b92915050565b600082601f830112620003635762000362620005a6565b5b815162000375848260208601620002e9565b91505092915050565b60008060408385031215620003985762000397620005b5565b5b6000620003a88582860162000334565b925050602083015167ffffffffffffffff811115620003cc57620003cb620005b0565b5b620003da858286016200034b565b9150509250929050565b6000620003f062000403565b9050620003fe8282620004e3565b919050565b6000604051905090565b600067ffffffffffffffff8211156200042b576200042a62000577565b5b6200043682620005ba565b9050602081019050919050565b6000620004508262000457565b9050919050565b600073ffffffffffffffffffffffffffffffffffffffff82169050919050565b60005b83811015620004975780820151818401526020810190506200047a565b83811115620004a7576000848401525b50505050565b60006002820490506001821680620004c657607f821691505b60208210811415620004dd57620004dc62000548565b5b50919050565b620004ee82620005ba565b810181811067ffffffffffffffff8211171562000510576200050f62000577565b5b80604052505050565b7f4e487b7100000000000000000000000000000000000000000000000000000000600052602160045260246000fd5b7f4e487b7100000000000000000000000000000000000000000000000000000000600052602260045260246000fd5b7f4e487b7100000000000000000000000000000000000000000000000000000000600052604160045260246000fd5b600080fd5b600080fd5b600080fd5b600080fd5b6000601f19601f8301169050919050565b620005d68162000443565b8114620005e257600080fd5b50565b6114e680620005f56000396000f3fe608060405234801561001057600080fd5b50600436106100625760003560e01c80632936154414610067578063542e88e21461009c578063708c3593146100b85780637485994d146100d6578063c5aee7af14610106578063e4fa4a6d14610122575b600080fd5b610081600480360381019061007c9190610d13565b610155565b60405161009396959493929190610edc565b60405180910390f35b6100b660048036038101906100b19190610daf565b610260565b005b6100c061046a565b6040516100cd9190611072565b60405180910390f35b6100f060048036038101906100eb9190610d13565b610470565b6040516100fd9190610f6d565b60405180910390f35b610120600480360381019061011b9190610d40565b61065b565b005b61013c60048036038101906101379190610d13565b61094d565b60405161014c9493929190610fc6565b60405180910390f35b60026020528060005260406000206000915090508060000160009054906101000a900473ffffffffffffffffffffffffffffffffffffffff169080600101805461019e90611229565b80601f01602080910402602001604051908101604052809291908181526020018280546101ca90611229565b80156102175780601f106101ec57610100808354040283529160200191610217565b820191906000526020600020905b8154815290600101906020018083116101fa57829003601f168201915b5050505050908060020154908060030160009054906101000a900460ff16908060030160019054906101000a900460ff16908060030160029054906101000a900460ff16905086565b60008054906101000a900473ffffffffffffffffffffffffffffffffffffffff1673ffffffffffffffffffffffffffffffffffffffff163373ffffffffffffffffffffffffffffffffffffffff16146102ee576040517f08c379a00000000000000000000000000000000000000000000000000000000081526004016102e590611052565b60405180910390fd5b806002811115610301576103006112bb565b5b600260008473ffffffffffffffffffffffffffffffffffffffff1673ffffffffffffffffffffffffffffffffffffffff16815260200190815260200160002060030160016101000a81548160ff02191690836002811115610365576103646112bb565b5b02179055507f55c9a487c62d96ff68cc3c37227dd8bea51dad6c5a9e92756a478d6d116a8f10600260008473ffffffffffffffffffffffffffffffffffffffff1673ffffffffffffffffffffffffffffffffffffffff16815260200190815260200160002060000160009054906101000a900473ffffffffffffffffffffffffffffffffffffffff16600260008573ffffffffffffffffffffffffffffffffffffffff1673ffffffffffffffffffffffffffffffffffffffff16815260200190815260200160002060030160019054906101000a900460ff1660028111156104505761044f6112bb565b5b60405161045e929190610f44565b60405180910390a15050565b60015481565b600080600260008473ffffffffffffffffffffffffffffffffffffffff1673ffffffffffffffffffffffffffffffffffffffff16815260200190815260200160002060010180546104c090611229565b90501461065157600160028111156104db576104da6112bb565b5b600260008473ffffffffffffffffffffffffffffffffffffffff1673ffffffffffffffffffffffffffffffffffffffff16815260200190815260200160002060030160019054906101000a900460ff16600281111561053d5761053c6112bb565b5b14801561063a5750600680811115610558576105576112bb565b5b600260008473ffffffffffffffffffffffffffffffffffffffff1673ffffffffffffffffffffffffffffffffffffffff16815260200190815260200160002060030160009054906101000a900460ff1660068111156105ba576105b96112bb565b5b14806106395750600560068111156105d5576105d46112bb565b5b600260008473ffffffffffffffffffffffffffffffffffffffff1673ffffffffffffffffffffffffffffffffffffffff16815260200190815260200160002060030160009054906101000a900460ff166006811115610637576106366112bb565b5b145b5b156106485760019050610656565b60009050610656565b600090505b919050565b826000151561066982610b6c565b1515146106ab576040517f08c379a00000000000000000000000000000000000000000000000000000000081526004016106a290611012565b60405180910390fd5b60008214156106ef576040517f08c379a00000000000000000000000000000000000000000000000000000000081526004016106e690611032565b60405180910390fd5b6000600180546106ff91906110ff565b905060006040518060c001604052808773ffffffffffffffffffffffffffffffffffffffff168152602001868152602001838152602001856006811115610749576107486112bb565b5b600681111561075b5761075a6112bb565b5b815260200160006002811115610774576107736112bb565b5b815260200160011515815250905080600260008873ffffffffffffffffffffffffffffffffffffffff1673ffffffffffffffffffffffffffffffffffffffff16815260200190815260200160002060008201518160000160006101000a81548173ffffffffffffffffffffffffffffffffffffffff021916908373ffffffffffffffffffffffffffffffffffffffff1602179055506020820151816001019080519060200190610825929190610bd6565b506040820151816002015560608201518160030160006101000a81548160ff0219169083600681111561085b5761085a6112bb565b5b021790555060808201518160030160016101000a81548160ff0219169083600281111561088b5761088a6112bb565b5b021790555060a08201518160030160026101000a81548160ff0219169083151502179055509050508060400151816000015173ffffffffffffffffffffffffffffffffffffffff167f69ba979223208999ec4168b3afb5c75c7f1a83509d27c83b97a5cdc28462a9318360200151846060015160068111156109105761090f6112bb565b5b85608001516002811115610927576109266112bb565b5b60405161093693929190610f88565b60405180910390a381600181905550505050505050565b6060600080600080600260008773ffffffffffffffffffffffffffffffffffffffff1673ffffffffffffffffffffffffffffffffffffffff1681526020019081526020016000206040518060c00160405290816000820160009054906101000a900473ffffffffffffffffffffffffffffffffffffffff1673ffffffffffffffffffffffffffffffffffffffff1673ffffffffffffffffffffffffffffffffffffffff168152602001600182018054610a0590611229565b80601f0160208091040260200160405190810160405280929190818152602001828054610a3190611229565b8015610a7e5780601f10610a5357610100808354040283529160200191610a7e565b820191906000526020600020905b815481529060010190602001808311610a6157829003601f168201915b50505050508152602001600282015481526020016003820160009054906101000a900460ff166006811115610ab657610ab56112bb565b5b6006811115610ac857610ac76112bb565b5b81526020016003820160019054906101000a900460ff166002811115610af157610af06112bb565b5b6002811115610b0357610b026112bb565b5b81526020016003820160029054906101000a900460ff1615151515815250509050806020015194508060400151935080606001516006811115610b4957610b486112bb565b5b925080608001516002811115610b6257610b616112bb565b5b9150509193509193565b6000600260008373ffffffffffffffffffffffffffffffffffffffff1673ffffffffffffffffffffffffffffffffffffffff16815260200190815260200160002060030160029054906101000a900460ff1615610bcc5760019050610bd1565b600090505b919050565b828054610be290611229565b90600052602060002090601f016020900481019282610c045760008555610c4b565b82601f10610c1d57805160ff1916838001178555610c4b565b82800160010185558215610c4b579182015b82811115610c4a578251825591602001919060010190610c2f565b5b509050610c589190610c5c565b5090565b5b80821115610c75576000816000905550600101610c5d565b5090565b6000610c8c610c87846110b2565b61108d565b905082815260208101848484011115610ca857610ca761134d565b5b610cb38482856111e7565b509392505050565b600081359050610cca81611482565b92915050565b600082601f830112610ce557610ce4611348565b5b8135610cf5848260208601610c79565b91505092915050565b600081359050610d0d81611499565b92915050565b600060208284031215610d2957610d28611357565b5b6000610d3784828501610cbb565b91505092915050565b600080600060608486031215610d5957610d58611357565b5b6000610d6786828701610cbb565b935050602084013567ffffffffffffffff811115610d8857610d87611352565b5b610d9486828701610cd0565b9250506040610da586828701610cfe565b9150509250925092565b60008060408385031215610dc657610dc5611357565b5b6000610dd485828601610cbb565b9250506020610de585828601610cfe565b9150509250929050565b610df881611155565b82525050565b610e0781611167565b82525050565b610e16816111c3565b82525050565b610e25816111d5565b82525050565b6000610e36826110e3565b610e4081856110ee565b9350610e508185602086016111f6565b610e598161135c565b840191505092915050565b6000610e716026836110ee565b9150610e7c8261136d565b604082019050919050565b6000610e946021836110ee565b9150610e9f826113bc565b604082019050919050565b6000610eb76034836110ee565b9150610ec28261140b565b604082019050919050565b610ed6816111b9565b82525050565b600060c082019050610ef16000830189610def565b8181036020830152610f038188610e2b565b9050610f126040830187610ecd565b610f1f6060830186610e1c565b610f2c6080830185610e0d565b610f3960a0830184610dfe565b979650505050505050565b6000604082019050610f596000830185610def565b610f666020830184610ecd565b9392505050565b6000602082019050610f826000830184610dfe565b92915050565b60006060820190508181036000830152610fa28186610e2b565b9050610fb16020830185610ecd565b610fbe6040830184610ecd565b949350505050565b60006080820190508181036000830152610fe08187610e2b565b9050610fef6020830186610ecd565b610ffc6040830185610ecd565b6110096060830184610ecd565b95945050505050565b6000602082019050818103600083015261102b81610e64565b9050919050565b6000602082019050818103600083015261104b81610e87565b9050919050565b6000602082019050818103600083015261106b81610eaa565b9050919050565b60006020820190506110876000830184610ecd565b92915050565b60006110976110a8565b90506110a3828261125b565b919050565b6000604051905090565b600067ffffffffffffffff8211156110cd576110cc611319565b5b6110d68261135c565b9050602081019050919050565b600081519050919050565b600082825260208201905092915050565b600061110a826111b9565b9150611115836111b9565b9250827fffffffffffffffffffffffffffffffffffffffffffffffffffffffffffffffff0382111561114a5761114961128c565b5b828201905092915050565b600061116082611199565b9050919050565b60008115159050919050565b60008190506111818261145a565b919050565b60008190506111948261146e565b919050565b600073ffffffffffffffffffffffffffffffffffffffff82169050919050565b6000819050919050565b60006111ce82611173565b9050919050565b60006111e082611186565b9050919050565b82818337600083830152505050565b60005b838110156112145780820151818401526020810190506111f9565b83811115611223576000848401525b50505050565b6000600282049050600182168061124157607f821691505b60208210811415611255576112546112ea565b5b50919050565b6112648261135c565b810181811067ffffffffffffffff8211171561128357611282611319565b5b80604052505050565b7f4e487b7100000000000000000000000000000000000000000000000000000000600052601160045260246000fd5b7f4e487b7100000000000000000000000000000000000000000000000000000000600052602160045260246000fd5b7f4e487b7100000000000000000000000000000000000000000000000000000000600052602260045260246000fd5b7f4e487b7100000000000000000000000000000000000000000000000000000000600052604160045260246000fd5b600080fd5b600080fd5b600080fd5b600080fd5b6000601f19601f8301169050919050565b7f43616e6e6f7420726567697374657220746865206475706c696361746520616360008201527f636f756e742e0000000000000000000000000000000000000000000000000000602082015250565b7f43616e6e6f742072656769737465722061732074686520726567756c61746f7260008201527f2e00000000000000000000000000000000000000000000000000000000000000602082015250565b7f546869732066756e6374696f6e2063616e206f6e6c792062652065786563757460008201527f65642062792074686520726567756c61746f722e000000000000000000000000602082015250565b6003811061146b5761146a6112bb565b5b50565b6007811061147f5761147e6112bb565b5b50565b61148b81611155565b811461149657600080fd5b50565b6114a2816111b9565b81146114ad57600080fd5b5056fea2646970667358221220ee62038df66940b12d1d20e3cd965e9c93057d254f82aec4bd0b4770dfb7486964736f6c63430008060033",
  "immutableReferences": {},
  "source": "// SPDX-License-Identifier: GPL-3.0\n\npragma solidity ^0.8.0;\n\n/**\n * @title Profile Management\n * @dev Implements profile mMnagement.\n * Constraints:\n * 1. Each participant per 1 account address\n * 2. only one regulator address per 1 profile contract\n * Program flow\n * 1. create \"Profile contract\" by adding regulator's address in its constructor.\n * 2. The participants(1=Farmer,2=Manufacturer,3=Retailer,4=Logistic) use the backend(off-chain) to call function registerAccount(on-chain)\n * 3. Event RegisterAccount is raised and the backend (off-chain) can get error and result from function registerAccount(on-chain). The backend can store the data in database off-chain.\n * 4. The initial of account status is  0=Pending.\n * 5. The regulator uses the off-chain app to pass the parameter of each participant account address and account status to function approveAccount(on-chain).\n * 6. To get accountInfo (struct Account), can directly call mapping accountInfoByAddress[accountAddress]\n */\ncontract Profile {\n    //AccountStatus: 0=Pending, 1=Approved, 2=Rejected\n    enum AccountStatus {\n        Pending,\n        Approved,\n        Rejected\n    }\n    //AccountType: 0=Regulator,1=Farmer,2=Manufacturer,3=Retailer,4=Consumer,5=Logistic,6=Oracle\n    enum AccountType {\n        Regulator,\n        Farmer,\n        Manufacturer,\n        Retailer,\n        Consumer,\n        Logistic,\n        Oracle\n    }\n\n    address private regulatorAddress;\n    uint256 public lastAccountId;\n\n    struct Account {\n        address accountAddress;\n        string accountName;\n        uint256 accountId;\n        AccountType accountType;\n        AccountStatus accountStatus;\n        bool isValue; // To check duplicate account\n    }\n    // Get account Info. by account address.\n    mapping(address => Account) public accountInfoByAddress;\n\n    // @notice To create profile contract, have to specify regulator's address first.\n    constructor(address _regulatorAddress, string memory _regulatorName) {\n        regulatorAddress = _regulatorAddress;\n        lastAccountId = 0;\n        // Create regulator account. Account index 0 is regulator\n        Account memory regulatorAcc = Account(\n            _regulatorAddress,\n            _regulatorName,\n            lastAccountId,\n            AccountType.Regulator,\n            AccountStatus.Approved,\n            true\n        );\n\n        //add regulator acc. address to mapping.\n        accountInfoByAddress[_regulatorAddress] = regulatorAcc;\n    }\n\n    // Create events for using in JavaScript API\n    // Event 1: RegisterAccount by Farmer,Manufacturer,Reatiler,Logistic\n    event RegisterAccount(\n        address indexed accountAddress,\n        string accountName,\n        uint256 indexed accountId,\n        uint256 accountType,\n        uint256 accountStatus\n    );\n    // Event 2: ApproveAccount by Regulator\n    event ApproveAccount(address accountAddress, uint256 accountStatus);\n\n    /// @notice Function 1: createProfile for Regulator,Farmer,Manufacturer,Reatiler,Logistic\n    /// @param _accountAddress Each participant can have only one accountAddress for this phase.\n    /// @param _accountName The account name for account address.\n    /// @param _accountTypeValue Specific the interger as following  0=Regulator,1=Farmer,2=Manufacturer,3=Reatiler,4=Logistic\n    function registerAccount(\n        address _accountAddress,\n        string memory _accountName,\n        uint256 _accountTypeValue\n    ) public checkDuplicateAddress(_accountAddress) {\n        require(_accountTypeValue != 0, \"Cannot register as the regulator.\");\n        uint256 tmpNewId = lastAccountId + 1;\n        Account memory newAcc = Account(\n            _accountAddress,\n            _accountName,\n            tmpNewId,\n            AccountType(_accountTypeValue),\n            AccountStatus.Pending,\n            true\n        );\n\n        //add a new acc. address to mapping.\n        accountInfoByAddress[_accountAddress] = newAcc;\n        emit RegisterAccount(\n            newAcc.accountAddress,\n            newAcc.accountName,\n            newAcc.accountId,\n            uint256(newAcc.accountType),\n            uint256(newAcc.accountStatus)\n        );\n        lastAccountId = tmpNewId;\n    }\n\n    /// @notice Function 2: approveAccount. Only regulator account can use this function.\n    /// @param _accountAddress Each participant can have only one accountAddress for this phase.\n    /// @param _accountStatus 0=Pending, 1=Approved, 2=Rejected\n    function approveAccount(address _accountAddress, uint256 _accountStatus)\n        public\n        onlyRegulator\n    {\n        // Get account by accountAddress\n        accountInfoByAddress[_accountAddress].accountStatus = AccountStatus(\n            _accountStatus\n        );\n        emit ApproveAccount(\n            accountInfoByAddress[_accountAddress].accountAddress,\n            uint256(accountInfoByAddress[_accountAddress].accountStatus)\n        );\n    }\n\n    /// @notice Function 3: getAccountInfoByAddress.(For the frontend off-chain)\n    /// @param _accountAddress Each participant can have only one accountAddress for this phase.\n    function getAccountInfoByAddress(address _accountAddress)\n        public\n        view\n        returns (\n            string memory accountName,\n            uint256 accountId,\n            uint256 accountTypeValue,\n            uint256 accountStatusValue\n        )\n    {\n        Account memory acc = accountInfoByAddress[_accountAddress];\n        accountName = acc.accountName;\n        accountId = acc.accountId;\n        accountTypeValue = uint256(acc.accountType);\n        accountStatusValue = uint256(acc.accountStatus);\n    }\n\n    function isLogisticOrOracle(address _accountAddress)\n        public\n        view\n        returns (bool)\n    {\n        if (\n            bytes(accountInfoByAddress[_accountAddress].accountName).length != 0\n        ) {\n            if (\n                (accountInfoByAddress[_accountAddress].accountStatus ==\n                    AccountStatus.Approved) &&\n                (accountInfoByAddress[_accountAddress].accountType ==\n                    AccountType.Oracle ||\n                    accountInfoByAddress[_accountAddress].accountType ==\n                    AccountType.Logistic)\n            ) {\n                return true;\n            } else {\n                return false;\n            }\n        } else {\n            return false;\n        }\n    }\n\n    // private functions\n    // Does account address exist?\n    function isExisAccount(address _accountAddress)\n        private\n        view\n        returns (bool)\n    {\n        if (accountInfoByAddress[_accountAddress].isValue) {\n            return true;\n        }\n        return false;\n    }\n\n    // modifier\n    modifier onlyRegulator {\n        require(\n            msg.sender == regulatorAddress,\n            \"This function can only be executed by the regulator.\"\n        );\n        _;\n    }\n    modifier checkDuplicateAddress(address _accountAddress) {\n        require(\n            isExisAccount(_accountAddress) == false,\n            \"Cannot register the duplicate account.\"\n        );\n        _;\n    }\n}\n",
  "sourcePath": "/Volumes/Data/Users/rittisak/Projects/unsw/comp6452/solidity/contracts/Profile.sol",
  "compiler": {
    "name": "solc",
    "version": "0.8.6+commit.11564f7e.Emscripten.clang"
  },
  "schemaVersion": "3.4.1",
  "updatedAt": "2021-07-23T14:24:37.833Z",
  "networkType": "ethereum",
  "devdoc": {
    "details": "Implements profile mMnagement. Constraints: 1. Each participant per 1 account address 2. only one regulator address per 1 profile contract Program flow 1. create \"Profile contract\" by adding regulator's address in its constructor. 2. The participants(1=Farmer,2=Manufacturer,3=Retailer,4=Logistic) use the backend(off-chain) to call function registerAccount(on-chain) 3. Event RegisterAccount is raised and the backend (off-chain) can get error and result from function registerAccount(on-chain). The backend can store the data in database off-chain. 4. The initial of account status is  0=Pending. 5. The regulator uses the off-chain app to pass the parameter of each participant account address and account status to function approveAccount(on-chain). 6. To get accountInfo (struct Account), can directly call mapping accountInfoByAddress[accountAddress]",
    "kind": "dev",
    "methods": {
      "approveAccount(address,uint256)": {
        "params": {
          "_accountAddress": "Each participant can have only one accountAddress for this phase.",
          "_accountStatus": "0=Pending, 1=Approved, 2=Rejected"
        }
      },
      "getAccountInfoByAddress(address)": {
        "params": {
          "_accountAddress": "Each participant can have only one accountAddress for this phase."
        }
      },
      "registerAccount(address,string,uint256)": {
        "params": {
          "_accountAddress": "Each participant can have only one accountAddress for this phase.",
          "_accountName": "The account name for account address.",
          "_accountTypeValue": "Specific the interger as following  0=Regulator,1=Farmer,2=Manufacturer,3=Reatiler,4=Logistic"
        }
      }
    },
    "title": "Profile Management",
    "version": 1
  },
  "userdoc": {
    "kind": "user",
    "methods": {
      "approveAccount(address,uint256)": {
        "notice": "Function 2: approveAccount. Only regulator account can use this function."
      },
      "getAccountInfoByAddress(address)": {
        "notice": "Function 3: getAccountInfoByAddress.(For the frontend off-chain)"
      },
      "registerAccount(address,string,uint256)": {
        "notice": "Function 1: createProfile for Regulator,Farmer,Manufacturer,Reatiler,Logistic"
      }
    },
    "version": 1
  }
}