{
  "contractName": "Profile",
  "abi": [
    {
      "inputs": [
        {
          "internalType": "address",
          "name": "_regulatorAddress",
          "type": "address"
        },
        {
          "internalType": "string",
          "name": "_regulatorName",
          "type": "string"
        }
      ],
      "stateMutability": "nonpayable",
      "type": "constructor"
    },
    {
      "anonymous": false,
      "inputs": [
        {
          "indexed": false,
          "internalType": "address",
          "name": "accountAddress",
          "type": "address"
        },
        {
          "indexed": false,
          "internalType": "uint256",
          "name": "accountStatus",
          "type": "uint256"
        }
      ],
      "name": "ApproveAccount",
      "type": "event"
    },
    {
      "anonymous": false,
      "inputs": [
        {
          "indexed": true,
          "internalType": "address",
          "name": "accountAddress",
          "type": "address"
        },
        {
          "indexed": false,
          "internalType": "string",
          "name": "accountName",
          "type": "string"
        },
        {
          "indexed": true,
          "internalType": "uint256",
          "name": "accountId",
          "type": "uint256"
        },
        {
          "indexed": false,
          "internalType": "uint256",
          "name": "accountType",
          "type": "uint256"
        },
        {
          "indexed": false,
          "internalType": "uint256",
          "name": "accountStatus",
          "type": "uint256"
        }
      ],
      "name": "RegisterAccount",
      "type": "event"
    },
    {
      "inputs": [
        {
          "internalType": "address",
          "name": "",
          "type": "address"
        }
      ],
      "name": "accountInfoByAddress",
      "outputs": [
        {
          "internalType": "address",
          "name": "accountAddress",
          "type": "address"
        },
        {
          "internalType": "string",
          "name": "accountName",
          "type": "string"
        },
        {
          "internalType": "uint256",
          "name": "accountId",
          "type": "uint256"
        },
        {
          "internalType": "enum Profile.AccountType",
          "name": "accountType",
          "type": "uint8"
        },
        {
          "internalType": "enum Profile.AccountStatus",
          "name": "accountStatus",
          "type": "uint8"
        },
        {
          "internalType": "bool",
          "name": "isValue",
          "type": "bool"
        }
      ],
      "stateMutability": "view",
      "type": "function",
      "constant": true
    },
    {
      "inputs": [],
      "name": "lastAccountId",
      "outputs": [
        {
          "internalType": "uint256",
          "name": "",
          "type": "uint256"
        }
      ],
      "stateMutability": "view",
      "type": "function",
      "constant": true
    },
    {
      "inputs": [
        {
          "internalType": "address",
          "name": "_accountAddress",
          "type": "address"
        },
        {
          "internalType": "string",
          "name": "_accountName",
          "type": "string"
        },
        {
          "internalType": "uint256",
          "name": "_accountTypeValue",
          "type": "uint256"
        }
      ],
      "name": "registerAccount",
      "outputs": [],
      "stateMutability": "nonpayable",
      "type": "function"
    },
    {
      "inputs": [
        {
          "internalType": "address",
          "name": "_accountAddress",
          "type": "address"
        },
        {
          "internalType": "uint256",
          "name": "_accountStatus",
          "type": "uint256"
        }
      ],
      "name": "approveAccount",
      "outputs": [],
      "stateMutability": "nonpayable",
      "type": "function"
    },
    {
      "inputs": [
        {
          "internalType": "address",
          "name": "_accountAddress",
          "type": "address"
        }
      ],
      "name": "getAccountInfoByAddress",
      "outputs": [
        {
          "internalType": "string",
          "name": "accountName",
          "type": "string"
        },
        {
          "internalType": "uint256",
          "name": "accountId",
          "type": "uint256"
        },
        {
          "internalType": "uint256",
          "name": "accountTypeValue",
          "type": "uint256"
        },
        {
          "internalType": "uint256",
          "name": "accountStatusValue",
          "type": "uint256"
        }
      ],
      "stateMutability": "view",
      "type": "function",
      "constant": true
    },
    {
      "inputs": [
        {
          "internalType": "address",
          "name": "_accountAddress",
          "type": "address"
        }
      ],
      "name": "isLogisticOrOracle",
      "outputs": [
        {
          "internalType": "bool",
          "name": "",
          "type": "bool"
        }
      ],
      "stateMutability": "view",
      "type": "function",
      "constant": true
    }
  ],
  "bytecode": "0x60806040523480156200001157600080fd5b5060405162001e2838038062001e28833981810160405281019062000037919062000402565b816000806101000a81548173ffffffffffffffffffffffffffffffffffffffff021916908373ffffffffffffffffffffffffffffffffffffffff160217905550600060018190555060006040518060c001604052808473ffffffffffffffffffffffffffffffffffffffff168152602001838152602001600154815260200160006006811115620000f1577f4e487b7100000000000000000000000000000000000000000000000000000000600052602160045260246000fd5b81526020016001600281111562000131577f4e487b7100000000000000000000000000000000000000000000000000000000600052602160045260246000fd5b815260200160011515815250905080600260008573ffffffffffffffffffffffffffffffffffffffff1673ffffffffffffffffffffffffffffffffffffffff16815260200190815260200160002060008201518160000160006101000a81548173ffffffffffffffffffffffffffffffffffffffff021916908373ffffffffffffffffffffffffffffffffffffffff1602179055506020820151816001019080519060200190620001e4929190620002c9565b506040820151816002015560608201518160030160006101000a81548160ff0219169083600681111562000241577f4e487b7100000000000000000000000000000000000000000000000000000000600052602160045260246000fd5b021790555060808201518160030160016101000a81548160ff0219169083600281111562000298577f4e487b7100000000000000000000000000000000000000000000000000000000600052602160045260246000fd5b021790555060a08201518160030160026101000a81548160ff0219169083151502179055509050505050506200061a565b828054620002d79062000525565b90600052602060002090601f016020900481019282620002fb576000855562000347565b82601f106200031657805160ff191683800117855562000347565b8280016001018555821562000347579182015b828111156200034657825182559160200191906001019062000329565b5b5090506200035691906200035a565b5090565b5b80821115620003755760008160009055506001016200035b565b5090565b6000620003906200038a8462000485565b6200045c565b905082815260208101848484011115620003a957600080fd5b620003b6848285620004ef565b509392505050565b600081519050620003cf8162000600565b92915050565b600082601f830112620003e757600080fd5b8151620003f984826020860162000379565b91505092915050565b600080604083850312156200041657600080fd5b60006200042685828601620003be565b925050602083015167ffffffffffffffff8111156200044457600080fd5b6200045285828601620003d5565b9150509250929050565b6000620004686200047b565b90506200047682826200055b565b919050565b6000604051905090565b600067ffffffffffffffff821115620004a357620004a2620005c0565b5b620004ae82620005ef565b9050602081019050919050565b6000620004c882620004cf565b9050919050565b600073ffffffffffffffffffffffffffffffffffffffff82169050919050565b60005b838110156200050f578082015181840152602081019050620004f2565b838111156200051f576000848401525b50505050565b600060028204905060018216806200053e57607f821691505b6020821081141562000555576200055462000591565b5b50919050565b6200056682620005ef565b810181811067ffffffffffffffff82111715620005885762000587620005c0565b5b80604052505050565b7f4e487b7100000000000000000000000000000000000000000000000000000000600052602260045260246000fd5b7f4e487b7100000000000000000000000000000000000000000000000000000000600052604160045260246000fd5b6000601f19601f8301169050919050565b6200060b81620004bb565b81146200061757600080fd5b50565b6117fe806200062a6000396000f3fe608060405234801561001057600080fd5b50600436106100625760003560e01c80632936154414610067578063542e88e21461009c578063708c3593146100b85780637485994d146100d6578063c5aee7af14610106578063e4fa4a6d14610122575b600080fd5b610081600480360381019061007c919061104f565b610155565b60405161009396959493929190611208565b60405180910390f35b6100b660048036038101906100b191906110df565b610260565b005b6100c06104dc565b6040516100cd919061139e565b60405180910390f35b6100f060048036038101906100eb919061104f565b6104e2565b6040516100fd9190611299565b60405180910390f35b610120600480360381019061011b9190611078565b6107b1565b005b61013c6004803603810190610137919061104f565b610bad565b60405161014c94939291906112f2565b60405180910390f35b60026020528060005260406000206000915090508060000160009054906101000a900473ffffffffffffffffffffffffffffffffffffffff169080600101805461019e90611555565b80601f01602080910402602001604051908101604052809291908181526020018280546101ca90611555565b80156102175780601f106101ec57610100808354040283529160200191610217565b820191906000526020600020905b8154815290600101906020018083116101fa57829003601f168201915b5050505050908060020154908060030160009054906101000a900460ff16908060030160019054906101000a900460ff16908060030160029054906101000a900460ff16905086565b60008054906101000a900473ffffffffffffffffffffffffffffffffffffffff1673ffffffffffffffffffffffffffffffffffffffff163373ffffffffffffffffffffffffffffffffffffffff16146102ee576040517f08c379a00000000000000000000000000000000000000000000000000000000081526004016102e59061137e565b60405180910390fd5b806002811115610327577f4e487b7100000000000000000000000000000000000000000000000000000000600052602160045260246000fd5b600260008473ffffffffffffffffffffffffffffffffffffffff1673ffffffffffffffffffffffffffffffffffffffff16815260200190815260200160002060030160016101000a81548160ff021916908360028111156103b1577f4e487b7100000000000000000000000000000000000000000000000000000000600052602160045260246000fd5b02179055507f55c9a487c62d96ff68cc3c37227dd8bea51dad6c5a9e92756a478d6d116a8f10600260008473ffffffffffffffffffffffffffffffffffffffff1673ffffffffffffffffffffffffffffffffffffffff16815260200190815260200160002060000160009054906101000a900473ffffffffffffffffffffffffffffffffffffffff16600260008573ffffffffffffffffffffffffffffffffffffffff1673ffffffffffffffffffffffffffffffffffffffff16815260200190815260200160002060030160019054906101000a900460ff1660028111156104c2577f4e487b7100000000000000000000000000000000000000000000000000000000600052602160045260246000fd5b6040516104d0929190611270565b60405180910390a15050565b60015481565b600080600260008473ffffffffffffffffffffffffffffffffffffffff1673ffffffffffffffffffffffffffffffffffffffff168152602001908152602001600020600101805461053290611555565b9050146107a75760016002811115610573577f4e487b7100000000000000000000000000000000000000000000000000000000600052602160045260246000fd5b600260008473ffffffffffffffffffffffffffffffffffffffff1673ffffffffffffffffffffffffffffffffffffffff16815260200190815260200160002060030160019054906101000a900460ff1660028111156105fb577f4e487b7100000000000000000000000000000000000000000000000000000000600052602160045260246000fd5b148015610790575060068081111561063c577f4e487b7100000000000000000000000000000000000000000000000000000000600052602160045260246000fd5b600260008473ffffffffffffffffffffffffffffffffffffffff1673ffffffffffffffffffffffffffffffffffffffff16815260200190815260200160002060030160009054906101000a900460ff1660068111156106c4577f4e487b7100000000000000000000000000000000000000000000000000000000600052602160045260246000fd5b148061078f575060056006811115610705577f4e487b7100000000000000000000000000000000000000000000000000000000600052602160045260246000fd5b600260008473ffffffffffffffffffffffffffffffffffffffff1673ffffffffffffffffffffffffffffffffffffffff16815260200190815260200160002060030160009054906101000a900460ff16600681111561078d577f4e487b7100000000000000000000000000000000000000000000000000000000600052602160045260246000fd5b145b5b1561079e57600190506107ac565b600090506107ac565b600090505b919050565b82600015156107bf82610eb0565b151514610801576040517f08c379a00000000000000000000000000000000000000000000000000000000081526004016107f89061133e565b60405180910390fd5b6000821415610845576040517f08c379a000000000000000000000000000000000000000000000000000000000815260040161083c9061135e565b60405180910390fd5b600060018054610855919061142b565b905060006040518060c001604052808773ffffffffffffffffffffffffffffffffffffffff1681526020018681526020018381526020018560068111156108c5577f4e487b7100000000000000000000000000000000000000000000000000000000600052602160045260246000fd5b60068111156108fd577f4e487b7100000000000000000000000000000000000000000000000000000000600052602160045260246000fd5b81526020016000600281111561093c577f4e487b7100000000000000000000000000000000000000000000000000000000600052602160045260246000fd5b815260200160011515815250905080600260008873ffffffffffffffffffffffffffffffffffffffff1673ffffffffffffffffffffffffffffffffffffffff16815260200190815260200160002060008201518160000160006101000a81548173ffffffffffffffffffffffffffffffffffffffff021916908373ffffffffffffffffffffffffffffffffffffffff16021790555060208201518160010190805190602001906109ed929190610f1a565b506040820151816002015560608201518160030160006101000a81548160ff02191690836006811115610a49577f4e487b7100000000000000000000000000000000000000000000000000000000600052602160045260246000fd5b021790555060808201518160030160016101000a81548160ff02191690836002811115610a9f577f4e487b7100000000000000000000000000000000000000000000000000000000600052602160045260246000fd5b021790555060a08201518160030160026101000a81548160ff0219169083151502179055509050508060400151816000015173ffffffffffffffffffffffffffffffffffffffff167f69ba979223208999ec4168b3afb5c75c7f1a83509d27c83b97a5cdc28462a931836020015184606001516006811115610b4a577f4e487b7100000000000000000000000000000000000000000000000000000000600052602160045260246000fd5b85608001516002811115610b87577f4e487b7100000000000000000000000000000000000000000000000000000000600052602160045260246000fd5b604051610b96939291906112b4565b60405180910390a381600181905550505050505050565b6060600080600080600260008773ffffffffffffffffffffffffffffffffffffffff1673ffffffffffffffffffffffffffffffffffffffff1681526020019081526020016000206040518060c00160405290816000820160009054906101000a900473ffffffffffffffffffffffffffffffffffffffff1673ffffffffffffffffffffffffffffffffffffffff1673ffffffffffffffffffffffffffffffffffffffff168152602001600182018054610c6590611555565b80601f0160208091040260200160405190810160405280929190818152602001828054610c9190611555565b8015610cde5780601f10610cb357610100808354040283529160200191610cde565b820191906000526020600020905b815481529060010190602001808311610cc157829003601f168201915b50505050508152602001600282015481526020016003820160009054906101000a900460ff166006811115610d3c577f4e487b7100000000000000000000000000000000000000000000000000000000600052602160045260246000fd5b6006811115610d74577f4e487b7100000000000000000000000000000000000000000000000000000000600052602160045260246000fd5b81526020016003820160019054906101000a900460ff166002811115610dc3577f4e487b7100000000000000000000000000000000000000000000000000000000600052602160045260246000fd5b6002811115610dfb577f4e487b7100000000000000000000000000000000000000000000000000000000600052602160045260246000fd5b81526020016003820160029054906101000a900460ff1615151515815250509050806020015194508060400151935080606001516006811115610e67577f4e487b7100000000000000000000000000000000000000000000000000000000600052602160045260246000fd5b925080608001516002811115610ea6577f4e487b7100000000000000000000000000000000000000000000000000000000600052602160045260246000fd5b9150509193509193565b6000600260008373ffffffffffffffffffffffffffffffffffffffff1673ffffffffffffffffffffffffffffffffffffffff16815260200190815260200160002060030160029054906101000a900460ff1615610f105760019050610f15565b600090505b919050565b828054610f2690611555565b90600052602060002090601f016020900481019282610f485760008555610f8f565b82601f10610f6157805160ff1916838001178555610f8f565b82800160010185558215610f8f579182015b82811115610f8e578251825591602001919060010190610f73565b5b509050610f9c9190610fa0565b5090565b5b80821115610fb9576000816000905550600101610fa1565b5090565b6000610fd0610fcb846113de565b6113b9565b905082815260208101848484011115610fe857600080fd5b610ff3848285611513565b509392505050565b60008135905061100a8161179a565b92915050565b600082601f83011261102157600080fd5b8135611031848260208601610fbd565b91505092915050565b600081359050611049816117b1565b92915050565b60006020828403121561106157600080fd5b600061106f84828501610ffb565b91505092915050565b60008060006060848603121561108d57600080fd5b600061109b86828701610ffb565b935050602084013567ffffffffffffffff8111156110b857600080fd5b6110c486828701611010565b92505060406110d58682870161103a565b9150509250925092565b600080604083850312156110f257600080fd5b600061110085828601610ffb565b92505060206111118582860161103a565b9150509250929050565b61112481611481565b82525050565b61113381611493565b82525050565b611142816114ef565b82525050565b61115181611501565b82525050565b60006111628261140f565b61116c818561141a565b935061117c818560208601611522565b61118581611674565b840191505092915050565b600061119d60268361141a565b91506111a882611685565b604082019050919050565b60006111c060218361141a565b91506111cb826116d4565b604082019050919050565b60006111e360348361141a565b91506111ee82611723565b604082019050919050565b611202816114e5565b82525050565b600060c08201905061121d600083018961111b565b818103602083015261122f8188611157565b905061123e60408301876111f9565b61124b6060830186611148565b6112586080830185611139565b61126560a083018461112a565b979650505050505050565b6000604082019050611285600083018561111b565b61129260208301846111f9565b9392505050565b60006020820190506112ae600083018461112a565b92915050565b600060608201905081810360008301526112ce8186611157565b90506112dd60208301856111f9565b6112ea60408301846111f9565b949350505050565b6000608082019050818103600083015261130c8187611157565b905061131b60208301866111f9565b61132860408301856111f9565b61133560608301846111f9565b95945050505050565b6000602082019050818103600083015261135781611190565b9050919050565b60006020820190508181036000830152611377816111b3565b9050919050565b60006020820190508181036000830152611397816111d6565b9050919050565b60006020820190506113b360008301846111f9565b92915050565b60006113c36113d4565b90506113cf8282611587565b919050565b6000604051905090565b600067ffffffffffffffff8211156113f9576113f8611645565b5b61140282611674565b9050602081019050919050565b600081519050919050565b600082825260208201905092915050565b6000611436826114e5565b9150611441836114e5565b9250827fffffffffffffffffffffffffffffffffffffffffffffffffffffffffffffffff03821115611476576114756115b8565b5b828201905092915050565b600061148c826114c5565b9050919050565b60008115159050919050565b60008190506114ad82611772565b919050565b60008190506114c082611786565b919050565b600073ffffffffffffffffffffffffffffffffffffffff82169050919050565b6000819050919050565b60006114fa8261149f565b9050919050565b600061150c826114b2565b9050919050565b82818337600083830152505050565b60005b83811015611540578082015181840152602081019050611525565b8381111561154f576000848401525b50505050565b6000600282049050600182168061156d57607f821691505b6020821081141561158157611580611616565b5b50919050565b61159082611674565b810181811067ffffffffffffffff821117156115af576115ae611645565b5b80604052505050565b7f4e487b7100000000000000000000000000000000000000000000000000000000600052601160045260246000fd5b7f4e487b7100000000000000000000000000000000000000000000000000000000600052602160045260246000fd5b7f4e487b7100000000000000000000000000000000000000000000000000000000600052602260045260246000fd5b7f4e487b7100000000000000000000000000000000000000000000000000000000600052604160045260246000fd5b6000601f19601f8301169050919050565b7f43616e6e6f7420726567697374657220746865206475706c696361746520616360008201527f636f756e742e0000000000000000000000000000000000000000000000000000602082015250565b7f43616e6e6f742072656769737465722061732074686520726567756c61746f7260008201527f2e00000000000000000000000000000000000000000000000000000000000000602082015250565b7f546869732066756e6374696f6e2063616e206f6e6c792062652065786563757460008201527f65642062792074686520726567756c61746f722e000000000000000000000000602082015250565b60038110611783576117826115e7565b5b50565b60078110611797576117966115e7565b5b50565b6117a381611481565b81146117ae57600080fd5b50565b6117ba816114e5565b81146117c557600080fd5b5056fea26469706673582212205af8fe9d21b29743e8f57b6236e5157e56d650dbb55752198fb79cf52c9db78164736f6c63430008040033",
  "immutableReferences": {},
  "source": "// SPDX-License-Identifier: GPL-3.0\r\n\r\npragma solidity ^0.8.0;\r\n\r\n/**\r\n * @title Profile Management\r\n * @dev Implements profile mMnagement.\r\n * Constraints:\r\n * 1. Each participant per 1 account address\r\n * 2. only one regulator address per 1 profile contract\r\n * Program flow\r\n * 1. create \"Profile contract\" by adding regulator's address in its constructor.\r\n * 2. The participants(1=Farmer,2=Manufacturer,3=Retailer,4=Logistic) use the backend(off-chain) to call function registerAccount(on-chain)\r\n * 3. Event RegisterAccount is raised and the backend (off-chain) can get error and result from function registerAccount(on-chain). The backend can store the data in database off-chain.\r\n * 4. The initial of account status is  0=Pending.\r\n * 5. The regulator uses the off-chain app to pass the parameter of each participant account address and account status to function approveAccount(on-chain).\r\n * 6. To get accountInfo (struct Account), can directly call mapping accountInfoByAddress[accountAddress]\r\n */\r\ncontract Profile {\r\n    //AccountStatus: 0=Pending, 1=Approved, 2=Rejected\r\n    enum AccountStatus {\r\n        Pending,\r\n        Approved,\r\n        Rejected\r\n    }\r\n    //AccountType: 0=Regulator,1=Farmer,2=Manufacturer,3=Retailer,4=Consumer,5=Logistic,6=Oracle\r\n    enum AccountType {\r\n        Regulator,\r\n        Farmer,\r\n        Manufacturer,\r\n        Retailer,\r\n        Consumer,\r\n        Logistic,\r\n        Oracle\r\n    }\r\n\r\n    address private regulatorAddress;\r\n    uint256 public lastAccountId;\r\n\r\n    struct Account {\r\n        address accountAddress;\r\n        string accountName;\r\n        uint256 accountId;\r\n        AccountType accountType;\r\n        AccountStatus accountStatus;\r\n        bool isValue; // To check duplicate account\r\n    }\r\n    // Get account Info. by account address.\r\n    mapping(address => Account) public accountInfoByAddress;\r\n\r\n    // @notice To create profile contract, have to specify regulator's address first.\r\n    constructor(address _regulatorAddress, string memory _regulatorName) {\r\n        regulatorAddress = _regulatorAddress;\r\n        lastAccountId = 0;\r\n        // Create regulator account. Account index 0 is regulator\r\n        Account memory regulatorAcc = Account(\r\n            _regulatorAddress,\r\n            _regulatorName,\r\n            lastAccountId,\r\n            AccountType.Regulator,\r\n            AccountStatus.Approved,\r\n            true\r\n        );\r\n\r\n        //add regulator acc. address to mapping.\r\n        accountInfoByAddress[_regulatorAddress] = regulatorAcc;\r\n    }\r\n\r\n    // Create events for using in JavaScript API\r\n    // Event 1: RegisterAccount by Farmer,Manufacturer,Reatiler,Logistic\r\n    event RegisterAccount(\r\n        address indexed accountAddress,\r\n        string accountName,\r\n        uint256 indexed accountId,\r\n        uint256 accountType,\r\n        uint256 accountStatus\r\n    );\r\n    // Event 2: ApproveAccount by Regulator\r\n    event ApproveAccount(address accountAddress, uint256 accountStatus);\r\n\r\n    /// @notice Function 1: createProfile for Regulator,Farmer,Manufacturer,Reatiler,Logistic\r\n    /// @param _accountAddress Each participant can have only one accountAddress for this phase.\r\n    /// @param _accountName The account name for account address.\r\n    /// @param _accountTypeValue Specific the interger as following  0=Regulator,1=Farmer,2=Manufacturer,3=Reatiler,4=Logistic\r\n    function registerAccount(\r\n        address _accountAddress,\r\n        string memory _accountName,\r\n        uint256 _accountTypeValue\r\n    ) public checkDuplicateAddress(_accountAddress) {\r\n        require(_accountTypeValue != 0, \"Cannot register as the regulator.\");\r\n        uint256 tmpNewId = lastAccountId + 1;\r\n        Account memory newAcc = Account(\r\n            _accountAddress,\r\n            _accountName,\r\n            tmpNewId,\r\n            AccountType(_accountTypeValue),\r\n            AccountStatus.Pending,\r\n            true\r\n        );\r\n\r\n        //add a new acc. address to mapping.\r\n        accountInfoByAddress[_accountAddress] = newAcc;\r\n        emit RegisterAccount(\r\n            newAcc.accountAddress,\r\n            newAcc.accountName,\r\n            newAcc.accountId,\r\n            uint256(newAcc.accountType),\r\n            uint256(newAcc.accountStatus)\r\n        );\r\n        lastAccountId = tmpNewId;\r\n    }\r\n\r\n    /// @notice Function 2: approveAccount. Only regulator account can use this function.\r\n    /// @param _accountAddress Each participant can have only one accountAddress for this phase.\r\n    /// @param _accountStatus 0=Pending, 1=Approved, 2=Rejected\r\n    function approveAccount(address _accountAddress, uint256 _accountStatus)\r\n        public\r\n        onlyRegulator\r\n    {\r\n        // Get account by accountAddress\r\n        accountInfoByAddress[_accountAddress].accountStatus = AccountStatus(\r\n            _accountStatus\r\n        );\r\n        emit ApproveAccount(\r\n            accountInfoByAddress[_accountAddress].accountAddress,\r\n            uint256(accountInfoByAddress[_accountAddress].accountStatus)\r\n        );\r\n    }\r\n\r\n    /// @notice Function 3: getAccountInfoByAddress.(For the frontend off-chain)\r\n    /// @param _accountAddress Each participant can have only one accountAddress for this phase.\r\n    function getAccountInfoByAddress(address _accountAddress)\r\n        public\r\n        view\r\n        returns (\r\n            string memory accountName,\r\n            uint256 accountId,\r\n            uint256 accountTypeValue,\r\n            uint256 accountStatusValue\r\n        )\r\n    {\r\n        Account memory acc = accountInfoByAddress[_accountAddress];\r\n        accountName = acc.accountName;\r\n        accountId = acc.accountId;\r\n        accountTypeValue = uint256(acc.accountType);\r\n        accountStatusValue = uint256(acc.accountStatus);\r\n    }\r\n\r\n    function isLogisticOrOracle(address _accountAddress)\r\n        public\r\n        view\r\n        returns (bool)\r\n    {\r\n        if (\r\n            bytes(accountInfoByAddress[_accountAddress].accountName).length != 0\r\n        ) {\r\n            if (\r\n                (accountInfoByAddress[_accountAddress].accountStatus ==\r\n                    AccountStatus.Approved) &&\r\n                (accountInfoByAddress[_accountAddress].accountType ==\r\n                    AccountType.Oracle ||\r\n                    accountInfoByAddress[_accountAddress].accountType ==\r\n                    AccountType.Logistic)\r\n            ) {\r\n                return true;\r\n            } else {\r\n                return false;\r\n            }\r\n        } else {\r\n            return false;\r\n        }\r\n    }\r\n\r\n    // private functions\r\n    // Does account address exist?\r\n    function isExisAccount(address _accountAddress)\r\n        private\r\n        view\r\n        returns (bool)\r\n    {\r\n        if (accountInfoByAddress[_accountAddress].isValue) {\r\n            return true;\r\n        }\r\n        return false;\r\n    }\r\n\r\n    // modifier\r\n    modifier onlyRegulator {\r\n        require(\r\n            msg.sender == regulatorAddress,\r\n            \"This function can only be executed by the regulator.\"\r\n        );\r\n        _;\r\n    }\r\n    modifier checkDuplicateAddress(address _accountAddress) {\r\n        require(\r\n            isExisAccount(_accountAddress) == false,\r\n            \"Cannot register the duplicate account.\"\r\n        );\r\n        _;\r\n    }\r\n}\r\n",
  "sourcePath": "D:/UNSW-2021-Term2/comp6452/Project 2/Git-Foodie/COMP6452_Project/solidity/contracts/Profile.sol",
  "compiler": {
    "name": "solc",
    "version": "0.8.4+commit.c7e474f2.Emscripten.clang"
  },
  "schemaVersion": "3.4.1",
  "updatedAt": "2021-07-11T03:02:51.709Z",
  "networkType": "ethereum",
  "devdoc": {
    "details": "Implements profile mMnagement. Constraints: 1. Each participant per 1 account address 2. only one regulator address per 1 profile contract Program flow 1. create \"Profile contract\" by adding regulator's address in its constructor. 2. The participants(1=Farmer,2=Manufacturer,3=Retailer,4=Logistic) use the backend(off-chain) to call function registerAccount(on-chain) 3. Event RegisterAccount is raised and the backend (off-chain) can get error and result from function registerAccount(on-chain). The backend can store the data in database off-chain. 4. The initial of account status is  0=Pending. 5. The regulator uses the off-chain app to pass the parameter of each participant account address and account status to function approveAccount(on-chain). 6. To get accountInfo (struct Account), can directly call mapping accountInfoByAddress[accountAddress]",
    "kind": "dev",
    "methods": {
      "approveAccount(address,uint256)": {
        "params": {
          "_accountAddress": "Each participant can have only one accountAddress for this phase.",
          "_accountStatus": "0=Pending, 1=Approved, 2=Rejected"
        }
      },
      "getAccountInfoByAddress(address)": {
        "params": {
          "_accountAddress": "Each participant can have only one accountAddress for this phase."
        }
      },
      "registerAccount(address,string,uint256)": {
        "params": {
          "_accountAddress": "Each participant can have only one accountAddress for this phase.",
          "_accountName": "The account name for account address.",
          "_accountTypeValue": "Specific the interger as following  0=Regulator,1=Farmer,2=Manufacturer,3=Reatiler,4=Logistic"
        }
      }
    },
    "title": "Profile Management",
    "version": 1
  },
  "userdoc": {
    "kind": "user",
    "methods": {
      "approveAccount(address,uint256)": {
        "notice": "Function 2: approveAccount. Only regulator account can use this function."
      },
      "getAccountInfoByAddress(address)": {
        "notice": "Function 3: getAccountInfoByAddress.(For the frontend off-chain)"
      },
      "registerAccount(address,string,uint256)": {
        "notice": "Function 1: createProfile for Regulator,Farmer,Manufacturer,Reatiler,Logistic"
      }
    },
    "version": 1
  }
}