{
  "contractName": "Trace",
  "abi": [
    {
      "inputs": [
        {
          "internalType": "address",
          "name": "_profileAddress",
          "type": "address"
        }
      ],
      "stateMutability": "nonpayable",
      "type": "constructor"
    },
    {
      "anonymous": false,
      "inputs": [
        {
          "indexed": true,
          "internalType": "uint256",
          "name": "productId",
          "type": "uint256"
        },
        {
          "indexed": true,
          "internalType": "uint256",
          "name": "timestamp",
          "type": "uint256"
        },
        {
          "indexed": false,
          "internalType": "int256",
          "name": "latitude",
          "type": "int256"
        },
        {
          "indexed": false,
          "internalType": "int256",
          "name": "longitude",
          "type": "int256"
        }
      ],
      "name": "ProductLocation",
      "type": "event"
    },
    {
      "anonymous": false,
      "inputs": [
        {
          "indexed": true,
          "internalType": "uint256",
          "name": "blockNumber",
          "type": "uint256"
        },
        {
          "indexed": true,
          "internalType": "uint256",
          "name": "productId",
          "type": "uint256"
        }
      ],
      "name": "ProductLocationRequest",
      "type": "event"
    },
    {
      "anonymous": false,
      "inputs": [
        {
          "indexed": true,
          "internalType": "address",
          "name": "logisticAccountAddress",
          "type": "address"
        },
        {
          "indexed": false,
          "internalType": "uint256",
          "name": "productId",
          "type": "uint256"
        }
      ],
      "name": "ProductTracking",
      "type": "event"
    },
    {
      "inputs": [],
      "name": "owner",
      "outputs": [
        {
          "internalType": "address",
          "name": "",
          "type": "address"
        }
      ],
      "stateMutability": "view",
      "type": "function",
      "constant": true
    },
    {
      "inputs": [],
      "name": "productContractAddress",
      "outputs": [
        {
          "internalType": "address",
          "name": "",
          "type": "address"
        }
      ],
      "stateMutability": "view",
      "type": "function",
      "constant": true
    },
    {
      "inputs": [],
      "name": "profileAddress",
      "outputs": [
        {
          "internalType": "address",
          "name": "",
          "type": "address"
        }
      ],
      "stateMutability": "view",
      "type": "function",
      "constant": true
    },
    {
      "inputs": [
        {
          "internalType": "uint256",
          "name": "productId",
          "type": "uint256"
        }
      ],
      "name": "tracks",
      "outputs": [
        {
          "internalType": "string",
          "name": "trackingNumber",
          "type": "string"
        },
        {
          "internalType": "int256",
          "name": "latitude",
          "type": "int256"
        },
        {
          "internalType": "int256",
          "name": "longitude",
          "type": "int256"
        },
        {
          "internalType": "bool",
          "name": "isRequestingForLocation",
          "type": "bool"
        }
      ],
      "stateMutability": "view",
      "type": "function",
      "constant": true
    },
    {
      "inputs": [
        {
          "internalType": "address",
          "name": "_productContractAddress",
          "type": "address"
        }
      ],
      "name": "setProductContractAddress",
      "outputs": [],
      "stateMutability": "nonpayable",
      "type": "function"
    },
    {
      "inputs": [
        {
          "internalType": "uint256",
          "name": "productId",
          "type": "uint256"
        },
        {
          "internalType": "address",
          "name": "logisticAccountAddress",
          "type": "address"
        },
        {
          "internalType": "string",
          "name": "trackingNumber",
          "type": "string"
        }
      ],
      "name": "addProduct",
      "outputs": [],
      "stateMutability": "nonpayable",
      "type": "function"
    },
    {
      "inputs": [
        {
          "internalType": "uint256",
          "name": "productId",
          "type": "uint256"
        },
        {
          "internalType": "uint256",
          "name": "timestamp",
          "type": "uint256"
        },
        {
          "internalType": "int256",
          "name": "latitude",
          "type": "int256"
        },
        {
          "internalType": "int256",
          "name": "longitude",
          "type": "int256"
        }
      ],
      "name": "logLocation",
      "outputs": [
        {
          "internalType": "bool",
          "name": "success",
          "type": "bool"
        }
      ],
      "stateMutability": "nonpayable",
      "type": "function"
    },
    {
      "inputs": [
        {
          "internalType": "uint256",
          "name": "productId",
          "type": "uint256"
        }
      ],
      "name": "requestForLocation",
      "outputs": [
        {
          "internalType": "bool",
          "name": "",
          "type": "bool"
        }
      ],
      "stateMutability": "nonpayable",
      "type": "function"
    }
  ],
  "bytecode": "0x60806040523480156200001157600080fd5b506040516200188b3803806200188b8339818101604052810190620000379190620000d6565b80600160006101000a81548173ffffffffffffffffffffffffffffffffffffffff021916908373ffffffffffffffffffffffffffffffffffffffff160217905550336000806101000a81548173ffffffffffffffffffffffffffffffffffffffff021916908373ffffffffffffffffffffffffffffffffffffffff160217905550506200015b565b600081519050620000d08162000141565b92915050565b600060208284031215620000ef57620000ee6200013c565b5b6000620000ff84828501620000bf565b91505092915050565b600062000115826200011c565b9050919050565b600073ffffffffffffffffffffffffffffffffffffffff82169050919050565b600080fd5b6200014c8162000108565b81146200015857600080fd5b50565b611720806200016b6000396000f3fe608060405234801561001057600080fd5b50600436106100885760003560e01c80638da5cb5b1161005b5780638da5cb5b14610115578063a2e3458614610133578063fa3747a214610166578063fc066b6e1461018257610088565b806347946e671461008d578063514f6477146100bd5780636c167e03146100d957806377408f21146100f7575b600080fd5b6100a760048036038101906100a29190610fcd565b6101b2565b6040516100b49190611196565b60405180910390f35b6100d760048036038101906100d29190610f5e565b610399565b005b6100e1610824565b6040516100ee919061117b565b60405180910390f35b6100ff61084a565b60405161010c919061117b565b60405180910390f35b61011d610870565b60405161012a919061117b565b60405180910390f35b61014d60048036038101906101489190610f31565b610894565b60405161015d94939291906111da565b60405180910390f35b610180600480360381019061017b9190610ed7565b610a40565b005b61019c60048036038101906101979190610f31565b610ba3565b6040516101a99190611196565b60405180910390f35b60008073ffffffffffffffffffffffffffffffffffffffff16600260009054906101000a900473ffffffffffffffffffffffffffffffffffffffff1673ffffffffffffffffffffffffffffffffffffffff161415610245576040517f08c379a000000000000000000000000000000000000000000000000000000000815260040161023c906112a6565b60405180910390fd5b6000600360008781526020019081526020016000209050600081600401805461026d9061145d565b9050141561027f576000915050610391565b8060030160009054906101000a900473ffffffffffffffffffffffffffffffffffffffff1673ffffffffffffffffffffffffffffffffffffffff163373ffffffffffffffffffffffffffffffffffffffff1614610311576040517f08c379a000000000000000000000000000000000000000000000000000000000815260040161030890611266565b60405180910390fd5b8060060160009054906101000a900460ff1615610369578481600001541015610342576103418187878787610d13565b5b60008160060160006101000a81548160ff0219169083151502179055506001915050610391565b8481600001541061037e576000915050610391565b61038b8187878787610d13565b60019150505b949350505050565b600073ffffffffffffffffffffffffffffffffffffffff16600260009054906101000a900473ffffffffffffffffffffffffffffffffffffffff1673ffffffffffffffffffffffffffffffffffffffff16141561042b576040517f08c379a0000000000000000000000000000000000000000000000000000000008152600401610422906112a6565b60405180910390fd5b6000600160009054906101000a900473ffffffffffffffffffffffffffffffffffffffff16905060008173ffffffffffffffffffffffffffffffffffffffff16637485994d856040518263ffffffff1660e01b815260040161048d919061117b565b60206040518083038186803b1580156104a557600080fd5b505afa1580156104b9573d6000803e3d6000fd5b505050506040513d601f19601f820116820180604052508101906104dd9190610f04565b90508061051f576040517f08c379a000000000000000000000000000000000000000000000000000000000815260040161051690611226565b60405180910390fd5b6000600360008781526020019081526020016000206040518060e00160405290816000820154815260200160018201548152602001600282015481526020016003820160009054906101000a900473ffffffffffffffffffffffffffffffffffffffff1673ffffffffffffffffffffffffffffffffffffffff1673ffffffffffffffffffffffffffffffffffffffff1681526020016004820180546105c39061145d565b80601f01602080910402602001604051908101604052809291908181526020018280546105ef9061145d565b801561063c5780601f106106115761010080835404028352916020019161063c565b820191906000526020600020905b81548152906001019060200180831161061f57829003601f168201915b50505050508152602001600582015481526020016006820160009054906101000a900460ff16151515158152505090506000816080015151146106b4576040517f08c379a00000000000000000000000000000000000000000000000000000000081526004016106ab906112c6565b60405180910390fd5b84816060019073ffffffffffffffffffffffffffffffffffffffff16908173ffffffffffffffffffffffffffffffffffffffff168152505083816080018190525060008160200181815250506000816040018181525050806003600088815260200190815260200160002060008201518160000155602082015181600101556040820151816002015560608201518160030160006101000a81548173ffffffffffffffffffffffffffffffffffffffff021916908373ffffffffffffffffffffffffffffffffffffffff16021790555060808201518160040190805190602001906107a0929190610d70565b5060a0820151816005015560c08201518160060160006101000a81548160ff0219169083151502179055509050508473ffffffffffffffffffffffffffffffffffffffff167fc690e64c1f4b92607a2b497a40005702f15e6a6397cc2fa69ffa81c6cb17da1c8760405161081491906112e6565b60405180910390a2505050505050565b600160009054906101000a900473ffffffffffffffffffffffffffffffffffffffff1681565b600260009054906101000a900473ffffffffffffffffffffffffffffffffffffffff1681565b60008054906101000a900473ffffffffffffffffffffffffffffffffffffffff1681565b6060600080600080600360008781526020019081526020016000206040518060e00160405290816000820154815260200160018201548152602001600282015481526020016003820160009054906101000a900473ffffffffffffffffffffffffffffffffffffffff1673ffffffffffffffffffffffffffffffffffffffff1673ffffffffffffffffffffffffffffffffffffffff16815260200160048201805461093e9061145d565b80601f016020809104026020016040519081016040528092919081815260200182805461096a9061145d565b80156109b75780601f1061098c576101008083540402835291602001916109b7565b820191906000526020600020905b81548152906001019060200180831161099a57829003601f168201915b50505050508152602001600582015481526020016006820160009054906101000a900460ff161515151581525050905060008160800151511415610a1b57600080600060405180602001604052806000815250929190945094509450945050610a39565b8060800151816020015182604001518360c001519450945094509450505b9193509193565b60008054906101000a900473ffffffffffffffffffffffffffffffffffffffff1673ffffffffffffffffffffffffffffffffffffffff163373ffffffffffffffffffffffffffffffffffffffff1614610ace576040517f08c379a0000000000000000000000000000000000000000000000000000000008152600401610ac590611246565b60405180910390fd5b600073ffffffffffffffffffffffffffffffffffffffff16600260009054906101000a900473ffffffffffffffffffffffffffffffffffffffff1673ffffffffffffffffffffffffffffffffffffffff1614610b5f576040517f08c379a0000000000000000000000000000000000000000000000000000000008152600401610b5690611286565b60405180910390fd5b80600260006101000a81548173ffffffffffffffffffffffffffffffffffffffff021916908373ffffffffffffffffffffffffffffffffffffffff16021790555050565b60008073ffffffffffffffffffffffffffffffffffffffff16600260009054906101000a900473ffffffffffffffffffffffffffffffffffffffff1673ffffffffffffffffffffffffffffffffffffffff161415610c36576040517f08c379a0000000000000000000000000000000000000000000000000000000008152600401610c2d906112a6565b60405180910390fd5b60006003600084815260200190815260200160002090506000816004018054610c5e9061145d565b90501415610c70576000915050610d0e565b8060060160009054906101000a900460ff1615610c91576000915050610d0e565b4381600501541115610ca7576000915050610d0e565b60018160060160006101000a81548160ff02191690831515021790555061067243610cd29190611373565b816005018190555082437ff4dd5b6b32c59c8f808c5d62d01a0485a38568e96357b0eb6b070f1757445da560405160405180910390a360019150505b919050565b82856000018190555081856001018190555080856002018190555082847f3588e4d19fe3a4c36cdcb6e64672d5b3e10799d0e8806821dd1baaa2d7dd8d548484604051610d619291906111b1565b60405180910390a35050505050565b828054610d7c9061145d565b90600052602060002090601f016020900481019282610d9e5760008555610de5565b82601f10610db757805160ff1916838001178555610de5565b82800160010185558215610de5579182015b82811115610de4578251825591602001919060010190610dc9565b5b509050610df29190610df6565b5090565b5b80821115610e0f576000816000905550600101610df7565b5090565b6000610e26610e2184611326565b611301565b905082815260208101848484011115610e4257610e41611552565b5b610e4d84828561141b565b509392505050565b600081359050610e648161168e565b92915050565b600081519050610e79816116a5565b92915050565b600081359050610e8e816116bc565b92915050565b600082601f830112610ea957610ea861154d565b5b8135610eb9848260208601610e13565b91505092915050565b600081359050610ed1816116d3565b92915050565b600060208284031215610eed57610eec61155c565b5b6000610efb84828501610e55565b91505092915050565b600060208284031215610f1a57610f1961155c565b5b6000610f2884828501610e6a565b91505092915050565b600060208284031215610f4757610f4661155c565b5b6000610f5584828501610ec2565b91505092915050565b600080600060608486031215610f7757610f7661155c565b5b6000610f8586828701610ec2565b9350506020610f9686828701610e55565b925050604084013567ffffffffffffffff811115610fb757610fb6611557565b5b610fc386828701610e94565b9150509250925092565b60008060008060808587031215610fe757610fe661155c565b5b6000610ff587828801610ec2565b945050602061100687828801610ec2565b935050604061101787828801610e7f565b925050606061102887828801610e7f565b91505092959194509250565b61103d816113c9565b82525050565b61104c816113db565b82525050565b61105b816113e7565b82525050565b600061106c82611357565b6110768185611362565b935061108681856020860161142a565b61108f81611561565b840191505092915050565b60006110a7603683611362565b91506110b282611572565b604082019050919050565b60006110ca600d83611362565b91506110d5826115c1565b602082019050919050565b60006110ed601a83611362565b91506110f8826115ea565b602082019050919050565b6000611110601b83611362565b915061111b82611613565b602082019050919050565b6000611133601f83611362565b915061113e8261163c565b602082019050919050565b6000611156601583611362565b915061116182611665565b602082019050919050565b61117581611411565b82525050565b60006020820190506111906000830184611034565b92915050565b60006020820190506111ab6000830184611043565b92915050565b60006040820190506111c66000830185611052565b6111d36020830184611052565b9392505050565b600060808201905081810360008301526111f48187611061565b90506112036020830186611052565b6112106040830185611052565b61121d6060830184611043565b95945050505050565b6000602082019050818103600083015261123f8161109a565b9050919050565b6000602082019050818103600083015261125f816110bd565b9050919050565b6000602082019050818103600083015261127f816110e0565b9050919050565b6000602082019050818103600083015261129f81611103565b9050919050565b600060208201905081810360008301526112bf81611126565b9050919050565b600060208201905081810360008301526112df81611149565b9050919050565b60006020820190506112fb600083018461116c565b92915050565b600061130b61131c565b9050611317828261148f565b919050565b6000604051905090565b600067ffffffffffffffff8211156113415761134061151e565b5b61134a82611561565b9050602081019050919050565b600081519050919050565b600082825260208201905092915050565b600061137e82611411565b915061138983611411565b9250827fffffffffffffffffffffffffffffffffffffffffffffffffffffffffffffffff038211156113be576113bd6114c0565b5b828201905092915050565b60006113d4826113f1565b9050919050565b60008115159050919050565b6000819050919050565b600073ffffffffffffffffffffffffffffffffffffffff82169050919050565b6000819050919050565b82818337600083830152505050565b60005b8381101561144857808201518184015260208101905061142d565b83811115611457576000848401525b50505050565b6000600282049050600182168061147557607f821691505b60208210811415611489576114886114ef565b5b50919050565b61149882611561565b810181811067ffffffffffffffff821117156114b7576114b661151e565b5b80604052505050565b7f4e487b7100000000000000000000000000000000000000000000000000000000600052601160045260246000fd5b7f4e487b7100000000000000000000000000000000000000000000000000000000600052602260045260246000fd5b7f4e487b7100000000000000000000000000000000000000000000000000000000600052604160045260246000fd5b600080fd5b600080fd5b600080fd5b600080fd5b6000601f19601f8301169050919050565b7f6c6f6769737469634163636f756e7441646472657373206d757374206265206160008201527f206c6f676973746963206f7220616e206f7261636c6500000000000000000000602082015250565b7f4d757374206265206f776e657200000000000000000000000000000000000000600082015250565b7f496e636f7272656374206c6f676973746963206163636f756e74000000000000600082015250565b7f50726f6475637420636f6e7472616374206973207365747465642e0000000000600082015250565b7f50726f6463757420636f6e7472616374206973206e6f74207365747465642e00600082015250565b7f50726f6475637420616c72656164792061646465640000000000000000000000600082015250565b611697816113c9565b81146116a257600080fd5b50565b6116ae816113db565b81146116b957600080fd5b50565b6116c5816113e7565b81146116d057600080fd5b50565b6116dc81611411565b81146116e757600080fd5b5056fea264697066735822122003b878b43d16df7ff238b8e252f8f49cc684f53a379b10bfd116c89e70ec063c64736f6c63430008060033",
  "immutableReferences": {},
  "source": "// SPDX-License-Identifier: UNLICENSED\npragma solidity >=0.8.0 <0.9.0;\n\nimport \"./Profile.sol\";\n\ncontract Trace {\n    event ProductTracking(address indexed logisticAccountAddress, uint productId );\n    event ProductLocation(uint indexed productId, uint indexed timestamp, int latitude, int longitude);\n    event ProductLocationRequest(uint indexed blockNumber, uint indexed productId);\n\n    struct ProductTrack {\n        uint timestamp;\n        int latitude;\n        int longitude;\n        address logisticAccountAddress;\n        bytes trackingNumber;\n        uint nextRequestForLocationBlockNumber;\n        bool isRequestingForLocation;\n    }\n\n    address public owner;\n    address public profileAddress;\n    address public productContractAddress;\n    mapping (uint => ProductTrack) _tracks;\n\n    function tracks(uint productId)\n    public\n    view\n    returns(string memory trackingNumber, int latitude, int longitude, bool isRequestingForLocation)  {\n        ProductTrack memory t = _tracks[ productId ];\n\n        if( t.trackingNumber.length == 0 ) {\n            return (\"\", 0, 0, false);\n        } else {\n            return ( string(t.trackingNumber), t.latitude, t.longitude, t.isRequestingForLocation );\n        }\n    }\n\n    constructor(address _profileAddress) {\n        profileAddress = _profileAddress;\n        owner = msg.sender;\n    }\n\n    function setProductContractAddress(address _productContractAddress) public onlyOwner {\n        require( productContractAddress == address(0), \"Product contract is setted.\" );\n\n        productContractAddress = _productContractAddress;\n    }\n\n    modifier onlyOwner() {\n        require( msg.sender == owner, \"Must be owner\" );\n        _;\n    }\n\n    modifier productContractSetted() {\n        require( productContractAddress != address(0), \"Prodcut contract is not setted.\" );\n        _;\n    }\n\n    function addProduct(uint productId, address logisticAccountAddress, string memory trackingNumber)\n    public\n    productContractSetted {\n        Profile pf = Profile( profileAddress );\n        bool isLogistic = pf.isLogisticOrOracle(logisticAccountAddress);\n\n        require( isLogistic, \"logisticAccountAddress must be a logistic or an oracle\" );\n\n        ProductTrack memory t = _tracks[ productId ];\n        \n        require( t.trackingNumber.length == 0, \"Product already added\" );\n\n        t.logisticAccountAddress = logisticAccountAddress;\n        t.trackingNumber = bytes(trackingNumber);\n        t.latitude = 0;\n        t.longitude = 0;\n\n        _tracks[ productId  ] = t;\n\n        emit ProductTracking(logisticAccountAddress, productId);\n    }\n\n    function logLocation(uint productId, uint timestamp, int latitude, int longitude)\n    public\n    productContractSetted\n    returns(bool success) {\n        ProductTrack storage t = _tracks[ productId ];\n\n        if( t.trackingNumber.length == 0 ) {\n            return false;\n        }\n\n        require( msg.sender == t.logisticAccountAddress, \"Incorrect logistic account\" );\n\n        if( t.isRequestingForLocation ) {\n            if ( t.timestamp < timestamp ) {\n                saveProductLocation(t, productId, timestamp, latitude, longitude);\n            }\n\n            t.isRequestingForLocation = false;\n\n            // TODO:: Insert callback code here\n\n            return true;\n        } else {\n            if ( t.timestamp >= timestamp ) {\n                return false;\n            }\n\n            saveProductLocation(t, productId, timestamp, latitude, longitude);\n\n            // TODO:: Insert callback code here\n\n            return true;\n        }\n    }\n\n    function requestForLocation(uint productId) public productContractSetted returns (bool) {\n        ProductTrack storage t = _tracks[ productId ];\n\n        if( t.trackingNumber.length == 0 ) {\n            return false;\n        }\n\n        if( t.isRequestingForLocation ) {\n            return false;\n        }\n\n        // If the next allow value is more then current block number then the request is denied.\n        if( t.nextRequestForLocationBlockNumber > block.number ) {\n            return false;\n        }\n\n        t.isRequestingForLocation = true;\n\n        // Update the next request block number to be roughly next 6 hours.\n        // This simply work as a rate limit\n        t.nextRequestForLocationBlockNumber = block.number + 1650;\n\n        emit ProductLocationRequest(block.number, productId);\n\n        return true;\n    }\n\n    function saveProductLocation( ProductTrack storage t, uint productId, uint timestamp, int latitude, int longitude ) \n    private\n    {\n        t.timestamp = timestamp;\n        t.latitude = latitude;\n        t.longitude = longitude;\n\n        emit ProductLocation( productId, timestamp, latitude, longitude);\n    }\n}",
  "sourcePath": "/Volumes/Data/Users/rittisak/Projects/unsw/comp6452/solidity/contracts/Trace.sol",
  "compiler": {
    "name": "solc",
    "version": "0.8.6+commit.11564f7e.Emscripten.clang"
  },
  "schemaVersion": "3.4.1",
  "updatedAt": "2021-07-24T06:13:12.933Z",
  "networkType": "ethereum",
  "devdoc": {
    "kind": "dev",
    "methods": {},
    "version": 1
  },
  "userdoc": {
    "kind": "user",
    "methods": {},
    "version": 1
  }
}