{
  "contractName": "Trace",
  "abi": [
    {
      "inputs": [
        {
          "internalType": "address",
          "name": "_profileAddress",
          "type": "address"
        }
      ],
      "stateMutability": "nonpayable",
      "type": "constructor"
    },
    {
      "anonymous": false,
      "inputs": [
        {
          "indexed": false,
          "internalType": "uint256",
          "name": "blockNumber",
          "type": "uint256"
        },
        {
          "indexed": false,
          "internalType": "uint256",
          "name": "productId",
          "type": "uint256"
        },
        {
          "indexed": false,
          "internalType": "uint256",
          "name": "timestamp",
          "type": "uint256"
        },
        {
          "indexed": false,
          "internalType": "int256",
          "name": "latitude",
          "type": "int256"
        },
        {
          "indexed": false,
          "internalType": "int256",
          "name": "longitude",
          "type": "int256"
        }
      ],
      "name": "ProductLocation",
      "type": "event"
    },
    {
      "anonymous": false,
      "inputs": [
        {
          "indexed": false,
          "internalType": "uint256",
          "name": "blockNumber",
          "type": "uint256"
        },
        {
          "indexed": true,
          "internalType": "address",
          "name": "logisticAccountAddress",
          "type": "address"
        },
        {
          "indexed": false,
          "internalType": "uint256",
          "name": "productId",
          "type": "uint256"
        }
      ],
      "name": "ProductTracking",
      "type": "event"
    },
    {
      "inputs": [],
      "name": "profileAddress",
      "outputs": [
        {
          "internalType": "address",
          "name": "",
          "type": "address"
        }
      ],
      "stateMutability": "view",
      "type": "function",
      "constant": true
    },
    {
      "inputs": [
        {
          "internalType": "uint256",
          "name": "productId",
          "type": "uint256"
        }
      ],
      "name": "tracks",
      "outputs": [
        {
          "internalType": "string",
          "name": "trackingNumber",
          "type": "string"
        },
        {
          "internalType": "int256",
          "name": "latitude",
          "type": "int256"
        },
        {
          "internalType": "int256",
          "name": "longtitude",
          "type": "int256"
        }
      ],
      "stateMutability": "view",
      "type": "function",
      "constant": true
    },
    {
      "inputs": [
        {
          "internalType": "uint256",
          "name": "productId",
          "type": "uint256"
        },
        {
          "internalType": "address",
          "name": "logisticAccountAddress",
          "type": "address"
        },
        {
          "internalType": "string",
          "name": "trackingNumber",
          "type": "string"
        }
      ],
      "name": "addProduct",
      "outputs": [],
      "stateMutability": "nonpayable",
      "type": "function"
    },
    {
      "inputs": [
        {
          "internalType": "uint256",
          "name": "productId",
          "type": "uint256"
        },
        {
          "internalType": "uint256",
          "name": "timestamp",
          "type": "uint256"
        },
        {
          "internalType": "int256",
          "name": "latitude",
          "type": "int256"
        },
        {
          "internalType": "int256",
          "name": "longitude",
          "type": "int256"
        }
      ],
      "name": "logLocation",
      "outputs": [
        {
          "internalType": "bool",
          "name": "success",
          "type": "bool"
        }
      ],
      "stateMutability": "nonpayable",
      "type": "function"
    }
  ],
  "bytecode": "0x608060405234801561001057600080fd5b5060405162001005380380620010058339818101604052810190610034919061008f565b806000806101000a81548173ffffffffffffffffffffffffffffffffffffffff021916908373ffffffffffffffffffffffffffffffffffffffff1602179055505061010a565b600081519050610089816100f3565b92915050565b6000602082840312156100a5576100a46100ee565b5b60006100b38482850161007a565b91505092915050565b60006100c7826100ce565b9050919050565b600073ffffffffffffffffffffffffffffffffffffffff82169050919050565b600080fd5b6100fc816100bc565b811461010757600080fd5b50565b610eeb806200011a6000396000f3fe608060405234801561001057600080fd5b506004361061004c5760003560e01c806347946e6714610051578063514f6477146100815780636c167e031461009d578063a2e34586146100bb575b600080fd5b61006b60048036038101906100669190610960565b6100ed565b6040516100789190610ac0565b60405180910390f35b61009b600480360381019061009691906108f1565b610237565b005b6100a5610592565b6040516100b29190610aa5565b60405180910390f35b6100d560048036038101906100d091906108c4565b6105b6565b6040516100e493929190610adb565b60405180910390f35b600080600160008781526020019081526020016000209050600081600401805461011690610cd2565b9050141561012857600091505061022f565b8060030160009054906101000a900473ffffffffffffffffffffffffffffffffffffffff1673ffffffffffffffffffffffffffffffffffffffff163373ffffffffffffffffffffffffffffffffffffffff16146101ba576040517f08c379a00000000000000000000000000000000000000000000000000000000081526004016101b190610b39565b60405180910390fd5b848160000154106101cf57600091505061022f565b8481600001819055508381600101819055508281600201819055507f6d2a3142b40a0ea61889c3d0b7335628e28e5ba47cb5eea91109bb783259e8724387878787604051610221959493929190610b79565b60405180910390a160019150505b949350505050565b60008060009054906101000a900473ffffffffffffffffffffffffffffffffffffffff16905060008173ffffffffffffffffffffffffffffffffffffffff16637485994d856040518263ffffffff1660e01b81526004016102989190610aa5565b60206040518083038186803b1580156102b057600080fd5b505afa1580156102c4573d6000803e3d6000fd5b505050506040513d601f19601f820116820180604052508101906102e89190610897565b90508061032a576040517f08c379a000000000000000000000000000000000000000000000000000000000815260040161032190610b19565b60405180910390fd5b6000600160008781526020019081526020016000206040518060a00160405290816000820154815260200160018201548152602001600282015481526020016003820160009054906101000a900473ffffffffffffffffffffffffffffffffffffffff1673ffffffffffffffffffffffffffffffffffffffff1673ffffffffffffffffffffffffffffffffffffffff1681526020016004820180546103ce90610cd2565b80601f01602080910402602001604051908101604052809291908181526020018280546103fa90610cd2565b80156104475780601f1061041c57610100808354040283529160200191610447565b820191906000526020600020905b81548152906001019060200180831161042a57829003601f168201915b505050505081525050905060008160800151511461049a576040517f08c379a000000000000000000000000000000000000000000000000000000000815260040161049190610b59565b60405180910390fd5b84816060019073ffffffffffffffffffffffffffffffffffffffff16908173ffffffffffffffffffffffffffffffffffffffff168152505083816080018190525060008160200181815250506000816040018181525050806001600088815260200190815260200160002060008201518160000155602082015181600101556040820151816002015560608201518160030160006101000a81548173ffffffffffffffffffffffffffffffffffffffff021916908373ffffffffffffffffffffffffffffffffffffffff1602179055506080820151816004019080519060200190610586929190610730565b50905050505050505050565b60008054906101000a900473ffffffffffffffffffffffffffffffffffffffff1681565b60606000806000600160008681526020019081526020016000206040518060a00160405290816000820154815260200160018201548152602001600282015481526020016003820160009054906101000a900473ffffffffffffffffffffffffffffffffffffffff1673ffffffffffffffffffffffffffffffffffffffff1673ffffffffffffffffffffffffffffffffffffffff16815260200160048201805461065f90610cd2565b80601f016020809104026020016040519081016040528092919081815260200182805461068b90610cd2565b80156106d85780601f106106ad576101008083540402835291602001916106d8565b820191906000526020600020905b8154815290600101906020018083116106bb57829003601f168201915b5050505050815250509050600081608001515114156107125760008060405180602001604052806000815250919093509350935050610729565b806080015181602001518260400151935093509350505b9193909250565b82805461073c90610cd2565b90600052602060002090601f01602090048101928261075e57600085556107a5565b82601f1061077757805160ff19168380011785556107a5565b828001600101855582156107a5579182015b828111156107a4578251825591602001919060010190610789565b5b5090506107b291906107b6565b5090565b5b808211156107cf5760008160009055506001016107b7565b5090565b60006107e66107e184610bf1565b610bcc565b90508281526020810184848401111561080257610801610d98565b5b61080d848285610c90565b509392505050565b60008135905061082481610e59565b92915050565b60008151905061083981610e70565b92915050565b60008135905061084e81610e87565b92915050565b600082601f83011261086957610868610d93565b5b81356108798482602086016107d3565b91505092915050565b60008135905061089181610e9e565b92915050565b6000602082840312156108ad576108ac610da2565b5b60006108bb8482850161082a565b91505092915050565b6000602082840312156108da576108d9610da2565b5b60006108e884828501610882565b91505092915050565b60008060006060848603121561090a57610909610da2565b5b600061091886828701610882565b935050602061092986828701610815565b925050604084013567ffffffffffffffff81111561094a57610949610d9d565b5b61095686828701610854565b9150509250925092565b6000806000806080858703121561097a57610979610da2565b5b600061098887828801610882565b945050602061099987828801610882565b93505060406109aa8782880161083f565b92505060606109bb8782880161083f565b91505092959194509250565b6109d081610c3e565b82525050565b6109df81610c50565b82525050565b6109ee81610c5c565b82525050565b60006109ff82610c22565b610a098185610c2d565b9350610a19818560208601610c9f565b610a2281610da7565b840191505092915050565b6000610a3a602783610c2d565b9150610a4582610db8565b604082019050919050565b6000610a5d601a83610c2d565b9150610a6882610e07565b602082019050919050565b6000610a80601583610c2d565b9150610a8b82610e30565b602082019050919050565b610a9f81610c86565b82525050565b6000602082019050610aba60008301846109c7565b92915050565b6000602082019050610ad560008301846109d6565b92915050565b60006060820190508181036000830152610af581866109f4565b9050610b0460208301856109e5565b610b1160408301846109e5565b949350505050565b60006020820190508181036000830152610b3281610a2d565b9050919050565b60006020820190508181036000830152610b5281610a50565b9050919050565b60006020820190508181036000830152610b7281610a73565b9050919050565b600060a082019050610b8e6000830188610a96565b610b9b6020830187610a96565b610ba86040830186610a96565b610bb560608301856109e5565b610bc260808301846109e5565b9695505050505050565b6000610bd6610be7565b9050610be28282610d04565b919050565b6000604051905090565b600067ffffffffffffffff821115610c0c57610c0b610d64565b5b610c1582610da7565b9050602081019050919050565b600081519050919050565b600082825260208201905092915050565b6000610c4982610c66565b9050919050565b60008115159050919050565b6000819050919050565b600073ffffffffffffffffffffffffffffffffffffffff82169050919050565b6000819050919050565b82818337600083830152505050565b60005b83811015610cbd578082015181840152602081019050610ca2565b83811115610ccc576000848401525b50505050565b60006002820490506001821680610cea57607f821691505b60208210811415610cfe57610cfd610d35565b5b50919050565b610d0d82610da7565b810181811067ffffffffffffffff82111715610d2c57610d2b610d64565b5b80604052505050565b7f4e487b7100000000000000000000000000000000000000000000000000000000600052602260045260246000fd5b7f4e487b7100000000000000000000000000000000000000000000000000000000600052604160045260246000fd5b600080fd5b600080fd5b600080fd5b600080fd5b6000601f19601f8301169050919050565b7f6c6f6769737469634163636f756e7441646472657373206d757374206265206c60008201527f6f67697374696300000000000000000000000000000000000000000000000000602082015250565b7f496e636f7272656374206c6f676973746963206163636f756e74000000000000600082015250565b7f50726f6475637420616c72656164792061646465640000000000000000000000600082015250565b610e6281610c3e565b8114610e6d57600080fd5b50565b610e7981610c50565b8114610e8457600080fd5b50565b610e9081610c5c565b8114610e9b57600080fd5b50565b610ea781610c86565b8114610eb257600080fd5b5056fea2646970667358221220614279817f1268a23f1cf73ec3694769b3804416ff5234399faf04cc0978df4564736f6c63430008060033",
  "immutableReferences": {},
  "source": "// SPDX-License-Identifier: UNLICENSED\npragma solidity >=0.8.0 <0.9.0;\n\nimport \"./Profile.sol\";\n\ncontract Trace {\n    event ProductLocation(uint blockNumber, uint productId, uint timestamp, int latitude, int longitude);\n    event ProductTracking(uint blockNumber, address indexed logisticAccountAddress, uint productId );\n\n    struct ProductTrack {\n        uint timestamp;\n        int latitude;\n        int longitude;\n        address logisticAccountAddress;\n        bytes trackingNumber;\n    }\n\n    address public profileAddress;\n    mapping (uint => ProductTrack) _tracks;\n\n    function tracks(uint productId)\n    public\n    view\n    returns(string memory trackingNumber, int latitude, int longtitude)  {\n        ProductTrack memory t = _tracks[ productId ];\n\n        if( t.trackingNumber.length == 0 ) {\n            return (\"\", 0, 0);\n        } else {\n            return ( string(t.trackingNumber), t.latitude, t.longitude );\n        }\n    }\n\n    constructor(address _profileAddress) {\n        profileAddress = _profileAddress;\n    }\n\n    function addProduct(uint productId, address logisticAccountAddress, string memory trackingNumber)\n    public {\n        Profile pf = Profile( profileAddress );\n        bool isLogistic = pf.isLogisticOrOracle(logisticAccountAddress);\n\n        require( isLogistic, \"logisticAccountAddress must be logistic\" );\n\n        ProductTrack memory t = _tracks[ productId ];\n        \n        require( t.trackingNumber.length == 0, \"Product already added\" );\n\n        t.logisticAccountAddress = logisticAccountAddress;\n        t.trackingNumber = bytes(trackingNumber);\n        t.latitude = 0;\n        t.longitude = 0;\n\n        _tracks[ productId  ] = t;\n    }\n\n    function logLocation(uint productId, uint timestamp, int latitude, int longitude)\n    public\n    returns(bool success) {\n        ProductTrack storage t = _tracks[ productId ];\n\n        if( t.trackingNumber.length == 0 ){\n            return false;\n        }\n\n        require( msg.sender == t.logisticAccountAddress, \"Incorrect logistic account\" );\n\n        if ( t.timestamp >= timestamp ) {\n            return false;\n        }\n\n        t.timestamp = timestamp;\n        t.latitude = latitude;\n        t.longitude = longitude;\n\n        emit ProductLocation(block.number, productId, timestamp, latitude, longitude);\n\n        return true;\n    }\n}",
  "sourcePath": "/Volumes/Data/Users/rittisak/Projects/unsw/comp6452/solidity/contracts/Trace.sol",
  "compiler": {
    "name": "solc",
    "version": "0.8.6+commit.11564f7e.Emscripten.clang"
  },
  "schemaVersion": "3.4.1",
  "updatedAt": "2021-07-12T06:12:21.427Z",
  "networkType": "ethereum",
  "devdoc": {
    "kind": "dev",
    "methods": {},
    "version": 1
  },
  "userdoc": {
    "kind": "user",
    "methods": {},
    "version": 1
  }
}