{
  "contractName": "Trace",
  "abi": [
    {
      "inputs": [
        {
          "internalType": "address",
          "name": "_profileAddress",
          "type": "address"
        }
      ],
      "stateMutability": "nonpayable",
      "type": "constructor"
    },
    {
      "anonymous": false,
      "inputs": [
        {
          "indexed": false,
          "internalType": "uint256",
          "name": "blockNumber",
          "type": "uint256"
        },
        {
          "indexed": true,
          "internalType": "uint256",
          "name": "productId",
          "type": "uint256"
        },
        {
          "indexed": true,
          "internalType": "uint256",
          "name": "timestamp",
          "type": "uint256"
        },
        {
          "indexed": false,
          "internalType": "int256",
          "name": "latitude",
          "type": "int256"
        },
        {
          "indexed": false,
          "internalType": "int256",
          "name": "longitude",
          "type": "int256"
        }
      ],
      "name": "ProductLocation",
      "type": "event"
    },
    {
      "anonymous": false,
      "inputs": [
        {
          "indexed": true,
          "internalType": "uint256",
          "name": "blockNumber",
          "type": "uint256"
        },
        {
          "indexed": true,
          "internalType": "uint256",
          "name": "productId",
          "type": "uint256"
        }
      ],
      "name": "ProductLocationRequest",
      "type": "event"
    },
    {
      "anonymous": false,
      "inputs": [
        {
          "indexed": false,
          "internalType": "uint256",
          "name": "blockNumber",
          "type": "uint256"
        },
        {
          "indexed": true,
          "internalType": "address",
          "name": "logisticAccountAddress",
          "type": "address"
        },
        {
          "indexed": false,
          "internalType": "uint256",
          "name": "productId",
          "type": "uint256"
        }
      ],
      "name": "ProductTracking",
      "type": "event"
    },
    {
      "inputs": [],
      "name": "profileAddress",
      "outputs": [
        {
          "internalType": "address",
          "name": "",
          "type": "address"
        }
      ],
      "stateMutability": "view",
      "type": "function",
      "constant": true
    },
    {
      "inputs": [
        {
          "internalType": "uint256",
          "name": "productId",
          "type": "uint256"
        }
      ],
      "name": "tracks",
      "outputs": [
        {
          "internalType": "string",
          "name": "trackingNumber",
          "type": "string"
        },
        {
          "internalType": "int256",
          "name": "latitude",
          "type": "int256"
        },
        {
          "internalType": "int256",
          "name": "longitude",
          "type": "int256"
        },
        {
          "internalType": "bool",
          "name": "isRequestingForLocation",
          "type": "bool"
        }
      ],
      "stateMutability": "view",
      "type": "function",
      "constant": true
    },
    {
      "inputs": [
        {
          "internalType": "uint256",
          "name": "productId",
          "type": "uint256"
        },
        {
          "internalType": "address",
          "name": "logisticAccountAddress",
          "type": "address"
        },
        {
          "internalType": "string",
          "name": "trackingNumber",
          "type": "string"
        }
      ],
      "name": "addProduct",
      "outputs": [],
      "stateMutability": "nonpayable",
      "type": "function"
    },
    {
      "inputs": [
        {
          "internalType": "uint256",
          "name": "productId",
          "type": "uint256"
        },
        {
          "internalType": "uint256",
          "name": "timestamp",
          "type": "uint256"
        },
        {
          "internalType": "int256",
          "name": "latitude",
          "type": "int256"
        },
        {
          "internalType": "int256",
          "name": "longitude",
          "type": "int256"
        }
      ],
      "name": "logLocation",
      "outputs": [
        {
          "internalType": "bool",
          "name": "success",
          "type": "bool"
        }
      ],
      "stateMutability": "nonpayable",
      "type": "function"
    },
    {
      "inputs": [
        {
          "internalType": "uint256",
          "name": "productId",
          "type": "uint256"
        }
      ],
      "name": "requestForLocation",
      "outputs": [
        {
          "internalType": "bool",
          "name": "",
          "type": "bool"
        }
      ],
      "stateMutability": "nonpayable",
      "type": "function"
    }
  ],
  "bytecode": "0x60806040523480156200001157600080fd5b506040516200130a3803806200130a833981810160405281019062000037919062000095565b806000806101000a81548173ffffffffffffffffffffffffffffffffffffffff021916908373ffffffffffffffffffffffffffffffffffffffff160217905550506200011a565b6000815190506200008f8162000100565b92915050565b600060208284031215620000ae57620000ad620000fb565b5b6000620000be848285016200007e565b91505092915050565b6000620000d482620000db565b9050919050565b600073ffffffffffffffffffffffffffffffffffffffff82169050919050565b600080fd5b6200010b81620000c7565b81146200011757600080fd5b50565b6111e0806200012a6000396000f3fe608060405234801561001057600080fd5b50600436106100575760003560e01c806347946e671461005c578063514f64771461008c5780636c167e03146100a8578063a2e34586146100c6578063fc066b6e146100f9575b600080fd5b61007660048036038101906100719190610bb5565b610129565b6040516100839190610d15565b60405180910390f35b6100a660048036038101906100a19190610b46565b61027e565b005b6100b0610678565b6040516100bd9190610cfa565b60405180910390f35b6100e060048036038101906100db9190610b19565b61069c565b6040516100f09493929190610d30565b60405180910390f35b610113600480360381019061010e9190610b19565b610848565b6040516101209190610d15565b60405180910390f35b600080600160008781526020019081526020016000209050600081600401805461015290610f98565b90501415610164576000915050610276565b8060030160009054906101000a900473ffffffffffffffffffffffffffffffffffffffff1673ffffffffffffffffffffffffffffffffffffffff163373ffffffffffffffffffffffffffffffffffffffff16146101f6576040517f08c379a00000000000000000000000000000000000000000000000000000000081526004016101ed90610d9c565b60405180910390fd5b8060060160009054906101000a900460ff161561024e578481600001541015610227576102268187878787610926565b5b60008160060160006101000a81548160ff0219169083151502179055506001915050610276565b84816000015410610263576000915050610276565b6102708187878787610926565b60019150505b949350505050565b60008060009054906101000a900473ffffffffffffffffffffffffffffffffffffffff16905060008173ffffffffffffffffffffffffffffffffffffffff16637485994d856040518263ffffffff1660e01b81526004016102df9190610cfa565b60206040518083038186803b1580156102f757600080fd5b505afa15801561030b573d6000803e3d6000fd5b505050506040513d601f19601f8201168201806040525081019061032f9190610aec565b905080610371576040517f08c379a000000000000000000000000000000000000000000000000000000000815260040161036890610d7c565b60405180910390fd5b6000600160008781526020019081526020016000206040518060e00160405290816000820154815260200160018201548152602001600282015481526020016003820160009054906101000a900473ffffffffffffffffffffffffffffffffffffffff1673ffffffffffffffffffffffffffffffffffffffff1673ffffffffffffffffffffffffffffffffffffffff16815260200160048201805461041590610f98565b80601f016020809104026020016040519081016040528092919081815260200182805461044190610f98565b801561048e5780601f106104635761010080835404028352916020019161048e565b820191906000526020600020905b81548152906001019060200180831161047157829003601f168201915b50505050508152602001600582015481526020016006820160009054906101000a900460ff1615151515815250509050600081608001515114610506576040517f08c379a00000000000000000000000000000000000000000000000000000000081526004016104fd90610dbc565b60405180910390fd5b84816060019073ffffffffffffffffffffffffffffffffffffffff16908173ffffffffffffffffffffffffffffffffffffffff168152505083816080018190525060008160200181815250506000816040018181525050806001600088815260200190815260200160002060008201518160000155602082015181600101556040820151816002015560608201518160030160006101000a81548173ffffffffffffffffffffffffffffffffffffffff021916908373ffffffffffffffffffffffffffffffffffffffff16021790555060808201518160040190805190602001906105f2929190610985565b5060a0820151816005015560c08201518160060160006101000a81548160ff0219169083151502179055509050508473ffffffffffffffffffffffffffffffffffffffff167f8f90dc0427c643f20a5c45aed3a2fff0cbfeefa4ce19b05b7b375fd6a7fedd2a4388604051610668929190610e13565b60405180910390a2505050505050565b60008054906101000a900473ffffffffffffffffffffffffffffffffffffffff1681565b6060600080600080600160008781526020019081526020016000206040518060e00160405290816000820154815260200160018201548152602001600282015481526020016003820160009054906101000a900473ffffffffffffffffffffffffffffffffffffffff1673ffffffffffffffffffffffffffffffffffffffff1673ffffffffffffffffffffffffffffffffffffffff16815260200160048201805461074690610f98565b80601f016020809104026020016040519081016040528092919081815260200182805461077290610f98565b80156107bf5780601f10610794576101008083540402835291602001916107bf565b820191906000526020600020905b8154815290600101906020018083116107a257829003601f168201915b50505050508152602001600582015481526020016006820160009054906101000a900460ff16151515158152505090506000816080015151141561082357600080600060405180602001604052806000815250929190945094509450945050610841565b8060800151816020015182604001518360c001519450945094509450505b9193509193565b600080600160008481526020019081526020016000209050600081600401805461087190610f98565b90501415610883576000915050610921565b8060060160009054906101000a900460ff16156108a4576000915050610921565b43816005015411156108ba576000915050610921565b60018160060160006101000a81548160ff021916908315150217905550610672436108e59190610eae565b816005018190555082437ff4dd5b6b32c59c8f808c5d62d01a0485a38568e96357b0eb6b070f1757445da560405160405180910390a360019150505b919050565b82856000018190555081856001018190555080856002018190555082847f6d2a3142b40a0ea61889c3d0b7335628e28e5ba47cb5eea91109bb783259e87243858560405161097693929190610ddc565b60405180910390a35050505050565b82805461099190610f98565b90600052602060002090601f0160209004810192826109b357600085556109fa565b82601f106109cc57805160ff19168380011785556109fa565b828001600101855582156109fa579182015b828111156109f95782518255916020019190600101906109de565b5b509050610a079190610a0b565b5090565b5b80821115610a24576000816000905550600101610a0c565b5090565b6000610a3b610a3684610e61565b610e3c565b905082815260208101848484011115610a5757610a5661108d565b5b610a62848285610f56565b509392505050565b600081359050610a798161114e565b92915050565b600081519050610a8e81611165565b92915050565b600081359050610aa38161117c565b92915050565b600082601f830112610abe57610abd611088565b5b8135610ace848260208601610a28565b91505092915050565b600081359050610ae681611193565b92915050565b600060208284031215610b0257610b01611097565b5b6000610b1084828501610a7f565b91505092915050565b600060208284031215610b2f57610b2e611097565b5b6000610b3d84828501610ad7565b91505092915050565b600080600060608486031215610b5f57610b5e611097565b5b6000610b6d86828701610ad7565b9350506020610b7e86828701610a6a565b925050604084013567ffffffffffffffff811115610b9f57610b9e611092565b5b610bab86828701610aa9565b9150509250925092565b60008060008060808587031215610bcf57610bce611097565b5b6000610bdd87828801610ad7565b9450506020610bee87828801610ad7565b9350506040610bff87828801610a94565b9250506060610c1087828801610a94565b91505092959194509250565b610c2581610f04565b82525050565b610c3481610f16565b82525050565b610c4381610f22565b82525050565b6000610c5482610e92565b610c5e8185610e9d565b9350610c6e818560208601610f65565b610c778161109c565b840191505092915050565b6000610c8f603683610e9d565b9150610c9a826110ad565b604082019050919050565b6000610cb2601a83610e9d565b9150610cbd826110fc565b602082019050919050565b6000610cd5601583610e9d565b9150610ce082611125565b602082019050919050565b610cf481610f4c565b82525050565b6000602082019050610d0f6000830184610c1c565b92915050565b6000602082019050610d2a6000830184610c2b565b92915050565b60006080820190508181036000830152610d4a8187610c49565b9050610d596020830186610c3a565b610d666040830185610c3a565b610d736060830184610c2b565b95945050505050565b60006020820190508181036000830152610d9581610c82565b9050919050565b60006020820190508181036000830152610db581610ca5565b9050919050565b60006020820190508181036000830152610dd581610cc8565b9050919050565b6000606082019050610df16000830186610ceb565b610dfe6020830185610c3a565b610e0b6040830184610c3a565b949350505050565b6000604082019050610e286000830185610ceb565b610e356020830184610ceb565b9392505050565b6000610e46610e57565b9050610e528282610fca565b919050565b6000604051905090565b600067ffffffffffffffff821115610e7c57610e7b611059565b5b610e858261109c565b9050602081019050919050565b600081519050919050565b600082825260208201905092915050565b6000610eb982610f4c565b9150610ec483610f4c565b9250827fffffffffffffffffffffffffffffffffffffffffffffffffffffffffffffffff03821115610ef957610ef8610ffb565b5b828201905092915050565b6000610f0f82610f2c565b9050919050565b60008115159050919050565b6000819050919050565b600073ffffffffffffffffffffffffffffffffffffffff82169050919050565b6000819050919050565b82818337600083830152505050565b60005b83811015610f83578082015181840152602081019050610f68565b83811115610f92576000848401525b50505050565b60006002820490506001821680610fb057607f821691505b60208210811415610fc457610fc361102a565b5b50919050565b610fd38261109c565b810181811067ffffffffffffffff82111715610ff257610ff1611059565b5b80604052505050565b7f4e487b7100000000000000000000000000000000000000000000000000000000600052601160045260246000fd5b7f4e487b7100000000000000000000000000000000000000000000000000000000600052602260045260246000fd5b7f4e487b7100000000000000000000000000000000000000000000000000000000600052604160045260246000fd5b600080fd5b600080fd5b600080fd5b600080fd5b6000601f19601f8301169050919050565b7f6c6f6769737469634163636f756e7441646472657373206d757374206265206160008201527f206c6f676973746963206f7220616e206f7261636c6500000000000000000000602082015250565b7f496e636f7272656374206c6f676973746963206163636f756e74000000000000600082015250565b7f50726f6475637420616c72656164792061646465640000000000000000000000600082015250565b61115781610f04565b811461116257600080fd5b50565b61116e81610f16565b811461117957600080fd5b50565b61118581610f22565b811461119057600080fd5b50565b61119c81610f4c565b81146111a757600080fd5b5056fea2646970667358221220dc2a7096db7abbecd0ee36fbf47fc9ab9c5ff56c5f7a94be6b5c30d726607d0564736f6c63430008060033",
  "immutableReferences": {},
  "source": "// SPDX-License-Identifier: UNLICENSED\npragma solidity >=0.8.0 <0.9.0;\n\nimport \"./Profile.sol\";\n\ncontract Trace {\n    event ProductTracking(uint blockNumber, address indexed logisticAccountAddress, uint productId );\n    event ProductLocation(uint blockNumber, uint indexed productId, uint indexed timestamp, int latitude, int longitude);\n    event ProductLocationRequest(uint indexed blockNumber, uint indexed productId);\n\n    struct ProductTrack {\n        uint timestamp;\n        int latitude;\n        int longitude;\n        address logisticAccountAddress;\n        bytes trackingNumber;\n        uint nextRequestForLocationBlockNumber;\n        bool isRequestingForLocation;\n    }\n\n    address public profileAddress;\n    mapping (uint => ProductTrack) _tracks;\n\n    function tracks(uint productId)\n    public\n    view\n    returns(string memory trackingNumber, int latitude, int longitude, bool isRequestingForLocation)  {\n        ProductTrack memory t = _tracks[ productId ];\n\n        if( t.trackingNumber.length == 0 ) {\n            return (\"\", 0, 0, false);\n        } else {\n            return ( string(t.trackingNumber), t.latitude, t.longitude, t.isRequestingForLocation );\n        }\n    }\n\n    constructor(address _profileAddress) {\n        profileAddress = _profileAddress;\n    }\n\n    function addProduct(uint productId, address logisticAccountAddress, string memory trackingNumber)\n    public {\n        Profile pf = Profile( profileAddress );\n        bool isLogistic = pf.isLogisticOrOracle(logisticAccountAddress);\n\n        require( isLogistic, \"logisticAccountAddress must be a logistic or an oracle\" );\n\n        ProductTrack memory t = _tracks[ productId ];\n        \n        require( t.trackingNumber.length == 0, \"Product already added\" );\n\n        t.logisticAccountAddress = logisticAccountAddress;\n        t.trackingNumber = bytes(trackingNumber);\n        t.latitude = 0;\n        t.longitude = 0;\n\n        _tracks[ productId  ] = t;\n\n        emit ProductTracking(block.number, logisticAccountAddress, productId);\n    }\n\n    function logLocation(uint productId, uint timestamp, int latitude, int longitude)\n    public\n    returns(bool success) {\n        ProductTrack storage t = _tracks[ productId ];\n\n        if( t.trackingNumber.length == 0 ) {\n            return false;\n        }\n\n        require( msg.sender == t.logisticAccountAddress, \"Incorrect logistic account\" );\n\n        if( t.isRequestingForLocation ) {\n            if ( t.timestamp < timestamp ) {\n                saveProductLocation(t, productId, timestamp, latitude, longitude);\n            }\n\n            t.isRequestingForLocation = false;\n\n            // TODO:: Insert callback code here\n\n            return true;\n        } else {\n            if ( t.timestamp >= timestamp ) {\n                return false;\n            }\n\n            saveProductLocation(t, productId, timestamp, latitude, longitude);\n\n            // TODO:: Insert callback code here\n\n            return true;\n        }\n    }\n\n    function requestForLocation(uint productId) public returns (bool) {\n        ProductTrack storage t = _tracks[ productId ];\n\n        if( t.trackingNumber.length == 0 ) {\n            return false;\n        }\n\n        if( t.isRequestingForLocation ) {\n            return false;\n        }\n\n        // If the next allow value is more then current block number then the request is denied.\n        if( t.nextRequestForLocationBlockNumber > block.number ) {\n            return false;\n        }\n\n        t.isRequestingForLocation = true;\n\n        // Update the next request block number to be roughly next 6 hours.\n        // This simply work as a rate limit\n        t.nextRequestForLocationBlockNumber = block.number + 1650;\n\n        emit ProductLocationRequest(block.number, productId);\n\n        return true;\n    }\n\n    function saveProductLocation( ProductTrack storage t, uint productId, uint timestamp, int latitude, int longitude ) \n    private\n    {\n        t.timestamp = timestamp;\n        t.latitude = latitude;\n        t.longitude = longitude;\n\n        emit ProductLocation(block.number, productId, timestamp, latitude, longitude);\n    }\n}",
  "sourcePath": "/Volumes/Data/Users/rittisak/Projects/unsw/comp6452/solidity/contracts/Trace.sol",
  "compiler": {
    "name": "solc",
    "version": "0.8.6+commit.11564f7e.Emscripten.clang"
  },
  "schemaVersion": "3.4.1",
  "updatedAt": "2021-07-13T10:22:02.407Z",
  "networkType": "ethereum",
  "devdoc": {
    "kind": "dev",
    "methods": {},
    "version": 1
  },
  "userdoc": {
    "kind": "user",
    "methods": {},
    "version": 1
  }
}